{
  "_format": "hh-sol-artifact-1",
  "contractName": "StartSimpleVotingMinmlExample",
  "sourceName": "src/examples/integrations/StartSimpleVoting.sol",
  "abi": [
    {
      "inputs": [
        {
          "internalType": "address",
          "name": "_votingContract",
          "type": "address"
        }
      ],
      "stateMutability": "nonpayable",
      "type": "constructor"
    },
    {
      "inputs": [],
      "name": "deployer",
      "outputs": [
        {
          "internalType": "address",
          "name": "",
          "type": "address"
        }
      ],
      "stateMutability": "view",
      "type": "function"
    },
    {
      "inputs": [],
      "name": "i",
      "outputs": [
        {
          "internalType": "uint256",
          "name": "",
          "type": "uint256"
        }
      ],
      "stateMutability": "view",
      "type": "function"
    },
    {
      "inputs": [],
      "name": "increment",
      "outputs": [],
      "stateMutability": "nonpayable",
      "type": "function"
    },
    {
      "inputs": [
        {
          "internalType": "uint256",
          "name": "_i",
          "type": "uint256"
        }
      ],
      "name": "reset",
      "outputs": [],
      "stateMutability": "nonpayable",
      "type": "function"
    },
    {
      "inputs": [
        {
          "internalType": "bytes",
          "name": "votingParams",
          "type": "bytes"
        },
        {
          "internalType": "bytes",
          "name": "callback",
          "type": "bytes"
        }
      ],
      "name": "start",
      "outputs": [],
      "stateMutability": "nonpayable",
      "type": "function"
    },
    {
      "inputs": [],
      "name": "votingContract",
      "outputs": [
        {
          "internalType": "address",
          "name": "",
          "type": "address"
        }
      ],
      "stateMutability": "view",
      "type": "function"
    }
  ],
  "bytecode": "0x608060405234801561001057600080fd5b50604051610a2a380380610a2a8339818101604052810190610032919061011d565b80600160006101000a81548173ffffffffffffffffffffffffffffffffffffffff021916908373ffffffffffffffffffffffffffffffffffffffff16021790555033600260006101000a81548173ffffffffffffffffffffffffffffffffffffffff021916908373ffffffffffffffffffffffffffffffffffffffff1602179055505061014a565b600080fd5b600073ffffffffffffffffffffffffffffffffffffffff82169050919050565b60006100ea826100bf565b9050919050565b6100fa816100df565b811461010557600080fd5b50565b600081519050610117816100f1565b92915050565b600060208284031215610133576101326100ba565b5b600061014184828501610108565b91505092915050565b6108d1806101596000396000f3fe608060405234801561001057600080fd5b50600436106100625760003560e01c80631080156e14610067578063310bd74b14610083578063c1fc006a1461009f578063d09de08a146100bd578063d5f39488146100c7578063e5aa3d58146100e5575b600080fd5b610081600480360381019061007c9190610504565b610103565b005b61009d600480360381019061009891906105b6565b6101b4565b005b6100a761024e565b6040516100b49190610624565b60405180910390f35b6100c5610274565b005b6100cf61028b565b6040516100dc9190610624565b60405180910390f35b6100ed6102b1565b6040516100fa919061064e565b60405180910390f35b61010c836102b7565b600160009054906101000a900473ffffffffffffffffffffffffffffffffffffffff1673ffffffffffffffffffffffffffffffffffffffff16631080156e8484846040518463ffffffff1660e01b815260040161016b9392919061071e565b6020604051808303816000875af115801561018a573d6000803e3d6000fd5b505050506040513d601f19601f820116820180604052508101906101ae919061076c565b50505050565b3373ffffffffffffffffffffffffffffffffffffffff16600260009054906101000a900473ffffffffffffffffffffffffffffffffffffffff1673ffffffffffffffffffffffffffffffffffffffff1614610244576040517f08c379a000000000000000000000000000000000000000000000000000000000815260040161023b906107f6565b60405180910390fd5b8060008190555050565b600160009054906101000a900473ffffffffffffffffffffffffffffffffffffffff1681565b60016000546102839190610845565b600081905550565b600260009054906101000a900473ffffffffffffffffffffffffffffffffffffffff1681565b60005481565b600260009054906101000a900473ffffffffffffffffffffffffffffffffffffffff1673ffffffffffffffffffffffffffffffffffffffff163373ffffffffffffffffffffffffffffffffffffffff1614610347576040517f08c379a000000000000000000000000000000000000000000000000000000000815260040161033e906107f6565b60405180910390fd5b50565b6000604051905090565b600080fd5b600080fd5b600080fd5b600080fd5b6000601f19601f8301169050919050565b7f4e487b7100000000000000000000000000000000000000000000000000000000600052604160045260246000fd5b6103b182610368565b810181811067ffffffffffffffff821117156103d0576103cf610379565b5b80604052505050565b60006103e361034a565b90506103ef82826103a8565b919050565b600067ffffffffffffffff82111561040f5761040e610379565b5b61041882610368565b9050602081019050919050565b82818337600083830152505050565b6000610447610442846103f4565b6103d9565b90508281526020810184848401111561046357610462610363565b5b61046e848285610425565b509392505050565b600082601f83011261048b5761048a61035e565b5b813561049b848260208601610434565b91505092915050565b600080fd5b600080fd5b60008083601f8401126104c4576104c361035e565b5b8235905067ffffffffffffffff8111156104e1576104e06104a4565b5b6020830191508360018202830111156104fd576104fc6104a9565b5b9250929050565b60008060006040848603121561051d5761051c610354565b5b600084013567ffffffffffffffff81111561053b5761053a610359565b5b61054786828701610476565b935050602084013567ffffffffffffffff81111561056857610567610359565b5b610574868287016104ae565b92509250509250925092565b6000819050919050565b61059381610580565b811461059e57600080fd5b50565b6000813590506105b08161058a565b92915050565b6000602082840312156105cc576105cb610354565b5b60006105da848285016105a1565b91505092915050565b600073ffffffffffffffffffffffffffffffffffffffff82169050919050565b600061060e826105e3565b9050919050565b61061e81610603565b82525050565b60006020820190506106396000830184610615565b92915050565b61064881610580565b82525050565b6000602082019050610663600083018461063f565b92915050565b600081519050919050565b600082825260208201905092915050565b60005b838110156106a3578082015181840152602081019050610688565b838111156106b2576000848401525b50505050565b60006106c382610669565b6106cd8185610674565b93506106dd818560208601610685565b6106e681610368565b840191505092915050565b60006106fd8385610674565b935061070a838584610425565b61071383610368565b840190509392505050565b6000604082019050818103600083015261073881866106b8565b9050818103602083015261074d8184866106f1565b9050949350505050565b6000815190506107668161058a565b92915050565b60006020828403121561078257610781610354565b5b600061079084828501610757565b91505092915050565b600082825260208201905092915050565b7f4f6e6c79206465706c6f79657200000000000000000000000000000000000000600082015250565b60006107e0600d83610799565b91506107eb826107aa565b602082019050919050565b6000602082019050818103600083015261080f816107d3565b9050919050565b7f4e487b7100000000000000000000000000000000000000000000000000000000600052601160045260246000fd5b600061085082610580565b915061085b83610580565b9250827fffffffffffffffffffffffffffffffffffffffffffffffffffffffffffffffff038211156108905761088f610816565b5b82820190509291505056fea26469706673582212200864c4e452cc2a9da2f99e3d90c87cc4e4b05e3d17d9d3e8ed22c44f3e809fd364736f6c634300080d0033",
  "linkReferences": {},
  "deployedLinkReferences": {}
}