{
  "_format": "hh-sol-artifact-1",
  "contractName": "StartSimpleVotingHooksExample",
  "sourceName": "src/examples/integrations/StartSimpleVoting.sol",
  "abi": [
    {
      "inputs": [
        {
          "internalType": "address",
          "name": "_votingContractOne",
          "type": "address"
        },
        {
          "internalType": "address",
          "name": "_votingContractTwo",
          "type": "address"
        }
      ],
      "stateMutability": "nonpayable",
      "type": "constructor"
    },
    {
      "inputs": [],
      "name": "deployer",
      "outputs": [
        {
          "internalType": "address",
          "name": "",
          "type": "address"
        }
      ],
      "stateMutability": "view",
      "type": "function"
    },
    {
      "inputs": [],
      "name": "i",
      "outputs": [
        {
          "internalType": "uint256",
          "name": "",
          "type": "uint256"
        }
      ],
      "stateMutability": "view",
      "type": "function"
    },
    {
      "inputs": [],
      "name": "increment",
      "outputs": [],
      "stateMutability": "nonpayable",
      "type": "function"
    },
    {
      "inputs": [],
      "name": "numberOfInstances",
      "outputs": [
        {
          "internalType": "uint256",
          "name": "",
          "type": "uint256"
        }
      ],
      "stateMutability": "view",
      "type": "function"
    },
    {
      "inputs": [
        {
          "internalType": "uint256",
          "name": "_i",
          "type": "uint256"
        }
      ],
      "name": "reset",
      "outputs": [],
      "stateMutability": "nonpayable",
      "type": "function"
    },
    {
      "inputs": [
        {
          "internalType": "bytes",
          "name": "votingParams",
          "type": "bytes"
        },
        {
          "internalType": "bytes",
          "name": "callback",
          "type": "bytes"
        }
      ],
      "name": "start",
      "outputs": [],
      "stateMutability": "nonpayable",
      "type": "function"
    }
  ],
  "bytecode": "0x608060405234801561001057600080fd5b50604051610c03380380610c0383398181016040528101906100329190610197565b33600160006101000a81548173ffffffffffffffffffffffffffffffffffffffff021916908373ffffffffffffffffffffffffffffffffffffffff1602179055508160036000600162ffffff1662ffffff16815260200190815260200160002060006101000a81548173ffffffffffffffffffffffffffffffffffffffff021916908373ffffffffffffffffffffffffffffffffffffffff1602179055508060036000600262ffffff1662ffffff16815260200190815260200160002060006101000a81548173ffffffffffffffffffffffffffffffffffffffff021916908373ffffffffffffffffffffffffffffffffffffffff16021790555050506101d7565b600080fd5b600073ffffffffffffffffffffffffffffffffffffffff82169050919050565b600061016482610139565b9050919050565b61017481610159565b811461017f57600080fd5b50565b6000815190506101918161016b565b92915050565b600080604083850312156101ae576101ad610134565b5b60006101bc85828601610182565b92505060206101cd85828601610182565b9150509250929050565b610a1d806101e66000396000f3fe608060405234801561001057600080fd5b50600436106100625760003560e01c80631080156e14610067578063310bd74b14610083578063481168a61461009f578063d09de08a146100bd578063d5f39488146100c7578063e5aa3d58146100e5575b600080fd5b610081600480360381019061007c9190610568565b610103565b005b61009d6004803603810190610098919061061a565b6101ad565b005b6100a7610247565b6040516100b49190610656565b60405180910390f35b6100c561024d565b005b6100cf610264565b6040516100dc91906106b2565b60405180910390f35b6100ed61028a565b6040516100fa9190610656565b60405180910390f35b61010e838383610290565b600061011a8383610325565b73ffffffffffffffffffffffffffffffffffffffff16631080156e8585856040518463ffffffff1660e01b815260040161015693929190610782565b6020604051808303816000875af1158015610175573d6000803e3d6000fd5b505050506040513d601f19601f8201168201806040525081019061019991906107d0565b90506101a78185858561038e565b50505050565b3373ffffffffffffffffffffffffffffffffffffffff16600160009054906101000a900473ffffffffffffffffffffffffffffffffffffffff1673ffffffffffffffffffffffffffffffffffffffff161461023d576040517f08c379a00000000000000000000000000000000000000000000000000000000081526004016102349061085a565b60405180910390fd5b8060008190555050565b60025481565b600160005461025c91906108a9565b600081905550565b600160009054906101000a900473ffffffffffffffffffffffffffffffffffffffff1681565b60005481565b600160009054906101000a900473ffffffffffffffffffffffffffffffffffffffff1673ffffffffffffffffffffffffffffffffffffffff163373ffffffffffffffffffffffffffffffffffffffff1614610320576040517f08c379a00000000000000000000000000000000000000000000000000000000081526004016103179061085a565b60405180910390fd5b505050565b600060036000848460009060039261033f93929190610909565b9061034a9190610988565b60e81c62ffffff1662ffffff16815260200190815260200160002060009054906101000a900473ffffffffffffffffffffffffffffffffffffffff16905092915050565b6001600260008282546103a191906108a9565b9250508190555050505050565b6000604051905090565b600080fd5b600080fd5b600080fd5b600080fd5b6000601f19601f8301169050919050565b7f4e487b7100000000000000000000000000000000000000000000000000000000600052604160045260246000fd5b610415826103cc565b810181811067ffffffffffffffff82111715610434576104336103dd565b5b80604052505050565b60006104476103ae565b9050610453828261040c565b919050565b600067ffffffffffffffff821115610473576104726103dd565b5b61047c826103cc565b9050602081019050919050565b82818337600083830152505050565b60006104ab6104a684610458565b61043d565b9050828152602081018484840111156104c7576104c66103c7565b5b6104d2848285610489565b509392505050565b600082601f8301126104ef576104ee6103c2565b5b81356104ff848260208601610498565b91505092915050565b600080fd5b600080fd5b60008083601f840112610528576105276103c2565b5b8235905067ffffffffffffffff81111561054557610544610508565b5b6020830191508360018202830111156105615761056061050d565b5b9250929050565b600080600060408486031215610581576105806103b8565b5b600084013567ffffffffffffffff81111561059f5761059e6103bd565b5b6105ab868287016104da565b935050602084013567ffffffffffffffff8111156105cc576105cb6103bd565b5b6105d886828701610512565b92509250509250925092565b6000819050919050565b6105f7816105e4565b811461060257600080fd5b50565b600081359050610614816105ee565b92915050565b6000602082840312156106305761062f6103b8565b5b600061063e84828501610605565b91505092915050565b610650816105e4565b82525050565b600060208201905061066b6000830184610647565b92915050565b600073ffffffffffffffffffffffffffffffffffffffff82169050919050565b600061069c82610671565b9050919050565b6106ac81610691565b82525050565b60006020820190506106c760008301846106a3565b92915050565b600081519050919050565b600082825260208201905092915050565b60005b838110156107075780820151818401526020810190506106ec565b83811115610716576000848401525b50505050565b6000610727826106cd565b61073181856106d8565b93506107418185602086016106e9565b61074a816103cc565b840191505092915050565b600061076183856106d8565b935061076e838584610489565b610777836103cc565b840190509392505050565b6000604082019050818103600083015261079c818661071c565b905081810360208301526107b1818486610755565b9050949350505050565b6000815190506107ca816105ee565b92915050565b6000602082840312156107e6576107e56103b8565b5b60006107f4848285016107bb565b91505092915050565b600082825260208201905092915050565b7f4f6e6c79206465706c6f79657200000000000000000000000000000000000000600082015250565b6000610844600d836107fd565b915061084f8261080e565b602082019050919050565b6000602082019050818103600083015261087381610837565b9050919050565b7f4e487b7100000000000000000000000000000000000000000000000000000000600052601160045260246000fd5b60006108b4826105e4565b91506108bf836105e4565b9250827fffffffffffffffffffffffffffffffffffffffffffffffffffffffffffffffff038211156108f4576108f361087a565b5b828201905092915050565b600080fd5b600080fd5b6000808585111561091d5761091c6108ff565b5b8386111561092e5761092d610904565b5b6001850283019150848603905094509492505050565b600082905092915050565b60007fffffff000000000000000000000000000000000000000000000000000000000082169050919050565b600082821b905092915050565b60006109948383610944565b8261099f813561094f565b925060038210156109df576109da7fffffff00000000000000000000000000000000000000000000000000000000008360030360080261097b565b831692505b50509291505056fea2646970667358221220a78dd8bdb953bd2e5942cdedb4e62a55e655464437e1ade1f944a3b9a7c9e11e64736f6c634300080d0033",
  "linkReferences": {},
  "deployedLinkReferences": {}
}