{
  "_format": "hh-sol-artifact-1",
  "contractName": "MajorityVoteWithTokenQuorumAndOptionalDVGuard",
  "sourceName": "src/implementations/votingContracts/SimpleMajorityVote/MajorityVoteWithTokenQuorumAndOptionalDVGuard.sol",
  "abi": [
    {
      "inputs": [
        {
          "internalType": "uint256",
          "name": "identifier",
          "type": "uint256"
        },
        {
          "internalType": "address",
          "name": "voter",
          "type": "address"
        }
      ],
      "name": "AlreadyVoted",
      "type": "error"
    },
    {
      "inputs": [
        {
          "internalType": "uint256",
          "name": "identifier",
          "type": "uint256"
        },
        {
          "internalType": "uint256",
          "name": "deadline",
          "type": "uint256"
        }
      ],
      "name": "DeadlineHasNotPassed",
      "type": "error"
    },
    {
      "inputs": [
        {
          "internalType": "uint256",
          "name": "identifier",
          "type": "uint256"
        },
        {
          "internalType": "uint256",
          "name": "deadline",
          "type": "uint256"
        }
      ],
      "name": "DeadlineHasPassed",
      "type": "error"
    },
    {
      "inputs": [
        {
          "internalType": "uint256",
          "name": "identifier",
          "type": "uint256"
        }
      ],
      "name": "ExpectedReturnError",
      "type": "error"
    },
    {
      "inputs": [
        {
          "internalType": "uint256",
          "name": "identifier",
          "type": "uint256"
        },
        {
          "internalType": "uint256",
          "name": "status",
          "type": "uint256"
        }
      ],
      "name": "ImplementingNotPermitted",
      "type": "error"
    },
    {
      "inputs": [],
      "name": "InvalidCalldata",
      "type": "error"
    },
    {
      "inputs": [
        {
          "internalType": "uint256",
          "name": "quorum",
          "type": "uint256"
        }
      ],
      "name": "QuorumExceeded",
      "type": "error"
    },
    {
      "inputs": [
        {
          "internalType": "uint256",
          "name": "identifier",
          "type": "uint256"
        },
        {
          "internalType": "uint256",
          "name": "status",
          "type": "uint256"
        }
      ],
      "name": "StatusError",
      "type": "error"
    },
    {
      "anonymous": false,
      "inputs": [
        {
          "indexed": false,
          "internalType": "uint256",
          "name": "identifier",
          "type": "uint256"
        }
      ],
      "name": "Implemented",
      "type": "event"
    },
    {
      "anonymous": false,
      "inputs": [
        {
          "indexed": false,
          "internalType": "uint256",
          "name": "identifier",
          "type": "uint256"
        }
      ],
      "name": "NotImplemented",
      "type": "event"
    },
    {
      "anonymous": false,
      "inputs": [
        {
          "indexed": true,
          "internalType": "uint256",
          "name": "identifier",
          "type": "uint256"
        },
        {
          "indexed": false,
          "internalType": "address",
          "name": "caller",
          "type": "address"
        }
      ],
      "name": "VotingInstanceStarted",
      "type": "event"
    },
    {
      "inputs": [
        {
          "internalType": "bytes",
          "name": "votingParams",
          "type": "bytes"
        }
      ],
      "name": "decodeParameters",
      "outputs": [
        {
          "internalType": "address",
          "name": "token",
          "type": "address"
        },
        {
          "internalType": "uint256",
          "name": "duration",
          "type": "uint256"
        },
        {
          "internalType": "uint256",
          "name": "quorumInPercentmilleOfSupply",
          "type": "uint256"
        },
        {
          "internalType": "bool",
          "name": "expectReturnValue",
          "type": "bool"
        },
        {
          "internalType": "enum HandleDoubleVotingGuard.VotingGuard",
          "name": "guardOnSenderVotingDataOrNone",
          "type": "uint8"
        }
      ],
      "stateMutability": "pure",
      "type": "function"
    },
    {
      "inputs": [
        {
          "internalType": "address",
          "name": "token",
          "type": "address"
        },
        {
          "internalType": "uint256",
          "name": "duration",
          "type": "uint256"
        },
        {
          "internalType": "uint256",
          "name": "quorumInPercentmilleOfSupply",
          "type": "uint256"
        },
        {
          "internalType": "bool",
          "name": "expectReturnValue",
          "type": "bool"
        },
        {
          "internalType": "enum HandleDoubleVotingGuard.VotingGuard",
          "name": "guardOnSenderVotingDataOrNone",
          "type": "uint8"
        }
      ],
      "name": "encodeParameters",
      "outputs": [
        {
          "internalType": "bytes",
          "name": "votingParams",
          "type": "bytes"
        }
      ],
      "stateMutability": "pure",
      "type": "function"
    },
    {
      "inputs": [],
      "name": "getCurrentIndex",
      "outputs": [
        {
          "internalType": "uint256",
          "name": "currentIndex",
          "type": "uint256"
        }
      ],
      "stateMutability": "view",
      "type": "function"
    },
    {
      "inputs": [
        {
          "internalType": "uint256",
          "name": "identifier",
          "type": "uint256"
        }
      ],
      "name": "getDeadline",
      "outputs": [
        {
          "internalType": "uint256",
          "name": "",
          "type": "uint256"
        }
      ],
      "stateMutability": "view",
      "type": "function"
    },
    {
      "inputs": [
        {
          "internalType": "uint256",
          "name": "identifier",
          "type": "uint256"
        }
      ],
      "name": "getDoubleVotingGuard",
      "outputs": [
        {
          "internalType": "enum HandleDoubleVotingGuard.VotingGuard",
          "name": "",
          "type": "uint8"
        }
      ],
      "stateMutability": "view",
      "type": "function"
    },
    {
      "inputs": [
        {
          "internalType": "uint256",
          "name": "identifier",
          "type": "uint256"
        }
      ],
      "name": "getQuorum",
      "outputs": [
        {
          "internalType": "uint256",
          "name": "quorum",
          "type": "uint256"
        },
        {
          "internalType": "uint256",
          "name": "inUnitsOf",
          "type": "uint256"
        }
      ],
      "stateMutability": "view",
      "type": "function"
    },
    {
      "inputs": [
        {
          "internalType": "uint256",
          "name": "identifier",
          "type": "uint256"
        }
      ],
      "name": "getStatus",
      "outputs": [
        {
          "internalType": "uint256",
          "name": "status",
          "type": "uint256"
        }
      ],
      "stateMutability": "view",
      "type": "function"
    },
    {
      "inputs": [
        {
          "internalType": "uint256",
          "name": "identifier",
          "type": "uint256"
        }
      ],
      "name": "getTarget",
      "outputs": [
        {
          "internalType": "address",
          "name": "target",
          "type": "address"
        }
      ],
      "stateMutability": "view",
      "type": "function"
    },
    {
      "inputs": [
        {
          "internalType": "uint256",
          "name": "identifier",
          "type": "uint256"
        }
      ],
      "name": "getToken",
      "outputs": [
        {
          "internalType": "address",
          "name": "",
          "type": "address"
        }
      ],
      "stateMutability": "view",
      "type": "function"
    },
    {
      "inputs": [
        {
          "internalType": "uint256",
          "name": "identifier",
          "type": "uint256"
        },
        {
          "internalType": "bytes",
          "name": "callback",
          "type": "bytes"
        }
      ],
      "name": "implement",
      "outputs": [
        {
          "internalType": "enum IImplementResult.Response",
          "name": "",
          "type": "uint8"
        }
      ],
      "stateMutability": "payable",
      "type": "function"
    },
    {
      "inputs": [
        {
          "internalType": "uint256",
          "name": "identifier",
          "type": "uint256"
        }
      ],
      "name": "result",
      "outputs": [
        {
          "internalType": "bytes",
          "name": "resultData",
          "type": "bytes"
        }
      ],
      "stateMutability": "view",
      "type": "function"
    },
    {
      "inputs": [
        {
          "internalType": "bytes",
          "name": "votingParams",
          "type": "bytes"
        },
        {
          "internalType": "bytes",
          "name": "callback",
          "type": "bytes"
        }
      ],
      "name": "start",
      "outputs": [
        {
          "internalType": "uint256",
          "name": "identifier",
          "type": "uint256"
        }
      ],
      "stateMutability": "nonpayable",
      "type": "function"
    },
    {
      "inputs": [
        {
          "internalType": "bytes4",
          "name": "interfaceId",
          "type": "bytes4"
        }
      ],
      "name": "supportsInterface",
      "outputs": [
        {
          "internalType": "bool",
          "name": "",
          "type": "bool"
        }
      ],
      "stateMutability": "pure",
      "type": "function"
    },
    {
      "inputs": [
        {
          "internalType": "uint256",
          "name": "identifier",
          "type": "uint256"
        },
        {
          "internalType": "bytes",
          "name": "votingData",
          "type": "bytes"
        }
      ],
      "name": "vote",
      "outputs": [
        {
          "internalType": "uint256",
          "name": "",
          "type": "uint256"
        }
      ],
      "stateMutability": "nonpayable",
      "type": "function"
    }
  ],
  "bytecode": "0x608060405234801561001057600080fd5b50612401806100206000396000f3fe6080604052600436106100dd5760003560e01c80637c5a43ec1161007f578063c691207e11610059578063c691207e14610326578063e4b50cb814610367578063e6acc7cd146103a4578063f087b7fa146103e1576100dd565b80637c5a43ec1461026e57806382862275146102ac578063b88b82ba146102e9576100dd565b80631540ac51116100bb5780631540ac51146101875780631d64c4f2146101b75780633c594059146101f45780635c622a0e14610231576100dd565b806301ffc9a7146100e25780630d9005ae1461011f5780631080156e1461014a575b600080fd5b3480156100ee57600080fd5b506101096004803603810190610104919061177b565b61041e565b60405161011691906117c3565b60405180910390f35b34801561012b57600080fd5b506101346105d0565b60405161014191906117f7565b60405180910390f35b34801561015657600080fd5b50610171600480360381019061016c91906119b8565b6105da565b60405161017e91906117f7565b60405180910390f35b6101a1600480360381019061019c9190611a60565b61064a565b6040516101ae9190611b37565b60405180910390f35b3480156101c357600080fd5b506101de60048036038101906101d99190611b52565b6107e9565b6040516101eb9190611bc7565b60405180910390f35b34801561020057600080fd5b5061021b60048036038101906102169190611b52565b610813565b6040516102289190611c6a565b60405180910390f35b34801561023d57600080fd5b5061025860048036038101906102539190611b52565b610844565b60405161026591906117f7565b60405180910390f35b34801561027a57600080fd5b5061029560048036038101906102909190611b52565b610861565b6040516102a3929190611c8c565b60405180910390f35b3480156102b857600080fd5b506102d360048036038101906102ce9190611b52565b610885565b6040516102e091906117f7565b60405180910390f35b3480156102f557600080fd5b50610310600480360381019061030b9190611a60565b6108a2565b60405161031d91906117f7565b60405180910390f35b34801561033257600080fd5b5061034d60048036038101906103489190611cb5565b610daa565b60405161035e959493929190611d3f565b60405180910390f35b34801561037357600080fd5b5061038e60048036038101906103899190611b52565b610de3565b60405161039b9190611d92565b60405180910390f35b3480156103b057600080fd5b506103cb60048036038101906103c69190611b52565b610e20565b6040516103d89190611d92565b60405180910390f35b3480156103ed57600080fd5b5061040860048036038101906104039190611e2a565b610e5c565b6040516104159190611c6a565b60405180910390f35b600061042982610e91565b8061049157507f82862275000000000000000000000000000000000000000000000000000000007bffffffffffffffffffffffffffffffffffffffffffffffffffffffff1916827bffffffffffffffffffffffffffffffffffffffffffffffffffffffff1916145b806104f957507f1d64c4f2000000000000000000000000000000000000000000000000000000007bffffffffffffffffffffffffffffffffffffffffffffffffffffffff1916827bffffffffffffffffffffffffffffffffffffffffffffffffffffffff1916145b8061056157507f7c5a43ec000000000000000000000000000000000000000000000000000000007bffffffffffffffffffffffffffffffffffffffffffffffffffffffff1916827bffffffffffffffffffffffffffffffffffffffffffffffffffffffff1916145b806105c957507fe4b50cb8000000000000000000000000000000000000000000000000000000007bffffffffffffffffffffffffffffffffffffffffffffffffffffffff1916827bffffffffffffffffffffffffffffffffffffffffffffffffffffffff1916145b9050919050565b6000600954905090565b60006105ea600954858585610f63565b6009547f8e967d6054e2a51c6c0b65a326c2c53edf07f50d4a854e102eed777cfb5913783360405161061c9190611d92565b60405180910390a2600954905060016009600082825461063c9190611ed4565b925050819055509392505050565b60006106558461115f565b6106ab578360026000868152602001908152602001600020546040517f5ff5ab730000000000000000000000000000000000000000000000000000000081526004016106a2929190611c8c565b60405180910390fd5b6106b68484846111ed565b600080600086815260200190815260200160002060009054906101000a900473ffffffffffffffffffffffffffffffffffffffff16905060008061071d8387878a60405160200161070993929190611f7b565b604051602081830303815290604052611233565b915091506001600281111561073557610734611ac0565b5b82600281111561074857610747611ac0565b5b0361075e5761075787826112ca565b915061076b565b610768878261137d565b91505b6001600281111561077f5761077e611ac0565b5b82600281111561079257610791611ac0565b5b146107b057600260048111156107ab576107aa611ac0565b5b6107c5565b600160048111156107c4576107c3611ac0565b5b5b60026000898152602001908152602001600020819055508193505050509392505050565b60006005600083815260200190815260200160002060009054906101000a900460ff169050919050565b606061081e826113d1565b60405160200161082e9190612050565b6040516020818303038152906040529050919050565b600060026000838152602001908152602001600020549050919050565b6000806008600084815260200190815260200160002054620186a091509150915091565b600060076000838152602001908152602001600020549050919050565b60006003808111156108b7576108b6611ac0565b5b600260008681526020019081526020016000205414610922578360026000868152602001908152602001600020546040517f42ffc097000000000000000000000000000000000000000000000000000000008152600401610919929190611c8c565b60405180910390fd5b61092b8461142f565b156109545761093984611441565b60026000858152602001908152602001600020549050610da3565b6000806000600281111561096b5761096a611ac0565b5b6005600088815260200190815260200160002060009054906101000a900460ff16600281111561099e5761099d611ac0565b5b14610c14576000600160028111156109b9576109b8611ac0565b5b6005600089815260200190815260200160002060009054906101000a900460ff1660028111156109ec576109eb611ac0565b5b03610a0a573390508585810190610a039190611b52565b9250610a54565b8585600090601492610a1e93929190612075565b90610a2991906120f4565b60601c905085856014908888905092610a4493929190612075565b810190610a519190611b52565b92505b6004600088815260200190815260200160002060008273ffffffffffffffffffffffffffffffffffffffff1673ffffffffffffffffffffffffffffffffffffffff16815260200190815260200160002060009054906101000a900460ff1615610af65786816040517f04f9da63000000000000000000000000000000000000000000000000000000008152600401610aed929190612153565b60405180910390fd5b6003600088815260200190815260200160002060009054906101000a900473ffffffffffffffffffffffffffffffffffffffff1673ffffffffffffffffffffffffffffffffffffffff166370a08231826040518263ffffffff1660e01b8152600401610b629190611d92565b602060405180830381865afa158015610b7f573d6000803e3d6000fd5b505050506040513d601f19601f82011682018060405250810190610ba39190612191565b915060016004600089815260200190815260200160002060008373ffffffffffffffffffffffffffffffffffffffff1673ffffffffffffffffffffffffffffffffffffffff16815260200190815260200160002060006101000a81548160ff02191690831515021790555050610d57565b60008087815260200190815260200160002060009054906101000a900473ffffffffffffffffffffffffffffffffffffffff1673ffffffffffffffffffffffffffffffffffffffff163373ffffffffffffffffffffffffffffffffffffffff1603610c95578484810190610c8891906121be565b8092508193505050610d56565b8484810190610ca49190611b52565b91506003600087815260200190815260200160002060009054906101000a900473ffffffffffffffffffffffffffffffffffffffff1673ffffffffffffffffffffffffffffffffffffffff166370a08231336040518263ffffffff1660e01b8152600401610d129190611d92565b602060405180830381865afa158015610d2f573d6000803e3d6000fd5b505050506040513d601f19601f82011682018060405250810190610d539190612191565b90505b5b600060028311610d675782610d6a565b60025b6002811115610d7c57610d7b611ac0565b5b9050610d89878284611495565b600260008881526020019081526020016000205493505050505b9392505050565b600080600080600085806020019051810190610dc69190612266565b809550819650829750839850849950505050505091939590929450565b60006003600083815260200190815260200160002060009054906101000a900473ffffffffffffffffffffffffffffffffffffffff169050919050565b600080600083815260200190815260200160002060009054906101000a900473ffffffffffffffffffffffffffffffffffffffff169050919050565b60608585858585604051602001610e77959493929190611d3f565b604051602081830303815290604052905095945050505050565b60007f01ffc9a7000000000000000000000000000000000000000000000000000000007bffffffffffffffffffffffffffffffffffffffffffffffffffffffff1916827bffffffffffffffffffffffffffffffffffffffffffffffffffffffff19161480610f5c57507f9452d78d000000000000000000000000000000000000000000000000000000007bffffffffffffffffffffffffffffffffffffffffffffffffffffffff1916827bffffffffffffffffffffffffffffffffffffffffffffffffffffffff1916145b9050919050565b600380811115610f7657610f75611ac0565b5b60026000868152602001908152602001600020819055506000806000806000610f9e88610daa565b8095508196508297508398508499505050505050620186a0831115610ffa57826040517ffe8da366000000000000000000000000000000000000000000000000000000008152600401610ff191906117f7565b60405180910390fd5b336000808b815260200190815260200160002060006101000a81548173ffffffffffffffffffffffffffffffffffffffff021916908373ffffffffffffffffffffffffffffffffffffffff16021790555084600360008b815260200190815260200160002060006101000a81548173ffffffffffffffffffffffffffffffffffffffff021916908373ffffffffffffffffffffffffffffffffffffffff16021790555081600a60008b815260200190815260200160002060006101000a81548160ff02191690831515021790555080600560008b815260200190815260200160002060006101000a81548160ff021916908360028111156110fe576110fd611ac0565b5b021790555082600860008b81526020019081526020016000208190555061112589856114e9565b86866040516111359291906122e1565b6040518091039020600160008b815260200190815260200160002081905550505050505050505050565b60008060048081111561117557611174611ac0565b5b600260008581526020019081526020016000205414905060006111978461142f565b80156111c85750600360048111156111b2576111b1611ac0565b5b6002600086815260200190815260200160002054145b905081806111e457508080156111e357506111e284611510565b5b5b92505050919050565b6111f8838383611696565b61122e576040517f8129bbcd00000000000000000000000000000000000000000000000000000000815260040160405180910390fd5b505050565b600060606000808573ffffffffffffffffffffffffffffffffffffffff163486604051611260919061232b565b60006040518083038185875af1925050503d806000811461129d576040519150601f19603f3d011682016040523d82523d6000602084013e6112a2565b606091505b50915091506000826112b55760026112b8565b60015b90508082945094505050509250929050565b6000600a600084815260200190815260200160002060009054906101000a900460ff1680156112fa575060008251145b1561133c57826040517f66dabd9800000000000000000000000000000000000000000000000000000000815260040161133391906117f7565b60405180910390fd5b600190507febde80ec5f4e6c8b3a987f2a89cdc9c91b6c5e00b337e2581ed6302994c81e3f8360405161136f91906117f7565b60405180910390a192915050565b6000808251111561139057815160208301fd5b7ff1ce307d6c8f222892d7eb3afa1f623ef595620a12027617499df1e6873de9ac836040516113bf91906117f7565b60405180910390a16002905092915050565b6113d96116ed565b60066000838152602001908152602001600020600380602002604051908101604052809291908260038015611423576020028201915b81548152602001906001019080831161140f575b50505050509050919050565b600061143a826116ce565b9050919050565b61144a81611510565b611467576002600481111561146257611461611ac0565b5b61147b565b60048081111561147a57611479611ac0565b5b5b600260008381526020019081526020016000208190555050565b80600660008581526020019081526020016000208360028111156114bc576114bb611ac0565b5b600381106114cd576114cc612342565b5b0160008282546114dd9190611ed4565b92505081905550505050565b80426114f59190611ed4565b60076000848152602001908152602001600020819055505050565b60008061151c836113d1565b9050600060086000858152602001908152602001600020546003600086815260200190815260200160002060009054906101000a900473ffffffffffffffffffffffffffffffffffffffff1673ffffffffffffffffffffffffffffffffffffffff166318160ddd6040518163ffffffff1660e01b8152600401602060405180830381865afa1580156115b2573d6000803e3d6000fd5b505050506040513d601f19601f820116820180604052508101906115d69190612191565b6115e09190612371565b620186a0836002600381106115f8576115f7612342565b5b60200201518460016003811061161157611610612342565b5b60200201518560006003811061162a57611629612342565b5b60200201516116399190611ed4565b6116439190611ed4565b61164d9190612371565b101590508160006003811061166557611664612342565b5b60200201518260016003811061167e5761167d612342565b5b602002015111801561168d5750805b92505050919050565b600082826040516116a89291906122e1565b604051809103902060016000868152602001908152602001600020541490509392505050565b6000600760008381526020019081526020016000205442119050919050565b6040518060600160405280600390602082028036833780820191505090505090565b6000604051905090565b600080fd5b600080fd5b60007fffffffff0000000000000000000000000000000000000000000000000000000082169050919050565b61175881611723565b811461176357600080fd5b50565b6000813590506117758161174f565b92915050565b60006020828403121561179157611790611719565b5b600061179f84828501611766565b91505092915050565b60008115159050919050565b6117bd816117a8565b82525050565b60006020820190506117d860008301846117b4565b92915050565b6000819050919050565b6117f1816117de565b82525050565b600060208201905061180c60008301846117e8565b92915050565b600080fd5b600080fd5b6000601f19601f8301169050919050565b7f4e487b7100000000000000000000000000000000000000000000000000000000600052604160045260246000fd5b6118658261181c565b810181811067ffffffffffffffff821117156118845761188361182d565b5b80604052505050565b600061189761170f565b90506118a3828261185c565b919050565b600067ffffffffffffffff8211156118c3576118c261182d565b5b6118cc8261181c565b9050602081019050919050565b82818337600083830152505050565b60006118fb6118f6846118a8565b61188d565b90508281526020810184848401111561191757611916611817565b5b6119228482856118d9565b509392505050565b600082601f83011261193f5761193e611812565b5b813561194f8482602086016118e8565b91505092915050565b600080fd5b600080fd5b60008083601f84011261197857611977611812565b5b8235905067ffffffffffffffff81111561199557611994611958565b5b6020830191508360018202830111156119b1576119b061195d565b5b9250929050565b6000806000604084860312156119d1576119d0611719565b5b600084013567ffffffffffffffff8111156119ef576119ee61171e565b5b6119fb8682870161192a565b935050602084013567ffffffffffffffff811115611a1c57611a1b61171e565b5b611a2886828701611962565b92509250509250925092565b611a3d816117de565b8114611a4857600080fd5b50565b600081359050611a5a81611a34565b92915050565b600080600060408486031215611a7957611a78611719565b5b6000611a8786828701611a4b565b935050602084013567ffffffffffffffff811115611aa857611aa761171e565b5b611ab486828701611962565b92509250509250925092565b7f4e487b7100000000000000000000000000000000000000000000000000000000600052602160045260246000fd5b60038110611b0057611aff611ac0565b5b50565b6000819050611b1182611aef565b919050565b6000611b2182611b03565b9050919050565b611b3181611b16565b82525050565b6000602082019050611b4c6000830184611b28565b92915050565b600060208284031215611b6857611b67611719565b5b6000611b7684828501611a4b565b91505092915050565b60038110611b9057611b8f611ac0565b5b50565b6000819050611ba182611b7f565b919050565b6000611bb182611b93565b9050919050565b611bc181611ba6565b82525050565b6000602082019050611bdc6000830184611bb8565b92915050565b600081519050919050565b600082825260208201905092915050565b60005b83811015611c1c578082015181840152602081019050611c01565b83811115611c2b576000848401525b50505050565b6000611c3c82611be2565b611c468185611bed565b9350611c56818560208601611bfe565b611c5f8161181c565b840191505092915050565b60006020820190508181036000830152611c848184611c31565b905092915050565b6000604082019050611ca160008301856117e8565b611cae60208301846117e8565b9392505050565b600060208284031215611ccb57611cca611719565b5b600082013567ffffffffffffffff811115611ce957611ce861171e565b5b611cf58482850161192a565b91505092915050565b600073ffffffffffffffffffffffffffffffffffffffff82169050919050565b6000611d2982611cfe565b9050919050565b611d3981611d1e565b82525050565b600060a082019050611d546000830188611d30565b611d6160208301876117e8565b611d6e60408301866117e8565b611d7b60608301856117b4565b611d886080830184611bb8565b9695505050505050565b6000602082019050611da76000830184611d30565b92915050565b611db681611d1e565b8114611dc157600080fd5b50565b600081359050611dd381611dad565b92915050565b611de2816117a8565b8114611ded57600080fd5b50565b600081359050611dff81611dd9565b92915050565b60038110611e1257600080fd5b50565b600081359050611e2481611e05565b92915050565b600080600080600060a08688031215611e4657611e45611719565b5b6000611e5488828901611dc4565b9550506020611e6588828901611a4b565b9450506040611e7688828901611a4b565b9350506060611e8788828901611df0565b9250506080611e9888828901611e15565b9150509295509295909350565b7f4e487b7100000000000000000000000000000000000000000000000000000000600052601160045260246000fd5b6000611edf826117de565b9150611eea836117de565b9250827fffffffffffffffffffffffffffffffffffffffffffffffffffffffffffffffff03821115611f1f57611f1e611ea5565b5b828201905092915050565b600081905092915050565b6000611f418385611f2a565b9350611f4e8385846118d9565b82840190509392505050565b6000819050919050565b611f75611f70826117de565b611f5a565b82525050565b6000611f88828587611f35565b9150611f948284611f64565b602082019150819050949350505050565b600060039050919050565b600081905092915050565b6000819050919050565b611fce816117de565b82525050565b6000611fe08383611fc5565b60208301905092915050565b6000602082019050919050565b61200281611fa5565b61200c8184611fb0565b925061201782611fbb565b8060005b8381101561204857815161202f8782611fd4565b965061203a83611fec565b92505060018101905061201b565b505050505050565b60006060820190506120656000830184611ff9565b92915050565b600080fd5b600080fd5b600080858511156120895761208861206b565b5b8386111561209a57612099612070565b5b6001850283019150848603905094509492505050565b600082905092915050565b60007fffffffffffffffffffffffffffffffffffffffff00000000000000000000000082169050919050565b600082821b905092915050565b600061210083836120b0565b8261210b81356120bb565b9250601482101561214b576121467fffffffffffffffffffffffffffffffffffffffff000000000000000000000000836014036008026120e7565b831692505b505092915050565b600060408201905061216860008301856117e8565b6121756020830184611d30565b9392505050565b60008151905061218b81611a34565b92915050565b6000602082840312156121a7576121a6611719565b5b60006121b58482850161217c565b91505092915050565b600080604083850312156121d5576121d4611719565b5b60006121e385828601611a4b565b92505060206121f485828601611a4b565b9150509250929050565b600061220982611cfe565b9050919050565b612219816121fe565b811461222457600080fd5b50565b60008151905061223681612210565b92915050565b60008151905061224b81611dd9565b92915050565b60008151905061226081611e05565b92915050565b600080600080600060a0868803121561228257612281611719565b5b600061229088828901612227565b95505060206122a18882890161217c565b94505060406122b28882890161217c565b93505060606122c38882890161223c565b92505060806122d488828901612251565b9150509295509295909350565b60006122ee828486611f35565b91508190509392505050565b600061230582611be2565b61230f8185611f2a565b935061231f818560208601611bfe565b80840191505092915050565b600061233782846122fa565b915081905092915050565b7f4e487b7100000000000000000000000000000000000000000000000000000000600052603260045260246000fd5b600061237c826117de565b9150612387836117de565b9250817fffffffffffffffffffffffffffffffffffffffffffffffffffffffffffffffff04831182151516156123c0576123bf611ea5565b5b82820290509291505056fea264697066735822122085a859c5576cd5ddcd314f55dd498a5d5eded42a104e2057ab5c5a7d273e425664736f6c634300080d0033",
  "linkReferences": {},
  "deployedLinkReferences": {}
}