{
  "_format": "hh-sol-artifact-1",
  "contractName": "StartOnlyCallbackMinmlExample",
  "sourceName": "src/examples/integrations/StartOnlyCallback.sol",
  "abi": [
    {
      "inputs": [
        {
          "internalType": "address",
          "name": "_votingContractOne",
          "type": "address"
        },
        {
          "internalType": "address",
          "name": "_votingContractTwo",
          "type": "address"
        }
      ],
      "stateMutability": "nonpayable",
      "type": "constructor"
    },
    {
      "inputs": [
        {
          "internalType": "address",
          "name": "imposter",
          "type": "address"
        }
      ],
      "name": "IsNotImplementer",
      "type": "error"
    },
    {
      "inputs": [
        {
          "internalType": "bytes4",
          "name": "selector",
          "type": "bytes4"
        }
      ],
      "name": "IsNotVotableFunction",
      "type": "error"
    },
    {
      "inputs": [
        {
          "internalType": "address",
          "name": "implementer",
          "type": "address"
        }
      ],
      "name": "OnlyVoteImplementer",
      "type": "error"
    },
    {
      "inputs": [],
      "name": "deployer",
      "outputs": [
        {
          "internalType": "address",
          "name": "",
          "type": "address"
        }
      ],
      "stateMutability": "view",
      "type": "function"
    },
    {
      "inputs": [],
      "name": "i",
      "outputs": [
        {
          "internalType": "uint256",
          "name": "",
          "type": "uint256"
        }
      ],
      "stateMutability": "view",
      "type": "function"
    },
    {
      "inputs": [],
      "name": "increment",
      "outputs": [],
      "stateMutability": "nonpayable",
      "type": "function"
    },
    {
      "inputs": [
        {
          "internalType": "uint256",
          "name": "_i",
          "type": "uint256"
        }
      ],
      "name": "reset",
      "outputs": [],
      "stateMutability": "nonpayable",
      "type": "function"
    },
    {
      "inputs": [
        {
          "internalType": "bytes",
          "name": "votingParams",
          "type": "bytes"
        },
        {
          "internalType": "bytes",
          "name": "callback",
          "type": "bytes"
        }
      ],
      "name": "start",
      "outputs": [],
      "stateMutability": "nonpayable",
      "type": "function"
    }
  ],
  "bytecode": "0x60806040523480156200001157600080fd5b50604051620011733803806200117383398181016040528101906200003791906200024a565b33600260006101000a81548173ffffffffffffffffffffffffffffffffffffffff021916908373ffffffffffffffffffffffffffffffffffffffff16021790555081600160007fd09de08ab1a974aadf0a76e6f99a2ec20e431f22bbc101a6c3f718e53646ed8d7bffffffffffffffffffffffffffffffffffffffffffffffffffffffff19167bffffffffffffffffffffffffffffffffffffffffffffffffffffffff1916815260200190815260200160002060006101000a81548173ffffffffffffffffffffffffffffffffffffffff021916908373ffffffffffffffffffffffffffffffffffffffff16021790555080600160007f310bd74b1bcdaacf16f6a4234577ac20217c4dd976ab40b2e67577604855f5067bffffffffffffffffffffffffffffffffffffffffffffffffffffffff19167bffffffffffffffffffffffffffffffffffffffffffffffffffffffff1916815260200190815260200160002060006101000a81548173ffffffffffffffffffffffffffffffffffffffff021916908373ffffffffffffffffffffffffffffffffffffffff160217905550505062000291565b600080fd5b600073ffffffffffffffffffffffffffffffffffffffff82169050919050565b60006200021282620001e5565b9050919050565b620002248162000205565b81146200023057600080fd5b50565b600081519050620002448162000219565b92915050565b60008060408385031215620002645762000263620001e0565b5b6000620002748582860162000233565b9250506020620002878582860162000233565b9150509250929050565b610ed280620002a16000396000f3fe608060405234801561001057600080fd5b50600436106100575760003560e01c80631080156e1461005c578063310bd74b14610078578063d09de08a14610094578063d5f394881461009e578063e5aa3d58146100bc575b600080fd5b610076600480360381019061007191906108c1565b6100da565b005b610092600480360381019061008d9190610973565b6102f7565b005b61009c6103a4565b005b6100a6610408565b6040516100b391906109e1565b60405180910390f35b6100c461042e565b6040516100d19190610a0b565b60405180910390f35b6100e383610434565b600082826000906004926100f993929190610a30565b906101049190610aaf565b905061010f816104c7565b61015057806040517f35be8c290000000000000000000000000000000000000000000000000000000081526004016101479190610b1d565b60405180910390fd5b600060016000837bffffffffffffffffffffffffffffffffffffffffffffffffffffffff19167bffffffffffffffffffffffffffffffffffffffffffffffffffffffff1916815260200190815260200160002060009054906101000a900473ffffffffffffffffffffffffffffffffffffffff1673ffffffffffffffffffffffffffffffffffffffff16631080156e8686866040518463ffffffff1660e01b815260040161020093929190610bed565b6020604051808303816000875af115801561021f573d6000803e3d6000fd5b505050506040513d601f19601f820116820180604052508101906102439190610c3b565b905060006102c260016000857bffffffffffffffffffffffffffffffffffffffffffffffffffffffff19167bffffffffffffffffffffffffffffffffffffffffffffffffffffffff1916815260200190815260200160002060009054906101000a900473ffffffffffffffffffffffffffffffffffffffff1683610571565b9050600160008083815260200190815260200160002060006101000a81548160ff021916908315150217905550505050505050565b60013373ffffffffffffffffffffffffffffffffffffffff16600260009054906101000a900473ffffffffffffffffffffffffffffffffffffffff1673ffffffffffffffffffffffffffffffffffffffff16148061035a5750610359816105a4565b5b610399576040517f08c379a000000000000000000000000000000000000000000000000000000000815260040161039090610cc5565b60405180910390fd5b816003819055505050565b60016103af816105a4565b6103f057336040517f06246cc50000000000000000000000000000000000000000000000000000000081526004016103e791906109e1565b60405180910390fd5b60016003546103ff9190610d14565b60038190555050565b600260009054906101000a900473ffffffffffffffffffffffffffffffffffffffff1681565b60035481565b600260009054906101000a900473ffffffffffffffffffffffffffffffffffffffff1673ffffffffffffffffffffffffffffffffffffffff163373ffffffffffffffffffffffffffffffffffffffff16146104c4576040517f08c379a00000000000000000000000000000000000000000000000000000000081526004016104bb90610db6565b60405180910390fd5b50565b60008073ffffffffffffffffffffffffffffffffffffffff1660016000847bffffffffffffffffffffffffffffffffffffffffffffffffffffffff19167bffffffffffffffffffffffffffffffffffffffffffffffffffffffff1916815260200190815260200160002060009054906101000a900473ffffffffffffffffffffffffffffffffffffffff1673ffffffffffffffffffffffffffffffffffffffff1614159050919050565b60008282604051602001610586929190610dd6565b60405160208183030381529060405280519060200120905092915050565b6000803373ffffffffffffffffffffffffffffffffffffffff166001600080357fffffffff00000000000000000000000000000000000000000000000000000000167bffffffffffffffffffffffffffffffffffffffffffffffffffffffff19167bffffffffffffffffffffffffffffffffffffffffffffffffffffffff1916815260200190815260200160002060009054906101000a900473ffffffffffffffffffffffffffffffffffffffff1673ffffffffffffffffffffffffffffffffffffffff16149050821580610677575080155b156106855780915050610702565b60246000369050101561069c576000915050610702565b60008036602060003690506106b19190610dff565b906000369050926106c493929190610a30565b906106cf9190610e3d565b60001c90506000806106e13384610571565b815260200190815260200160002060009054906101000a900460ff16925050505b919050565b6000604051905090565b600080fd5b600080fd5b600080fd5b600080fd5b6000601f19601f8301169050919050565b7f4e487b7100000000000000000000000000000000000000000000000000000000600052604160045260246000fd5b61076e82610725565b810181811067ffffffffffffffff8211171561078d5761078c610736565b5b80604052505050565b60006107a0610707565b90506107ac8282610765565b919050565b600067ffffffffffffffff8211156107cc576107cb610736565b5b6107d582610725565b9050602081019050919050565b82818337600083830152505050565b60006108046107ff846107b1565b610796565b9050828152602081018484840111156108205761081f610720565b5b61082b8482856107e2565b509392505050565b600082601f8301126108485761084761071b565b5b81356108588482602086016107f1565b91505092915050565b600080fd5b600080fd5b60008083601f8401126108815761088061071b565b5b8235905067ffffffffffffffff81111561089e5761089d610861565b5b6020830191508360018202830111156108ba576108b9610866565b5b9250929050565b6000806000604084860312156108da576108d9610711565b5b600084013567ffffffffffffffff8111156108f8576108f7610716565b5b61090486828701610833565b935050602084013567ffffffffffffffff81111561092557610924610716565b5b6109318682870161086b565b92509250509250925092565b6000819050919050565b6109508161093d565b811461095b57600080fd5b50565b60008135905061096d81610947565b92915050565b60006020828403121561098957610988610711565b5b60006109978482850161095e565b91505092915050565b600073ffffffffffffffffffffffffffffffffffffffff82169050919050565b60006109cb826109a0565b9050919050565b6109db816109c0565b82525050565b60006020820190506109f660008301846109d2565b92915050565b610a058161093d565b82525050565b6000602082019050610a2060008301846109fc565b92915050565b600080fd5b600080fd5b60008085851115610a4457610a43610a26565b5b83861115610a5557610a54610a2b565b5b6001850283019150848603905094509492505050565b600082905092915050565b60007fffffffff0000000000000000000000000000000000000000000000000000000082169050919050565b600082821b905092915050565b6000610abb8383610a6b565b82610ac68135610a76565b92506004821015610b0657610b017fffffffff0000000000000000000000000000000000000000000000000000000083600403600802610aa2565b831692505b505092915050565b610b1781610a76565b82525050565b6000602082019050610b326000830184610b0e565b92915050565b600081519050919050565b600082825260208201905092915050565b60005b83811015610b72578082015181840152602081019050610b57565b83811115610b81576000848401525b50505050565b6000610b9282610b38565b610b9c8185610b43565b9350610bac818560208601610b54565b610bb581610725565b840191505092915050565b6000610bcc8385610b43565b9350610bd98385846107e2565b610be283610725565b840190509392505050565b60006040820190508181036000830152610c078186610b87565b90508181036020830152610c1c818486610bc0565b9050949350505050565b600081519050610c3581610947565b92915050565b600060208284031215610c5157610c50610711565b5b6000610c5f84828501610c26565b91505092915050565b600082825260208201905092915050565b7f4f6e6c79206465706c6f796572206f7220627920766f74650000000000000000600082015250565b6000610caf601883610c68565b9150610cba82610c79565b602082019050919050565b60006020820190508181036000830152610cde81610ca2565b9050919050565b7f4e487b7100000000000000000000000000000000000000000000000000000000600052601160045260246000fd5b6000610d1f8261093d565b9150610d2a8361093d565b9250827fffffffffffffffffffffffffffffffffffffffffffffffffffffffffffffffff03821115610d5f57610d5e610ce5565b5b828201905092915050565b7f4f6e6c79206465706c6f79657200000000000000000000000000000000000000600082015250565b6000610da0600d83610c68565b9150610dab82610d6a565b602082019050919050565b60006020820190508181036000830152610dcf81610d93565b9050919050565b6000604082019050610deb60008301856109d2565b610df860208301846109fc565b9392505050565b6000610e0a8261093d565b9150610e158361093d565b925082821015610e2857610e27610ce5565b5b828203905092915050565b6000819050919050565b6000610e498383610a6b565b82610e548135610e33565b92506020821015610e9457610e8f7fffffffffffffffffffffffffffffffffffffffffffffffffffffffffffffffff83602003600802610aa2565b831692505b50509291505056fea264697066735822122094a9a6845b4945dba5e4e89982df70c929491a297604998e46bd68ab10bb975d64736f6c634300080d0033",
  "linkReferences": {},
  "deployedLinkReferences": {}
}