{
  "_format": "hh-sol-artifact-1",
  "contractName": "Tournament",
  "sourceName": "src/implementations/votingContracts/Tournament/Tournament.sol",
  "abi": [
    {
      "inputs": [
        {
          "internalType": "uint256",
          "name": "identifier",
          "type": "uint256"
        },
        {
          "internalType": "uint256",
          "name": "group",
          "type": "uint256"
        },
        {
          "internalType": "address",
          "name": "voter",
          "type": "address"
        }
      ],
      "name": "AlreadyVoted",
      "type": "error"
    },
    {
      "inputs": [
        {
          "internalType": "uint48",
          "name": "insertAtByte",
          "type": "uint48"
        },
        {
          "internalType": "bytes",
          "name": "callback",
          "type": "bytes"
        }
      ],
      "name": "CallbackInsert",
      "type": "error"
    },
    {
      "inputs": [
        {
          "internalType": "uint256",
          "name": "identifier",
          "type": "uint256"
        },
        {
          "internalType": "uint256",
          "name": "status",
          "type": "uint256"
        }
      ],
      "name": "ImplementingNotPermitted",
      "type": "error"
    },
    {
      "inputs": [],
      "name": "InvalidCalldata",
      "type": "error"
    },
    {
      "inputs": [
        {
          "internalType": "uint256",
          "name": "identifier",
          "type": "uint256"
        },
        {
          "internalType": "uint8",
          "name": "rounds",
          "type": "uint8"
        },
        {
          "internalType": "uint256",
          "name": "options",
          "type": "uint256"
        }
      ],
      "name": "InvalidRounds",
      "type": "error"
    },
    {
      "inputs": [
        {
          "internalType": "uint256",
          "name": "identifier",
          "type": "uint256"
        },
        {
          "internalType": "bytes32",
          "name": "label",
          "type": "bytes32"
        }
      ],
      "name": "OnlyDistinctOptions",
      "type": "error"
    },
    {
      "inputs": [
        {
          "internalType": "uint256",
          "name": "identifier",
          "type": "uint256"
        },
        {
          "internalType": "uint256",
          "name": "status",
          "type": "uint256"
        }
      ],
      "name": "StatusError",
      "type": "error"
    },
    {
      "anonymous": false,
      "inputs": [
        {
          "indexed": false,
          "internalType": "uint256",
          "name": "identifier",
          "type": "uint256"
        }
      ],
      "name": "Implemented",
      "type": "event"
    },
    {
      "anonymous": false,
      "inputs": [
        {
          "indexed": false,
          "internalType": "uint256",
          "name": "identifier",
          "type": "uint256"
        }
      ],
      "name": "NotImplemented",
      "type": "event"
    },
    {
      "anonymous": false,
      "inputs": [
        {
          "indexed": false,
          "internalType": "uint256",
          "name": "identifier",
          "type": "uint256"
        },
        {
          "indexed": false,
          "internalType": "address",
          "name": "caller",
          "type": "address"
        }
      ],
      "name": "VotingInstanceStarted",
      "type": "event"
    },
    {
      "anonymous": false,
      "inputs": [
        {
          "indexed": false,
          "internalType": "uint256",
          "name": "identifier",
          "type": "uint256"
        },
        {
          "indexed": false,
          "internalType": "uint8",
          "name": "round",
          "type": "uint8"
        },
        {
          "indexed": false,
          "internalType": "bytes32[]",
          "name": "winners",
          "type": "bytes32[]"
        }
      ],
      "name": "WinnersOfThisRound",
      "type": "event"
    },
    {
      "inputs": [
        {
          "internalType": "uint256",
          "name": "identifier",
          "type": "uint256"
        },
        {
          "internalType": "uint16",
          "name": "group",
          "type": "uint16"
        },
        {
          "internalType": "address",
          "name": "voter",
          "type": "address"
        }
      ],
      "name": "alreadyVoted",
      "outputs": [
        {
          "internalType": "bool",
          "name": "",
          "type": "bool"
        }
      ],
      "stateMutability": "view",
      "type": "function"
    },
    {
      "inputs": [
        {
          "internalType": "bytes",
          "name": "votingParams",
          "type": "bytes"
        }
      ],
      "name": "decodeParameters",
      "outputs": [
        {
          "internalType": "uint48",
          "name": "insertAtByte",
          "type": "uint48"
        },
        {
          "internalType": "uint32",
          "name": "duration",
          "type": "uint32"
        },
        {
          "internalType": "uint8",
          "name": "rounds",
          "type": "uint8"
        },
        {
          "internalType": "address",
          "name": "token",
          "type": "address"
        },
        {
          "internalType": "bytes32[]",
          "name": "permutation",
          "type": "bytes32[]"
        }
      ],
      "stateMutability": "pure",
      "type": "function"
    },
    {
      "inputs": [
        {
          "internalType": "uint48",
          "name": "insertAtByte",
          "type": "uint48"
        },
        {
          "internalType": "uint32",
          "name": "duration",
          "type": "uint32"
        },
        {
          "internalType": "uint8",
          "name": "rounds",
          "type": "uint8"
        },
        {
          "internalType": "address",
          "name": "token",
          "type": "address"
        },
        {
          "internalType": "bytes32[]",
          "name": "permutation",
          "type": "bytes32[]"
        }
      ],
      "name": "encodeParameters",
      "outputs": [
        {
          "internalType": "bytes",
          "name": "votingParams",
          "type": "bytes"
        }
      ],
      "stateMutability": "pure",
      "type": "function"
    },
    {
      "inputs": [],
      "name": "getCurrentIndex",
      "outputs": [
        {
          "internalType": "uint256",
          "name": "currentIndex",
          "type": "uint256"
        }
      ],
      "stateMutability": "view",
      "type": "function"
    },
    {
      "inputs": [
        {
          "internalType": "uint256",
          "name": "identifier",
          "type": "uint256"
        }
      ],
      "name": "getDeadline",
      "outputs": [
        {
          "internalType": "uint256",
          "name": "",
          "type": "uint256"
        }
      ],
      "stateMutability": "view",
      "type": "function"
    },
    {
      "inputs": [
        {
          "internalType": "uint256",
          "name": "identifier",
          "type": "uint256"
        },
        {
          "internalType": "bytes32",
          "name": "option",
          "type": "bytes32"
        }
      ],
      "name": "getState",
      "outputs": [
        {
          "internalType": "uint256",
          "name": "votes",
          "type": "uint256"
        },
        {
          "internalType": "uint256",
          "name": "currentGroup",
          "type": "uint256"
        }
      ],
      "stateMutability": "view",
      "type": "function"
    },
    {
      "inputs": [
        {
          "internalType": "uint256",
          "name": "identifier",
          "type": "uint256"
        }
      ],
      "name": "getStatus",
      "outputs": [
        {
          "internalType": "uint256",
          "name": "",
          "type": "uint256"
        }
      ],
      "stateMutability": "view",
      "type": "function"
    },
    {
      "inputs": [
        {
          "internalType": "uint256",
          "name": "identifier",
          "type": "uint256"
        }
      ],
      "name": "getTarget",
      "outputs": [
        {
          "internalType": "address",
          "name": "target",
          "type": "address"
        }
      ],
      "stateMutability": "view",
      "type": "function"
    },
    {
      "inputs": [
        {
          "internalType": "uint256",
          "name": "identifier",
          "type": "uint256"
        },
        {
          "internalType": "bytes",
          "name": "callback",
          "type": "bytes"
        }
      ],
      "name": "implement",
      "outputs": [
        {
          "internalType": "enum IImplementResult.Response",
          "name": "",
          "type": "uint8"
        }
      ],
      "stateMutability": "payable",
      "type": "function"
    },
    {
      "inputs": [
        {
          "internalType": "uint256",
          "name": "identifier",
          "type": "uint256"
        }
      ],
      "name": "result",
      "outputs": [
        {
          "internalType": "bytes",
          "name": "resultData",
          "type": "bytes"
        }
      ],
      "stateMutability": "view",
      "type": "function"
    },
    {
      "inputs": [
        {
          "internalType": "bytes",
          "name": "votingParams",
          "type": "bytes"
        },
        {
          "internalType": "bytes",
          "name": "callback",
          "type": "bytes"
        }
      ],
      "name": "start",
      "outputs": [
        {
          "internalType": "uint256",
          "name": "identifier",
          "type": "uint256"
        }
      ],
      "stateMutability": "nonpayable",
      "type": "function"
    },
    {
      "inputs": [
        {
          "internalType": "bytes4",
          "name": "interfaceId",
          "type": "bytes4"
        }
      ],
      "name": "supportsInterface",
      "outputs": [
        {
          "internalType": "bool",
          "name": "",
          "type": "bool"
        }
      ],
      "stateMutability": "pure",
      "type": "function"
    },
    {
      "inputs": [
        {
          "internalType": "uint256",
          "name": "identifier",
          "type": "uint256"
        }
      ],
      "name": "triggerNextRound",
      "outputs": [
        {
          "internalType": "uint256",
          "name": "c",
          "type": "uint256"
        }
      ],
      "stateMutability": "nonpayable",
      "type": "function"
    },
    {
      "inputs": [
        {
          "internalType": "uint256",
          "name": "identifier",
          "type": "uint256"
        },
        {
          "internalType": "bytes",
          "name": "votingData",
          "type": "bytes"
        }
      ],
      "name": "vote",
      "outputs": [
        {
          "internalType": "uint256",
          "name": "",
          "type": "uint256"
        }
      ],
      "stateMutability": "nonpayable",
      "type": "function"
    }
  ],
  "bytecode": "0x608060405234801561001057600080fd5b5061370c806100206000396000f3fe6080604052600436106100dd5760003560e01c80636f5fa7571161007f578063b6c95b7011610059578063b6c95b7014610326578063b88b82ba14610363578063c691207e146103a0578063e6acc7cd146103e1576100dd565b80636f5fa7571461026e57806382862275146102ab5780638f176a0a146102e8576100dd565b80631540ac51116100bb5780631540ac51146101875780633c594059146101b7578063586eecce146101f45780635c622a0e14610231576100dd565b806301ffc9a7146100e25780630d9005ae1461011f5780631080156e1461014a575b600080fd5b3480156100ee57600080fd5b5061010960048036038101906101049190611e66565b61041e565b6040516101169190611eae565b60405180910390f35b34801561012b57600080fd5b506101346104f0565b6040516101419190611ee2565b60405180910390f35b34801561015657600080fd5b50610171600480360381019061016c91906120a3565b6104fa565b60405161017e9190611ee2565b60405180910390f35b6101a1600480360381019061019c919061214b565b61056b565b6040516101ae9190612222565b60405180910390f35b3480156101c357600080fd5b506101de60048036038101906101d9919061223d565b61070a565b6040516101eb91906122f2565b60405180910390f35b34801561020057600080fd5b5061021b6004803603810190610216919061223d565b6107b9565b6040516102289190611ee2565b60405180910390f35b34801561023d57600080fd5b506102586004803603810190610253919061223d565b610c25565b6040516102659190611ee2565b60405180910390f35b34801561027a57600080fd5b506102956004803603810190610290919061251e565b610c4a565b6040516102a291906122f2565b60405180910390f35b3480156102b757600080fd5b506102d260048036038101906102cd919061223d565b610c7f565b6040516102df9190611ee2565b60405180910390f35b3480156102f457600080fd5b5061030f600480360381019061030a91906125b5565b610ca4565b60405161031d9291906125f5565b60405180910390f35b34801561033257600080fd5b5061034d60048036038101906103489190612658565b610d0c565b60405161035a9190611eae565b60405180910390f35b34801561036f57600080fd5b5061038a6004803603810190610385919061214b565b610d90565b6040516103979190611ee2565b60405180910390f35b3480156103ac57600080fd5b506103c760048036038101906103c291906126ab565b61134c565b6040516103d89594939291906127ee565b60405180910390f35b3480156103ed57600080fd5b506104086004803603810190610403919061223d565b611385565b6040516104159190612848565b60405180910390f35b60007f01ffc9a7000000000000000000000000000000000000000000000000000000007bffffffffffffffffffffffffffffffffffffffffffffffffffffffff1916827bffffffffffffffffffffffffffffffffffffffffffffffffffffffff191614806104e957507f9452d78d000000000000000000000000000000000000000000000000000000007bffffffffffffffffffffffffffffffffffffffffffffffffffffffff1916827bffffffffffffffffffffffffffffffffffffffffffffffffffffffff1916145b9050919050565b6000600454905090565b600061050a6004548585856113c1565b7f8e967d6054e2a51c6c0b65a326c2c53edf07f50d4a854e102eed777cfb5913786004543360405161053d929190612863565b60405180910390a1600454905060016004600082825461055d91906128bb565b925050819055509392505050565b6000610576846118a3565b6105cc578360026000868152602001908152602001600020546040517f5ff5ab730000000000000000000000000000000000000000000000000000000081526004016105c39291906125f5565b60405180910390fd5b6105d784848461197d565b60008061064160008088815260200190815260200160002060009054906101000a900473ffffffffffffffffffffffffffffffffffffffff1661061b8888886119c3565b8860405160200161062d92919061296e565b604051602081830303815290604052611a1b565b9150915060016002811115610659576106586121ab565b5b82600281111561066c5761066b6121ab565b5b146106805761067b8682611ab2565b61068b565b61068a8682611af5565b5b9150600160028111156106a1576106a06121ab565b5b8260028111156106b4576106b36121ab565b5b146106d257600260048111156106cd576106cc6121ab565b5b6106e7565b600160048111156106e6576106e56121ab565b5b5b600260008881526020019081526020016000208190555081925050509392505050565b60606001600860008481526020019081526020016000208054905014610761576008600083815260200190815260200160002060405160200161074d9190612a6c565b6040516020818303038152906040526107b2565b6008600083815260200190815260200160002060008154811061078757610786612a8e565b5b90600052602060002001546040516020016107a29190612acc565b6040516020818303038152906040525b9050919050565b60006107d76002600084815260200190815260200160002054611b38565b90506004808111156107ec576107eb6121ab565b5b6108086002600085815260200190815260200160002054611b69565b11801561082f575061082c6009600084815260200190815260200160002054611b80565b42115b15610c20576000600160048081111561084b5761084a6121ab565b5b6108676002600087815260200190815260200160002054611b69565b6108719190612ae7565b61087b9190612ae7565b905060008160ff16036109a55760006108e7600660008681526020019081526020016000206000600860008881526020019081526020016000206000815481106108c8576108c7612a8e565b5b9060005260206000200154815260200190815260200160002054611bab565b0361091c5760026004811115610900576108ff6121ab565b5b60026000858152602001908152602001600020819055506109a0565b60048081111561092f5761092e6121ab565b5b60026000858152602001908152602001600020819055507fe731164a873a03e5187a675573ce8cf5f230eb5a0dc8516c9f3ffa3c6295645e836001836109759190612b1b565b6008600087815260200190815260200160002060405161099793929190612b52565b60405180910390a15b610c1e565b8060026109b29190612cc3565b826109bd91906128bb565b91506109f28160ff166004808111156109d9576109d86121ab565b5b6109e391906128bb565b83611bdc90919063ffffffff16565b60026000858152602001908152602001600020819055507fe731164a873a03e5187a675573ce8cf5f230eb5a0dc8516c9f3ffa3c6295645e83600183610a389190612b1b565b60086000878152602001908152602001600020604051610a5a93929190612b52565b60405180910390a1600060026008600086815260200190815260200160002080549050610a879190612d3d565b67ffffffffffffffff811115610aa057610a9f611f18565b5b604051908082528060200260200182016040528015610ace5781602001602082028036833780820191505090505b50905060005b6008600086815260200190815260200160002080549050811015610bae576000600860008781526020019081526020016000208281548110610b1957610b18612a8e565b5b90600052602060002001549050610b46600283610b369190612d3d565b86610b419190612d6e565b611c14565b600660008881526020019081526020016000206000838152602001908152602001600020819055508083600284610b7d9190612d3d565b81518110610b8e57610b8d612a8e565b5b602002602001018181525050508080610ba690612da6565b915050610ad4565b5080600860008681526020019081526020016000209080519060200190610bd6929190611d90565b50610c05610bf66009600087815260200190815260200160002054611c49565b42611c5a90919063ffffffff16565b6009600086815260200190815260200160002081905550505b505b919050565b6000610c436002600084815260200190815260200160002054611b69565b9050919050565b60608585858585604051602001610c659594939291906127ee565b604051602081830303815290604052905095945050505050565b6000610c9d6009600084815260200190815260200160002054611b80565b9050919050565b600080610cd460066000868152602001908152602001600020600085815260200190815260200160002054611bab565b610d0160066000878152602001908152602001600020600086815260200190815260200160002054611ca0565b915091509250929050565b600060016007600086815260200190815260200160002060008561ffff16815260200190815260200160002060008473ffffffffffffffffffffffffffffffffffffffff1673ffffffffffffffffffffffffffffffffffffffff16815260200190815260200160002060009054906101000a900460ff1660ff161490509392505050565b6000600480811115610da557610da46121ab565b5b610dc16002600087815260200190815260200160002054611b69565b11610e18578360026000868152602001908152602001600020546040517f42ffc097000000000000000000000000000000000000000000000000000000008152600401610e0f9291906125f5565b60405180910390fd5b6000610e23856107b9565b905060026004811115610e3957610e386121ab565b5b600260008781526020019081526020016000205403610e6e576002600086815260200190815260200160002054915050611345565b60008484810190610e7f9190612dee565b905060005b81518161ffff16101561132b576000610ede600660008a81526020019081526020016000206000858561ffff1681518110610ec257610ec1612a8e565b5b6020026020010151815260200190815260200160002054611ca0565b90506000600760008a8152602001908152602001600020600083815260200190815260200160002060003373ffffffffffffffffffffffffffffffffffffffff1673ffffffffffffffffffffffffffffffffffffffff16815260200190815260200160002060009054906101000a900460ff1660ff161115610f9b578781336040517f6c110732000000000000000000000000000000000000000000000000000000008152600401610f9293929190612e37565b60405180910390fd5b6000600360008a815260200190815260200160002060009054906101000a900473ffffffffffffffffffffffffffffffffffffffff1673ffffffffffffffffffffffffffffffffffffffff166370a08231336040518263ffffffff1660e01b81526004016110099190612848565b602060405180830381865afa158015611026573d6000803e3d6000fd5b505050506040513d601f19601f8201168201806040525081019061104a9190612e83565b90507dffffffffffffffffffffffffffffffffffffffffffffffffffffffffffff80166110b8600660008c81526020019081526020016000206000878761ffff168151811061109c5761109b612a8e565b5b6020026020010151815260200190815260200160002054611bab565b826110c391906128bb565b11156110f557600260048111156110dd576110dc6121ab565b5b600260008b8152602001908152602001600020819055505b80600660008b81526020019081526020016000206000868661ffff168151811061112257611121612a8e565b5b602002602001015181526020019081526020016000205460001c61114691906128bb565b60001b600660008b81526020019081526020016000206000868661ffff168151811061117557611174612a8e565b5b6020026020010151815260200190815260200160002081905550600660008a81526020019081526020016000206000600860008c815260200190815260200160002087856111c39190612ae7565b815481106111d4576111d3612a8e565b5b906000526020600020015481526020019081526020016000205460001c600660008b81526020019081526020016000206000868661ffff168151811061121d5761121c612a8e565b5b602002602001015181526020019081526020016000205460001c111561129b57838361ffff168151811061125457611253612a8e565b5b6020026020010151600860008b8152602001908152602001600020868461127b9190612ae7565b8154811061128c5761128b612a8e565b5b90600052602060002001819055505b6001600760008b8152602001908152602001600020600084815260200190815260200160002060003373ffffffffffffffffffffffffffffffffffffffff1673ffffffffffffffffffffffffffffffffffffffff16815260200190815260200160002060006101000a81548160ff021916908360ff1602179055505050808061132390612eb0565b915050610e84565b506002600087815260200190815260200160002054925050505b9392505050565b6000806000806060858060200190518101906113689190613003565b809550819650829750839850849950505050505091939590929450565b600080600083815260200190815260200160002060009054906101000a900473ffffffffffffffffffffffffffffffffffffffff169050919050565b3360008086815260200190815260200160002060006101000a81548173ffffffffffffffffffffffffffffffffffffffff021916908373ffffffffffffffffffffffffffffffffffffffff16021790555060008060008060006114238861134c565b945094509450945094508686905060248665ffffffffffff1661144691906128bb565b111561148d578487876040517f910b00ba000000000000000000000000000000000000000000000000000000008152600401611484939291906130c7565b60405180910390fd5b84600560008b815260200190815260200160002060006101000a81548165ffffffffffff021916908365ffffffffffff16021790555081600360008b815260200190815260200160002060006101000a81548173ffffffffffffffffffffffffffffffffffffffff021916908373ffffffffffffffffffffffffffffffffffffffff16021790555060008360ff16036115635788600082516040517f1dbb6eb400000000000000000000000000000000000000000000000000000000815260040161155a9392919061313e565b60405180910390fd5b60006001846115729190613175565b600261157e9190612cc3565b905080600261158d91906131a9565b825110156115d757898483516040517f1dbb6eb40000000000000000000000000000000000000000000000000000000081526004016115ce93929190613203565b60405180910390fd5b6115ea8542611c5a90919063ffffffff16565b600960008c8152602001908152602001600020819055508067ffffffffffffffff81111561161b5761161a611f18565b5b6040519080825280602002602001820160405280156116495781602001602082028036833780820191505090505b50600860008c81526020019081526020016000209080519060200190611670929190611d90565b5060005b82518161ffff16101561181c576000801b600660008d81526020019081526020016000206000858461ffff16815181106116b1576116b0612a8e565b5b60200260200101518152602001908152602001600020541461172a578a838261ffff16815181106116e5576116e4612a8e565b5b60200260200101516040517f40eb881e00000000000000000000000000000000000000000000000000000000815260040161172192919061323a565b60405180910390fd5b60006001838361ffff1661173e9190613263565b61174891906128bb565b905061175381611c14565b600660008e81526020019081526020016000206000868561ffff168151811061177f5761177e612a8e565b5b6020026020010151815260200190815260200160002081905550828261ffff16101561180857838261ffff16815181106117bc576117bb612a8e565b5b6020026020010151600860008e81526020019081526020016000206001836117e49190613294565b61ffff16815481106117f9576117f8612a8e565b5b90600052602060002001819055505b50808061181490612eb0565b915050611674565b506118518460ff16600480811115611837576118366121ab565b5b61184191906128bb565b6001611bdc90919063ffffffff16565b600260008c81526020019081526020016000208190555087876040516118789291906132ed565b6040518091039020600160008c81526020019081526020016000208190555050505050505050505050565b6000806004808111156118b9576118b86121ab565b5b6118c284610c25565b14905060006118d084611cb1565b8015611901575060016004808111156118ec576118eb6121ab565b5b6118f691906128bb565b6118ff85610c25565b145b905081806119745750808015611973575060006119716006600087815260200190815260200160002060006008600089815260200190815260200160002060008154811061195257611951612a8e565b5b9060005260206000200154815260200190815260200160002054611bab565b115b5b92505050919050565b611988838383611cd8565b6119be576040517f8129bbcd00000000000000000000000000000000000000000000000000000000815260040160405180910390fd5b505050565b6060611a1283836005600088815260200190815260200160002060009054906101000a900465ffffffffffff166119f98861070a565b611a0290613338565b611d10909392919063ffffffff16565b90509392505050565b600060606000808573ffffffffffffffffffffffffffffffffffffffff163486604051611a48919061339f565b60006040518083038185875af1925050503d8060008114611a85576040519150601f19603f3d011682016040523d82523d6000602084013e611a8a565b606091505b5091509150600082611a9d576002611aa0565b60015b90508082945094505050509250929050565b60007ff1ce307d6c8f222892d7eb3afa1f623ef595620a12027617499df1e6873de9ac83604051611ae39190611ee2565b60405180910390a16002905092915050565b6000600190507febde80ec5f4e6c8b3a987f2a89cdc9c91b6c5e00b337e2581ed6302994c81e3f83604051611b2a9190611ee2565b60405180910390a192915050565b60008160001b60081c7effffffffffffffffffffffffffffffffffffffffffffffffffffffffffffff169050919050565b600060f88260001b901b60f81c60ff169050919050565b60008160201c7bffffffffffffffffffffffffffffffffffffffffffffffffffffffff169050919050565b6000601082901b60101c7dffffffffffffffffffffffffffffffffffffffffffffffffffffffffffff169050919050565b60008282604051602001611bf192919061344d565b604051602081830303815290604052611c0990613338565b60001c905092915050565b6000816000604051602001611c2a92919061350f565b604051602081830303815290604052611c4290613338565b9050919050565b600060e082901b60e01c9050919050565b60008163ffffffff1683611c6e91906128bb565b82604051602001611c809291906135cf565b604051602081830303815290604052611c9890613338565b905092915050565b60008160f01c61ffff169050919050565b6000611ccf6009600084815260200190815260200160002054611b80565b42119050919050565b60008282604051611cea9291906132ed565b604051809103902060016000868152602001908152602001600020541490509392505050565b60608383600090600485611d2491906135fb565b65ffffffffffff1692611d3993929190613641565b868686602487611d4991906135fb565b65ffffffffffff16908989905092611d6393929190613641565b604051602001611d7795949392919061369d565b6040516020818303038152906040529050949350505050565b828054828255906000526020600020908101928215611dcc579160200282015b82811115611dcb578251825591602001919060010190611db0565b5b509050611dd99190611ddd565b5090565b5b80821115611df6576000816000905550600101611dde565b5090565b6000604051905090565b600080fd5b600080fd5b60007fffffffff0000000000000000000000000000000000000000000000000000000082169050919050565b611e4381611e0e565b8114611e4e57600080fd5b50565b600081359050611e6081611e3a565b92915050565b600060208284031215611e7c57611e7b611e04565b5b6000611e8a84828501611e51565b91505092915050565b60008115159050919050565b611ea881611e93565b82525050565b6000602082019050611ec36000830184611e9f565b92915050565b6000819050919050565b611edc81611ec9565b82525050565b6000602082019050611ef76000830184611ed3565b92915050565b600080fd5b600080fd5b6000601f19601f8301169050919050565b7f4e487b7100000000000000000000000000000000000000000000000000000000600052604160045260246000fd5b611f5082611f07565b810181811067ffffffffffffffff82111715611f6f57611f6e611f18565b5b80604052505050565b6000611f82611dfa565b9050611f8e8282611f47565b919050565b600067ffffffffffffffff821115611fae57611fad611f18565b5b611fb782611f07565b9050602081019050919050565b82818337600083830152505050565b6000611fe6611fe184611f93565b611f78565b90508281526020810184848401111561200257612001611f02565b5b61200d848285611fc4565b509392505050565b600082601f83011261202a57612029611efd565b5b813561203a848260208601611fd3565b91505092915050565b600080fd5b600080fd5b60008083601f84011261206357612062611efd565b5b8235905067ffffffffffffffff8111156120805761207f612043565b5b60208301915083600182028301111561209c5761209b612048565b5b9250929050565b6000806000604084860312156120bc576120bb611e04565b5b600084013567ffffffffffffffff8111156120da576120d9611e09565b5b6120e686828701612015565b935050602084013567ffffffffffffffff81111561210757612106611e09565b5b6121138682870161204d565b92509250509250925092565b61212881611ec9565b811461213357600080fd5b50565b6000813590506121458161211f565b92915050565b60008060006040848603121561216457612163611e04565b5b600061217286828701612136565b935050602084013567ffffffffffffffff81111561219357612192611e09565b5b61219f8682870161204d565b92509250509250925092565b7f4e487b7100000000000000000000000000000000000000000000000000000000600052602160045260246000fd5b600381106121eb576121ea6121ab565b5b50565b60008190506121fc826121da565b919050565b600061220c826121ee565b9050919050565b61221c81612201565b82525050565b60006020820190506122376000830184612213565b92915050565b60006020828403121561225357612252611e04565b5b600061226184828501612136565b91505092915050565b600081519050919050565b600082825260208201905092915050565b60005b838110156122a4578082015181840152602081019050612289565b838111156122b3576000848401525b50505050565b60006122c48261226a565b6122ce8185612275565b93506122de818560208601612286565b6122e781611f07565b840191505092915050565b6000602082019050818103600083015261230c81846122b9565b905092915050565b600065ffffffffffff82169050919050565b61232f81612314565b811461233a57600080fd5b50565b60008135905061234c81612326565b92915050565b600063ffffffff82169050919050565b61236b81612352565b811461237657600080fd5b50565b60008135905061238881612362565b92915050565b600060ff82169050919050565b6123a48161238e565b81146123af57600080fd5b50565b6000813590506123c18161239b565b92915050565b600073ffffffffffffffffffffffffffffffffffffffff82169050919050565b60006123f2826123c7565b9050919050565b612402816123e7565b811461240d57600080fd5b50565b60008135905061241f816123f9565b92915050565b600067ffffffffffffffff8211156124405761243f611f18565b5b602082029050602081019050919050565b6000819050919050565b61246481612451565b811461246f57600080fd5b50565b6000813590506124818161245b565b92915050565b600061249a61249584612425565b611f78565b905080838252602082019050602084028301858111156124bd576124bc612048565b5b835b818110156124e657806124d28882612472565b8452602084019350506020810190506124bf565b5050509392505050565b600082601f83011261250557612504611efd565b5b8135612515848260208601612487565b91505092915050565b600080600080600060a0868803121561253a57612539611e04565b5b60006125488882890161233d565b955050602061255988828901612379565b945050604061256a888289016123b2565b935050606061257b88828901612410565b925050608086013567ffffffffffffffff81111561259c5761259b611e09565b5b6125a8888289016124f0565b9150509295509295909350565b600080604083850312156125cc576125cb611e04565b5b60006125da85828601612136565b92505060206125eb85828601612472565b9150509250929050565b600060408201905061260a6000830185611ed3565b6126176020830184611ed3565b9392505050565b600061ffff82169050919050565b6126358161261e565b811461264057600080fd5b50565b6000813590506126528161262c565b92915050565b60008060006060848603121561267157612670611e04565b5b600061267f86828701612136565b935050602061269086828701612643565b92505060406126a186828701612410565b9150509250925092565b6000602082840312156126c1576126c0611e04565b5b600082013567ffffffffffffffff8111156126df576126de611e09565b5b6126eb84828501612015565b91505092915050565b6126fd81612314565b82525050565b61270c81612352565b82525050565b61271b8161238e565b82525050565b61272a816123e7565b82525050565b600081519050919050565b600082825260208201905092915050565b6000819050602082019050919050565b61276581612451565b82525050565b6000612777838361275c565b60208301905092915050565b6000602082019050919050565b600061279b82612730565b6127a5818561273b565b93506127b08361274c565b8060005b838110156127e15781516127c8888261276b565b97506127d383612783565b9250506001810190506127b4565b5085935050505092915050565b600060a08201905061280360008301886126f4565b6128106020830187612703565b61281d6040830186612712565b61282a6060830185612721565b818103608083015261283c8184612790565b90509695505050505050565b600060208201905061285d6000830184612721565b92915050565b60006040820190506128786000830185611ed3565b6128856020830184612721565b9392505050565b7f4e487b7100000000000000000000000000000000000000000000000000000000600052601160045260246000fd5b60006128c682611ec9565b91506128d183611ec9565b9250827fffffffffffffffffffffffffffffffffffffffffffffffffffffffffffffffff038211156129065761290561288c565b5b828201905092915050565b600081905092915050565b60006129278261226a565b6129318185612911565b9350612941818560208601612286565b80840191505092915050565b6000819050919050565b61296861296382611ec9565b61294d565b82525050565b600061297a828561291c565b91506129868284612957565b6020820191508190509392505050565b600081549050919050565b60008190508160005260206000209050919050565b60008160001c9050919050565b6000819050919050565b60006129e06129db836129b6565b6129c3565b9050919050565b60006129f382546129cd565b9050919050565b6000600182019050919050565b6000612a1282612996565b612a1c818561273b565b9350612a27836129a1565b8060005b83811015612a5f57612a3c826129e7565b612a46888261276b565b9750612a51836129fa565b925050600181019050612a2b565b5085935050505092915050565b60006020820190508181036000830152612a868184612a07565b905092915050565b7f4e487b7100000000000000000000000000000000000000000000000000000000600052603260045260246000fd5b612ac681612451565b82525050565b6000602082019050612ae16000830184612abd565b92915050565b6000612af282611ec9565b9150612afd83611ec9565b925082821015612b1057612b0f61288c565b5b828203905092915050565b6000612b268261238e565b9150612b318361238e565b92508260ff03821115612b4757612b4661288c565b5b828201905092915050565b6000606082019050612b676000830186611ed3565b612b746020830185612712565b8181036040830152612b868184612a07565b9050949350505050565b60008160011c9050919050565b6000808291508390505b6001851115612be757808604811115612bc357612bc261288c565b5b6001851615612bd25780820291505b8081029050612be085612b90565b9450612ba7565b94509492505050565b600082612c005760019050612cbc565b81612c0e5760009050612cbc565b8160018114612c245760028114612c2e57612c5d565b6001915050612cbc565b60ff841115612c4057612c3f61288c565b5b8360020a915084821115612c5757612c5661288c565b5b50612cbc565b5060208310610133831016604e8410600b8410161715612c925782820a905083811115612c8d57612c8c61288c565b5b612cbc565b612c9f8484846001612b9d565b92509050818404811115612cb657612cb561288c565b5b81810290505b9392505050565b6000612cce82611ec9565b9150612cd98361238e565b9250612d067fffffffffffffffffffffffffffffffffffffffffffffffffffffffffffffffff8484612bf0565b905092915050565b7f4e487b7100000000000000000000000000000000000000000000000000000000600052601260045260246000fd5b6000612d4882611ec9565b9150612d5383611ec9565b925082612d6357612d62612d0e565b5b828204905092915050565b6000612d798261261e565b9150612d848361261e565b92508261ffff03821115612d9b57612d9a61288c565b5b828201905092915050565b6000612db182611ec9565b91507fffffffffffffffffffffffffffffffffffffffffffffffffffffffffffffffff8203612de357612de261288c565b5b600182019050919050565b600060208284031215612e0457612e03611e04565b5b600082013567ffffffffffffffff811115612e2257612e21611e09565b5b612e2e848285016124f0565b91505092915050565b6000606082019050612e4c6000830186611ed3565b612e596020830185611ed3565b612e666040830184612721565b949350505050565b600081519050612e7d8161211f565b92915050565b600060208284031215612e9957612e98611e04565b5b6000612ea784828501612e6e565b91505092915050565b6000612ebb8261261e565b915061ffff8203612ecf57612ece61288c565b5b600182019050919050565b600081519050612ee981612326565b92915050565b600081519050612efe81612362565b92915050565b600081519050612f138161239b565b92915050565b6000612f24826123c7565b9050919050565b612f3481612f19565b8114612f3f57600080fd5b50565b600081519050612f5181612f2b565b92915050565b600081519050612f668161245b565b92915050565b6000612f7f612f7a84612425565b611f78565b90508083825260208201905060208402830185811115612fa257612fa1612048565b5b835b81811015612fcb5780612fb78882612f57565b845260208401935050602081019050612fa4565b5050509392505050565b600082601f830112612fea57612fe9611efd565b5b8151612ffa848260208601612f6c565b91505092915050565b600080600080600060a0868803121561301f5761301e611e04565b5b600061302d88828901612eda565b955050602061303e88828901612eef565b945050604061304f88828901612f04565b935050606061306088828901612f42565b925050608086015167ffffffffffffffff81111561308157613080611e09565b5b61308d88828901612fd5565b9150509295509295909350565b60006130a68385612275565b93506130b3838584611fc4565b6130bc83611f07565b840190509392505050565b60006040820190506130dc60008301866126f4565b81810360208301526130ef81848661309a565b9050949350505050565b6000819050919050565b6000819050919050565b600061312861312361311e846130f9565b613103565b61238e565b9050919050565b6131388161310d565b82525050565b60006060820190506131536000830186611ed3565b613160602083018561312f565b61316d6040830184611ed3565b949350505050565b60006131808261238e565b915061318b8361238e565b92508282101561319e5761319d61288c565b5b828203905092915050565b60006131b482611ec9565b91506131bf83611ec9565b9250817fffffffffffffffffffffffffffffffffffffffffffffffffffffffffffffffff04831182151516156131f8576131f761288c565b5b828202905092915050565b60006060820190506132186000830186611ed3565b6132256020830185612712565b6132326040830184611ed3565b949350505050565b600060408201905061324f6000830185611ed3565b61325c6020830184612abd565b9392505050565b600061326e82611ec9565b915061327983611ec9565b92508261328957613288612d0e565b5b828206905092915050565b600061329f8261261e565b91506132aa8361261e565b9250828210156132bd576132bc61288c565b5b828203905092915050565b60006132d48385612911565b93506132e1838584611fc4565b82840190509392505050565b60006132fa8284866132c8565b91508190509392505050565b6000819050602082019050919050565b60006133228251612451565b80915050919050565b600082821b905092915050565b60006133438261226a565b8261334d84613306565b905061335881613316565b92506020821015613398576133937fffffffffffffffffffffffffffffffffffffffffffffffffffffffffffffffff8360200360080261332b565b831692505b5050919050565b60006133ab828461291c565b915081905092915050565b60007effffffffffffffffffffffffffffffffffffffffffffffffffffffffffffff82169050919050565b60008160081b9050919050565b60006133f9826133e1565b9050919050565b61341161340c826133b6565b6133ee565b82525050565b60008160f81b9050919050565b600061342f82613417565b9050919050565b6134476134428261238e565b613424565b82525050565b60006134598285613400565b601f820191506134698284613436565b6001820191508190509392505050565b60008160f01b9050919050565b600061349182613479565b9050919050565b6134a96134a48261261e565b613486565b82525050565b60007dffffffffffffffffffffffffffffffffffffffffffffffffffffffffffff82169050919050565b60008160101b9050919050565b60006134f1826134d9565b9050919050565b613509613504826134af565b6134e6565b82525050565b600061351b8285613498565b60028201915061352b82846134f8565b601e820191508190509392505050565b60007bffffffffffffffffffffffffffffffffffffffffffffffffffffffff82169050919050565b60008160201b9050919050565b600061357b82613563565b9050919050565b61359361358e8261353b565b613570565b82525050565b60008160e01b9050919050565b60006135b182613599565b9050919050565b6135c96135c482612352565b6135a6565b82525050565b60006135db8285613582565b601c820191506135eb82846135b8565b6004820191508190509392505050565b600061360682612314565b915061361183612314565b92508265ffffffffffff0382111561362c5761362b61288c565b5b828201905092915050565b600080fd5b600080fd5b6000808585111561365557613654613637565b5b838611156136665761366561363c565b5b6001850283019150848603905094509492505050565b6000819050919050565b61369761369282612451565b61367c565b82525050565b60006136aa8287896132c8565b91506136b68286613686565b6020820191506136c78284866132c8565b9150819050969550505050505056fea264697066735822122005a65f4da2775cac42564d15fd59e1d73170fdbf6df75c537457b6134176dd3b64736f6c634300080d0033",
  "linkReferences": {},
  "deployedLinkReferences": {}
}