{
  "_format": "hh-sol-artifact-1",
  "contractName": "Tournament",
  "sourceName": "src/implementations/votingContracts/Tournament/Tournament.sol",
  "abi": [
    {
      "inputs": [
        {
          "internalType": "uint256",
          "name": "identifier",
          "type": "uint256"
        },
        {
          "internalType": "uint256",
          "name": "group",
          "type": "uint256"
        },
        {
          "internalType": "address",
          "name": "voter",
          "type": "address"
        }
      ],
      "name": "AlreadyVoted",
      "type": "error"
    },
    {
      "inputs": [
        {
          "internalType": "uint48",
          "name": "insertAtByte",
          "type": "uint48"
        },
        {
          "internalType": "bytes",
          "name": "callback",
          "type": "bytes"
        }
      ],
      "name": "CallbackInsert",
      "type": "error"
    },
    {
      "inputs": [
        {
          "internalType": "uint256",
          "name": "identifier",
          "type": "uint256"
        },
        {
          "internalType": "uint256",
          "name": "status",
          "type": "uint256"
        }
      ],
      "name": "ImplementingNotPermitted",
      "type": "error"
    },
    {
      "inputs": [],
      "name": "InvalidCalldata",
      "type": "error"
    },
    {
      "inputs": [
        {
          "internalType": "uint256",
          "name": "identifier",
          "type": "uint256"
        },
        {
          "internalType": "uint8",
          "name": "rounds",
          "type": "uint8"
        },
        {
          "internalType": "uint256",
          "name": "options",
          "type": "uint256"
        }
      ],
      "name": "InvalidRounds",
      "type": "error"
    },
    {
      "inputs": [
        {
          "internalType": "uint256",
          "name": "identifier",
          "type": "uint256"
        },
        {
          "internalType": "bytes32",
          "name": "label",
          "type": "bytes32"
        }
      ],
      "name": "OnlyDistinctOptions",
      "type": "error"
    },
    {
      "inputs": [
        {
          "internalType": "uint256",
          "name": "identifier",
          "type": "uint256"
        },
        {
          "internalType": "uint256",
          "name": "status",
          "type": "uint256"
        }
      ],
      "name": "StatusError",
      "type": "error"
    },
    {
      "anonymous": false,
      "inputs": [
        {
          "indexed": false,
          "internalType": "uint256",
          "name": "identifier",
          "type": "uint256"
        }
      ],
      "name": "Implemented",
      "type": "event"
    },
    {
      "anonymous": false,
      "inputs": [
        {
          "indexed": false,
          "internalType": "uint256",
          "name": "identifier",
          "type": "uint256"
        }
      ],
      "name": "NotImplemented",
      "type": "event"
    },
    {
      "anonymous": false,
      "inputs": [
        {
          "indexed": true,
          "internalType": "uint256",
          "name": "identifier",
          "type": "uint256"
        },
        {
          "indexed": false,
          "internalType": "address",
          "name": "caller",
          "type": "address"
        }
      ],
      "name": "VotingInstanceStarted",
      "type": "event"
    },
    {
      "anonymous": false,
      "inputs": [
        {
          "indexed": false,
          "internalType": "uint256",
          "name": "identifier",
          "type": "uint256"
        },
        {
          "indexed": false,
          "internalType": "uint8",
          "name": "round",
          "type": "uint8"
        },
        {
          "indexed": false,
          "internalType": "bytes32[]",
          "name": "winners",
          "type": "bytes32[]"
        }
      ],
      "name": "WinnersOfThisRound",
      "type": "event"
    },
    {
      "inputs": [
        {
          "internalType": "uint256",
          "name": "identifier",
          "type": "uint256"
        },
        {
          "internalType": "uint16",
          "name": "group",
          "type": "uint16"
        },
        {
          "internalType": "address",
          "name": "voter",
          "type": "address"
        }
      ],
      "name": "alreadyVoted",
      "outputs": [
        {
          "internalType": "bool",
          "name": "",
          "type": "bool"
        }
      ],
      "stateMutability": "view",
      "type": "function"
    },
    {
      "inputs": [
        {
          "internalType": "bytes",
          "name": "votingParams",
          "type": "bytes"
        }
      ],
      "name": "decodeParameters",
      "outputs": [
        {
          "internalType": "uint48",
          "name": "insertAtByte",
          "type": "uint48"
        },
        {
          "internalType": "uint32",
          "name": "duration",
          "type": "uint32"
        },
        {
          "internalType": "uint8",
          "name": "rounds",
          "type": "uint8"
        },
        {
          "internalType": "address",
          "name": "token",
          "type": "address"
        },
        {
          "internalType": "bytes32[]",
          "name": "permutation",
          "type": "bytes32[]"
        }
      ],
      "stateMutability": "pure",
      "type": "function"
    },
    {
      "inputs": [
        {
          "internalType": "uint48",
          "name": "insertAtByte",
          "type": "uint48"
        },
        {
          "internalType": "uint32",
          "name": "duration",
          "type": "uint32"
        },
        {
          "internalType": "uint8",
          "name": "rounds",
          "type": "uint8"
        },
        {
          "internalType": "address",
          "name": "token",
          "type": "address"
        },
        {
          "internalType": "bytes32[]",
          "name": "permutation",
          "type": "bytes32[]"
        }
      ],
      "name": "encodeParameters",
      "outputs": [
        {
          "internalType": "bytes",
          "name": "votingParams",
          "type": "bytes"
        }
      ],
      "stateMutability": "pure",
      "type": "function"
    },
    {
      "inputs": [],
      "name": "getCurrentIndex",
      "outputs": [
        {
          "internalType": "uint256",
          "name": "currentIndex",
          "type": "uint256"
        }
      ],
      "stateMutability": "view",
      "type": "function"
    },
    {
      "inputs": [
        {
          "internalType": "uint256",
          "name": "identifier",
          "type": "uint256"
        }
      ],
      "name": "getDeadline",
      "outputs": [
        {
          "internalType": "uint256",
          "name": "",
          "type": "uint256"
        }
      ],
      "stateMutability": "view",
      "type": "function"
    },
    {
      "inputs": [
        {
          "internalType": "uint256",
          "name": "identifier",
          "type": "uint256"
        },
        {
          "internalType": "bytes32",
          "name": "option",
          "type": "bytes32"
        }
      ],
      "name": "getState",
      "outputs": [
        {
          "internalType": "uint256",
          "name": "votes",
          "type": "uint256"
        },
        {
          "internalType": "uint256",
          "name": "currentGroup",
          "type": "uint256"
        }
      ],
      "stateMutability": "view",
      "type": "function"
    },
    {
      "inputs": [
        {
          "internalType": "uint256",
          "name": "identifier",
          "type": "uint256"
        }
      ],
      "name": "getStatus",
      "outputs": [
        {
          "internalType": "uint256",
          "name": "",
          "type": "uint256"
        }
      ],
      "stateMutability": "view",
      "type": "function"
    },
    {
      "inputs": [
        {
          "internalType": "uint256",
          "name": "identifier",
          "type": "uint256"
        }
      ],
      "name": "getTarget",
      "outputs": [
        {
          "internalType": "address",
          "name": "target",
          "type": "address"
        }
      ],
      "stateMutability": "view",
      "type": "function"
    },
    {
      "inputs": [
        {
          "internalType": "uint256",
          "name": "identifier",
          "type": "uint256"
        },
        {
          "internalType": "bytes",
          "name": "callback",
          "type": "bytes"
        }
      ],
      "name": "implement",
      "outputs": [
        {
          "internalType": "enum IImplementResult.Response",
          "name": "",
          "type": "uint8"
        }
      ],
      "stateMutability": "payable",
      "type": "function"
    },
    {
      "inputs": [
        {
          "internalType": "uint256",
          "name": "identifier",
          "type": "uint256"
        }
      ],
      "name": "result",
      "outputs": [
        {
          "internalType": "bytes",
          "name": "resultData",
          "type": "bytes"
        }
      ],
      "stateMutability": "view",
      "type": "function"
    },
    {
      "inputs": [
        {
          "internalType": "bytes",
          "name": "votingParams",
          "type": "bytes"
        },
        {
          "internalType": "bytes",
          "name": "callback",
          "type": "bytes"
        }
      ],
      "name": "start",
      "outputs": [
        {
          "internalType": "uint256",
          "name": "identifier",
          "type": "uint256"
        }
      ],
      "stateMutability": "nonpayable",
      "type": "function"
    },
    {
      "inputs": [
        {
          "internalType": "bytes4",
          "name": "interfaceId",
          "type": "bytes4"
        }
      ],
      "name": "supportsInterface",
      "outputs": [
        {
          "internalType": "bool",
          "name": "",
          "type": "bool"
        }
      ],
      "stateMutability": "pure",
      "type": "function"
    },
    {
      "inputs": [
        {
          "internalType": "uint256",
          "name": "identifier",
          "type": "uint256"
        }
      ],
      "name": "triggerNextRound",
      "outputs": [
        {
          "internalType": "uint256",
          "name": "c",
          "type": "uint256"
        }
      ],
      "stateMutability": "nonpayable",
      "type": "function"
    },
    {
      "inputs": [
        {
          "internalType": "uint256",
          "name": "identifier",
          "type": "uint256"
        },
        {
          "internalType": "bytes",
          "name": "votingData",
          "type": "bytes"
        }
      ],
      "name": "vote",
      "outputs": [
        {
          "internalType": "uint256",
          "name": "",
          "type": "uint256"
        }
      ],
      "stateMutability": "nonpayable",
      "type": "function"
    }
  ],
  "bytecode": "0x608060405234801561001057600080fd5b506136e2806100206000396000f3fe6080604052600436106100dd5760003560e01c80636f5fa7571161007f578063b6c95b7011610059578063b6c95b7014610326578063b88b82ba14610363578063c691207e146103a0578063e6acc7cd146103e1576100dd565b80636f5fa7571461026e57806382862275146102ab5780638f176a0a146102e8576100dd565b80631540ac51116100bb5780631540ac51146101875780633c594059146101b7578063586eecce146101f45780635c622a0e14610231576100dd565b806301ffc9a7146100e25780630d9005ae1461011f5780631080156e1461014a575b600080fd5b3480156100ee57600080fd5b5061010960048036038101906101049190611e65565b61041e565b6040516101169190611ead565b60405180910390f35b34801561012b57600080fd5b506101346104f0565b6040516101419190611ee1565b60405180910390f35b34801561015657600080fd5b50610171600480360381019061016c91906120a2565b6104fa565b60405161017e9190611ee1565b60405180910390f35b6101a1600480360381019061019c919061214a565b61056a565b6040516101ae9190612221565b60405180910390f35b3480156101c357600080fd5b506101de60048036038101906101d9919061223c565b610709565b6040516101eb91906122f1565b60405180910390f35b34801561020057600080fd5b5061021b6004803603810190610216919061223c565b6107b8565b6040516102289190611ee1565b60405180910390f35b34801561023d57600080fd5b506102586004803603810190610253919061223c565b610c24565b6040516102659190611ee1565b60405180910390f35b34801561027a57600080fd5b506102956004803603810190610290919061251d565b610c49565b6040516102a291906122f1565b60405180910390f35b3480156102b757600080fd5b506102d260048036038101906102cd919061223c565b610c7e565b6040516102df9190611ee1565b60405180910390f35b3480156102f457600080fd5b5061030f600480360381019061030a91906125b4565b610ca3565b60405161031d9291906125f4565b60405180910390f35b34801561033257600080fd5b5061034d60048036038101906103489190612657565b610d0b565b60405161035a9190611ead565b60405180910390f35b34801561036f57600080fd5b5061038a6004803603810190610385919061214a565b610d8f565b6040516103979190611ee1565b60405180910390f35b3480156103ac57600080fd5b506103c760048036038101906103c291906126aa565b61134b565b6040516103d89594939291906127ed565b60405180910390f35b3480156103ed57600080fd5b506104086004803603810190610403919061223c565b611384565b6040516104159190612847565b60405180910390f35b60007f01ffc9a7000000000000000000000000000000000000000000000000000000007bffffffffffffffffffffffffffffffffffffffffffffffffffffffff1916827bffffffffffffffffffffffffffffffffffffffffffffffffffffffff191614806104e957507f9452d78d000000000000000000000000000000000000000000000000000000007bffffffffffffffffffffffffffffffffffffffffffffffffffffffff1916827bffffffffffffffffffffffffffffffffffffffffffffffffffffffff1916145b9050919050565b6000600454905090565b600061050a6004548585856113c0565b6004547f8e967d6054e2a51c6c0b65a326c2c53edf07f50d4a854e102eed777cfb5913783360405161053c9190612847565b60405180910390a2600454905060016004600082825461055c9190612891565b925050819055509392505050565b6000610575846118a2565b6105cb578360026000868152602001908152602001600020546040517f5ff5ab730000000000000000000000000000000000000000000000000000000081526004016105c29291906125f4565b60405180910390fd5b6105d684848461197c565b60008061064060008088815260200190815260200160002060009054906101000a900473ffffffffffffffffffffffffffffffffffffffff1661061a8888886119c2565b8860405160200161062c929190612944565b604051602081830303815290604052611a1a565b9150915060016002811115610658576106576121aa565b5b82600281111561066b5761066a6121aa565b5b1461067f5761067a8682611ab1565b61068a565b6106898682611af4565b5b9150600160028111156106a05761069f6121aa565b5b8260028111156106b3576106b26121aa565b5b146106d157600260048111156106cc576106cb6121aa565b5b6106e6565b600160048111156106e5576106e46121aa565b5b5b600260008881526020019081526020016000208190555081925050509392505050565b60606001600860008481526020019081526020016000208054905014610760576008600083815260200190815260200160002060405160200161074c9190612a42565b6040516020818303038152906040526107b1565b6008600083815260200190815260200160002060008154811061078657610785612a64565b5b90600052602060002001546040516020016107a19190612aa2565b6040516020818303038152906040525b9050919050565b60006107d66002600084815260200190815260200160002054611b37565b90506004808111156107eb576107ea6121aa565b5b6108076002600085815260200190815260200160002054611b68565b11801561082e575061082b6009600084815260200190815260200160002054611b7f565b42115b15610c1f576000600160048081111561084a576108496121aa565b5b6108666002600087815260200190815260200160002054611b68565b6108709190612abd565b61087a9190612abd565b905060008160ff16036109a45760006108e6600660008681526020019081526020016000206000600860008881526020019081526020016000206000815481106108c7576108c6612a64565b5b9060005260206000200154815260200190815260200160002054611baa565b0361091b57600260048111156108ff576108fe6121aa565b5b600260008581526020019081526020016000208190555061099f565b60048081111561092e5761092d6121aa565b5b60026000858152602001908152602001600020819055507fe731164a873a03e5187a675573ce8cf5f230eb5a0dc8516c9f3ffa3c6295645e836001836109749190612af1565b6008600087815260200190815260200160002060405161099693929190612b28565b60405180910390a15b610c1d565b8060026109b19190612c99565b826109bc9190612891565b91506109f18160ff166004808111156109d8576109d76121aa565b5b6109e29190612891565b83611bdb90919063ffffffff16565b60026000858152602001908152602001600020819055507fe731164a873a03e5187a675573ce8cf5f230eb5a0dc8516c9f3ffa3c6295645e83600183610a379190612af1565b60086000878152602001908152602001600020604051610a5993929190612b28565b60405180910390a1600060026008600086815260200190815260200160002080549050610a869190612d13565b67ffffffffffffffff811115610a9f57610a9e611f17565b5b604051908082528060200260200182016040528015610acd5781602001602082028036833780820191505090505b50905060005b6008600086815260200190815260200160002080549050811015610bad576000600860008781526020019081526020016000208281548110610b1857610b17612a64565b5b90600052602060002001549050610b45600283610b359190612d13565b86610b409190612d44565b611c13565b600660008881526020019081526020016000206000838152602001908152602001600020819055508083600284610b7c9190612d13565b81518110610b8d57610b8c612a64565b5b602002602001018181525050508080610ba590612d7c565b915050610ad3565b5080600860008681526020019081526020016000209080519060200190610bd5929190611d8f565b50610c04610bf56009600087815260200190815260200160002054611c48565b42611c5990919063ffffffff16565b6009600086815260200190815260200160002081905550505b505b919050565b6000610c426002600084815260200190815260200160002054611b68565b9050919050565b60608585858585604051602001610c649594939291906127ed565b604051602081830303815290604052905095945050505050565b6000610c9c6009600084815260200190815260200160002054611b7f565b9050919050565b600080610cd360066000868152602001908152602001600020600085815260200190815260200160002054611baa565b610d0060066000878152602001908152602001600020600086815260200190815260200160002054611c9f565b915091509250929050565b600060016007600086815260200190815260200160002060008561ffff16815260200190815260200160002060008473ffffffffffffffffffffffffffffffffffffffff1673ffffffffffffffffffffffffffffffffffffffff16815260200190815260200160002060009054906101000a900460ff1660ff161490509392505050565b6000600480811115610da457610da36121aa565b5b610dc06002600087815260200190815260200160002054611b68565b11610e17578360026000868152602001908152602001600020546040517f42ffc097000000000000000000000000000000000000000000000000000000008152600401610e0e9291906125f4565b60405180910390fd5b6000610e22856107b8565b905060026004811115610e3857610e376121aa565b5b600260008781526020019081526020016000205403610e6d576002600086815260200190815260200160002054915050611344565b60008484810190610e7e9190612dc4565b905060005b81518161ffff16101561132a576000610edd600660008a81526020019081526020016000206000858561ffff1681518110610ec157610ec0612a64565b5b6020026020010151815260200190815260200160002054611c9f565b90506000600760008a8152602001908152602001600020600083815260200190815260200160002060003373ffffffffffffffffffffffffffffffffffffffff1673ffffffffffffffffffffffffffffffffffffffff16815260200190815260200160002060009054906101000a900460ff1660ff161115610f9a578781336040517f6c110732000000000000000000000000000000000000000000000000000000008152600401610f9193929190612e0d565b60405180910390fd5b6000600360008a815260200190815260200160002060009054906101000a900473ffffffffffffffffffffffffffffffffffffffff1673ffffffffffffffffffffffffffffffffffffffff166370a08231336040518263ffffffff1660e01b81526004016110089190612847565b602060405180830381865afa158015611025573d6000803e3d6000fd5b505050506040513d601f19601f820116820180604052508101906110499190612e59565b90507dffffffffffffffffffffffffffffffffffffffffffffffffffffffffffff80166110b7600660008c81526020019081526020016000206000878761ffff168151811061109b5761109a612a64565b5b6020026020010151815260200190815260200160002054611baa565b826110c29190612891565b11156110f457600260048111156110dc576110db6121aa565b5b600260008b8152602001908152602001600020819055505b80600660008b81526020019081526020016000206000868661ffff168151811061112157611120612a64565b5b602002602001015181526020019081526020016000205460001c6111459190612891565b60001b600660008b81526020019081526020016000206000868661ffff168151811061117457611173612a64565b5b6020026020010151815260200190815260200160002081905550600660008a81526020019081526020016000206000600860008c815260200190815260200160002087856111c29190612abd565b815481106111d3576111d2612a64565b5b906000526020600020015481526020019081526020016000205460001c600660008b81526020019081526020016000206000868661ffff168151811061121c5761121b612a64565b5b602002602001015181526020019081526020016000205460001c111561129a57838361ffff168151811061125357611252612a64565b5b6020026020010151600860008b8152602001908152602001600020868461127a9190612abd565b8154811061128b5761128a612a64565b5b90600052602060002001819055505b6001600760008b8152602001908152602001600020600084815260200190815260200160002060003373ffffffffffffffffffffffffffffffffffffffff1673ffffffffffffffffffffffffffffffffffffffff16815260200190815260200160002060006101000a81548160ff021916908360ff1602179055505050808061132290612e86565b915050610e83565b506002600087815260200190815260200160002054925050505b9392505050565b6000806000806060858060200190518101906113679190612fd9565b809550819650829750839850849950505050505091939590929450565b600080600083815260200190815260200160002060009054906101000a900473ffffffffffffffffffffffffffffffffffffffff169050919050565b3360008086815260200190815260200160002060006101000a81548173ffffffffffffffffffffffffffffffffffffffff021916908373ffffffffffffffffffffffffffffffffffffffff16021790555060008060008060006114228861134b565b945094509450945094508686905060248665ffffffffffff166114459190612891565b111561148c578487876040517f910b00ba0000000000000000000000000000000000000000000000000000000081526004016114839392919061309d565b60405180910390fd5b84600560008b815260200190815260200160002060006101000a81548165ffffffffffff021916908365ffffffffffff16021790555081600360008b815260200190815260200160002060006101000a81548173ffffffffffffffffffffffffffffffffffffffff021916908373ffffffffffffffffffffffffffffffffffffffff16021790555060008360ff16036115625788600082516040517f1dbb6eb400000000000000000000000000000000000000000000000000000000815260040161155993929190613114565b60405180910390fd5b6000600184611571919061314b565b600261157d9190612c99565b905080600261158c919061317f565b825110156115d657898483516040517f1dbb6eb40000000000000000000000000000000000000000000000000000000081526004016115cd939291906131d9565b60405180910390fd5b6115e98542611c5990919063ffffffff16565b600960008c8152602001908152602001600020819055508067ffffffffffffffff81111561161a57611619611f17565b5b6040519080825280602002602001820160405280156116485781602001602082028036833780820191505090505b50600860008c8152602001908152602001600020908051906020019061166f929190611d8f565b5060005b82518161ffff16101561181b576000801b600660008d81526020019081526020016000206000858461ffff16815181106116b0576116af612a64565b5b602002602001015181526020019081526020016000205414611729578a838261ffff16815181106116e4576116e3612a64565b5b60200260200101516040517f40eb881e000000000000000000000000000000000000000000000000000000008152600401611720929190613210565b60405180910390fd5b60006001838361ffff1661173d9190613239565b6117479190612891565b905061175281611c13565b600660008e81526020019081526020016000206000868561ffff168151811061177e5761177d612a64565b5b6020026020010151815260200190815260200160002081905550828261ffff16101561180757838261ffff16815181106117bb576117ba612a64565b5b6020026020010151600860008e81526020019081526020016000206001836117e3919061326a565b61ffff16815481106117f8576117f7612a64565b5b90600052602060002001819055505b50808061181390612e86565b915050611673565b506118508460ff16600480811115611836576118356121aa565b5b6118409190612891565b6001611bdb90919063ffffffff16565b600260008c81526020019081526020016000208190555087876040516118779291906132c3565b6040518091039020600160008c81526020019081526020016000208190555050505050505050505050565b6000806004808111156118b8576118b76121aa565b5b6118c184610c24565b14905060006118cf84611cb0565b8015611900575060016004808111156118eb576118ea6121aa565b5b6118f59190612891565b6118fe85610c24565b145b905081806119735750808015611972575060006119706006600087815260200190815260200160002060006008600089815260200190815260200160002060008154811061195157611950612a64565b5b9060005260206000200154815260200190815260200160002054611baa565b115b5b92505050919050565b611987838383611cd7565b6119bd576040517f8129bbcd00000000000000000000000000000000000000000000000000000000815260040160405180910390fd5b505050565b6060611a1183836005600088815260200190815260200160002060009054906101000a900465ffffffffffff166119f888610709565b611a019061330e565b611d0f909392919063ffffffff16565b90509392505050565b600060606000808573ffffffffffffffffffffffffffffffffffffffff163486604051611a479190613375565b60006040518083038185875af1925050503d8060008114611a84576040519150601f19603f3d011682016040523d82523d6000602084013e611a89565b606091505b5091509150600082611a9c576002611a9f565b60015b90508082945094505050509250929050565b60007ff1ce307d6c8f222892d7eb3afa1f623ef595620a12027617499df1e6873de9ac83604051611ae29190611ee1565b60405180910390a16002905092915050565b6000600190507febde80ec5f4e6c8b3a987f2a89cdc9c91b6c5e00b337e2581ed6302994c81e3f83604051611b299190611ee1565b60405180910390a192915050565b60008160001b60081c7effffffffffffffffffffffffffffffffffffffffffffffffffffffffffffff169050919050565b600060f88260001b901b60f81c60ff169050919050565b60008160201c7bffffffffffffffffffffffffffffffffffffffffffffffffffffffff169050919050565b6000601082901b60101c7dffffffffffffffffffffffffffffffffffffffffffffffffffffffffffff169050919050565b60008282604051602001611bf0929190613423565b604051602081830303815290604052611c089061330e565b60001c905092915050565b6000816000604051602001611c299291906134e5565b604051602081830303815290604052611c419061330e565b9050919050565b600060e082901b60e01c9050919050565b60008163ffffffff1683611c6d9190612891565b82604051602001611c7f9291906135a5565b604051602081830303815290604052611c979061330e565b905092915050565b60008160f01c61ffff169050919050565b6000611cce6009600084815260200190815260200160002054611b7f565b42119050919050565b60008282604051611ce99291906132c3565b604051809103902060016000868152602001908152602001600020541490509392505050565b60608383600090600485611d2391906135d1565b65ffffffffffff1692611d3893929190613617565b868686602487611d4891906135d1565b65ffffffffffff16908989905092611d6293929190613617565b604051602001611d76959493929190613673565b6040516020818303038152906040529050949350505050565b828054828255906000526020600020908101928215611dcb579160200282015b82811115611dca578251825591602001919060010190611daf565b5b509050611dd89190611ddc565b5090565b5b80821115611df5576000816000905550600101611ddd565b5090565b6000604051905090565b600080fd5b600080fd5b60007fffffffff0000000000000000000000000000000000000000000000000000000082169050919050565b611e4281611e0d565b8114611e4d57600080fd5b50565b600081359050611e5f81611e39565b92915050565b600060208284031215611e7b57611e7a611e03565b5b6000611e8984828501611e50565b91505092915050565b60008115159050919050565b611ea781611e92565b82525050565b6000602082019050611ec26000830184611e9e565b92915050565b6000819050919050565b611edb81611ec8565b82525050565b6000602082019050611ef66000830184611ed2565b92915050565b600080fd5b600080fd5b6000601f19601f8301169050919050565b7f4e487b7100000000000000000000000000000000000000000000000000000000600052604160045260246000fd5b611f4f82611f06565b810181811067ffffffffffffffff82111715611f6e57611f6d611f17565b5b80604052505050565b6000611f81611df9565b9050611f8d8282611f46565b919050565b600067ffffffffffffffff821115611fad57611fac611f17565b5b611fb682611f06565b9050602081019050919050565b82818337600083830152505050565b6000611fe5611fe084611f92565b611f77565b90508281526020810184848401111561200157612000611f01565b5b61200c848285611fc3565b509392505050565b600082601f83011261202957612028611efc565b5b8135612039848260208601611fd2565b91505092915050565b600080fd5b600080fd5b60008083601f84011261206257612061611efc565b5b8235905067ffffffffffffffff81111561207f5761207e612042565b5b60208301915083600182028301111561209b5761209a612047565b5b9250929050565b6000806000604084860312156120bb576120ba611e03565b5b600084013567ffffffffffffffff8111156120d9576120d8611e08565b5b6120e586828701612014565b935050602084013567ffffffffffffffff81111561210657612105611e08565b5b6121128682870161204c565b92509250509250925092565b61212781611ec8565b811461213257600080fd5b50565b6000813590506121448161211e565b92915050565b60008060006040848603121561216357612162611e03565b5b600061217186828701612135565b935050602084013567ffffffffffffffff81111561219257612191611e08565b5b61219e8682870161204c565b92509250509250925092565b7f4e487b7100000000000000000000000000000000000000000000000000000000600052602160045260246000fd5b600381106121ea576121e96121aa565b5b50565b60008190506121fb826121d9565b919050565b600061220b826121ed565b9050919050565b61221b81612200565b82525050565b60006020820190506122366000830184612212565b92915050565b60006020828403121561225257612251611e03565b5b600061226084828501612135565b91505092915050565b600081519050919050565b600082825260208201905092915050565b60005b838110156122a3578082015181840152602081019050612288565b838111156122b2576000848401525b50505050565b60006122c382612269565b6122cd8185612274565b93506122dd818560208601612285565b6122e681611f06565b840191505092915050565b6000602082019050818103600083015261230b81846122b8565b905092915050565b600065ffffffffffff82169050919050565b61232e81612313565b811461233957600080fd5b50565b60008135905061234b81612325565b92915050565b600063ffffffff82169050919050565b61236a81612351565b811461237557600080fd5b50565b60008135905061238781612361565b92915050565b600060ff82169050919050565b6123a38161238d565b81146123ae57600080fd5b50565b6000813590506123c08161239a565b92915050565b600073ffffffffffffffffffffffffffffffffffffffff82169050919050565b60006123f1826123c6565b9050919050565b612401816123e6565b811461240c57600080fd5b50565b60008135905061241e816123f8565b92915050565b600067ffffffffffffffff82111561243f5761243e611f17565b5b602082029050602081019050919050565b6000819050919050565b61246381612450565b811461246e57600080fd5b50565b6000813590506124808161245a565b92915050565b600061249961249484612424565b611f77565b905080838252602082019050602084028301858111156124bc576124bb612047565b5b835b818110156124e557806124d18882612471565b8452602084019350506020810190506124be565b5050509392505050565b600082601f83011261250457612503611efc565b5b8135612514848260208601612486565b91505092915050565b600080600080600060a0868803121561253957612538611e03565b5b60006125478882890161233c565b955050602061255888828901612378565b9450506040612569888289016123b1565b935050606061257a8882890161240f565b925050608086013567ffffffffffffffff81111561259b5761259a611e08565b5b6125a7888289016124ef565b9150509295509295909350565b600080604083850312156125cb576125ca611e03565b5b60006125d985828601612135565b92505060206125ea85828601612471565b9150509250929050565b60006040820190506126096000830185611ed2565b6126166020830184611ed2565b9392505050565b600061ffff82169050919050565b6126348161261d565b811461263f57600080fd5b50565b6000813590506126518161262b565b92915050565b6000806000606084860312156126705761266f611e03565b5b600061267e86828701612135565b935050602061268f86828701612642565b92505060406126a08682870161240f565b9150509250925092565b6000602082840312156126c0576126bf611e03565b5b600082013567ffffffffffffffff8111156126de576126dd611e08565b5b6126ea84828501612014565b91505092915050565b6126fc81612313565b82525050565b61270b81612351565b82525050565b61271a8161238d565b82525050565b612729816123e6565b82525050565b600081519050919050565b600082825260208201905092915050565b6000819050602082019050919050565b61276481612450565b82525050565b6000612776838361275b565b60208301905092915050565b6000602082019050919050565b600061279a8261272f565b6127a4818561273a565b93506127af8361274b565b8060005b838110156127e05781516127c7888261276a565b97506127d283612782565b9250506001810190506127b3565b5085935050505092915050565b600060a08201905061280260008301886126f3565b61280f6020830187612702565b61281c6040830186612711565b6128296060830185612720565b818103608083015261283b818461278f565b90509695505050505050565b600060208201905061285c6000830184612720565b92915050565b7f4e487b7100000000000000000000000000000000000000000000000000000000600052601160045260246000fd5b600061289c82611ec8565b91506128a783611ec8565b9250827fffffffffffffffffffffffffffffffffffffffffffffffffffffffffffffffff038211156128dc576128db612862565b5b828201905092915050565b600081905092915050565b60006128fd82612269565b61290781856128e7565b9350612917818560208601612285565b80840191505092915050565b6000819050919050565b61293e61293982611ec8565b612923565b82525050565b600061295082856128f2565b915061295c828461292d565b6020820191508190509392505050565b600081549050919050565b60008190508160005260206000209050919050565b60008160001c9050919050565b6000819050919050565b60006129b66129b18361298c565b612999565b9050919050565b60006129c982546129a3565b9050919050565b6000600182019050919050565b60006129e88261296c565b6129f2818561273a565b93506129fd83612977565b8060005b83811015612a3557612a12826129bd565b612a1c888261276a565b9750612a27836129d0565b925050600181019050612a01565b5085935050505092915050565b60006020820190508181036000830152612a5c81846129dd565b905092915050565b7f4e487b7100000000000000000000000000000000000000000000000000000000600052603260045260246000fd5b612a9c81612450565b82525050565b6000602082019050612ab76000830184612a93565b92915050565b6000612ac882611ec8565b9150612ad383611ec8565b925082821015612ae657612ae5612862565b5b828203905092915050565b6000612afc8261238d565b9150612b078361238d565b92508260ff03821115612b1d57612b1c612862565b5b828201905092915050565b6000606082019050612b3d6000830186611ed2565b612b4a6020830185612711565b8181036040830152612b5c81846129dd565b9050949350505050565b60008160011c9050919050565b6000808291508390505b6001851115612bbd57808604811115612b9957612b98612862565b5b6001851615612ba85780820291505b8081029050612bb685612b66565b9450612b7d565b94509492505050565b600082612bd65760019050612c92565b81612be45760009050612c92565b8160018114612bfa5760028114612c0457612c33565b6001915050612c92565b60ff841115612c1657612c15612862565b5b8360020a915084821115612c2d57612c2c612862565b5b50612c92565b5060208310610133831016604e8410600b8410161715612c685782820a905083811115612c6357612c62612862565b5b612c92565b612c758484846001612b73565b92509050818404811115612c8c57612c8b612862565b5b81810290505b9392505050565b6000612ca482611ec8565b9150612caf8361238d565b9250612cdc7fffffffffffffffffffffffffffffffffffffffffffffffffffffffffffffffff8484612bc6565b905092915050565b7f4e487b7100000000000000000000000000000000000000000000000000000000600052601260045260246000fd5b6000612d1e82611ec8565b9150612d2983611ec8565b925082612d3957612d38612ce4565b5b828204905092915050565b6000612d4f8261261d565b9150612d5a8361261d565b92508261ffff03821115612d7157612d70612862565b5b828201905092915050565b6000612d8782611ec8565b91507fffffffffffffffffffffffffffffffffffffffffffffffffffffffffffffffff8203612db957612db8612862565b5b600182019050919050565b600060208284031215612dda57612dd9611e03565b5b600082013567ffffffffffffffff811115612df857612df7611e08565b5b612e04848285016124ef565b91505092915050565b6000606082019050612e226000830186611ed2565b612e2f6020830185611ed2565b612e3c6040830184612720565b949350505050565b600081519050612e538161211e565b92915050565b600060208284031215612e6f57612e6e611e03565b5b6000612e7d84828501612e44565b91505092915050565b6000612e918261261d565b915061ffff8203612ea557612ea4612862565b5b600182019050919050565b600081519050612ebf81612325565b92915050565b600081519050612ed481612361565b92915050565b600081519050612ee98161239a565b92915050565b6000612efa826123c6565b9050919050565b612f0a81612eef565b8114612f1557600080fd5b50565b600081519050612f2781612f01565b92915050565b600081519050612f3c8161245a565b92915050565b6000612f55612f5084612424565b611f77565b90508083825260208201905060208402830185811115612f7857612f77612047565b5b835b81811015612fa15780612f8d8882612f2d565b845260208401935050602081019050612f7a565b5050509392505050565b600082601f830112612fc057612fbf611efc565b5b8151612fd0848260208601612f42565b91505092915050565b600080600080600060a08688031215612ff557612ff4611e03565b5b600061300388828901612eb0565b955050602061301488828901612ec5565b945050604061302588828901612eda565b935050606061303688828901612f18565b925050608086015167ffffffffffffffff81111561305757613056611e08565b5b61306388828901612fab565b9150509295509295909350565b600061307c8385612274565b9350613089838584611fc3565b61309283611f06565b840190509392505050565b60006040820190506130b260008301866126f3565b81810360208301526130c5818486613070565b9050949350505050565b6000819050919050565b6000819050919050565b60006130fe6130f96130f4846130cf565b6130d9565b61238d565b9050919050565b61310e816130e3565b82525050565b60006060820190506131296000830186611ed2565b6131366020830185613105565b6131436040830184611ed2565b949350505050565b60006131568261238d565b91506131618361238d565b92508282101561317457613173612862565b5b828203905092915050565b600061318a82611ec8565b915061319583611ec8565b9250817fffffffffffffffffffffffffffffffffffffffffffffffffffffffffffffffff04831182151516156131ce576131cd612862565b5b828202905092915050565b60006060820190506131ee6000830186611ed2565b6131fb6020830185612711565b6132086040830184611ed2565b949350505050565b60006040820190506132256000830185611ed2565b6132326020830184612a93565b9392505050565b600061324482611ec8565b915061324f83611ec8565b92508261325f5761325e612ce4565b5b828206905092915050565b60006132758261261d565b91506132808361261d565b92508282101561329357613292612862565b5b828203905092915050565b60006132aa83856128e7565b93506132b7838584611fc3565b82840190509392505050565b60006132d082848661329e565b91508190509392505050565b6000819050602082019050919050565b60006132f88251612450565b80915050919050565b600082821b905092915050565b600061331982612269565b82613323846132dc565b905061332e816132ec565b9250602082101561336e576133697fffffffffffffffffffffffffffffffffffffffffffffffffffffffffffffffff83602003600802613301565b831692505b5050919050565b600061338182846128f2565b915081905092915050565b60007effffffffffffffffffffffffffffffffffffffffffffffffffffffffffffff82169050919050565b60008160081b9050919050565b60006133cf826133b7565b9050919050565b6133e76133e28261338c565b6133c4565b82525050565b60008160f81b9050919050565b6000613405826133ed565b9050919050565b61341d6134188261238d565b6133fa565b82525050565b600061342f82856133d6565b601f8201915061343f828461340c565b6001820191508190509392505050565b60008160f01b9050919050565b60006134678261344f565b9050919050565b61347f61347a8261261d565b61345c565b82525050565b60007dffffffffffffffffffffffffffffffffffffffffffffffffffffffffffff82169050919050565b60008160101b9050919050565b60006134c7826134af565b9050919050565b6134df6134da82613485565b6134bc565b82525050565b60006134f1828561346e565b60028201915061350182846134ce565b601e820191508190509392505050565b60007bffffffffffffffffffffffffffffffffffffffffffffffffffffffff82169050919050565b60008160201b9050919050565b600061355182613539565b9050919050565b61356961356482613511565b613546565b82525050565b60008160e01b9050919050565b60006135878261356f565b9050919050565b61359f61359a82612351565b61357c565b82525050565b60006135b18285613558565b601c820191506135c1828461358e565b6004820191508190509392505050565b60006135dc82612313565b91506135e783612313565b92508265ffffffffffff0382111561360257613601612862565b5b828201905092915050565b600080fd5b600080fd5b6000808585111561362b5761362a61360d565b5b8386111561363c5761363b613612565b5b6001850283019150848603905094509492505050565b6000819050919050565b61366d61366882612450565b613652565b82525050565b600061368082878961329e565b915061368c828661365c565b60208201915061369d82848661329e565b9150819050969550505050505056fea2646970667358221220afc748499adc279d2c389366734e1794fd9067981ca09946979f2bb34994284364736f6c634300080d0033",
  "linkReferences": {},
  "deployedLinkReferences": {}
}