{
  "_format": "hh-sol-artifact-1",
  "contractName": "PlaygroundVotingBadge",
  "sourceName": "src/examples/playground/VotingBadge.sol",
  "abi": [
    {
      "inputs": [
        {
          "internalType": "string",
          "name": "name",
          "type": "string"
        },
        {
          "internalType": "string",
          "name": "symbol",
          "type": "string"
        }
      ],
      "stateMutability": "nonpayable",
      "type": "constructor"
    },
    {
      "inputs": [
        {
          "internalType": "address",
          "name": "sender",
          "type": "address"
        }
      ],
      "name": "NotApprovedContract",
      "type": "error"
    },
    {
      "inputs": [
        {
          "internalType": "address",
          "name": "sender",
          "type": "address"
        },
        {
          "internalType": "address",
          "name": "_motherContract",
          "type": "address"
        }
      ],
      "name": "OnlyMotherContract",
      "type": "error"
    },
    {
      "inputs": [
        {
          "internalType": "uint256",
          "name": "tokenId",
          "type": "uint256"
        }
      ],
      "name": "TransferNotAllowed",
      "type": "error"
    },
    {
      "anonymous": false,
      "inputs": [
        {
          "indexed": true,
          "internalType": "address",
          "name": "owner",
          "type": "address"
        },
        {
          "indexed": true,
          "internalType": "address",
          "name": "approved",
          "type": "address"
        },
        {
          "indexed": true,
          "internalType": "uint256",
          "name": "tokenId",
          "type": "uint256"
        }
      ],
      "name": "Approval",
      "type": "event"
    },
    {
      "anonymous": false,
      "inputs": [
        {
          "indexed": true,
          "internalType": "address",
          "name": "owner",
          "type": "address"
        },
        {
          "indexed": true,
          "internalType": "address",
          "name": "operator",
          "type": "address"
        },
        {
          "indexed": false,
          "internalType": "bool",
          "name": "approved",
          "type": "bool"
        }
      ],
      "name": "ApprovalForAll",
      "type": "event"
    },
    {
      "anonymous": false,
      "inputs": [
        {
          "indexed": false,
          "internalType": "uint256",
          "name": "tokenId",
          "type": "uint256"
        },
        {
          "indexed": false,
          "internalType": "address",
          "name": "to",
          "type": "address"
        },
        {
          "indexed": false,
          "internalType": "bytes4",
          "name": "selector",
          "type": "bytes4"
        },
        {
          "indexed": false,
          "internalType": "address",
          "name": "votingContract",
          "type": "address"
        },
        {
          "indexed": false,
          "internalType": "uint256",
          "name": "index",
          "type": "uint256"
        }
      ],
      "name": "Blaab",
      "type": "event"
    },
    {
      "anonymous": false,
      "inputs": [
        {
          "indexed": true,
          "internalType": "address",
          "name": "from",
          "type": "address"
        },
        {
          "indexed": true,
          "internalType": "address",
          "name": "to",
          "type": "address"
        },
        {
          "indexed": true,
          "internalType": "uint256",
          "name": "tokenId",
          "type": "uint256"
        }
      ],
      "name": "Transfer",
      "type": "event"
    },
    {
      "inputs": [
        {
          "internalType": "address",
          "name": "to",
          "type": "address"
        },
        {
          "internalType": "uint256",
          "name": "tokenId",
          "type": "uint256"
        }
      ],
      "name": "approve",
      "outputs": [],
      "stateMutability": "nonpayable",
      "type": "function"
    },
    {
      "inputs": [
        {
          "internalType": "address",
          "name": "newContract",
          "type": "address"
        },
        {
          "internalType": "bool",
          "name": "approval",
          "type": "bool"
        }
      ],
      "name": "approveContract",
      "outputs": [
        {
          "internalType": "bool",
          "name": "",
          "type": "bool"
        }
      ],
      "stateMutability": "nonpayable",
      "type": "function"
    },
    {
      "inputs": [
        {
          "internalType": "address",
          "name": "owner",
          "type": "address"
        }
      ],
      "name": "balanceOf",
      "outputs": [
        {
          "internalType": "uint256",
          "name": "",
          "type": "uint256"
        }
      ],
      "stateMutability": "view",
      "type": "function"
    },
    {
      "inputs": [
        {
          "internalType": "address",
          "name": "owner",
          "type": "address"
        },
        {
          "internalType": "bytes4",
          "name": "selector",
          "type": "bytes4"
        }
      ],
      "name": "balanceOfSignature",
      "outputs": [
        {
          "internalType": "uint256",
          "name": "balance",
          "type": "uint256"
        }
      ],
      "stateMutability": "view",
      "type": "function"
    },
    {
      "inputs": [
        {
          "internalType": "uint256",
          "name": "index",
          "type": "uint256"
        },
        {
          "internalType": "bytes4",
          "name": "selector",
          "type": "bytes4"
        },
        {
          "internalType": "address",
          "name": "votingContract",
          "type": "address"
        },
        {
          "internalType": "address",
          "name": "minter",
          "type": "address"
        }
      ],
      "name": "calculateId",
      "outputs": [
        {
          "internalType": "uint256",
          "name": "",
          "type": "uint256"
        }
      ],
      "stateMutability": "pure",
      "type": "function"
    },
    {
      "inputs": [
        {
          "internalType": "uint256",
          "name": "newThreshold",
          "type": "uint256"
        }
      ],
      "name": "changeEnableTradingThreshold",
      "outputs": [
        {
          "internalType": "bool",
          "name": "",
          "type": "bool"
        }
      ],
      "stateMutability": "nonpayable",
      "type": "function"
    },
    {
      "inputs": [
        {
          "internalType": "bool",
          "name": "enable",
          "type": "bool"
        }
      ],
      "name": "changeTradingEnabledGlobally",
      "outputs": [
        {
          "internalType": "bool",
          "name": "",
          "type": "bool"
        }
      ],
      "stateMutability": "nonpayable",
      "type": "function"
    },
    {
      "inputs": [],
      "name": "enableTradingThreshold",
      "outputs": [
        {
          "internalType": "uint256",
          "name": "",
          "type": "uint256"
        }
      ],
      "stateMutability": "view",
      "type": "function"
    },
    {
      "inputs": [
        {
          "internalType": "uint256",
          "name": "tokenId",
          "type": "uint256"
        }
      ],
      "name": "exists",
      "outputs": [
        {
          "internalType": "bool",
          "name": "",
          "type": "bool"
        }
      ],
      "stateMutability": "view",
      "type": "function"
    },
    {
      "inputs": [
        {
          "internalType": "uint256",
          "name": "tokenId",
          "type": "uint256"
        }
      ],
      "name": "getApproved",
      "outputs": [
        {
          "internalType": "address",
          "name": "",
          "type": "address"
        }
      ],
      "stateMutability": "view",
      "type": "function"
    },
    {
      "inputs": [
        {
          "internalType": "address",
          "name": "",
          "type": "address"
        }
      ],
      "name": "isApprovedContract",
      "outputs": [
        {
          "internalType": "bool",
          "name": "",
          "type": "bool"
        }
      ],
      "stateMutability": "view",
      "type": "function"
    },
    {
      "inputs": [
        {
          "internalType": "address",
          "name": "owner",
          "type": "address"
        },
        {
          "internalType": "address",
          "name": "operator",
          "type": "address"
        }
      ],
      "name": "isApprovedForAll",
      "outputs": [
        {
          "internalType": "bool",
          "name": "",
          "type": "bool"
        }
      ],
      "stateMutability": "view",
      "type": "function"
    },
    {
      "inputs": [
        {
          "internalType": "address",
          "name": "to",
          "type": "address"
        },
        {
          "internalType": "uint256",
          "name": "index",
          "type": "uint256"
        },
        {
          "internalType": "bytes4",
          "name": "selector",
          "type": "bytes4"
        },
        {
          "internalType": "address",
          "name": "votingContract",
          "type": "address"
        }
      ],
      "name": "mint",
      "outputs": [],
      "stateMutability": "nonpayable",
      "type": "function"
    },
    {
      "inputs": [],
      "name": "motherContract",
      "outputs": [
        {
          "internalType": "address",
          "name": "",
          "type": "address"
        }
      ],
      "stateMutability": "view",
      "type": "function"
    },
    {
      "inputs": [],
      "name": "name",
      "outputs": [
        {
          "internalType": "string",
          "name": "",
          "type": "string"
        }
      ],
      "stateMutability": "view",
      "type": "function"
    },
    {
      "inputs": [
        {
          "internalType": "uint256",
          "name": "tokenId",
          "type": "uint256"
        }
      ],
      "name": "ownerOf",
      "outputs": [
        {
          "internalType": "address",
          "name": "",
          "type": "address"
        }
      ],
      "stateMutability": "view",
      "type": "function"
    },
    {
      "inputs": [
        {
          "internalType": "address",
          "name": "from",
          "type": "address"
        },
        {
          "internalType": "address",
          "name": "to",
          "type": "address"
        },
        {
          "internalType": "uint256",
          "name": "tokenId",
          "type": "uint256"
        }
      ],
      "name": "safeTransferFrom",
      "outputs": [],
      "stateMutability": "nonpayable",
      "type": "function"
    },
    {
      "inputs": [
        {
          "internalType": "address",
          "name": "from",
          "type": "address"
        },
        {
          "internalType": "address",
          "name": "to",
          "type": "address"
        },
        {
          "internalType": "uint256",
          "name": "tokenId",
          "type": "uint256"
        },
        {
          "internalType": "bytes",
          "name": "_data",
          "type": "bytes"
        }
      ],
      "name": "safeTransferFrom",
      "outputs": [],
      "stateMutability": "nonpayable",
      "type": "function"
    },
    {
      "inputs": [
        {
          "internalType": "address",
          "name": "operator",
          "type": "address"
        },
        {
          "internalType": "bool",
          "name": "approved",
          "type": "bool"
        }
      ],
      "name": "setApprovalForAll",
      "outputs": [],
      "stateMutability": "nonpayable",
      "type": "function"
    },
    {
      "inputs": [
        {
          "internalType": "bytes4",
          "name": "interfaceId",
          "type": "bytes4"
        }
      ],
      "name": "supportsInterface",
      "outputs": [
        {
          "internalType": "bool",
          "name": "",
          "type": "bool"
        }
      ],
      "stateMutability": "view",
      "type": "function"
    },
    {
      "inputs": [],
      "name": "symbol",
      "outputs": [
        {
          "internalType": "string",
          "name": "",
          "type": "string"
        }
      ],
      "stateMutability": "view",
      "type": "function"
    },
    {
      "inputs": [
        {
          "internalType": "uint256",
          "name": "tokenId",
          "type": "uint256"
        }
      ],
      "name": "tokenURI",
      "outputs": [
        {
          "internalType": "string",
          "name": "",
          "type": "string"
        }
      ],
      "stateMutability": "view",
      "type": "function"
    },
    {
      "inputs": [
        {
          "internalType": "address",
          "name": "",
          "type": "address"
        }
      ],
      "name": "tradingEnabled",
      "outputs": [
        {
          "internalType": "bool",
          "name": "",
          "type": "bool"
        }
      ],
      "stateMutability": "view",
      "type": "function"
    },
    {
      "inputs": [],
      "name": "tradingEnabledGlobally",
      "outputs": [
        {
          "internalType": "bool",
          "name": "",
          "type": "bool"
        }
      ],
      "stateMutability": "view",
      "type": "function"
    },
    {
      "inputs": [
        {
          "internalType": "address",
          "name": "from",
          "type": "address"
        },
        {
          "internalType": "address",
          "name": "to",
          "type": "address"
        },
        {
          "internalType": "uint256",
          "name": "tokenId",
          "type": "uint256"
        }
      ],
      "name": "transferFrom",
      "outputs": [],
      "stateMutability": "nonpayable",
      "type": "function"
    }
  ],
  "bytecode": "0x60806040523480156200001157600080fd5b5060405162003a6938038062003a6983398181016040528101906200003791906200035b565b81818160009080519060200190620000519291906200010e565b5080600190805190602001906200006a9291906200010e565b50505033600860006101000a81548173ffffffffffffffffffffffffffffffffffffffff021916908373ffffffffffffffffffffffffffffffffffffffff1602179055506001600660003373ffffffffffffffffffffffffffffffffffffffff1673ffffffffffffffffffffffffffffffffffffffff16815260200190815260200160002060006101000a81548160ff021916908315150217905550505062000444565b8280546200011c906200040f565b90600052602060002090601f0160209004810192826200014057600085556200018c565b82601f106200015b57805160ff19168380011785556200018c565b828001600101855582156200018c579182015b828111156200018b5782518255916020019190600101906200016e565b5b5090506200019b91906200019f565b5090565b5b80821115620001ba576000816000905550600101620001a0565b5090565b6000604051905090565b600080fd5b600080fd5b600080fd5b600080fd5b6000601f19601f8301169050919050565b7f4e487b7100000000000000000000000000000000000000000000000000000000600052604160045260246000fd5b6200022782620001dc565b810181811067ffffffffffffffff82111715620002495762000248620001ed565b5b80604052505050565b60006200025e620001be565b90506200026c82826200021c565b919050565b600067ffffffffffffffff8211156200028f576200028e620001ed565b5b6200029a82620001dc565b9050602081019050919050565b60005b83811015620002c7578082015181840152602081019050620002aa565b83811115620002d7576000848401525b50505050565b6000620002f4620002ee8462000271565b62000252565b905082815260208101848484011115620003135762000312620001d7565b5b62000320848285620002a7565b509392505050565b600082601f83011262000340576200033f620001d2565b5b815162000352848260208601620002dd565b91505092915050565b60008060408385031215620003755762000374620001c8565b5b600083015167ffffffffffffffff811115620003965762000395620001cd565b5b620003a48582860162000328565b925050602083015167ffffffffffffffff811115620003c857620003c7620001cd565b5b620003d68582860162000328565b9150509250929050565b7f4e487b7100000000000000000000000000000000000000000000000000000000600052602260045260246000fd5b600060028204905060018216806200042857607f821691505b6020821081036200043e576200043d620003e0565b5b50919050565b61361580620004546000396000f3fe608060405234801561001057600080fd5b50600436106101735760003560e01c80636352211e116100de57806395d89b4111610097578063bedf952511610071578063bedf9525146104aa578063c87b56dd146104da578063d113cc801461050a578063e985e9c51461052657610173565b806395d89b4114610454578063a22cb46514610472578063b88d4fde1461048e57610173565b80636352211e146103465780636eedadca1461037657806370a08231146103a65780637c7e9a18146103d6578063853bc120146103f457806395a9c3361461042457610173565b806323b872dd1161013057806323b872dd1461026057806339b25f821461027c5780634098da351461029a57806342842e0e146102ca57806349d95693146102e65780634f558e791461031657610173565b806301ffc9a71461017857806302ba7100146101a85780630439f4a0146101c657806306fdde03146101f6578063081812fc14610214578063095ea7b314610244575b600080fd5b610192600480360381019061018d919061222f565b610556565b60405161019f9190612277565b60405180910390f35b6101b0610638565b6040516101bd91906122d3565b60405180910390f35b6101e060048036038101906101db919061231a565b61065e565b6040516101ed9190612277565b60405180910390f35b6101fe610735565b60405161020b91906123e0565b60405180910390f35b61022e60048036038101906102299190612438565b6107c7565b60405161023b91906122d3565b60405180910390f35b61025e60048036038101906102599190612491565b61084c565b005b61027a600480360381019061027591906124d1565b610963565b005b6102846109c3565b6040516102919190612277565b60405180910390f35b6102b460048036038101906102af9190612524565b6109d6565b6040516102c19190612277565b60405180910390f35b6102e460048036038101906102df91906124d1565b610aeb565b005b61030060048036038101906102fb9190612438565b610b0b565b60405161030d9190612277565b60405180910390f35b610330600480360381019061032b9190612438565b610bcf565b60405161033d9190612277565b60405180910390f35b610360600480360381019061035b9190612438565b610be1565b60405161036d91906122d3565b60405180910390f35b610390600480360381019061038b9190612564565b610c92565b60405161039d9190612277565b60405180910390f35b6103c060048036038101906103bb9190612564565b610cb2565b6040516103cd91906125a0565b60405180910390f35b6103de610d69565b6040516103eb91906125a0565b60405180910390f35b61040e600480360381019061040991906125bb565b610d6f565b60405161041b91906125a0565b60405180910390f35b61043e600480360381019061043991906125fb565b610e08565b60405161044b91906125a0565b60405180910390f35b61045c610e56565b60405161046991906123e0565b60405180910390f35b61048c60048036038101906104879190612524565b610ee8565b005b6104a860048036038101906104a39190612797565b610efe565b005b6104c460048036038101906104bf9190612564565b610f60565b6040516104d19190612277565b60405180910390f35b6104f460048036038101906104ef9190612438565b610f80565b60405161050191906123e0565b60405180910390f35b610524600480360381019061051f919061281a565b611027565b005b610540600480360381019061053b9190612881565b611115565b60405161054d9190612277565b60405180910390f35b60007f80ac58cd000000000000000000000000000000000000000000000000000000007bffffffffffffffffffffffffffffffffffffffffffffffffffffffff1916827bffffffffffffffffffffffffffffffffffffffffffffffffffffffff1916148061062157507f5b5e139f000000000000000000000000000000000000000000000000000000007bffffffffffffffffffffffffffffffffffffffffffffffffffffffff1916827bffffffffffffffffffffffffffffffffffffffffffffffffffffffff1916145b806106315750610630826111a9565b5b9050919050565b600860009054906101000a900473ffffffffffffffffffffffffffffffffffffffff1681565b6000600860009054906101000a900473ffffffffffffffffffffffffffffffffffffffff1673ffffffffffffffffffffffffffffffffffffffff163373ffffffffffffffffffffffffffffffffffffffff16146107165733600860009054906101000a900473ffffffffffffffffffffffffffffffffffffffff166040517f5a8e48e100000000000000000000000000000000000000000000000000000000815260040161070d9291906128c1565b60405180910390fd5b81600a60006101000a81548160ff021916908315150217905550919050565b60606000805461074490612919565b80601f016020809104026020016040519081016040528092919081815260200182805461077090612919565b80156107bd5780601f10610792576101008083540402835291602001916107bd565b820191906000526020600020905b8154815290600101906020018083116107a057829003601f168201915b5050505050905090565b60006107d282611213565b610811576040517f08c379a0000000000000000000000000000000000000000000000000000000008152600401610808906129bc565b60405180910390fd5b6004600083815260200190815260200160002060009054906101000a900473ffffffffffffffffffffffffffffffffffffffff169050919050565b600061085782610be1565b90508073ffffffffffffffffffffffffffffffffffffffff168373ffffffffffffffffffffffffffffffffffffffff16036108c7576040517f08c379a00000000000000000000000000000000000000000000000000000000081526004016108be90612a4e565b60405180910390fd5b8073ffffffffffffffffffffffffffffffffffffffff166108e661127f565b73ffffffffffffffffffffffffffffffffffffffff16148061091557506109148161090f61127f565b611115565b5b610954576040517f08c379a000000000000000000000000000000000000000000000000000000000815260040161094b90612ae0565b60405180910390fd5b61095e8383611287565b505050565b61097461096e61127f565b82611340565b6109b3576040517f08c379a00000000000000000000000000000000000000000000000000000000081526004016109aa90612b72565b60405180910390fd5b6109be83838361141e565b505050565b600a60009054906101000a900460ff1681565b6000600860009054906101000a900473ffffffffffffffffffffffffffffffffffffffff1673ffffffffffffffffffffffffffffffffffffffff163373ffffffffffffffffffffffffffffffffffffffff1614610a8e5733600860009054906101000a900473ffffffffffffffffffffffffffffffffffffffff166040517f5a8e48e1000000000000000000000000000000000000000000000000000000008152600401610a859291906128c1565b60405180910390fd5b81600660008573ffffffffffffffffffffffffffffffffffffffff1673ffffffffffffffffffffffffffffffffffffffff16815260200190815260200160002060006101000a81548160ff02191690831515021790555092915050565b610b0683838360405180602001604052806000815250610efe565b505050565b6000600860009054906101000a900473ffffffffffffffffffffffffffffffffffffffff1673ffffffffffffffffffffffffffffffffffffffff163373ffffffffffffffffffffffffffffffffffffffff1614610bc35733600860009054906101000a900473ffffffffffffffffffffffffffffffffffffffff166040517f5a8e48e1000000000000000000000000000000000000000000000000000000008152600401610bba9291906128c1565b60405180910390fd5b81600981905550919050565b6000610bda82611213565b9050919050565b6000806002600084815260200190815260200160002060009054906101000a900473ffffffffffffffffffffffffffffffffffffffff169050600073ffffffffffffffffffffffffffffffffffffffff168173ffffffffffffffffffffffffffffffffffffffff1603610c89576040517f08c379a0000000000000000000000000000000000000000000000000000000008152600401610c8090612c04565b60405180910390fd5b80915050919050565b60066020528060005260406000206000915054906101000a900460ff1681565b60008073ffffffffffffffffffffffffffffffffffffffff168273ffffffffffffffffffffffffffffffffffffffff1603610d22576040517f08c379a0000000000000000000000000000000000000000000000000000000008152600401610d1990612c96565b60405180910390fd5b600360008373ffffffffffffffffffffffffffffffffffffffff1673ffffffffffffffffffffffffffffffffffffffff168152602001908152602001600020549050919050565b60095481565b6000600b60008473ffffffffffffffffffffffffffffffffffffffff1673ffffffffffffffffffffffffffffffffffffffff1681526020019081526020016000206000837bffffffffffffffffffffffffffffffffffffffffffffffffffffffff19167bffffffffffffffffffffffffffffffffffffffffffffffffffffffff1916815260200190815260200160002054905092915050565b600060e08560001b901b60e01c8260601b858560601b604051602001610e319493929190612d6a565b604051602081830303815290604052610e4990612dff565b60001c9050949350505050565b606060018054610e6590612919565b80601f0160208091040260200160405190810160405280929190818152602001828054610e9190612919565b8015610ede5780601f10610eb357610100808354040283529160200191610ede565b820191906000526020600020905b815481529060010190602001808311610ec157829003601f168201915b5050505050905090565b610efa610ef361127f565b8383611684565b5050565b610f0f610f0961127f565b83611340565b610f4e576040517f08c379a0000000000000000000000000000000000000000000000000000000008152600401610f4590612b72565b60405180910390fd5b610f5a848484846117f0565b50505050565b60076020528060005260406000206000915054906101000a900460ff1681565b6060610f8b82611213565b610fca576040517f08c379a0000000000000000000000000000000000000000000000000000000008152600401610fc190612ed8565b60405180910390fd5b6000610fd461184c565b90506000815111610ff4576040518060200160405280600081525061101f565b80610ffe84611863565b60405160200161100f929190612f34565b6040516020818303038152906040525b915050919050565b600660003373ffffffffffffffffffffffffffffffffffffffff1673ffffffffffffffffffffffffffffffffffffffff16815260200190815260200160002060009054906101000a900460ff166110b557336040517f775da7800000000000000000000000000000000000000000000000000000000081526004016110ac91906122d3565b60405180910390fd5b60006110c384848488610e08565b90507f76d5f1c79ca409b300148d0e1263254e94c340b4e2868cc9184847b8a0d20a8781868585886040516110fc959493929190612f67565b60405180910390a161110e85826119c3565b5050505050565b6000600560008473ffffffffffffffffffffffffffffffffffffffff1673ffffffffffffffffffffffffffffffffffffffff16815260200190815260200160002060008373ffffffffffffffffffffffffffffffffffffffff1673ffffffffffffffffffffffffffffffffffffffff16815260200190815260200160002060009054906101000a900460ff16905092915050565b60007f01ffc9a7000000000000000000000000000000000000000000000000000000007bffffffffffffffffffffffffffffffffffffffffffffffffffffffff1916827bffffffffffffffffffffffffffffffffffffffffffffffffffffffff1916149050919050565b60008073ffffffffffffffffffffffffffffffffffffffff166002600084815260200190815260200160002060009054906101000a900473ffffffffffffffffffffffffffffffffffffffff1673ffffffffffffffffffffffffffffffffffffffff1614159050919050565b600033905090565b816004600083815260200190815260200160002060006101000a81548173ffffffffffffffffffffffffffffffffffffffff021916908373ffffffffffffffffffffffffffffffffffffffff160217905550808273ffffffffffffffffffffffffffffffffffffffff166112fa83610be1565b73ffffffffffffffffffffffffffffffffffffffff167f8c5be1e5ebec7d5bd14f71427d1e84f3dd0314c0f7b2291e5b200ac8c7c3b92560405160405180910390a45050565b600061134b82611213565b61138a576040517f08c379a00000000000000000000000000000000000000000000000000000000081526004016113819061302c565b60405180910390fd5b600061139583610be1565b90508073ffffffffffffffffffffffffffffffffffffffff168473ffffffffffffffffffffffffffffffffffffffff1614806113d757506113d68185611115565b5b8061141557508373ffffffffffffffffffffffffffffffffffffffff166113fd846107c7565b73ffffffffffffffffffffffffffffffffffffffff16145b91505092915050565b8273ffffffffffffffffffffffffffffffffffffffff1661143e82610be1565b73ffffffffffffffffffffffffffffffffffffffff1614611494576040517f08c379a000000000000000000000000000000000000000000000000000000000815260040161148b906130be565b60405180910390fd5b600073ffffffffffffffffffffffffffffffffffffffff168273ffffffffffffffffffffffffffffffffffffffff1603611503576040517f08c379a00000000000000000000000000000000000000000000000000000000081526004016114fa90613150565b60405180910390fd5b61150e838383611b9c565b611519600082611287565b6001600360008573ffffffffffffffffffffffffffffffffffffffff1673ffffffffffffffffffffffffffffffffffffffff1681526020019081526020016000206000828254611569919061319f565b925050819055506001600360008473ffffffffffffffffffffffffffffffffffffffff1673ffffffffffffffffffffffffffffffffffffffff16815260200190815260200160002060008282546115c091906131d3565b92505081905550816002600083815260200190815260200160002060006101000a81548173ffffffffffffffffffffffffffffffffffffffff021916908373ffffffffffffffffffffffffffffffffffffffff160217905550808273ffffffffffffffffffffffffffffffffffffffff168473ffffffffffffffffffffffffffffffffffffffff167fddf252ad1be2c89b69c2b068fc378daa952ba7f163c4a11628f55a4df523b3ef60405160405180910390a461167f838383611c5f565b505050565b8173ffffffffffffffffffffffffffffffffffffffff168373ffffffffffffffffffffffffffffffffffffffff16036116f2576040517f08c379a00000000000000000000000000000000000000000000000000000000081526004016116e990613275565b60405180910390fd5b80600560008573ffffffffffffffffffffffffffffffffffffffff1673ffffffffffffffffffffffffffffffffffffffff16815260200190815260200160002060008473ffffffffffffffffffffffffffffffffffffffff1673ffffffffffffffffffffffffffffffffffffffff16815260200190815260200160002060006101000a81548160ff0219169083151502179055508173ffffffffffffffffffffffffffffffffffffffff168373ffffffffffffffffffffffffffffffffffffffff167f17307eab39ab6107e8899845ad3d59bd9653f200f220920489ca2b5937696c31836040516117e39190612277565b60405180910390a3505050565b6117fb84848461141e565b61180784848484611ee1565b611846576040517f08c379a000000000000000000000000000000000000000000000000000000000815260040161183d90613307565b60405180910390fd5b50505050565b606060405180602001604052806000815250905090565b6060600082036118aa576040518060400160405280600181526020017f300000000000000000000000000000000000000000000000000000000000000081525090506119be565b600082905060005b600082146118dc5780806118c590613327565b915050600a826118d5919061339e565b91506118b2565b60008167ffffffffffffffff8111156118f8576118f761266c565b5b6040519080825280601f01601f19166020018201604052801561192a5781602001600182028036833780820191505090505b5090505b600085146119b757600182611943919061319f565b9150600a8561195291906133cf565b603061195e91906131d3565b60f81b81838151811061197457611973613400565b5b60200101907effffffffffffffffffffffffffffffffffffffffffffffffffffffffffffff1916908160001a905350600a856119b0919061339e565b945061192e565b8093505050505b919050565b600073ffffffffffffffffffffffffffffffffffffffff168273ffffffffffffffffffffffffffffffffffffffff1603611a32576040517f08c379a0000000000000000000000000000000000000000000000000000000008152600401611a299061347b565b60405180910390fd5b611a3b81611213565b15611a7b576040517f08c379a0000000000000000000000000000000000000000000000000000000008152600401611a72906134e7565b60405180910390fd5b611a8760008383611b9c565b6001600360008473ffffffffffffffffffffffffffffffffffffffff1673ffffffffffffffffffffffffffffffffffffffff1681526020019081526020016000206000828254611ad791906131d3565b92505081905550816002600083815260200190815260200160002060006101000a81548173ffffffffffffffffffffffffffffffffffffffff021916908373ffffffffffffffffffffffffffffffffffffffff160217905550808273ffffffffffffffffffffffffffffffffffffffff16600073ffffffffffffffffffffffffffffffffffffffff167fddf252ad1be2c89b69c2b068fc378daa952ba7f163c4a11628f55a4df523b3ef60405160405180910390a4611b9860008383611c5f565b5050565b600073ffffffffffffffffffffffffffffffffffffffff168373ffffffffffffffffffffffffffffffffffffffff1614158015611c065750600073ffffffffffffffffffffffffffffffffffffffff168273ffffffffffffffffffffffffffffffffffffffff1614155b8015611c185750611c1681612068565b155b15611c5a57806040517f24484a00000000000000000000000000000000000000000000000000000000008152600401611c5191906125a0565b60405180910390fd5b505050565b600060808260001b901b9050600073ffffffffffffffffffffffffffffffffffffffff168473ffffffffffffffffffffffffffffffffffffffff1603611d4a576001600b60008573ffffffffffffffffffffffffffffffffffffffff1673ffffffffffffffffffffffffffffffffffffffff1681526020019081526020016000206000837bffffffffffffffffffffffffffffffffffffffffffffffffffffffff19167bffffffffffffffffffffffffffffffffffffffffffffffffffffffff191681526020019081526020016000206000828254611d3e91906131d3565b92505081905550611edb565b60008073ffffffffffffffffffffffffffffffffffffffff168473ffffffffffffffffffffffffffffffffffffffff1614611d86576001611d89565b60005b60ff16905080600b60008673ffffffffffffffffffffffffffffffffffffffff1673ffffffffffffffffffffffffffffffffffffffff1681526020019081526020016000206000847bffffffffffffffffffffffffffffffffffffffffffffffffffffffff19167bffffffffffffffffffffffffffffffffffffffffffffffffffffffff191681526020019081526020016000206000828254611e2c91906131d3565b925050819055506001600b60008773ffffffffffffffffffffffffffffffffffffffff1673ffffffffffffffffffffffffffffffffffffffff1681526020019081526020016000206000847bffffffffffffffffffffffffffffffffffffffffffffffffffffffff19167bffffffffffffffffffffffffffffffffffffffffffffffffffffffff191681526020019081526020016000206000828254611ed2919061319f565b92505081905550505b50505050565b6000611f028473ffffffffffffffffffffffffffffffffffffffff166121a0565b1561205b578373ffffffffffffffffffffffffffffffffffffffff1663150b7a02611f2b61127f565b8786866040518563ffffffff1660e01b8152600401611f4d9493929190613551565b6020604051808303816000875af1925050508015611f8957506040513d601f19601f82011682018060405250810190611f8691906135b2565b60015b61200b573d8060008114611fb9576040519150601f19603f3d011682016040523d82523d6000602084013e611fbe565b606091505b506000815103612003576040517f08c379a0000000000000000000000000000000000000000000000000000000008152600401611ffa90613307565b60405180910390fd5b805181602001fd5b63150b7a0260e01b7bffffffffffffffffffffffffffffffffffffffffffffffffffffffff1916817bffffffffffffffffffffffffffffffffffffffffffffffffffffffff191614915050612060565b600190505b949350505050565b6000600760003373ffffffffffffffffffffffffffffffffffffffff1673ffffffffffffffffffffffffffffffffffffffff16815260200190815260200160002060009054906101000a900460ff161580156120d657506009546120d36120ce84610be1565b610cb2565b10155b15612134576001600760003373ffffffffffffffffffffffffffffffffffffffff1673ffffffffffffffffffffffffffffffffffffffff16815260200190815260200160002060006101000a81548160ff0219169083151502179055505b600760003373ffffffffffffffffffffffffffffffffffffffff1673ffffffffffffffffffffffffffffffffffffffff16815260200190815260200160002060009054906101000a900460ff1680156121995750600a60009054906101000a900460ff165b9050919050565b6000808273ffffffffffffffffffffffffffffffffffffffff163b119050919050565b6000604051905090565b600080fd5b600080fd5b60007fffffffff0000000000000000000000000000000000000000000000000000000082169050919050565b61220c816121d7565b811461221757600080fd5b50565b60008135905061222981612203565b92915050565b600060208284031215612245576122446121cd565b5b60006122538482850161221a565b91505092915050565b60008115159050919050565b6122718161225c565b82525050565b600060208201905061228c6000830184612268565b92915050565b600073ffffffffffffffffffffffffffffffffffffffff82169050919050565b60006122bd82612292565b9050919050565b6122cd816122b2565b82525050565b60006020820190506122e860008301846122c4565b92915050565b6122f78161225c565b811461230257600080fd5b50565b600081359050612314816122ee565b92915050565b6000602082840312156123305761232f6121cd565b5b600061233e84828501612305565b91505092915050565b600081519050919050565b600082825260208201905092915050565b60005b83811015612381578082015181840152602081019050612366565b83811115612390576000848401525b50505050565b6000601f19601f8301169050919050565b60006123b282612347565b6123bc8185612352565b93506123cc818560208601612363565b6123d581612396565b840191505092915050565b600060208201905081810360008301526123fa81846123a7565b905092915050565b6000819050919050565b61241581612402565b811461242057600080fd5b50565b6000813590506124328161240c565b92915050565b60006020828403121561244e5761244d6121cd565b5b600061245c84828501612423565b91505092915050565b61246e816122b2565b811461247957600080fd5b50565b60008135905061248b81612465565b92915050565b600080604083850312156124a8576124a76121cd565b5b60006124b68582860161247c565b92505060206124c785828601612423565b9150509250929050565b6000806000606084860312156124ea576124e96121cd565b5b60006124f88682870161247c565b93505060206125098682870161247c565b925050604061251a86828701612423565b9150509250925092565b6000806040838503121561253b5761253a6121cd565b5b60006125498582860161247c565b925050602061255a85828601612305565b9150509250929050565b60006020828403121561257a576125796121cd565b5b60006125888482850161247c565b91505092915050565b61259a81612402565b82525050565b60006020820190506125b56000830184612591565b92915050565b600080604083850312156125d2576125d16121cd565b5b60006125e08582860161247c565b92505060206125f18582860161221a565b9150509250929050565b60008060008060808587031215612615576126146121cd565b5b600061262387828801612423565b94505060206126348782880161221a565b93505060406126458782880161247c565b92505060606126568782880161247c565b91505092959194509250565b600080fd5b600080fd5b7f4e487b7100000000000000000000000000000000000000000000000000000000600052604160045260246000fd5b6126a482612396565b810181811067ffffffffffffffff821117156126c3576126c261266c565b5b80604052505050565b60006126d66121c3565b90506126e2828261269b565b919050565b600067ffffffffffffffff8211156127025761270161266c565b5b61270b82612396565b9050602081019050919050565b82818337600083830152505050565b600061273a612735846126e7565b6126cc565b90508281526020810184848401111561275657612755612667565b5b612761848285612718565b509392505050565b600082601f83011261277e5761277d612662565b5b813561278e848260208601612727565b91505092915050565b600080600080608085870312156127b1576127b06121cd565b5b60006127bf8782880161247c565b94505060206127d08782880161247c565b93505060406127e187828801612423565b925050606085013567ffffffffffffffff811115612802576128016121d2565b5b61280e87828801612769565b91505092959194509250565b60008060008060808587031215612834576128336121cd565b5b60006128428782880161247c565b945050602061285387828801612423565b93505060406128648782880161221a565b92505060606128758782880161247c565b91505092959194509250565b60008060408385031215612898576128976121cd565b5b60006128a68582860161247c565b92505060206128b78582860161247c565b9150509250929050565b60006040820190506128d660008301856122c4565b6128e360208301846122c4565b9392505050565b7f4e487b7100000000000000000000000000000000000000000000000000000000600052602260045260246000fd5b6000600282049050600182168061293157607f821691505b602082108103612944576129436128ea565b5b50919050565b7f4552433732313a20617070726f76656420717565727920666f72206e6f6e657860008201527f697374656e7420746f6b656e0000000000000000000000000000000000000000602082015250565b60006129a6602c83612352565b91506129b18261294a565b604082019050919050565b600060208201905081810360008301526129d581612999565b9050919050565b7f4552433732313a20617070726f76616c20746f2063757272656e74206f776e6560008201527f7200000000000000000000000000000000000000000000000000000000000000602082015250565b6000612a38602183612352565b9150612a43826129dc565b604082019050919050565b60006020820190508181036000830152612a6781612a2b565b9050919050565b7f4552433732313a20617070726f76652063616c6c6572206973206e6f74206f7760008201527f6e6572206e6f7220617070726f76656420666f7220616c6c0000000000000000602082015250565b6000612aca603883612352565b9150612ad582612a6e565b604082019050919050565b60006020820190508181036000830152612af981612abd565b9050919050565b7f4552433732313a207472616e736665722063616c6c6572206973206e6f74206f60008201527f776e6572206e6f7220617070726f766564000000000000000000000000000000602082015250565b6000612b5c603183612352565b9150612b6782612b00565b604082019050919050565b60006020820190508181036000830152612b8b81612b4f565b9050919050565b7f4552433732313a206f776e657220717565727920666f72206e6f6e657869737460008201527f656e7420746f6b656e0000000000000000000000000000000000000000000000602082015250565b6000612bee602983612352565b9150612bf982612b92565b604082019050919050565b60006020820190508181036000830152612c1d81612be1565b9050919050565b7f4552433732313a2062616c616e636520717565727920666f7220746865207a6560008201527f726f206164647265737300000000000000000000000000000000000000000000602082015250565b6000612c80602a83612352565b9150612c8b82612c24565b604082019050919050565b60006020820190508181036000830152612caf81612c73565b9050919050565b600063ffffffff82169050919050565b60008160e01b9050919050565b6000612cde82612cc6565b9050919050565b612cf6612cf182612cb6565b612cd3565b82525050565b60007fffffffffffffffffffffffff000000000000000000000000000000000000000082169050919050565b6000819050919050565b612d43612d3e82612cfc565b612d28565b82525050565b6000819050919050565b612d64612d5f826121d7565b612d49565b82525050565b6000612d768287612ce5565b600482019150612d868286612d32565b600c82019150612d968285612d53565b600482019150612da68284612d32565b600c8201915081905095945050505050565b600081519050919050565b6000819050602082019050919050565b6000819050919050565b6000612de98251612dd3565b80915050919050565b600082821b905092915050565b6000612e0a82612db8565b82612e1484612dc3565b9050612e1f81612ddd565b92506020821015612e5f57612e5a7fffffffffffffffffffffffffffffffffffffffffffffffffffffffffffffffff83602003600802612df2565b831692505b5050919050565b7f4552433732314d657461646174613a2055524920717565727920666f72206e6f60008201527f6e6578697374656e7420746f6b656e0000000000000000000000000000000000602082015250565b6000612ec2602f83612352565b9150612ecd82612e66565b604082019050919050565b60006020820190508181036000830152612ef181612eb5565b9050919050565b600081905092915050565b6000612f0e82612347565b612f188185612ef8565b9350612f28818560208601612363565b80840191505092915050565b6000612f408285612f03565b9150612f4c8284612f03565b91508190509392505050565b612f61816121d7565b82525050565b600060a082019050612f7c6000830188612591565b612f8960208301876122c4565b612f966040830186612f58565b612fa360608301856122c4565b612fb06080830184612591565b9695505050505050565b7f4552433732313a206f70657261746f7220717565727920666f72206e6f6e657860008201527f697374656e7420746f6b656e0000000000000000000000000000000000000000602082015250565b6000613016602c83612352565b915061302182612fba565b604082019050919050565b6000602082019050818103600083015261304581613009565b9050919050565b7f4552433732313a207472616e736665722066726f6d20696e636f72726563742060008201527f6f776e6572000000000000000000000000000000000000000000000000000000602082015250565b60006130a8602583612352565b91506130b38261304c565b604082019050919050565b600060208201905081810360008301526130d78161309b565b9050919050565b7f4552433732313a207472616e7366657220746f20746865207a65726f2061646460008201527f7265737300000000000000000000000000000000000000000000000000000000602082015250565b600061313a602483612352565b9150613145826130de565b604082019050919050565b600060208201905081810360008301526131698161312d565b9050919050565b7f4e487b7100000000000000000000000000000000000000000000000000000000600052601160045260246000fd5b60006131aa82612402565b91506131b583612402565b9250828210156131c8576131c7613170565b5b828203905092915050565b60006131de82612402565b91506131e983612402565b9250827fffffffffffffffffffffffffffffffffffffffffffffffffffffffffffffffff0382111561321e5761321d613170565b5b828201905092915050565b7f4552433732313a20617070726f766520746f2063616c6c657200000000000000600082015250565b600061325f601983612352565b915061326a82613229565b602082019050919050565b6000602082019050818103600083015261328e81613252565b9050919050565b7f4552433732313a207472616e7366657220746f206e6f6e20455243373231526560008201527f63656976657220696d706c656d656e7465720000000000000000000000000000602082015250565b60006132f1603283612352565b91506132fc82613295565b604082019050919050565b60006020820190508181036000830152613320816132e4565b9050919050565b600061333282612402565b91507fffffffffffffffffffffffffffffffffffffffffffffffffffffffffffffffff820361336457613363613170565b5b600182019050919050565b7f4e487b7100000000000000000000000000000000000000000000000000000000600052601260045260246000fd5b60006133a982612402565b91506133b483612402565b9250826133c4576133c361336f565b5b828204905092915050565b60006133da82612402565b91506133e583612402565b9250826133f5576133f461336f565b5b828206905092915050565b7f4e487b7100000000000000000000000000000000000000000000000000000000600052603260045260246000fd5b7f4552433732313a206d696e7420746f20746865207a65726f2061646472657373600082015250565b6000613465602083612352565b91506134708261342f565b602082019050919050565b6000602082019050818103600083015261349481613458565b9050919050565b7f4552433732313a20746f6b656e20616c7265616479206d696e74656400000000600082015250565b60006134d1601c83612352565b91506134dc8261349b565b602082019050919050565b60006020820190508181036000830152613500816134c4565b9050919050565b600082825260208201905092915050565b600061352382612db8565b61352d8185613507565b935061353d818560208601612363565b61354681612396565b840191505092915050565b600060808201905061356660008301876122c4565b61357360208301866122c4565b6135806040830185612591565b81810360608301526135928184613518565b905095945050505050565b6000815190506135ac81612203565b92915050565b6000602082840312156135c8576135c76121cd565b5b60006135d68482850161359d565b9150509291505056fea264697066735822122096819f3a819e319391fd5786a8cb6e28f7ed2f7e69eb7081a58193d3deb7525164736f6c634300080d0033",
  "linkReferences": {},
  "deployedLinkReferences": {}
}