{
  "_format": "hh-sol-artifact-1",
  "contractName": "SimpleSnapshotWithoutToken",
  "sourceName": "src/implementations/votingContracts/OnlyStartAndVote/SimpleSnapshotWithoutToken.sol",
  "abi": [
    {
      "inputs": [
        {
          "internalType": "uint256",
          "name": "identifier",
          "type": "uint256"
        },
        {
          "internalType": "address",
          "name": "voter",
          "type": "address"
        }
      ],
      "name": "AlreadyVoted",
      "type": "error"
    },
    {
      "inputs": [
        {
          "internalType": "uint256",
          "name": "identifier",
          "type": "uint256"
        },
        {
          "internalType": "uint256",
          "name": "deadline",
          "type": "uint256"
        }
      ],
      "name": "DeadlineHasNotPassed",
      "type": "error"
    },
    {
      "inputs": [
        {
          "internalType": "uint256",
          "name": "identifier",
          "type": "uint256"
        },
        {
          "internalType": "uint256",
          "name": "deadline",
          "type": "uint256"
        }
      ],
      "name": "DeadlineHasPassed",
      "type": "error"
    },
    {
      "inputs": [
        {
          "internalType": "uint256",
          "name": "identifier",
          "type": "uint256"
        },
        {
          "internalType": "uint256",
          "name": "status",
          "type": "uint256"
        }
      ],
      "name": "StatusError",
      "type": "error"
    },
    {
      "anonymous": false,
      "inputs": [
        {
          "indexed": true,
          "internalType": "uint256",
          "name": "identifier",
          "type": "uint256"
        },
        {
          "indexed": false,
          "internalType": "address",
          "name": "caller",
          "type": "address"
        }
      ],
      "name": "VotingInstanceStarted",
      "type": "event"
    },
    {
      "inputs": [],
      "name": "VOTING_DURATION",
      "outputs": [
        {
          "internalType": "uint256",
          "name": "",
          "type": "uint256"
        }
      ],
      "stateMutability": "view",
      "type": "function"
    },
    {
      "inputs": [
        {
          "internalType": "uint256",
          "name": "identifier",
          "type": "uint256"
        }
      ],
      "name": "conclude",
      "outputs": [],
      "stateMutability": "nonpayable",
      "type": "function"
    },
    {
      "inputs": [],
      "name": "getCurrentIndex",
      "outputs": [
        {
          "internalType": "uint256",
          "name": "currentIndex",
          "type": "uint256"
        }
      ],
      "stateMutability": "view",
      "type": "function"
    },
    {
      "inputs": [
        {
          "internalType": "uint256",
          "name": "identifier",
          "type": "uint256"
        }
      ],
      "name": "getDeadline",
      "outputs": [
        {
          "internalType": "uint256",
          "name": "",
          "type": "uint256"
        }
      ],
      "stateMutability": "view",
      "type": "function"
    },
    {
      "inputs": [
        {
          "internalType": "uint256",
          "name": "identifier",
          "type": "uint256"
        }
      ],
      "name": "getDoubleVotingGuard",
      "outputs": [
        {
          "internalType": "enum HandleDoubleVotingGuard.VotingGuard",
          "name": "",
          "type": "uint8"
        }
      ],
      "stateMutability": "view",
      "type": "function"
    },
    {
      "inputs": [
        {
          "internalType": "uint256",
          "name": "identifier",
          "type": "uint256"
        }
      ],
      "name": "getStatus",
      "outputs": [
        {
          "internalType": "uint256",
          "name": "status",
          "type": "uint256"
        }
      ],
      "stateMutability": "view",
      "type": "function"
    },
    {
      "inputs": [
        {
          "internalType": "uint256",
          "name": "identifier",
          "type": "uint256"
        }
      ],
      "name": "getTarget",
      "outputs": [
        {
          "internalType": "address",
          "name": "target",
          "type": "address"
        }
      ],
      "stateMutability": "view",
      "type": "function"
    },
    {
      "inputs": [
        {
          "internalType": "uint256",
          "name": "identifier",
          "type": "uint256"
        }
      ],
      "name": "result",
      "outputs": [
        {
          "internalType": "bytes",
          "name": "resultData",
          "type": "bytes"
        }
      ],
      "stateMutability": "view",
      "type": "function"
    },
    {
      "inputs": [
        {
          "internalType": "bytes",
          "name": "votingParams",
          "type": "bytes"
        },
        {
          "internalType": "bytes",
          "name": "callback",
          "type": "bytes"
        }
      ],
      "name": "start",
      "outputs": [
        {
          "internalType": "uint256",
          "name": "identifier",
          "type": "uint256"
        }
      ],
      "stateMutability": "nonpayable",
      "type": "function"
    },
    {
      "inputs": [
        {
          "internalType": "bytes4",
          "name": "interfaceId",
          "type": "bytes4"
        }
      ],
      "name": "supportsInterface",
      "outputs": [
        {
          "internalType": "bool",
          "name": "",
          "type": "bool"
        }
      ],
      "stateMutability": "pure",
      "type": "function"
    },
    {
      "inputs": [
        {
          "internalType": "uint256",
          "name": "identifier",
          "type": "uint256"
        },
        {
          "internalType": "bytes",
          "name": "votingData",
          "type": "bytes"
        }
      ],
      "name": "vote",
      "outputs": [
        {
          "internalType": "uint256",
          "name": "",
          "type": "uint256"
        }
      ],
      "stateMutability": "nonpayable",
      "type": "function"
    }
  ],
  "bytecode": "0x608060405234801561001057600080fd5b50611179806100206000396000f3fe608060405234801561001057600080fd5b50600436106100a95760003560e01c80633c594059116100715780633c594059146101785780635c622a0e146101a857806382862275146101d8578063a438d20814610208578063b88b82ba14610226578063e6acc7cd14610256576100a9565b806301ffc9a7146100ae5780630d9005ae146100de5780631080156e146100fc5780631d64c4f21461012c5780633487b2561461015c575b600080fd5b6100c860048036038101906100c39190610a41565b610286565b6040516100d59190610a89565b60405180910390f35b6100e6610368565b6040516100f39190610abd565b60405180910390f35b61011660048036038101906101119190610c7e565b610372565b6040516101239190610abd565b60405180910390f35b61014660048036038101906101419190610d26565b6103e2565b6040516101539190610dca565b60405180910390f35b61017660048036038101906101719190610d26565b61040f565b005b610192600480360381019061018d9190610d26565b6104f8565b60405161019f9190610e6d565b60405180910390f35b6101c260048036038101906101bd9190610d26565b610529565b6040516101cf9190610abd565b60405180910390f35b6101f260048036038101906101ed9190610d26565b610546565b6040516101ff9190610abd565b60405180910390f35b610210610563565b60405161021d9190610abd565b60405180910390f35b610240600480360381019061023b9190610e8f565b61056a565b60405161024d9190610abd565b60405180910390f35b610270600480360381019061026b9190610d26565b61078e565b60405161027d9190610f30565b60405180910390f35b6000610291826107cb565b806102f957507f82862275000000000000000000000000000000000000000000000000000000007bffffffffffffffffffffffffffffffffffffffffffffffffffffffff1916827bffffffffffffffffffffffffffffffffffffffffffffffffffffffff1916145b8061036157507f1d64c4f2000000000000000000000000000000000000000000000000000000007bffffffffffffffffffffffffffffffffffffffffffffffffffffffff1916827bffffffffffffffffffffffffffffffffffffffffffffffffffffffff1916145b9050919050565b6000600554905090565b600061038260055485858561089d565b6005547f8e967d6054e2a51c6c0b65a326c2c53edf07f50d4a854e102eed777cfb591378336040516103b49190610f30565b60405180910390a260055490506001600560008282546103d49190610f7a565b925050819055509392505050565b600080600460008481526020019081526020016000205414610405576001610408565b60005b9050919050565b60038081111561042257610421610d53565b5b60046000838152602001908152602001600020541461048d578060046000838152602001908152602001600020546040517f42ffc097000000000000000000000000000000000000000000000000000000008152600401610484929190610fd0565b60405180910390fd5b610496816108da565b6104ec578060026000838152602001908152602001600020546040517fa2030cfc0000000000000000000000000000000000000000000000000000000081526004016104e3929190610fd0565b60405180910390fd5b6104f5816108ec565b50565b606061050382610944565b6040516020016105139190611012565b6040516020818303038152906040529050919050565b600060046000838152602001908152602001600020549050919050565b600060026000838152602001908152602001600020549050919050565b6206978081565b600060038081111561057f5761057e610d53565b5b6004600086815260200190815260200160002054146105ea578360046000868152602001908152602001600020546040517f42ffc0970000000000000000000000000000000000000000000000000000000081526004016105e1929190610fd0565b60405180910390fd5b6105f3846108da565b1561061c57610601846108ec565b60046000858152602001908152602001600020549050610787565b60008085815260200190815260200160002060003373ffffffffffffffffffffffffffffffffffffffff1673ffffffffffffffffffffffffffffffffffffffff16815260200190815260200160002060009054906101000a900460ff16156106bd5783336040517f04f9da630000000000000000000000000000000000000000000000000000000081526004016106b492919061102d565b60405180910390fd5b600160008086815260200190815260200160002060003373ffffffffffffffffffffffffffffffffffffffff1673ffffffffffffffffffffffffffffffffffffffff16815260200190815260200160002060006101000a81548160ff021916908315150217905550600083838101906107369190611082565b905061076f8582610767577fffffffffffffffffffffffffffffffffffffffffffffffffffffffffffffffff61076a565b60015b610961565b60046000868152602001908152602001600020549150505b9392505050565b60006003600083815260200190815260200160002060009054906101000a900473ffffffffffffffffffffffffffffffffffffffff169050919050565b60007f01ffc9a7000000000000000000000000000000000000000000000000000000007bffffffffffffffffffffffffffffffffffffffffffffffffffffffff1916827bffffffffffffffffffffffffffffffffffffffffffffffffffffffff1916148061089657507f9452d78d000000000000000000000000000000000000000000000000000000007bffffffffffffffffffffffffffffffffffffffffffffffffffffffff1916827bffffffffffffffffffffffffffffffffffffffffffffffffffffffff1916145b9050919050565b6003808111156108b0576108af610d53565b5b60046000868152602001908152602001600020819055506108d4846206978061098f565b50505050565b60006108e5826109b6565b9050919050565b60006108f782610944565b1461091557600160038111156109105761090f610d53565b5b61092a565b6002600381111561092957610928610d53565b5b5b600460008381526020019081526020016000208190555050565b600060016000838152602001908152602001600020549050919050565b8060016000848152602001908152602001600020600082825461098491906110af565b925050819055505050565b804261099b9190610f7a565b60026000848152602001908152602001600020819055505050565b6000600260008381526020019081526020016000205442119050919050565b6000604051905090565b600080fd5b600080fd5b60007fffffffff0000000000000000000000000000000000000000000000000000000082169050919050565b610a1e816109e9565b8114610a2957600080fd5b50565b600081359050610a3b81610a15565b92915050565b600060208284031215610a5757610a566109df565b5b6000610a6584828501610a2c565b91505092915050565b60008115159050919050565b610a8381610a6e565b82525050565b6000602082019050610a9e6000830184610a7a565b92915050565b6000819050919050565b610ab781610aa4565b82525050565b6000602082019050610ad26000830184610aae565b92915050565b600080fd5b600080fd5b6000601f19601f8301169050919050565b7f4e487b7100000000000000000000000000000000000000000000000000000000600052604160045260246000fd5b610b2b82610ae2565b810181811067ffffffffffffffff82111715610b4a57610b49610af3565b5b80604052505050565b6000610b5d6109d5565b9050610b698282610b22565b919050565b600067ffffffffffffffff821115610b8957610b88610af3565b5b610b9282610ae2565b9050602081019050919050565b82818337600083830152505050565b6000610bc1610bbc84610b6e565b610b53565b905082815260208101848484011115610bdd57610bdc610add565b5b610be8848285610b9f565b509392505050565b600082601f830112610c0557610c04610ad8565b5b8135610c15848260208601610bae565b91505092915050565b600080fd5b600080fd5b60008083601f840112610c3e57610c3d610ad8565b5b8235905067ffffffffffffffff811115610c5b57610c5a610c1e565b5b602083019150836001820283011115610c7757610c76610c23565b5b9250929050565b600080600060408486031215610c9757610c966109df565b5b600084013567ffffffffffffffff811115610cb557610cb46109e4565b5b610cc186828701610bf0565b935050602084013567ffffffffffffffff811115610ce257610ce16109e4565b5b610cee86828701610c28565b92509250509250925092565b610d0381610aa4565b8114610d0e57600080fd5b50565b600081359050610d2081610cfa565b92915050565b600060208284031215610d3c57610d3b6109df565b5b6000610d4a84828501610d11565b91505092915050565b7f4e487b7100000000000000000000000000000000000000000000000000000000600052602160045260246000fd5b60038110610d9357610d92610d53565b5b50565b6000819050610da482610d82565b919050565b6000610db482610d96565b9050919050565b610dc481610da9565b82525050565b6000602082019050610ddf6000830184610dbb565b92915050565b600081519050919050565b600082825260208201905092915050565b60005b83811015610e1f578082015181840152602081019050610e04565b83811115610e2e576000848401525b50505050565b6000610e3f82610de5565b610e498185610df0565b9350610e59818560208601610e01565b610e6281610ae2565b840191505092915050565b60006020820190508181036000830152610e878184610e34565b905092915050565b600080600060408486031215610ea857610ea76109df565b5b6000610eb686828701610d11565b935050602084013567ffffffffffffffff811115610ed757610ed66109e4565b5b610ee386828701610c28565b92509250509250925092565b600073ffffffffffffffffffffffffffffffffffffffff82169050919050565b6000610f1a82610eef565b9050919050565b610f2a81610f0f565b82525050565b6000602082019050610f456000830184610f21565b92915050565b7f4e487b7100000000000000000000000000000000000000000000000000000000600052601160045260246000fd5b6000610f8582610aa4565b9150610f9083610aa4565b9250827fffffffffffffffffffffffffffffffffffffffffffffffffffffffffffffffff03821115610fc557610fc4610f4b565b5b828201905092915050565b6000604082019050610fe56000830185610aae565b610ff26020830184610aae565b9392505050565b6000819050919050565b61100c81610ff9565b82525050565b60006020820190506110276000830184611003565b92915050565b60006040820190506110426000830185610aae565b61104f6020830184610f21565b9392505050565b61105f81610a6e565b811461106a57600080fd5b50565b60008135905061107c81611056565b92915050565b600060208284031215611098576110976109df565b5b60006110a68482850161106d565b91505092915050565b60006110ba82610ff9565b91506110c583610ff9565b9250817f7fffffffffffffffffffffffffffffffffffffffffffffffffffffffffffffff03831360008312151615611100576110ff610f4b565b5b817f800000000000000000000000000000000000000000000000000000000000000003831260008312161561113857611137610f4b565b5b82820190509291505056fea26469706673582212208659c06328e627399ea4f110509b4c9cfdcf1f246c06dfc166e173ae7fc5b48364736f6c634300080d0033",
  "linkReferences": {},
  "deployedLinkReferences": {}
}