{
  "_format": "hh-sol-artifact-1",
  "contractName": "SimpleSnapshotWithoutToken",
  "sourceName": "src/implementations/votingContracts/OnlyStartAndVote/SimpleSnapshotWithoutToken.sol",
  "abi": [
    {
      "inputs": [
        {
          "internalType": "uint256",
          "name": "identifier",
          "type": "uint256"
        },
        {
          "internalType": "address",
          "name": "voter",
          "type": "address"
        }
      ],
      "name": "AlreadyVoted",
      "type": "error"
    },
    {
      "inputs": [
        {
          "internalType": "uint256",
          "name": "identifier",
          "type": "uint256"
        },
        {
          "internalType": "uint256",
          "name": "deadline",
          "type": "uint256"
        }
      ],
      "name": "DeadlineHasNotPassed",
      "type": "error"
    },
    {
      "inputs": [
        {
          "internalType": "uint256",
          "name": "identifier",
          "type": "uint256"
        },
        {
          "internalType": "uint256",
          "name": "deadline",
          "type": "uint256"
        }
      ],
      "name": "DeadlineHasPassed",
      "type": "error"
    },
    {
      "inputs": [
        {
          "internalType": "uint256",
          "name": "identifier",
          "type": "uint256"
        },
        {
          "internalType": "uint256",
          "name": "status",
          "type": "uint256"
        }
      ],
      "name": "StatusError",
      "type": "error"
    },
    {
      "anonymous": false,
      "inputs": [
        {
          "indexed": false,
          "internalType": "uint256",
          "name": "identifier",
          "type": "uint256"
        },
        {
          "indexed": false,
          "internalType": "address",
          "name": "caller",
          "type": "address"
        }
      ],
      "name": "VotingInstanceStarted",
      "type": "event"
    },
    {
      "inputs": [],
      "name": "VOTING_DURATION",
      "outputs": [
        {
          "internalType": "uint256",
          "name": "",
          "type": "uint256"
        }
      ],
      "stateMutability": "view",
      "type": "function"
    },
    {
      "inputs": [
        {
          "internalType": "uint256",
          "name": "identifier",
          "type": "uint256"
        }
      ],
      "name": "conclude",
      "outputs": [],
      "stateMutability": "nonpayable",
      "type": "function"
    },
    {
      "inputs": [],
      "name": "getCurrentIndex",
      "outputs": [
        {
          "internalType": "uint256",
          "name": "currentIndex",
          "type": "uint256"
        }
      ],
      "stateMutability": "view",
      "type": "function"
    },
    {
      "inputs": [
        {
          "internalType": "uint256",
          "name": "identifier",
          "type": "uint256"
        }
      ],
      "name": "getDeadline",
      "outputs": [
        {
          "internalType": "uint256",
          "name": "",
          "type": "uint256"
        }
      ],
      "stateMutability": "view",
      "type": "function"
    },
    {
      "inputs": [
        {
          "internalType": "uint256",
          "name": "identifier",
          "type": "uint256"
        }
      ],
      "name": "getDoubleVotingGuard",
      "outputs": [
        {
          "internalType": "enum HandleDoubleVotingGuard.VotingGuard",
          "name": "",
          "type": "uint8"
        }
      ],
      "stateMutability": "view",
      "type": "function"
    },
    {
      "inputs": [
        {
          "internalType": "uint256",
          "name": "identifier",
          "type": "uint256"
        }
      ],
      "name": "getStatus",
      "outputs": [
        {
          "internalType": "uint256",
          "name": "status",
          "type": "uint256"
        }
      ],
      "stateMutability": "view",
      "type": "function"
    },
    {
      "inputs": [
        {
          "internalType": "uint256",
          "name": "identifier",
          "type": "uint256"
        }
      ],
      "name": "getTarget",
      "outputs": [
        {
          "internalType": "address",
          "name": "target",
          "type": "address"
        }
      ],
      "stateMutability": "view",
      "type": "function"
    },
    {
      "inputs": [
        {
          "internalType": "uint256",
          "name": "identifier",
          "type": "uint256"
        }
      ],
      "name": "result",
      "outputs": [
        {
          "internalType": "bytes",
          "name": "resultData",
          "type": "bytes"
        }
      ],
      "stateMutability": "view",
      "type": "function"
    },
    {
      "inputs": [
        {
          "internalType": "bytes",
          "name": "votingParams",
          "type": "bytes"
        },
        {
          "internalType": "bytes",
          "name": "callback",
          "type": "bytes"
        }
      ],
      "name": "start",
      "outputs": [
        {
          "internalType": "uint256",
          "name": "identifier",
          "type": "uint256"
        }
      ],
      "stateMutability": "nonpayable",
      "type": "function"
    },
    {
      "inputs": [
        {
          "internalType": "bytes4",
          "name": "interfaceId",
          "type": "bytes4"
        }
      ],
      "name": "supportsInterface",
      "outputs": [
        {
          "internalType": "bool",
          "name": "",
          "type": "bool"
        }
      ],
      "stateMutability": "pure",
      "type": "function"
    },
    {
      "inputs": [
        {
          "internalType": "uint256",
          "name": "identifier",
          "type": "uint256"
        },
        {
          "internalType": "bytes",
          "name": "votingData",
          "type": "bytes"
        }
      ],
      "name": "vote",
      "outputs": [
        {
          "internalType": "uint256",
          "name": "",
          "type": "uint256"
        }
      ],
      "stateMutability": "nonpayable",
      "type": "function"
    }
  ],
  "bytecode": "0x608060405234801561001057600080fd5b5061117a806100206000396000f3fe608060405234801561001057600080fd5b50600436106100a95760003560e01c80633c594059116100715780633c594059146101785780635c622a0e146101a857806382862275146101d8578063a438d20814610208578063b88b82ba14610226578063e6acc7cd14610256576100a9565b806301ffc9a7146100ae5780630d9005ae146100de5780631080156e146100fc5780631d64c4f21461012c5780633487b2561461015c575b600080fd5b6100c860048036038101906100c39190610a42565b610286565b6040516100d59190610a8a565b60405180910390f35b6100e6610368565b6040516100f39190610abe565b60405180910390f35b61011660048036038101906101119190610c7f565b610372565b6040516101239190610abe565b60405180910390f35b61014660048036038101906101419190610d27565b6103e3565b6040516101539190610dcb565b60405180910390f35b61017660048036038101906101719190610d27565b610410565b005b610192600480360381019061018d9190610d27565b6104f9565b60405161019f9190610e6e565b60405180910390f35b6101c260048036038101906101bd9190610d27565b61052a565b6040516101cf9190610abe565b60405180910390f35b6101f260048036038101906101ed9190610d27565b610547565b6040516101ff9190610abe565b60405180910390f35b610210610564565b60405161021d9190610abe565b60405180910390f35b610240600480360381019061023b9190610e90565b61056b565b60405161024d9190610abe565b60405180910390f35b610270600480360381019061026b9190610d27565b61078f565b60405161027d9190610f31565b60405180910390f35b6000610291826107cc565b806102f957507f82862275000000000000000000000000000000000000000000000000000000007bffffffffffffffffffffffffffffffffffffffffffffffffffffffff1916827bffffffffffffffffffffffffffffffffffffffffffffffffffffffff1916145b8061036157507f1d64c4f2000000000000000000000000000000000000000000000000000000007bffffffffffffffffffffffffffffffffffffffffffffffffffffffff1916827bffffffffffffffffffffffffffffffffffffffffffffffffffffffff1916145b9050919050565b6000600554905090565b600061038260055485858561089e565b7f8e967d6054e2a51c6c0b65a326c2c53edf07f50d4a854e102eed777cfb591378600554336040516103b5929190610f4c565b60405180910390a160055490506001600560008282546103d59190610fa4565b925050819055509392505050565b600080600460008481526020019081526020016000205414610406576001610409565b60005b9050919050565b60038081111561042357610422610d54565b5b60046000838152602001908152602001600020541461048e578060046000838152602001908152602001600020546040517f42ffc097000000000000000000000000000000000000000000000000000000008152600401610485929190610ffa565b60405180910390fd5b610497816108db565b6104ed578060026000838152602001908152602001600020546040517fa2030cfc0000000000000000000000000000000000000000000000000000000081526004016104e4929190610ffa565b60405180910390fd5b6104f6816108ed565b50565b606061050482610945565b604051602001610514919061103c565b6040516020818303038152906040529050919050565b600060046000838152602001908152602001600020549050919050565b600060026000838152602001908152602001600020549050919050565b6206978081565b60006003808111156105805761057f610d54565b5b6004600086815260200190815260200160002054146105eb578360046000868152602001908152602001600020546040517f42ffc0970000000000000000000000000000000000000000000000000000000081526004016105e2929190610ffa565b60405180910390fd5b6105f4846108db565b1561061d57610602846108ed565b60046000858152602001908152602001600020549050610788565b60008085815260200190815260200160002060003373ffffffffffffffffffffffffffffffffffffffff1673ffffffffffffffffffffffffffffffffffffffff16815260200190815260200160002060009054906101000a900460ff16156106be5783336040517f04f9da630000000000000000000000000000000000000000000000000000000081526004016106b5929190610f4c565b60405180910390fd5b600160008086815260200190815260200160002060003373ffffffffffffffffffffffffffffffffffffffff1673ffffffffffffffffffffffffffffffffffffffff16815260200190815260200160002060006101000a81548160ff021916908315150217905550600083838101906107379190611083565b90506107708582610768577fffffffffffffffffffffffffffffffffffffffffffffffffffffffffffffffff61076b565b60015b610962565b60046000868152602001908152602001600020549150505b9392505050565b60006003600083815260200190815260200160002060009054906101000a900473ffffffffffffffffffffffffffffffffffffffff169050919050565b60007f01ffc9a7000000000000000000000000000000000000000000000000000000007bffffffffffffffffffffffffffffffffffffffffffffffffffffffff1916827bffffffffffffffffffffffffffffffffffffffffffffffffffffffff1916148061089757507f9452d78d000000000000000000000000000000000000000000000000000000007bffffffffffffffffffffffffffffffffffffffffffffffffffffffff1916827bffffffffffffffffffffffffffffffffffffffffffffffffffffffff1916145b9050919050565b6003808111156108b1576108b0610d54565b5b60046000868152602001908152602001600020819055506108d58462069780610990565b50505050565b60006108e6826109b7565b9050919050565b60006108f882610945565b14610916576001600381111561091157610910610d54565b5b61092b565b6002600381111561092a57610929610d54565b5b5b600460008381526020019081526020016000208190555050565b600060016000838152602001908152602001600020549050919050565b8060016000848152602001908152602001600020600082825461098591906110b0565b925050819055505050565b804261099c9190610fa4565b60026000848152602001908152602001600020819055505050565b6000600260008381526020019081526020016000205442119050919050565b6000604051905090565b600080fd5b600080fd5b60007fffffffff0000000000000000000000000000000000000000000000000000000082169050919050565b610a1f816109ea565b8114610a2a57600080fd5b50565b600081359050610a3c81610a16565b92915050565b600060208284031215610a5857610a576109e0565b5b6000610a6684828501610a2d565b91505092915050565b60008115159050919050565b610a8481610a6f565b82525050565b6000602082019050610a9f6000830184610a7b565b92915050565b6000819050919050565b610ab881610aa5565b82525050565b6000602082019050610ad36000830184610aaf565b92915050565b600080fd5b600080fd5b6000601f19601f8301169050919050565b7f4e487b7100000000000000000000000000000000000000000000000000000000600052604160045260246000fd5b610b2c82610ae3565b810181811067ffffffffffffffff82111715610b4b57610b4a610af4565b5b80604052505050565b6000610b5e6109d6565b9050610b6a8282610b23565b919050565b600067ffffffffffffffff821115610b8a57610b89610af4565b5b610b9382610ae3565b9050602081019050919050565b82818337600083830152505050565b6000610bc2610bbd84610b6f565b610b54565b905082815260208101848484011115610bde57610bdd610ade565b5b610be9848285610ba0565b509392505050565b600082601f830112610c0657610c05610ad9565b5b8135610c16848260208601610baf565b91505092915050565b600080fd5b600080fd5b60008083601f840112610c3f57610c3e610ad9565b5b8235905067ffffffffffffffff811115610c5c57610c5b610c1f565b5b602083019150836001820283011115610c7857610c77610c24565b5b9250929050565b600080600060408486031215610c9857610c976109e0565b5b600084013567ffffffffffffffff811115610cb657610cb56109e5565b5b610cc286828701610bf1565b935050602084013567ffffffffffffffff811115610ce357610ce26109e5565b5b610cef86828701610c29565b92509250509250925092565b610d0481610aa5565b8114610d0f57600080fd5b50565b600081359050610d2181610cfb565b92915050565b600060208284031215610d3d57610d3c6109e0565b5b6000610d4b84828501610d12565b91505092915050565b7f4e487b7100000000000000000000000000000000000000000000000000000000600052602160045260246000fd5b60038110610d9457610d93610d54565b5b50565b6000819050610da582610d83565b919050565b6000610db582610d97565b9050919050565b610dc581610daa565b82525050565b6000602082019050610de06000830184610dbc565b92915050565b600081519050919050565b600082825260208201905092915050565b60005b83811015610e20578082015181840152602081019050610e05565b83811115610e2f576000848401525b50505050565b6000610e4082610de6565b610e4a8185610df1565b9350610e5a818560208601610e02565b610e6381610ae3565b840191505092915050565b60006020820190508181036000830152610e888184610e35565b905092915050565b600080600060408486031215610ea957610ea86109e0565b5b6000610eb786828701610d12565b935050602084013567ffffffffffffffff811115610ed857610ed76109e5565b5b610ee486828701610c29565b92509250509250925092565b600073ffffffffffffffffffffffffffffffffffffffff82169050919050565b6000610f1b82610ef0565b9050919050565b610f2b81610f10565b82525050565b6000602082019050610f466000830184610f22565b92915050565b6000604082019050610f616000830185610aaf565b610f6e6020830184610f22565b9392505050565b7f4e487b7100000000000000000000000000000000000000000000000000000000600052601160045260246000fd5b6000610faf82610aa5565b9150610fba83610aa5565b9250827fffffffffffffffffffffffffffffffffffffffffffffffffffffffffffffffff03821115610fef57610fee610f75565b5b828201905092915050565b600060408201905061100f6000830185610aaf565b61101c6020830184610aaf565b9392505050565b6000819050919050565b61103681611023565b82525050565b6000602082019050611051600083018461102d565b92915050565b61106081610a6f565b811461106b57600080fd5b50565b60008135905061107d81611057565b92915050565b600060208284031215611099576110986109e0565b5b60006110a78482850161106e565b91505092915050565b60006110bb82611023565b91506110c683611023565b9250817f7fffffffffffffffffffffffffffffffffffffffffffffffffffffffffffffff0383136000831215161561110157611100610f75565b5b817f800000000000000000000000000000000000000000000000000000000000000003831260008312161561113957611138610f75565b5b82820190509291505056fea26469706673582212207aee447e0654ad0fb522812565ca08e3b993d39a440ff60815454cd618b3753864736f6c634300080d0033",
  "linkReferences": {},
  "deployedLinkReferences": {}
}