{
  "_format": "hh-sol-artifact-1",
  "contractName": "VotingPlayground",
  "sourceName": "src/examples/playground/Playground.sol",
  "abi": [
    {
      "inputs": [
        {
          "internalType": "address",
          "name": "votingContractRegistry",
          "type": "address"
        },
        {
          "internalType": "bytes5[]",
          "name": "flagAndSelectors",
          "type": "bytes5[]"
        },
        {
          "internalType": "address[]",
          "name": "votingContracts",
          "type": "address[]"
        },
        {
          "internalType": "uint256[]",
          "name": "minDurations",
          "type": "uint256[]"
        },
        {
          "internalType": "uint256[]",
          "name": "minQuorums",
          "type": "uint256[]"
        },
        {
          "internalType": "bool[]",
          "name": "badgeWeightedVote",
          "type": "bool[]"
        },
        {
          "internalType": "bytes32",
          "name": "hashedBadgeBytecode",
          "type": "bytes32"
        }
      ],
      "stateMutability": "nonpayable",
      "type": "constructor"
    },
    {
      "inputs": [
        {
          "internalType": "uint256",
          "name": "mainBadge",
          "type": "uint256"
        },
        {
          "internalType": "uint256",
          "name": "numberOfBadges",
          "type": "uint256"
        }
      ],
      "name": "BadgeDoesntExist",
      "type": "error"
    },
    {
      "inputs": [
        {
          "internalType": "address",
          "name": "imposter",
          "type": "address"
        }
      ],
      "name": "IsNotImplementer",
      "type": "error"
    },
    {
      "inputs": [
        {
          "internalType": "bytes4",
          "name": "selector",
          "type": "bytes4"
        }
      ],
      "name": "IsNotVotableFunction",
      "type": "error"
    },
    {
      "inputs": [
        {
          "internalType": "address",
          "name": "implementer",
          "type": "address"
        }
      ],
      "name": "OnlyVoteImplementer",
      "type": "error"
    },
    {
      "anonymous": false,
      "inputs": [
        {
          "indexed": false,
          "internalType": "address",
          "name": "votingContract",
          "type": "address"
        },
        {
          "indexed": false,
          "internalType": "bool",
          "name": "successflag",
          "type": "bool"
        },
        {
          "indexed": false,
          "internalType": "bytes",
          "name": "response",
          "type": "bytes"
        }
      ],
      "name": "Balaa",
      "type": "event"
    },
    {
      "anonymous": false,
      "inputs": [
        {
          "indexed": true,
          "internalType": "uint256",
          "name": "index",
          "type": "uint256"
        },
        {
          "indexed": false,
          "internalType": "address",
          "name": "sender",
          "type": "address"
        },
        {
          "indexed": false,
          "internalType": "bytes",
          "name": "target",
          "type": "bytes"
        }
      ],
      "name": "VotingInstanceStarted",
      "type": "event"
    },
    {
      "anonymous": false,
      "inputs": [
        {
          "indexed": false,
          "internalType": "bool",
          "name": "success",
          "type": "bool"
        },
        {
          "indexed": false,
          "internalType": "bytes",
          "name": "response",
          "type": "bytes"
        }
      ],
      "name": "WhatsNow",
      "type": "event"
    },
    {
      "inputs": [],
      "name": "VOTING_REGISTRY",
      "outputs": [
        {
          "internalType": "address",
          "name": "",
          "type": "address"
        }
      ],
      "stateMutability": "view",
      "type": "function"
    },
    {
      "inputs": [
        {
          "internalType": "address",
          "name": "votingContract",
          "type": "address"
        }
      ],
      "name": "addSimpleVotingContract",
      "outputs": [],
      "stateMutability": "nonpayable",
      "type": "function"
    },
    {
      "inputs": [],
      "name": "analytics",
      "outputs": [
        {
          "internalType": "uint256",
          "name": "numberOfInstances",
          "type": "uint256"
        },
        {
          "internalType": "uint256",
          "name": "numberOfVotes",
          "type": "uint256"
        },
        {
          "internalType": "uint256",
          "name": "numberOfImplementations",
          "type": "uint256"
        },
        {
          "internalType": "uint24",
          "name": "numberOfSimpleVotingContracts",
          "type": "uint24"
        }
      ],
      "stateMutability": "view",
      "type": "function"
    },
    {
      "inputs": [
        {
          "internalType": "address",
          "name": "token",
          "type": "address"
        },
        {
          "internalType": "address",
          "name": "spender",
          "type": "address"
        },
        {
          "internalType": "uint256",
          "name": "amount",
          "type": "uint256"
        }
      ],
      "name": "approveERC20Token",
      "outputs": [],
      "stateMutability": "nonpayable",
      "type": "function"
    },
    {
      "inputs": [
        {
          "internalType": "address",
          "name": "token",
          "type": "address"
        },
        {
          "internalType": "address",
          "name": "spender",
          "type": "address"
        },
        {
          "internalType": "uint256",
          "name": "tokenId",
          "type": "uint256"
        }
      ],
      "name": "approveNFT",
      "outputs": [],
      "stateMutability": "nonpayable",
      "type": "function"
    },
    {
      "inputs": [
        {
          "internalType": "uint256",
          "name": "",
          "type": "uint256"
        }
      ],
      "name": "badges",
      "outputs": [
        {
          "internalType": "contract IPlaygroundVotingBadge",
          "name": "",
          "type": "address"
        }
      ],
      "stateMutability": "view",
      "type": "function"
    },
    {
      "inputs": [
        {
          "internalType": "uint256",
          "name": "index",
          "type": "uint256"
        },
        {
          "internalType": "bytes4",
          "name": "selector",
          "type": "bytes4"
        },
        {
          "internalType": "address",
          "name": "votingContract",
          "type": "address"
        },
        {
          "internalType": "address",
          "name": "minter",
          "type": "address"
        }
      ],
      "name": "calculateId",
      "outputs": [
        {
          "internalType": "uint256",
          "name": "",
          "type": "uint256"
        }
      ],
      "stateMutability": "pure",
      "type": "function"
    },
    {
      "inputs": [
        {
          "internalType": "bytes4",
          "name": "selector",
          "type": "bytes4"
        },
        {
          "internalType": "address",
          "name": "newVotingContract",
          "type": "address"
        }
      ],
      "name": "changeAssignedContract",
      "outputs": [],
      "stateMutability": "nonpayable",
      "type": "function"
    },
    {
      "inputs": [
        {
          "internalType": "uint256",
          "name": "by",
          "type": "uint256"
        }
      ],
      "name": "changeCounter",
      "outputs": [
        {
          "internalType": "bool",
          "name": "",
          "type": "bool"
        }
      ],
      "stateMutability": "nonpayable",
      "type": "function"
    },
    {
      "inputs": [
        {
          "internalType": "bytes4",
          "name": "selector",
          "type": "bytes4"
        },
        {
          "internalType": "uint256",
          "name": "minDuration",
          "type": "uint256"
        },
        {
          "internalType": "uint256",
          "name": "minQuorum",
          "type": "uint256"
        },
        {
          "internalType": "address",
          "name": "token",
          "type": "address"
        }
      ],
      "name": "changeMetaParameters",
      "outputs": [],
      "stateMutability": "nonpayable",
      "type": "function"
    },
    {
      "inputs": [
        {
          "internalType": "enum Operation",
          "name": "newOperation",
          "type": "uint8"
        }
      ],
      "name": "changeOperation",
      "outputs": [
        {
          "internalType": "bool",
          "name": "",
          "type": "bool"
        }
      ],
      "stateMutability": "nonpayable",
      "type": "function"
    },
    {
      "inputs": [],
      "name": "counter",
      "outputs": [
        {
          "internalType": "uint256",
          "name": "counter",
          "type": "uint256"
        },
        {
          "internalType": "enum Operation",
          "name": "operation",
          "type": "uint8"
        }
      ],
      "stateMutability": "view",
      "type": "function"
    },
    {
      "inputs": [
        {
          "internalType": "bytes32",
          "name": "salt",
          "type": "bytes32"
        },
        {
          "internalType": "bytes",
          "name": "bytecode",
          "type": "bytes"
        },
        {
          "internalType": "address",
          "name": "badger",
          "type": "address"
        }
      ],
      "name": "deployNewBadge",
      "outputs": [
        {
          "internalType": "address",
          "name": "deployedContract",
          "type": "address"
        }
      ],
      "stateMutability": "nonpayable",
      "type": "function"
    },
    {
      "inputs": [
        {
          "internalType": "bytes32",
          "name": "salt",
          "type": "bytes32"
        },
        {
          "internalType": "bytes",
          "name": "bytecode",
          "type": "bytes"
        }
      ],
      "name": "deployNewContract",
      "outputs": [
        {
          "internalType": "address",
          "name": "deployedContract",
          "type": "address"
        }
      ],
      "stateMutability": "nonpayable",
      "type": "function"
    },
    {
      "inputs": [
        {
          "internalType": "uint256",
          "name": "",
          "type": "uint256"
        }
      ],
      "name": "deployedContracts",
      "outputs": [
        {
          "internalType": "address",
          "name": "",
          "type": "address"
        }
      ],
      "stateMutability": "view",
      "type": "function"
    },
    {
      "inputs": [
        {
          "internalType": "address",
          "name": "",
          "type": "address"
        }
      ],
      "name": "donationsBy",
      "outputs": [
        {
          "internalType": "uint256",
          "name": "",
          "type": "uint256"
        }
      ],
      "stateMutability": "view",
      "type": "function"
    },
    {
      "inputs": [
        {
          "internalType": "bytes4",
          "name": "",
          "type": "bytes4"
        }
      ],
      "name": "fixedVotingContract",
      "outputs": [
        {
          "internalType": "bool",
          "name": "",
          "type": "bool"
        }
      ],
      "stateMutability": "view",
      "type": "function"
    },
    {
      "inputs": [
        {
          "internalType": "bytes4",
          "name": "selector",
          "type": "bytes4"
        }
      ],
      "name": "getAssignedContract",
      "outputs": [
        {
          "internalType": "address",
          "name": "_assignedContract",
          "type": "address"
        }
      ],
      "stateMutability": "view",
      "type": "function"
    },
    {
      "inputs": [
        {
          "internalType": "string",
          "name": "office",
          "type": "string"
        }
      ],
      "name": "getIncumbentFromOffice",
      "outputs": [
        {
          "internalType": "address",
          "name": "incumbent",
          "type": "address"
        }
      ],
      "stateMutability": "view",
      "type": "function"
    },
    {
      "inputs": [
        {
          "internalType": "uint256",
          "name": "identifier",
          "type": "uint256"
        },
        {
          "internalType": "bytes",
          "name": "callback",
          "type": "bytes"
        }
      ],
      "name": "implement",
      "outputs": [],
      "stateMutability": "payable",
      "type": "function"
    },
    {
      "inputs": [
        {
          "internalType": "uint256",
          "name": "",
          "type": "uint256"
        }
      ],
      "name": "instances",
      "outputs": [
        {
          "internalType": "uint256",
          "name": "identifier",
          "type": "uint256"
        },
        {
          "internalType": "address",
          "name": "votingContract",
          "type": "address"
        }
      ],
      "stateMutability": "view",
      "type": "function"
    },
    {
      "inputs": [],
      "name": "minXpToStartAnything",
      "outputs": [
        {
          "internalType": "uint256",
          "name": "",
          "type": "uint256"
        }
      ],
      "stateMutability": "view",
      "type": "function"
    },
    {
      "inputs": [
        {
          "internalType": "bytes4",
          "name": "",
          "type": "bytes4"
        }
      ],
      "name": "minXpToStartThisFunction",
      "outputs": [
        {
          "internalType": "uint256",
          "name": "",
          "type": "uint256"
        }
      ],
      "stateMutability": "view",
      "type": "function"
    },
    {
      "inputs": [
        {
          "internalType": "string",
          "name": "office",
          "type": "string"
        },
        {
          "internalType": "address",
          "name": "_newIncumbent",
          "type": "address"
        }
      ],
      "name": "newIncumbent",
      "outputs": [
        {
          "internalType": "bool",
          "name": "",
          "type": "bool"
        }
      ],
      "stateMutability": "nonpayable",
      "type": "function"
    },
    {
      "inputs": [],
      "name": "nftAndBadgesInfo",
      "outputs": [
        {
          "internalType": "uint256",
          "name": "mainBadge",
          "type": "uint256"
        },
        {
          "internalType": "bool",
          "name": "acceptingNFTs",
          "type": "bool"
        }
      ],
      "stateMutability": "view",
      "type": "function"
    },
    {
      "inputs": [
        {
          "internalType": "uint256",
          "name": "",
          "type": "uint256"
        }
      ],
      "name": "offices",
      "outputs": [
        {
          "internalType": "string",
          "name": "",
          "type": "string"
        }
      ],
      "stateMutability": "view",
      "type": "function"
    },
    {
      "inputs": [
        {
          "internalType": "address",
          "name": "operator",
          "type": "address"
        },
        {
          "internalType": "address",
          "name": "from",
          "type": "address"
        },
        {
          "internalType": "uint256",
          "name": "tokenId",
          "type": "uint256"
        },
        {
          "internalType": "bytes",
          "name": "data",
          "type": "bytes"
        }
      ],
      "name": "onERC721Received",
      "outputs": [
        {
          "internalType": "bytes4",
          "name": "",
          "type": "bytes4"
        }
      ],
      "stateMutability": "view",
      "type": "function"
    },
    {
      "inputs": [
        {
          "internalType": "address",
          "name": "token",
          "type": "address"
        },
        {
          "internalType": "address",
          "name": "from",
          "type": "address"
        },
        {
          "internalType": "address",
          "name": "to",
          "type": "address"
        },
        {
          "internalType": "uint256",
          "name": "amount",
          "type": "uint256"
        }
      ],
      "name": "sendERC20Token",
      "outputs": [],
      "stateMutability": "nonpayable",
      "type": "function"
    },
    {
      "inputs": [
        {
          "internalType": "address",
          "name": "token",
          "type": "address"
        },
        {
          "internalType": "address",
          "name": "from",
          "type": "address"
        },
        {
          "internalType": "address",
          "name": "to",
          "type": "address"
        },
        {
          "internalType": "uint256",
          "name": "tokenId",
          "type": "uint256"
        }
      ],
      "name": "sendNFT",
      "outputs": [],
      "stateMutability": "nonpayable",
      "type": "function"
    },
    {
      "inputs": [
        {
          "internalType": "address payable",
          "name": "to",
          "type": "address"
        },
        {
          "internalType": "uint256",
          "name": "amount",
          "type": "uint256"
        }
      ],
      "name": "sendNativeToken",
      "outputs": [],
      "stateMutability": "nonpayable",
      "type": "function"
    },
    {
      "inputs": [
        {
          "internalType": "bool",
          "name": "accept",
          "type": "bool"
        }
      ],
      "name": "setAcceptingNFTs",
      "outputs": [],
      "stateMutability": "nonpayable",
      "type": "function"
    },
    {
      "inputs": [
        {
          "internalType": "uint256",
          "name": "newThreshold",
          "type": "uint256"
        }
      ],
      "name": "setEnableTradingThreshold",
      "outputs": [],
      "stateMutability": "nonpayable",
      "type": "function"
    },
    {
      "inputs": [
        {
          "internalType": "uint256",
          "name": "newMainBadge",
          "type": "uint256"
        }
      ],
      "name": "setMainBadge",
      "outputs": [],
      "stateMutability": "nonpayable",
      "type": "function"
    },
    {
      "inputs": [
        {
          "internalType": "uint256",
          "name": "newXP",
          "type": "uint256"
        }
      ],
      "name": "setMinXpToStartAnything",
      "outputs": [],
      "stateMutability": "nonpayable",
      "type": "function"
    },
    {
      "inputs": [
        {
          "internalType": "bytes4",
          "name": "selector",
          "type": "bytes4"
        },
        {
          "internalType": "uint256",
          "name": "newXP",
          "type": "uint256"
        }
      ],
      "name": "setMinXpToStartThisFunction",
      "outputs": [],
      "stateMutability": "nonpayable",
      "type": "function"
    },
    {
      "inputs": [
        {
          "internalType": "bool",
          "name": "enable",
          "type": "bool"
        }
      ],
      "name": "setTradingEnabledGlobally",
      "outputs": [],
      "stateMutability": "nonpayable",
      "type": "function"
    },
    {
      "inputs": [
        {
          "internalType": "uint24",
          "name": "",
          "type": "uint24"
        }
      ],
      "name": "simpleVotingContract",
      "outputs": [
        {
          "internalType": "address",
          "name": "",
          "type": "address"
        }
      ],
      "stateMutability": "view",
      "type": "function"
    },
    {
      "inputs": [
        {
          "internalType": "bytes",
          "name": "votingParams",
          "type": "bytes"
        },
        {
          "internalType": "bytes",
          "name": "callback",
          "type": "bytes"
        }
      ],
      "name": "start",
      "outputs": [],
      "stateMutability": "nonpayable",
      "type": "function"
    },
    {
      "inputs": [
        {
          "internalType": "uint256",
          "name": "identifier",
          "type": "uint256"
        },
        {
          "internalType": "bytes",
          "name": "votingData",
          "type": "bytes"
        }
      ],
      "name": "vote",
      "outputs": [],
      "stateMutability": "nonpayable",
      "type": "function"
    },
    {
      "inputs": [
        {
          "internalType": "bytes4",
          "name": "",
          "type": "bytes4"
        }
      ],
      "name": "votingMetaParams",
      "outputs": [
        {
          "internalType": "uint256",
          "name": "minDuration",
          "type": "uint256"
        },
        {
          "internalType": "uint256",
          "name": "minQuorum",
          "type": "uint256"
        },
        {
          "internalType": "address",
          "name": "token",
          "type": "address"
        }
      ],
      "stateMutability": "view",
      "type": "function"
    },
    {
      "inputs": [
        {
          "internalType": "address",
          "name": "contractAddress",
          "type": "address"
        },
        {
          "internalType": "bytes",
          "name": "data",
          "type": "bytes"
        },
        {
          "internalType": "uint256",
          "name": "value",
          "type": "uint256"
        }
      ],
      "name": "wildCard",
      "outputs": [],
      "stateMutability": "payable",
      "type": "function"
    },
    {
      "stateMutability": "payable",
      "type": "receive"
    }
  ],
  "bytecode": "0x60a06040523480156200001157600080fd5b5060405162006bf438038062006bf48339818101604052810190620000379190620009b2565b8673ffffffffffffffffffffffffffffffffffffffff1660808173ffffffffffffffffffffffffffffffffffffffff168152505060006200007e82620003f060201b60201c565b90508073ffffffffffffffffffffffffffffffffffffffff1660076000018190555060005b86518160ff161015620003e15760006008898360ff1681518110620000cd57620000cc62000b00565b5b60200260200101517affffffffffffffffffffffffffffffffffffffffffffffffffffff1916901b9050600060f81b7effffffffffffffffffffffffffffffffffffffffffffffffffffffffffffff1916898360ff168151811062000137576200013662000b00565b5b60200260200101517effffffffffffffffffffffffffffffffffffffffffffffffffffffffffffff1916141560166000837bffffffffffffffffffffffffffffffffffffffffffffffffffffffff19167bffffffffffffffffffffffffffffffffffffffffffffffffffffffff1916815260200190815260200160002060006101000a81548160ff0219169083151502179055506040518060600160405280888460ff1681518110620001ef57620001ee62000b00565b5b60200260200101518152602001878460ff168151811062000215576200021462000b00565b5b60200260200101518152602001868460ff16815181106200023b576200023a62000b00565b5b60200260200101516200025057600062000252565b845b73ffffffffffffffffffffffffffffffffffffffff16815250600f6000837bffffffffffffffffffffffffffffffffffffffffffffffffffffffff19167bffffffffffffffffffffffffffffffffffffffffffffffffffffffff19168152602001908152602001600020600082015181600001556020820151816001015560408201518160020160006101000a81548173ffffffffffffffffffffffffffffffffffffffff021916908373ffffffffffffffffffffffffffffffffffffffff160217905550905050878260ff168151811062000333576200033262000b00565b5b602002602001015160016000837bffffffffffffffffffffffffffffffffffffffffffffffffffffffff19167bffffffffffffffffffffffffffffffffffffffffffffffffffffffff1916815260200190815260200160002060006101000a81548173ffffffffffffffffffffffffffffffffffffffff021916908373ffffffffffffffffffffffffffffffffffffffff160217905550508080620003d89062000b6b565b915050620000a3565b50505050505050505062000cb5565b600060ff60f81b306000801b8460405160200162000412949392919062000c5f565b6040516020818303038152906040528051906020012060001c9050919050565b6000604051905090565b600080fd5b600080fd5b600073ffffffffffffffffffffffffffffffffffffffff82169050919050565b6000620004738262000446565b9050919050565b620004858162000466565b81146200049157600080fd5b50565b600081519050620004a5816200047a565b92915050565b600080fd5b6000601f19601f8301169050919050565b7f4e487b7100000000000000000000000000000000000000000000000000000000600052604160045260246000fd5b620004fb82620004b0565b810181811067ffffffffffffffff821117156200051d576200051c620004c1565b5b80604052505050565b60006200053262000432565b9050620005408282620004f0565b919050565b600067ffffffffffffffff821115620005635762000562620004c1565b5b602082029050602081019050919050565b600080fd5b60007fffffffffff00000000000000000000000000000000000000000000000000000082169050919050565b620005b08162000579565b8114620005bc57600080fd5b50565b600081519050620005d081620005a5565b92915050565b6000620005ed620005e78462000545565b62000526565b9050808382526020820190506020840283018581111562000613576200061262000574565b5b835b818110156200064057806200062b8882620005bf565b84526020840193505060208101905062000615565b5050509392505050565b600082601f830112620006625762000661620004ab565b5b815162000674848260208601620005d6565b91505092915050565b600067ffffffffffffffff8211156200069b576200069a620004c1565b5b602082029050602081019050919050565b6000620006c3620006bd846200067d565b62000526565b90508083825260208201905060208402830185811115620006e957620006e862000574565b5b835b8181101562000716578062000701888262000494565b845260208401935050602081019050620006eb565b5050509392505050565b600082601f830112620007385762000737620004ab565b5b81516200074a848260208601620006ac565b91505092915050565b600067ffffffffffffffff821115620007715762000770620004c1565b5b602082029050602081019050919050565b6000819050919050565b620007978162000782565b8114620007a357600080fd5b50565b600081519050620007b7816200078c565b92915050565b6000620007d4620007ce8462000753565b62000526565b90508083825260208201905060208402830185811115620007fa57620007f962000574565b5b835b81811015620008275780620008128882620007a6565b845260208401935050602081019050620007fc565b5050509392505050565b600082601f830112620008495762000848620004ab565b5b81516200085b848260208601620007bd565b91505092915050565b600067ffffffffffffffff821115620008825762000881620004c1565b5b602082029050602081019050919050565b60008115159050919050565b620008aa8162000893565b8114620008b657600080fd5b50565b600081519050620008ca816200089f565b92915050565b6000620008e7620008e18462000864565b62000526565b905080838252602082019050602084028301858111156200090d576200090c62000574565b5b835b818110156200093a5780620009258882620008b9565b8452602084019350506020810190506200090f565b5050509392505050565b600082601f8301126200095c576200095b620004ab565b5b81516200096e848260208601620008d0565b91505092915050565b6000819050919050565b6200098c8162000977565b81146200099857600080fd5b50565b600081519050620009ac8162000981565b92915050565b600080600080600080600060e0888a031215620009d457620009d36200043c565b5b6000620009e48a828b0162000494565b975050602088015167ffffffffffffffff81111562000a085762000a0762000441565b5b62000a168a828b016200064a565b965050604088015167ffffffffffffffff81111562000a3a5762000a3962000441565b5b62000a488a828b0162000720565b955050606088015167ffffffffffffffff81111562000a6c5762000a6b62000441565b5b62000a7a8a828b0162000831565b945050608088015167ffffffffffffffff81111562000a9e5762000a9d62000441565b5b62000aac8a828b0162000831565b93505060a088015167ffffffffffffffff81111562000ad05762000acf62000441565b5b62000ade8a828b0162000944565b92505060c062000af18a828b016200099b565b91505092959891949750929550565b7f4e487b7100000000000000000000000000000000000000000000000000000000600052603260045260246000fd5b7f4e487b7100000000000000000000000000000000000000000000000000000000600052601160045260246000fd5b600060ff82169050919050565b600062000b788262000b5e565b915060ff820362000b8e5762000b8d62000b2f565b5b600182019050919050565b60007fff0000000000000000000000000000000000000000000000000000000000000082169050919050565b6000819050919050565b62000be462000bde8262000b99565b62000bc5565b82525050565b60008160601b9050919050565b600062000c048262000bea565b9050919050565b600062000c188262000bf7565b9050919050565b62000c3462000c2e8262000466565b62000c0b565b82525050565b6000819050919050565b62000c5962000c538262000977565b62000c3a565b82525050565b600062000c6d828762000bcf565b60018201915062000c7f828662000c1f565b60148201915062000c91828562000c44565b60208201915062000ca3828462000c44565b60208201915081905095945050505050565b608051615f1562000cdf60003960008181612077015281816126980152612a100152615f156000f3fe60806040526004361061024a5760003560e01c80638f92cafb11610139578063b88b82ba116100b6578063e415eb291161007a578063e415eb291461097b578063ec9ad785146109a7578063ecf88bea146109e4578063ef4a45a114610a0d578063fabfdb1d14610a36578063fe3041d914610a5f576102a6565b8063b88b82ba14610884578063bf386076146108ad578063c519fdc5146108ea578063df12306514610927578063df610fcd14610952576102a6565b806399772bff116100fd57806399772bff146107785780639ad1ee10146107b7578063a0e8ca96146107f4578063a2f7b3a51461081d578063a66290271461085b576102a6565b80638f92cafb1461068157806391fae275146106aa57806393a8dd9a146106d357806395a9c336146106fe57806398e36d8b1461073b576102a6565b80634dea6274116101c757806360f1267c1161018b57806360f1267c1461058457806361bc221a146105c1578063639fd9b9146105ed5780637336aaf01461062a57806380d5ac8a14610653576102a6565b80634dea62741461046757806353ead2d3146104a45780635698d48a146104cd5780635c4e953f1461050a5780635f3a983114610547576102a6565b80633048760d1161020e5780633048760d1461037f57806332d7b3b9146103bc5780633d974365146103e5578063458b8f481461040e5780634b9b41f41461042a576102a6565b80631080156e146102ab578063150b7a02146102d45780631540ac51146103115780631d0a40c91461032d578063204d899d14610356576102a6565b366102a65734601060003373ffffffffffffffffffffffffffffffffffffffff1673ffffffffffffffffffffffffffffffffffffffff168152602001908152602001600020600082825461029e919061421a565b925050819055005b600080fd5b3480156102b757600080fd5b506102d260048036038101906102cd919061442a565b610a9c565b005b3480156102e057600080fd5b506102fb60048036038101906102f69190614530565b610e29565b60405161030891906145f3565b60405180910390f35b61032b6004803603810190610326919061460e565b610e7d565b005b34801561033957600080fd5b50610354600480360381019061034f91906146a6565b611070565b005b34801561036257600080fd5b5061037d600480360381019061037891906146d3565b61116e565b005b34801561038b57600080fd5b506103a660048036038101906103a1919061475c565b61123f565b6040516103b391906147c7565b60405180910390f35b3480156103c857600080fd5b506103e360048036038101906103de91906147e2565b611303565b005b3480156103f157600080fd5b5061040c600480360381019061040791906146a6565b6113ad565b005b6104286004803603810190610423919061480f565b61141a565b005b34801561043657600080fd5b50610451600480360381019061044c91906148be565b611561565b60405161045e91906147c7565b60405180910390f35b34801561047357600080fd5b5061048e600480360381019061048991906148eb565b611594565b60405161049b91906147c7565b60405180910390f35b3480156104b057600080fd5b506104cb60048036038101906104c69190614998565b6117e0565b005b3480156104d957600080fd5b506104f460048036038101906104ef91906149fd565b6118de565b6040516105019190614a39565b60405180910390f35b34801561051657600080fd5b50610531600480360381019061052c9190614af5565b6119ac565b60405161053e91906147c7565b60405180910390f35b34801561055357600080fd5b5061056e60048036038101906105699190614b3e565b6119f7565b60405161057b9190614b7a565b60405180910390f35b34801561059057600080fd5b506105ab60048036038101906105a691906147e2565b611a0f565b6040516105b89190614c1d565b60405180910390f35b3480156105cd57600080fd5b506105d6611abb565b6040516105e4929190614cb6565b60405180910390f35b3480156105f957600080fd5b50610614600480360381019061060f9190614d0b565b611ada565b6040516106219190614a39565b60405180910390f35b34801561063657600080fd5b50610651600480360381019061064c91906146d3565b611afa565b005b34801561065f57600080fd5b50610668611bb9565b6040516106789493929190614d47565b60405180910390f35b34801561068d57600080fd5b506106a860048036038101906106a39190614d8c565b611be6565b005b3480156106b657600080fd5b506106d160048036038101906106cc9190614df3565b611d82565b005b3480156106df57600080fd5b506106e8611f0d565b6040516106f59190614b7a565b60405180910390f35b34801561070a57600080fd5b5061072560048036038101906107209190614e5a565b611f13565b6040516107329190614b7a565b60405180910390f35b34801561074757600080fd5b50610762600480360381019061075d91906147e2565b611f61565b60405161076f9190614f20565b60405180910390f35b34801561078457600080fd5b5061079f600480360381019061079a9190614d0b565b611fa0565b6040516107ae93929190614f3b565b60405180910390f35b3480156107c357600080fd5b506107de60048036038101906107d991906147e2565b611fea565b6040516107eb91906147c7565b60405180910390f35b34801561080057600080fd5b5061081b60048036038101906108169190614f72565b612029565b005b34801561082957600080fd5b50610844600480360381019061083f91906147e2565b612216565b604051610852929190614fb2565b60405180910390f35b34801561086757600080fd5b50610882600480360381019061087d9190614fdb565b61226a565b005b34801561089057600080fd5b506108ab60048036038101906108a6919061460e565b612354565b005b3480156108b957600080fd5b506108d460048036038101906108cf9190614d0b565b612467565b6040516108e191906147c7565b60405180910390f35b3480156108f657600080fd5b50610911600480360381019061090c91906147e2565b6124e2565b60405161091e9190614a39565b60405180910390f35b34801561093357600080fd5b5061093c612696565b60405161094991906147c7565b60405180910390f35b34801561095e57600080fd5b5061097960048036038101906109749190614df3565b6126ba565b005b34801561098757600080fd5b5061099061277c565b60405161099e92919061501b565b60405180910390f35b3480156109b357600080fd5b506109ce60048036038101906109c99190615044565b61279b565b6040516109db9190614a39565b60405180910390f35b3480156109f057600080fd5b50610a0b6004803603810190610a069190614b3e565b612a0e565b005b348015610a1957600080fd5b50610a346004803603810190610a2f91906147e2565b612b64565b005b348015610a4257600080fd5b50610a5d6004803603810190610a5891906147e2565b612c62565b005b348015610a6b57600080fd5b50610a866004803603810190610a819190614d0b565b612d08565b604051610a939190614b7a565b60405180910390f35b610aa7838383612d20565b60008060006004858590501015610b4b57610ac28585612ec1565b92508273ffffffffffffffffffffffffffffffffffffffff16631080156e8787876040518463ffffffff1660e01b8152600401610b0193929190615122565b6020604051808303816000875af1158015610b20573d6000803e3d6000fd5b505050506040513d601f19601f82011682018060405250810190610b449190615170565b9150610d5b565b60008585600090600492610b61939291906151a7565b90610b6c91906151fa565b9050610b7781612ec9565b610bb857806040517f35be8c29000000000000000000000000000000000000000000000000000000008152600401610baf91906145f3565b60405180910390fd5b60016000827bffffffffffffffffffffffffffffffffffffffffffffffffffffffff19167bffffffffffffffffffffffffffffffffffffffffffffffffffffffff1916815260200190815260200160002060009054906101000a900473ffffffffffffffffffffffffffffffffffffffff1693508373ffffffffffffffffffffffffffffffffffffffff16631080156e8888886040518463ffffffff1660e01b8152600401610c6993929190615122565b6020604051808303816000875af1158015610c88573d6000803e3d6000fd5b505050506040513d601f19601f82011682018060405250810190610cac9190615170565b92506000610d2b60016000847bffffffffffffffffffffffffffffffffffffffffffffffffffffffff19167bffffffffffffffffffffffffffffffffffffffffffffffffffffffff1916815260200190815260200160002060009054906101000a900473ffffffffffffffffffffffffffffffffffffffff1685612f73565b9050600160008083815260200190815260200160002060006101000a81548160ff02191690831515021790555050505b600260405180604001604052808481526020018573ffffffffffffffffffffffffffffffffffffffff1681525090806001815401808255809150506001900390600052602060002090600202016000909190919091506000820151816000015560208201518160010160006101000a81548173ffffffffffffffffffffffffffffffffffffffff021916908373ffffffffffffffffffffffffffffffffffffffff1602179055505050610e216001600280549050610e199190615259565b878787612fa6565b505050505050565b6000600760010160009054906101000a900460ff16610e4c57600060e01b610e72565b6000357fffffffff00000000000000000000000000000000000000000000000000000000165b905095945050505050565b610e868361382e565b6000631540ac5160e01b60028581548110610ea457610ea361528d565b5b9060005260206000209060020201600001548484604051602401610eca939291906152bc565b604051602081830303815290604052907bffffffffffffffffffffffffffffffffffffffffffffffffffffffff19166020820180517bffffffffffffffffffffffffffffffffffffffffffffffffffffffff8381831617835250505050905060008060028681548110610f4057610f3f61528d565b5b906000526020600020906002020160010160009054906101000a900473ffffffffffffffffffffffffffffffffffffffff1673ffffffffffffffffffffffffffffffffffffffff163484604051610f97919061532a565b60006040518083038185875af1925050503d8060008114610fd4576040519150601f19603f3d011682016040523d82523d6000602084013e610fd9565b606091505b50915091507f386e73a2de2ea0e14c3906995d8e6d561e27a323ec6b38a2520d3033fd6e6660600287815481106110135761101261528d565b5b906000526020600020906002020160010160009054906101000a900473ffffffffffffffffffffffffffffffffffffffff16838360405161105693929190615341565b60405180910390a16110688683613831565b505050505050565b600161107b8161399b565b6110bc57336040517f06246cc50000000000000000000000000000000000000000000000000000000081526004016110b391906147c7565b60405180910390fd5b6003600760000154815481106110d5576110d461528d565b5b9060005260206000200160009054906101000a900473ffffffffffffffffffffffffffffffffffffffff1673ffffffffffffffffffffffffffffffffffffffff16630439f4a0836040518263ffffffff1660e01b81526004016111389190614a39565b600060405180830381600087803b15801561115257600080fd5b505af1158015611166573d6000803e3d6000fd5b505050505050565b60016111798161399b565b6111ba57336040517f06246cc50000000000000000000000000000000000000000000000000000000081526004016111b191906147c7565b60405180910390fd5b8373ffffffffffffffffffffffffffffffffffffffff1663095ea7b384846040518363ffffffff1660e01b81526004016111f592919061537f565b6020604051808303816000875af1158015611214573d6000803e3d6000fd5b505050506040513d601f19601f8201168201806040525081019061123891906153bd565b5050505050565b6000600161124c8161399b565b61128d57336040517f06246cc500000000000000000000000000000000000000000000000000000000815260040161128491906147c7565b60405180910390fd5b6112978484613afe565b91506004829080600181540180825580915050600190039060005260206000200160009091909190916101000a81548173ffffffffffffffffffffffffffffffffffffffff021916908373ffffffffffffffffffffffffffffffffffffffff1602179055505092915050565b600161130e8161399b565b61134f57336040517f06246cc500000000000000000000000000000000000000000000000000000000815260040161134691906147c7565b60405180910390fd5b600380549050821061139f57816003805490506040517fcbb2109a0000000000000000000000000000000000000000000000000000000081526004016113969291906153ea565b60405180910390fd5b816007600001819055505050565b60016113b88161399b565b6113f957336040517f06246cc50000000000000000000000000000000000000000000000000000000081526004016113f091906147c7565b60405180910390fd5b81600760010160006101000a81548160ff0219169083151502179055505050565b60016114258161399b565b61146657336040517f06246cc500000000000000000000000000000000000000000000000000000000815260040161145d91906147c7565b60405180910390fd5b814710156114a9576040517f08c379a00000000000000000000000000000000000000000000000000000000081526004016114a09061545f565b60405180910390fd5b60008573ffffffffffffffffffffffffffffffffffffffff168386866040516114d39291906154a4565b60006040518083038185875af1925050503d8060008114611510576040519150601f19603f3d011682016040523d82523d6000602084013e611515565b606091505b5050905080611559576040517f08c379a000000000000000000000000000000000000000000000000000000000815260040161155090615509565b60405180910390fd5b505050505050565b60156020528060005260406000206000915054906101000a900473ffffffffffffffffffffffffffffffffffffffff1681565b6000806003805490500361163a5760076000015473ffffffffffffffffffffffffffffffffffffffff166115ce8480519060200120613b12565b73ffffffffffffffffffffffffffffffffffffffff1614611624576040517f08c379a000000000000000000000000000000000000000000000000000000000815260040161161b90615575565b60405180910390fd5b6000801b93506000600760000181905550611686565b611644600161399b565b61168557336040517f06246cc500000000000000000000000000000000000000000000000000000000815260040161167c91906147c7565b60405180910390fd5b5b6116908484613afe565b90506003819080600181540180825580915050600190039060005260206000200160009091909190916101000a81548173ffffffffffffffffffffffffffffffffffffffff021916908373ffffffffffffffffffffffffffffffffffffffff160217905550600360016003805490506117099190615259565b8154811061171a5761171961528d565b5b9060005260206000200160009054906101000a900473ffffffffffffffffffffffffffffffffffffffff1673ffffffffffffffffffffffffffffffffffffffff1663d113cc8083600080357fffffffff0000000000000000000000000000000000000000000000000000000016336040518563ffffffff1660e01b81526004016117a794939291906155d0565b600060405180830381600087803b1580156117c157600080fd5b505af11580156117d5573d6000803e3d6000fd5b505050509392505050565b60016117eb8161399b565b61182c57336040517f06246cc500000000000000000000000000000000000000000000000000000000815260040161182391906147c7565b60405180910390fd5b60008373ffffffffffffffffffffffffffffffffffffffff16836040516118529061563b565b60006040518083038185875af1925050503d806000811461188f576040519150601f19603f3d011682016040523d82523d6000602084013e611894565b606091505b50509050806118d8576040517f08c379a00000000000000000000000000000000000000000000000000000000081526004016118cf9061569c565b60405180910390fd5b50505050565b6000670de0b6b3a7640000601060003373ffffffffffffffffffffffffffffffffffffffff1673ffffffffffffffffffffffffffffffffffffffff16815260200190815260200160002054118061193b575061193a600161399b565b5b61197a576040517f08c379a000000000000000000000000000000000000000000000000000000000815260040161197190615708565b60405180910390fd5b81600960010160006101000a81548160ff021916908360058111156119a2576119a1614c3f565b5b0217905550919050565b6000600c826040516119be9190615764565b908152602001604051809103902060000160009054906101000a900473ffffffffffffffffffffffffffffffffffffffff169050919050565b60106020528060005260406000206000915090505481565b600b8181548110611a1f57600080fd5b906000526020600020016000915090508054611a3a906157aa565b80601f0160208091040260200160405190810160405280929190818152602001828054611a66906157aa565b8015611ab35780601f10611a8857610100808354040283529160200191611ab3565b820191906000526020600020905b815481529060010190602001808311611a9657829003601f168201915b505050505081565b60098060000154908060010160009054906101000a900460ff16905082565b60166020528060005260406000206000915054906101000a900460ff1681565b6001611b058161399b565b611b4657336040517f06246cc5000000000000000000000000000000000000000000000000000000008152600401611b3d91906147c7565b60405180910390fd5b8373ffffffffffffffffffffffffffffffffffffffff1663095ea7b384846040518363ffffffff1660e01b8152600401611b8192919061537f565b600060405180830381600087803b158015611b9b57600080fd5b505af1158015611baf573d6000803e3d6000fd5b5050505050505050565b60118060000154908060010154908060020154908060030160009054906101000a900462ffffff16905084565b6001611bf18161399b565b611c3257336040517f06246cc5000000000000000000000000000000000000000000000000000000008152600401611c2991906147c7565b60405180910390fd5b60166000867bffffffffffffffffffffffffffffffffffffffffffffffffffffffff19167bffffffffffffffffffffffffffffffffffffffffffffffffffffffff1916815260200190815260200160002060009054906101000a900460ff1615611c9b57600080fd5b60405180606001604052808581526020018481526020018373ffffffffffffffffffffffffffffffffffffffff16815250600f6000877bffffffffffffffffffffffffffffffffffffffffffffffffffffffff19167bffffffffffffffffffffffffffffffffffffffffffffffffffffffff19168152602001908152602001600020600082015181600001556020820151816001015560408201518160020160006101000a81548173ffffffffffffffffffffffffffffffffffffffff021916908373ffffffffffffffffffffffffffffffffffffffff1602179055509050505050505050565b6001611d8d8161399b565b611dce57336040517f06246cc5000000000000000000000000000000000000000000000000000000008152600401611dc591906147c7565b60405180910390fd5b3073ffffffffffffffffffffffffffffffffffffffff168473ffffffffffffffffffffffffffffffffffffffff1614611e86578473ffffffffffffffffffffffffffffffffffffffff166323b872dd8585856040518463ffffffff1660e01b8152600401611e3e939291906157db565b6020604051808303816000875af1158015611e5d573d6000803e3d6000fd5b505050506040513d601f19601f82011682018060405250810190611e8191906153bd565b611f05565b8473ffffffffffffffffffffffffffffffffffffffff1663a9059cbb84846040518363ffffffff1660e01b8152600401611ec192919061537f565b6020604051808303816000875af1158015611ee0573d6000803e3d6000fd5b505050506040513d601f19601f82011682018060405250810190611f0491906153bd565b5b505050505050565b60055481565b600060e08560001b901b60e01c8260601b858560601b604051602001611f3c94939291906158c6565b604051602081830303815290604052611f5490615939565b60001c9050949350505050565b60038181548110611f7157600080fd5b906000526020600020016000915054906101000a900473ffffffffffffffffffffffffffffffffffffffff1681565b600f6020528060005260406000206000915090508060000154908060010154908060020160009054906101000a900473ffffffffffffffffffffffffffffffffffffffff16905083565b60048181548110611ffa57600080fd5b906000526020600020016000915054906101000a900473ffffffffffffffffffffffffffffffffffffffff1681565b60016120348161399b565b61207557336040517f06246cc500000000000000000000000000000000000000000000000000000000815260040161206c91906147c7565b60405180910390fd5b7f000000000000000000000000000000000000000000000000000000000000000073ffffffffffffffffffffffffffffffffffffffff1663c3c5a547836040518263ffffffff1660e01b81526004016120ce91906147c7565b602060405180830381865afa1580156120eb573d6000803e3d6000fd5b505050506040513d601f19601f8201168201806040525081019061210f91906153bd565b61211857600080fd5b60166000847bffffffffffffffffffffffffffffffffffffffffffffffffffffffff19167bffffffffffffffffffffffffffffffffffffffffffffffffffffffff1916815260200190815260200160002060009054906101000a900460ff161561218157600080fd5b8160016000857bffffffffffffffffffffffffffffffffffffffffffffffffffffffff19167bffffffffffffffffffffffffffffffffffffffffffffffffffffffff1916815260200190815260200160002060006101000a81548173ffffffffffffffffffffffffffffffffffffffff021916908373ffffffffffffffffffffffffffffffffffffffff160217905550505050565b6002818154811061222657600080fd5b90600052602060002090600202016000915090508060000154908060010160009054906101000a900473ffffffffffffffffffffffffffffffffffffffff16905082565b60016122758161399b565b6122b657336040517f06246cc50000000000000000000000000000000000000000000000000000000081526004016122ad91906147c7565b60405180910390fd5b602882106122f9576040517f08c379a00000000000000000000000000000000000000000000000000000000081526004016122f0906159ec565b60405180910390fd5b8160066000857bffffffffffffffffffffffffffffffffffffffffffffffffffffffff19167bffffffffffffffffffffffffffffffffffffffffffffffffffffffff1916815260200190815260200160002081905550505050565b61235f838383613b52565b6000600284815481106123755761237461528d565b5b906000526020600020906002020160010160009054906101000a900473ffffffffffffffffffffffffffffffffffffffff1673ffffffffffffffffffffffffffffffffffffffff1663b88b82ba600286815481106123d6576123d561528d565b5b9060005260206000209060020201600001546123f3878787613f00565b6040518363ffffffff1660e01b8152600401612410929190615a0c565b6020604051808303816000875af115801561242f573d6000803e3d6000fd5b505050506040513d601f19601f820116820180604052508101906124539190615170565b90506124618482858561411b565b50505050565b600060016000837bffffffffffffffffffffffffffffffffffffffffffffffffffffffff19167bffffffffffffffffffffffffffffffffffffffffffffffffffffffff1916815260200190815260200160002060009054906101000a900473ffffffffffffffffffffffffffffffffffffffff169050919050565b600080600d60003373ffffffffffffffffffffffffffffffffffffffff1673ffffffffffffffffffffffffffffffffffffffff1681526020019081526020016000205411806125375750612536600161399b565b5b612576576040517f08c379a000000000000000000000000000000000000000000000000000000000815260040161256d90615708565b60405180910390fd5b6000600581111561258a57612589614c3f565b5b600960010160009054906101000a900460ff1660058111156125af576125ae614c3f565b5b036125d55781600960000160008282546125c9919061421a565b92505081905550612691565b600160058111156125e9576125e8614c3f565b5b600960010160009054906101000a900460ff16600581111561260e5761260d614c3f565b5b036126345781600960000160008282546126289190615259565b92505081905550612690565b6003600581111561264857612647614c3f565b5b600960010160009054906101000a900460ff16600581111561266d5761266c614c3f565b5b0361268f5781600960000160008282546126879190615a3c565b925050819055505b5b5b919050565b7f000000000000000000000000000000000000000000000000000000000000000081565b60016126c58161399b565b61270657336040517f06246cc50000000000000000000000000000000000000000000000000000000081526004016126fd91906147c7565b60405180910390fd5b8473ffffffffffffffffffffffffffffffffffffffff166342842e0e8585856040518463ffffffff1660e01b8152600401612743939291906157db565b600060405180830381600087803b15801561275d57600080fd5b505af1158015612771573d6000803e3d6000fd5b505050505050505050565b60078060000154908060010160009054906101000a900460ff16905082565b600060016127a88161399b565b6127e957336040517f06246cc50000000000000000000000000000000000000000000000000000000081526004016127e091906147c7565b60405180910390fd5b600073ffffffffffffffffffffffffffffffffffffffff168373ffffffffffffffffffffffffffffffffffffffff160361282257600080fd5b6000600c856040516128349190615764565b908152602001604051809103902060010154036128b757600b8490806001815401808255809150506001900390600052602060002001600090919091909150908051906020019061288692919061413e565b50600b80549050600c8560405161289d9190615764565b908152602001604051809103902060010181905550612950565b6001600d6000600c876040516128cd9190615764565b908152602001604051809103902060000160009054906101000a900473ffffffffffffffffffffffffffffffffffffffff1673ffffffffffffffffffffffffffffffffffffffff1673ffffffffffffffffffffffffffffffffffffffff16815260200190815260200160002060008282546129489190615259565b925050819055505b82600c856040516129619190615764565b908152602001604051809103902060000160006101000a81548173ffffffffffffffffffffffffffffffffffffffff021916908373ffffffffffffffffffffffffffffffffffffffff1602179055506001600d60008573ffffffffffffffffffffffffffffffffffffffff1673ffffffffffffffffffffffffffffffffffffffff1681526020019081526020016000206000828254612a00919061421a565b925050819055505092915050565b7f000000000000000000000000000000000000000000000000000000000000000073ffffffffffffffffffffffffffffffffffffffff1663c3c5a547826040518263ffffffff1660e01b8152600401612a6791906147c7565b602060405180830381865afa158015612a84573d6000803e3d6000fd5b505050506040513d601f19601f82011682018060405250810190612aa891906153bd565b612ab157600080fd5b8060156000601160030160009054906101000a900462ffffff1662ffffff1662ffffff16815260200190815260200160002060006101000a81548173ffffffffffffffffffffffffffffffffffffffff021916908373ffffffffffffffffffffffffffffffffffffffff1602179055506001601160030160008282829054906101000a900462ffffff16612b459190615a96565b92506101000a81548162ffffff021916908362ffffff16021790555050565b6001612b6f8161399b565b612bb057336040517f06246cc5000000000000000000000000000000000000000000000000000000008152600401612ba791906147c7565b60405180910390fd5b600360076000015481548110612bc957612bc861528d565b5b9060005260206000200160009054906101000a900473ffffffffffffffffffffffffffffffffffffffff1673ffffffffffffffffffffffffffffffffffffffff166349d95693836040518263ffffffff1660e01b8152600401612c2c9190614b7a565b600060405180830381600087803b158015612c4657600080fd5b505af1158015612c5a573d6000803e3d6000fd5b505050505050565b6001612c6d8161399b565b612cae57336040517f06246cc5000000000000000000000000000000000000000000000000000000008152600401612ca591906147c7565b60405180910390fd5b600082118015612cbe5750601e82105b612cfd576040517f08c379a0000000000000000000000000000000000000000000000000000000008152600401612cf4906159ec565b60405180910390fd5b816005819055505050565b60066020528060005260406000206000915090505481565b60006004838390501015612d35576000612da6565b600660008484600090600492612d4d939291906151a7565b90612d5891906151fa565b7bffffffffffffffffffffffffffffffffffffffffffffffffffffffff19167bffffffffffffffffffffffffffffffffffffffffffffffffffffffff19168152602001908152602001600020545b90506000600360076000015481548110612dc357612dc261528d565b5b9060005260206000200160009054906101000a900473ffffffffffffffffffffffffffffffffffffffff1673ffffffffffffffffffffffffffffffffffffffff166370a08231336040518263ffffffff1660e01b8152600401612e2691906147c7565b602060405180830381865afa158015612e43573d6000803e3d6000fd5b505050506040513d601f19601f82011682018060405250810190612e679190615170565b90506005548110158015612e7b5750818110155b612eba576040517f08c379a0000000000000000000000000000000000000000000000000000000008152600401612eb190615b1b565b60405180910390fd5b5050505050565b600092915050565b60008073ffffffffffffffffffffffffffffffffffffffff1660016000847bffffffffffffffffffffffffffffffffffffffffffffffffffffffff19167bffffffffffffffffffffffffffffffffffffffffffffffffffffffff1916815260200190815260200160002060009054906101000a900473ffffffffffffffffffffffffffffffffffffffff1673ffffffffffffffffffffffffffffffffffffffff1614159050919050565b60008282604051602001612f8892919061537f565b60405160208183030381529060405280519060200120905092915050565b600060028581548110612fbc57612fbb61528d565b5b9060005260206000209060020201600001549050600060028681548110612fe657612fe561528d565b5b906000526020600020906002020160010160009054906101000a900473ffffffffffffffffffffffffffffffffffffffff16905060048484905010613731576000848460009060049261303b939291906151a7565b9061304691906151fa565b905080600e600089815260200190815260200160002060006101000a81548163ffffffff021916908360e01c0217905550600060019050600060606000600f6000867bffffffffffffffffffffffffffffffffffffffffffffffffffffffff19167bffffffffffffffffffffffffffffffffffffffffffffffffffffffff19168152602001908152602001600020600001541461324b578473ffffffffffffffffffffffffffffffffffffffff16638286227560e01b8760405160240161310d9190614b7a565b604051602081830303815290604052907bffffffffffffffffffffffffffffffffffffffffffffffffffffffff19166020820180517bffffffffffffffffffffffffffffffffffffffffffffffffffffffff8381831617835250505050604051613177919061532a565b6000604051808303816000865af19150503d80600081146131b4576040519150601f19603f3d011682016040523d82523d6000602084013e6131b9565b606091505b508092508193505050811561324a578280156132475750808060200190518101906131e49190615170565b42600f6000877bffffffffffffffffffffffffffffffffffffffffffffffffffffffff19167bffffffffffffffffffffffffffffffffffffffffffffffffffffffff1916815260200190815260200160002060000154613244919061421a565b11155b92505b5b600073ffffffffffffffffffffffffffffffffffffffff16600f6000867bffffffffffffffffffffffffffffffffffffffffffffffffffffffff19167bffffffffffffffffffffffffffffffffffffffffffffffffffffffff1916815260200190815260200160002060020160009054906101000a900473ffffffffffffffffffffffffffffffffffffffff1673ffffffffffffffffffffffffffffffffffffffff16146134a1578473ffffffffffffffffffffffffffffffffffffffff1663e4b50cb860e01b876040516024016133239190614b7a565b604051602081830303815290604052907bffffffffffffffffffffffffffffffffffffffffffffffffffffffff19166020820180517bffffffffffffffffffffffffffffffffffffffffffffffffffffffff838183161783525050505060405161338d919061532a565b6000604051808303816000865af19150503d80600081146133ca576040519150601f19603f3d011682016040523d82523d6000602084013e6133cf565b606091505b50809250819350505081156134a05782801561349d5750600f6000857bffffffffffffffffffffffffffffffffffffffffffffffffffffffff19167bffffffffffffffffffffffffffffffffffffffffffffffffffffffff1916815260200190815260200160002060020160009054906101000a900473ffffffffffffffffffffffffffffffffffffffff1673ffffffffffffffffffffffffffffffffffffffff16818060200190518101906134859190615b50565b73ffffffffffffffffffffffffffffffffffffffff16145b92505b5b6000600f6000867bffffffffffffffffffffffffffffffffffffffffffffffffffffffff19167bffffffffffffffffffffffffffffffffffffffffffffffffffffffff19168152602001908152602001600020600101541461368b578473ffffffffffffffffffffffffffffffffffffffff16637c5a43ec60e01b8760405160240161352d9190614b7a565b604051602081830303815290604052907bffffffffffffffffffffffffffffffffffffffffffffffffffffffff19166020820180517bffffffffffffffffffffffffffffffffffffffffffffffffffffffff8381831617835250505050604051613597919061532a565b6000604051808303816000865af19150503d80600081146135d4576040519150601f19603f3d011682016040523d82523d6000602084013e6135d9565b606091505b508092508193505050600080828060200190518101906135f99190615b7d565b9150915084801561368657506000811461362c5780620186a08361361d9190615a3c565b6136279190615bec565b61362e565b815b600f6000887bffffffffffffffffffffffffffffffffffffffffffffffffffffffff19167bffffffffffffffffffffffffffffffffffffffffffffffffffffffff191681526020019081526020016000206001015411155b945050505b826136cb576040517f08c379a00000000000000000000000000000000000000000000000000000000081526004016136c290615c69565b60405180910390fd5b897f314573b73d7d4ee49c8816e8b989bce584519ef7ed22ad80bc08600fd57f3c673360048b8b905010613712578a8a60009060049261370d939291906151a7565b613715565b8a8a5b60405161372493929190615c89565b60405180910390a2505050505b60036007600001548154811061374a5761374961528d565b5b9060005260206000200160009054906101000a900473ffffffffffffffffffffffffffffffffffffffff1673ffffffffffffffffffffffffffffffffffffffff1663d113cc8033846000357fffffffff0000000000000000000000000000000000000000000000000000000016856040518563ffffffff1660e01b81526004016137d79493929190615cbb565b600060405180830381600087803b1580156137f157600080fd5b505af1158015613805573d6000803e3d6000fd5b5050505060016011600001600082825461381f919061421a565b92505081905550505050505050565b50565b801561397a576003600760000154815481106138505761384f61528d565b5b9060005260206000200160009054906101000a900473ffffffffffffffffffffffffffffffffffffffff1673ffffffffffffffffffffffffffffffffffffffff1663d113cc8033600285815481106138ab576138aa61528d565b5b9060005260206000209060020201600001546000357fffffffff0000000000000000000000000000000000000000000000000000000016600287815481106138f6576138f561528d565b5b906000526020600020906002020160010160009054906101000a900473ffffffffffffffffffffffffffffffffffffffff166040518563ffffffff1660e01b81526004016139479493929190615cbb565b600060405180830381600087803b15801561396157600080fd5b505af1158015613975573d6000803e3d6000fd5b505050505b600160116002016000828254613990919061421a565b925050819055505050565b6000803373ffffffffffffffffffffffffffffffffffffffff166001600080357fffffffff00000000000000000000000000000000000000000000000000000000167bffffffffffffffffffffffffffffffffffffffffffffffffffffffff19167bffffffffffffffffffffffffffffffffffffffffffffffffffffffff1916815260200190815260200160002060009054906101000a900473ffffffffffffffffffffffffffffffffffffffff1673ffffffffffffffffffffffffffffffffffffffff16149050821580613a6e575080155b15613a7c5780915050613af9565b602460003690501015613a93576000915050613af9565b6000803660206000369050613aa89190615259565b90600036905092613abb939291906151a7565b90613ac69190615d00565b60001c9050600080613ad83384612f73565b815260200190815260200160002060009054906101000a900460ff16925050505b919050565b6000828251602084016000f5905092915050565b600060ff60f81b306000801b84604051602001613b329493929190615e15565b6040516020818303038152906040528051906020012060001c9050919050565b6000600e600085815260200190815260200160002060009054906101000a900460e01b9050600060e01b7bffffffffffffffffffffffffffffffffffffffffffffffffffffffff1916817bffffffffffffffffffffffffffffffffffffffffffffffffffffffff191614158015613c695750600073ffffffffffffffffffffffffffffffffffffffff16600f6000837bffffffffffffffffffffffffffffffffffffffffffffffffffffffff19167bffffffffffffffffffffffffffffffffffffffffffffffffffffffff1916815260200190815260200160002060020160009054906101000a900473ffffffffffffffffffffffffffffffffffffffff1673ffffffffffffffffffffffffffffffffffffffff16145b15613cbb576000600d60003373ffffffffffffffffffffffffffffffffffffffff1673ffffffffffffffffffffffffffffffffffffffff1681526020019081526020016000205411613cba57600080fd5b5b600060028581548110613cd157613cd061528d565b5b9060005260206000209060020201600001549050600060028681548110613cfb57613cfa61528d565b5b906000526020600020906002020160010160009054906101000a900473ffffffffffffffffffffffffffffffffffffffff169050600360076000015481548110613d4857613d4761528d565b5b9060005260206000200160009054906101000a900473ffffffffffffffffffffffffffffffffffffffff1673ffffffffffffffffffffffffffffffffffffffff16634f558e79613dbe846000357fffffffff00000000000000000000000000000000000000000000000000000000168533611f13565b6040518263ffffffff1660e01b8152600401613dda9190614b7a565b602060405180830381865afa158015613df7573d6000803e3d6000fd5b505050506040513d601f19601f82011682018060405250810190613e1b91906153bd565b613ef857600360076000015481548110613e3857613e3761528d565b5b9060005260206000200160009054906101000a900473ffffffffffffffffffffffffffffffffffffffff1673ffffffffffffffffffffffffffffffffffffffff1663d113cc8033846000357fffffffff0000000000000000000000000000000000000000000000000000000016856040518563ffffffff1660e01b8152600401613ec59493929190615cbb565b600060405180830381600087803b158015613edf57600080fd5b505af1158015613ef3573d6000803e3d6000fd5b505050505b505050505050565b606060008060028681548110613f1957613f1861528d565b5b906000526020600020906002020160010160009054906101000a900473ffffffffffffffffffffffffffffffffffffffff1673ffffffffffffffffffffffffffffffffffffffff16631d64c4f260e01b60028881548110613f7d57613f7c61528d565b5b906000526020600020906002020160000154604051602401613f9f9190614b7a565b604051602081830303815290604052907bffffffffffffffffffffffffffffffffffffffffffffffffffffffff19166020820180517bffffffffffffffffffffffffffffffffffffffffffffffffffffffff8381831617835250505050604051614009919061532a565b6000604051808303816000865af19150503d8060008114614046576040519150601f19603f3d011682016040523d82523d6000602084013e61404b565b606091505b509150915081156140ca57600060028081111561406b5761406a614c3f565b5b8280602001905181019061407f9190615e88565b600281111561409157614090614c3f565b5b14905080156140c8573386866040516020016140af93929190615eb5565b6040516020818303038152906040529350505050614114565b505b84848080601f016020809104026020016040519081016040528093929190818152602001838380828437600081840152601f19601f82011690508083019250505050505050925050505b9392505050565b600160116001016000828254614131919061421a565b9250508190555050505050565b82805461414a906157aa565b90600052602060002090601f01602090048101928261416c57600085556141b3565b82601f1061418557805160ff19168380011785556141b3565b828001600101855582156141b3579182015b828111156141b2578251825591602001919060010190614197565b5b5090506141c091906141c4565b5090565b5b808211156141dd5760008160009055506001016141c5565b5090565b6000819050919050565b7f4e487b7100000000000000000000000000000000000000000000000000000000600052601160045260246000fd5b6000614225826141e1565b9150614230836141e1565b9250827fffffffffffffffffffffffffffffffffffffffffffffffffffffffffffffffff03821115614265576142646141eb565b5b828201905092915050565b6000604051905090565b600080fd5b600080fd5b600080fd5b600080fd5b6000601f19601f8301169050919050565b7f4e487b7100000000000000000000000000000000000000000000000000000000600052604160045260246000fd5b6142d78261428e565b810181811067ffffffffffffffff821117156142f6576142f561429f565b5b80604052505050565b6000614309614270565b905061431582826142ce565b919050565b600067ffffffffffffffff8211156143355761433461429f565b5b61433e8261428e565b9050602081019050919050565b82818337600083830152505050565b600061436d6143688461431a565b6142ff565b90508281526020810184848401111561438957614388614289565b5b61439484828561434b565b509392505050565b600082601f8301126143b1576143b0614284565b5b81356143c184826020860161435a565b91505092915050565b600080fd5b600080fd5b60008083601f8401126143ea576143e9614284565b5b8235905067ffffffffffffffff811115614407576144066143ca565b5b602083019150836001820283011115614423576144226143cf565b5b9250929050565b6000806000604084860312156144435761444261427a565b5b600084013567ffffffffffffffff8111156144615761446061427f565b5b61446d8682870161439c565b935050602084013567ffffffffffffffff81111561448e5761448d61427f565b5b61449a868287016143d4565b92509250509250925092565b600073ffffffffffffffffffffffffffffffffffffffff82169050919050565b60006144d1826144a6565b9050919050565b6144e1816144c6565b81146144ec57600080fd5b50565b6000813590506144fe816144d8565b92915050565b61450d816141e1565b811461451857600080fd5b50565b60008135905061452a81614504565b92915050565b60008060008060006080868803121561454c5761454b61427a565b5b600061455a888289016144ef565b955050602061456b888289016144ef565b945050604061457c8882890161451b565b935050606086013567ffffffffffffffff81111561459d5761459c61427f565b5b6145a9888289016143d4565b92509250509295509295909350565b60007fffffffff0000000000000000000000000000000000000000000000000000000082169050919050565b6145ed816145b8565b82525050565b600060208201905061460860008301846145e4565b92915050565b6000806000604084860312156146275761462661427a565b5b60006146358682870161451b565b935050602084013567ffffffffffffffff8111156146565761465561427f565b5b614662868287016143d4565b92509250509250925092565b60008115159050919050565b6146838161466e565b811461468e57600080fd5b50565b6000813590506146a08161467a565b92915050565b6000602082840312156146bc576146bb61427a565b5b60006146ca84828501614691565b91505092915050565b6000806000606084860312156146ec576146eb61427a565b5b60006146fa868287016144ef565b935050602061470b868287016144ef565b925050604061471c8682870161451b565b9150509250925092565b6000819050919050565b61473981614726565b811461474457600080fd5b50565b60008135905061475681614730565b92915050565b600080604083850312156147735761477261427a565b5b600061478185828601614747565b925050602083013567ffffffffffffffff8111156147a2576147a161427f565b5b6147ae8582860161439c565b9150509250929050565b6147c1816144c6565b82525050565b60006020820190506147dc60008301846147b8565b92915050565b6000602082840312156147f8576147f761427a565b5b60006148068482850161451b565b91505092915050565b600080600080606085870312156148295761482861427a565b5b6000614837878288016144ef565b945050602085013567ffffffffffffffff8111156148585761485761427f565b5b614864878288016143d4565b935093505060406148778782880161451b565b91505092959194509250565b600062ffffff82169050919050565b61489b81614883565b81146148a657600080fd5b50565b6000813590506148b881614892565b92915050565b6000602082840312156148d4576148d361427a565b5b60006148e2848285016148a9565b91505092915050565b6000806000606084860312156149045761490361427a565b5b600061491286828701614747565b935050602084013567ffffffffffffffff8111156149335761493261427f565b5b61493f8682870161439c565b9250506040614950868287016144ef565b9150509250925092565b6000614965826144a6565b9050919050565b6149758161495a565b811461498057600080fd5b50565b6000813590506149928161496c565b92915050565b600080604083850312156149af576149ae61427a565b5b60006149bd85828601614983565b92505060206149ce8582860161451b565b9150509250929050565b600681106149e557600080fd5b50565b6000813590506149f7816149d8565b92915050565b600060208284031215614a1357614a1261427a565b5b6000614a21848285016149e8565b91505092915050565b614a338161466e565b82525050565b6000602082019050614a4e6000830184614a2a565b92915050565b600067ffffffffffffffff821115614a6f57614a6e61429f565b5b614a788261428e565b9050602081019050919050565b6000614a98614a9384614a54565b6142ff565b905082815260208101848484011115614ab457614ab3614289565b5b614abf84828561434b565b509392505050565b600082601f830112614adc57614adb614284565b5b8135614aec848260208601614a85565b91505092915050565b600060208284031215614b0b57614b0a61427a565b5b600082013567ffffffffffffffff811115614b2957614b2861427f565b5b614b3584828501614ac7565b91505092915050565b600060208284031215614b5457614b5361427a565b5b6000614b62848285016144ef565b91505092915050565b614b74816141e1565b82525050565b6000602082019050614b8f6000830184614b6b565b92915050565b600081519050919050565b600082825260208201905092915050565b60005b83811015614bcf578082015181840152602081019050614bb4565b83811115614bde576000848401525b50505050565b6000614bef82614b95565b614bf98185614ba0565b9350614c09818560208601614bb1565b614c128161428e565b840191505092915050565b60006020820190508181036000830152614c378184614be4565b905092915050565b7f4e487b7100000000000000000000000000000000000000000000000000000000600052602160045260246000fd5b60068110614c7f57614c7e614c3f565b5b50565b6000819050614c9082614c6e565b919050565b6000614ca082614c82565b9050919050565b614cb081614c95565b82525050565b6000604082019050614ccb6000830185614b6b565b614cd86020830184614ca7565b9392505050565b614ce8816145b8565b8114614cf357600080fd5b50565b600081359050614d0581614cdf565b92915050565b600060208284031215614d2157614d2061427a565b5b6000614d2f84828501614cf6565b91505092915050565b614d4181614883565b82525050565b6000608082019050614d5c6000830187614b6b565b614d696020830186614b6b565b614d766040830185614b6b565b614d836060830184614d38565b95945050505050565b60008060008060808587031215614da657614da561427a565b5b6000614db487828801614cf6565b9450506020614dc58782880161451b565b9350506040614dd68782880161451b565b9250506060614de7878288016144ef565b91505092959194509250565b60008060008060808587031215614e0d57614e0c61427a565b5b6000614e1b878288016144ef565b9450506020614e2c878288016144ef565b9350506040614e3d878288016144ef565b9250506060614e4e8782880161451b565b91505092959194509250565b60008060008060808587031215614e7457614e7361427a565b5b6000614e828782880161451b565b9450506020614e9387828801614cf6565b9350506040614ea4878288016144ef565b9250506060614eb5878288016144ef565b91505092959194509250565b6000819050919050565b6000614ee6614ee1614edc846144a6565b614ec1565b6144a6565b9050919050565b6000614ef882614ecb565b9050919050565b6000614f0a82614eed565b9050919050565b614f1a81614eff565b82525050565b6000602082019050614f356000830184614f11565b92915050565b6000606082019050614f506000830186614b6b565b614f5d6020830185614b6b565b614f6a60408301846147b8565b949350505050565b60008060408385031215614f8957614f8861427a565b5b6000614f9785828601614cf6565b9250506020614fa8858286016144ef565b9150509250929050565b6000604082019050614fc76000830185614b6b565b614fd460208301846147b8565b9392505050565b60008060408385031215614ff257614ff161427a565b5b600061500085828601614cf6565b92505060206150118582860161451b565b9150509250929050565b60006040820190506150306000830185614b6b565b61503d6020830184614a2a565b9392505050565b6000806040838503121561505b5761505a61427a565b5b600083013567ffffffffffffffff8111156150795761507861427f565b5b61508585828601614ac7565b9250506020615096858286016144ef565b9150509250929050565b600081519050919050565b600082825260208201905092915050565b60006150c7826150a0565b6150d181856150ab565b93506150e1818560208601614bb1565b6150ea8161428e565b840191505092915050565b600061510183856150ab565b935061510e83858461434b565b6151178361428e565b840190509392505050565b6000604082019050818103600083015261513c81866150bc565b905081810360208301526151518184866150f5565b9050949350505050565b60008151905061516a81614504565b92915050565b6000602082840312156151865761518561427a565b5b60006151948482850161515b565b91505092915050565b600080fd5b600080fd5b600080858511156151bb576151ba61519d565b5b838611156151cc576151cb6151a2565b5b6001850283019150848603905094509492505050565b600082905092915050565b600082821b905092915050565b600061520683836151e2565b8261521181356145b8565b925060048210156152515761524c7fffffffff00000000000000000000000000000000000000000000000000000000836004036008026151ed565b831692505b505092915050565b6000615264826141e1565b915061526f836141e1565b925082821015615282576152816141eb565b5b828203905092915050565b7f4e487b7100000000000000000000000000000000000000000000000000000000600052603260045260246000fd5b60006040820190506152d16000830186614b6b565b81810360208301526152e48184866150f5565b9050949350505050565b600081905092915050565b6000615304826150a0565b61530e81856152ee565b935061531e818560208601614bb1565b80840191505092915050565b600061533682846152f9565b915081905092915050565b600060608201905061535660008301866147b8565b6153636020830185614a2a565b818103604083015261537581846150bc565b9050949350505050565b600060408201905061539460008301856147b8565b6153a16020830184614b6b565b9392505050565b6000815190506153b78161467a565b92915050565b6000602082840312156153d3576153d261427a565b5b60006153e1848285016153a8565b91505092915050565b60006040820190506153ff6000830185614b6b565b61540c6020830184614b6b565b9392505050565b7f6e6f7420656e6f7567682066756e647300000000000000000000000000000000600082015250565b6000615449601083614ba0565b915061545482615413565b602082019050919050565b600060208201905081810360008301526154788161543c565b9050919050565b600061548b83856152ee565b935061549883858461434b565b82840190509392505050565b60006154b182848661547f565b91508190509392505050565b7f6e6f74207375636365737366756c000000000000000000000000000000000000600082015250565b60006154f3600e83614ba0565b91506154fe826154bd565b602082019050919050565b60006020820190508181036000830152615522816154e6565b9050919050565b7f57726f6e672042797465436f6465000000000000000000000000000000000000600082015250565b600061555f600e83614ba0565b915061556a82615529565b602082019050919050565b6000602082019050818103600083015261558e81615552565b9050919050565b6000819050919050565b60006155ba6155b56155b084615595565b614ec1565b6141e1565b9050919050565b6155ca8161559f565b82525050565b60006080820190506155e560008301876147b8565b6155f260208301866155c1565b6155ff60408301856145e4565b61560c60608301846147b8565b95945050505050565b50565b60006156256000836152ee565b915061563082615615565b600082019050919050565b600061564682615618565b9150819050919050565b7f4661696c656420746f2073656e64000000000000000000000000000000000000600082015250565b6000615686600e83614ba0565b915061569182615650565b602082019050919050565b600060208201905081810360008301526156b581615679565b9050919050565b7f6e6f7420616c6c6f776564000000000000000000000000000000000000000000600082015250565b60006156f2600b83614ba0565b91506156fd826156bc565b602082019050919050565b60006020820190508181036000830152615721816156e5565b9050919050565b600081905092915050565b600061573e82614b95565b6157488185615728565b9350615758818560208601614bb1565b80840191505092915050565b60006157708284615733565b915081905092915050565b7f4e487b7100000000000000000000000000000000000000000000000000000000600052602260045260246000fd5b600060028204905060018216806157c257607f821691505b6020821081036157d5576157d461577b565b5b50919050565b60006060820190506157f060008301866147b8565b6157fd60208301856147b8565b61580a6040830184614b6b565b949350505050565b600063ffffffff82169050919050565b60008160e01b9050919050565b600061583a82615822565b9050919050565b61585261584d82615812565b61582f565b82525050565b60007fffffffffffffffffffffffff000000000000000000000000000000000000000082169050919050565b6000819050919050565b61589f61589a82615858565b615884565b82525050565b6000819050919050565b6158c06158bb826145b8565b6158a5565b82525050565b60006158d28287615841565b6004820191506158e2828661588e565b600c820191506158f282856158af565b600482019150615902828461588e565b600c8201915081905095945050505050565b6000819050602082019050919050565b60006159308251614726565b80915050919050565b6000615944826150a0565b8261594e84615914565b905061595981615924565b92506020821015615999576159947fffffffffffffffffffffffffffffffffffffffffffffffffffffffffffffffff836020036008026151ed565b831692505b5050919050565b7f4d7573742062652077697468696e20626f756e64730000000000000000000000600082015250565b60006159d6601583614ba0565b91506159e1826159a0565b602082019050919050565b60006020820190508181036000830152615a05816159c9565b9050919050565b6000604082019050615a216000830185614b6b565b8181036020830152615a3381846150bc565b90509392505050565b6000615a47826141e1565b9150615a52836141e1565b9250817fffffffffffffffffffffffffffffffffffffffffffffffffffffffffffffffff0483118215151615615a8b57615a8a6141eb565b5b828202905092915050565b6000615aa182614883565b9150615aac83614883565b92508262ffffff03821115615ac457615ac36141eb565b5b828201905092915050565b7f4e6f7420656e6f75676820626164676573000000000000000000000000000000600082015250565b6000615b05601183614ba0565b9150615b1082615acf565b602082019050919050565b60006020820190508181036000830152615b3481615af8565b9050919050565b600081519050615b4a8161496c565b92915050565b600060208284031215615b6657615b6561427a565b5b6000615b7484828501615b3b565b91505092915050565b60008060408385031215615b9457615b9361427a565b5b6000615ba28582860161515b565b9250506020615bb38582860161515b565b9150509250929050565b7f4e487b7100000000000000000000000000000000000000000000000000000000600052601260045260246000fd5b6000615bf7826141e1565b9150615c02836141e1565b925082615c1257615c11615bbd565b5b828204905092915050565b7f496e76616c696420506172616d65746572730000000000000000000000000000600082015250565b6000615c53601283614ba0565b9150615c5e82615c1d565b602082019050919050565b60006020820190508181036000830152615c8281615c46565b9050919050565b6000604082019050615c9e60008301866147b8565b8181036020830152615cb18184866150f5565b9050949350505050565b6000608082019050615cd060008301876147b8565b615cdd6020830186614b6b565b615cea60408301856145e4565b615cf760608301846147b8565b95945050505050565b6000615d0c83836151e2565b82615d178135614726565b92506020821015615d5757615d527fffffffffffffffffffffffffffffffffffffffffffffffffffffffffffffffff836020036008026151ed565b831692505b505092915050565b60007fff0000000000000000000000000000000000000000000000000000000000000082169050919050565b6000819050919050565b615da6615da182615d5f565b615d8b565b82525050565b60008160601b9050919050565b6000615dc482615dac565b9050919050565b6000615dd682615db9565b9050919050565b615dee615de9826144c6565b615dcb565b82525050565b6000819050919050565b615e0f615e0a82614726565b615df4565b82525050565b6000615e218287615d95565b600182019150615e318286615ddd565b601482019150615e418285615dfe565b602082019150615e518284615dfe565b60208201915081905095945050505050565b60038110615e7057600080fd5b50565b600081519050615e8281615e63565b92915050565b600060208284031215615e9e57615e9d61427a565b5b6000615eac84828501615e73565b91505092915050565b6000615ec18286615ddd565b601482019150615ed282848661547f565b915081905094935050505056fea2646970667358221220b8798bca3cf92259e93a51e5d52f7058ccf142f342d6ba20cd618aa920bd517f64736f6c634300080d0033",
  "linkReferences": {},
  "deployedLinkReferences": {}
}