{
  "_format": "hh-sol-artifact-1",
  "contractName": "VotingPlayground",
  "sourceName": "src/examples/playground/Playground.sol",
  "abi": [
    {
      "inputs": [
        {
          "internalType": "address",
          "name": "votingContractRegistry",
          "type": "address"
        },
        {
          "internalType": "bytes5[]",
          "name": "flagAndSelectors",
          "type": "bytes5[]"
        },
        {
          "internalType": "address[]",
          "name": "votingContracts",
          "type": "address[]"
        },
        {
          "internalType": "uint256[]",
          "name": "minDurations",
          "type": "uint256[]"
        },
        {
          "internalType": "uint256[]",
          "name": "minQuorums",
          "type": "uint256[]"
        },
        {
          "internalType": "bool[]",
          "name": "badgeWeightedVote",
          "type": "bool[]"
        },
        {
          "internalType": "bytes32",
          "name": "hashedBadgeBytecode",
          "type": "bytes32"
        }
      ],
      "stateMutability": "nonpayable",
      "type": "constructor"
    },
    {
      "inputs": [
        {
          "internalType": "uint256",
          "name": "mainBadge",
          "type": "uint256"
        },
        {
          "internalType": "uint256",
          "name": "numberOfBadges",
          "type": "uint256"
        }
      ],
      "name": "BadgeDoesntExist",
      "type": "error"
    },
    {
      "inputs": [
        {
          "internalType": "address",
          "name": "imposter",
          "type": "address"
        }
      ],
      "name": "IsNotImplementer",
      "type": "error"
    },
    {
      "inputs": [
        {
          "internalType": "bytes4",
          "name": "selector",
          "type": "bytes4"
        }
      ],
      "name": "IsNotVotableFunction",
      "type": "error"
    },
    {
      "inputs": [
        {
          "internalType": "address",
          "name": "implementer",
          "type": "address"
        }
      ],
      "name": "OnlyVoteImplementer",
      "type": "error"
    },
    {
      "anonymous": false,
      "inputs": [
        {
          "indexed": false,
          "internalType": "address",
          "name": "votingContract",
          "type": "address"
        },
        {
          "indexed": false,
          "internalType": "bool",
          "name": "successflag",
          "type": "bool"
        },
        {
          "indexed": false,
          "internalType": "bytes",
          "name": "response",
          "type": "bytes"
        }
      ],
      "name": "Balaa",
      "type": "event"
    },
    {
      "anonymous": false,
      "inputs": [
        {
          "indexed": false,
          "internalType": "bool",
          "name": "success",
          "type": "bool"
        },
        {
          "indexed": false,
          "internalType": "bytes",
          "name": "response",
          "type": "bytes"
        }
      ],
      "name": "WhatsNow",
      "type": "event"
    },
    {
      "inputs": [],
      "name": "VOTING_REGISTRY",
      "outputs": [
        {
          "internalType": "address",
          "name": "",
          "type": "address"
        }
      ],
      "stateMutability": "view",
      "type": "function"
    },
    {
      "inputs": [
        {
          "internalType": "address",
          "name": "votingContract",
          "type": "address"
        }
      ],
      "name": "addSimpleVotingContract",
      "outputs": [],
      "stateMutability": "nonpayable",
      "type": "function"
    },
    {
      "inputs": [],
      "name": "analytics",
      "outputs": [
        {
          "internalType": "uint256",
          "name": "numberOfInstances",
          "type": "uint256"
        },
        {
          "internalType": "uint256",
          "name": "numberOfVotes",
          "type": "uint256"
        },
        {
          "internalType": "uint256",
          "name": "numberOfImplementations",
          "type": "uint256"
        },
        {
          "internalType": "uint24",
          "name": "numberOfSimpleVotingContracts",
          "type": "uint24"
        }
      ],
      "stateMutability": "view",
      "type": "function"
    },
    {
      "inputs": [
        {
          "internalType": "address",
          "name": "token",
          "type": "address"
        },
        {
          "internalType": "address",
          "name": "spender",
          "type": "address"
        },
        {
          "internalType": "uint256",
          "name": "amount",
          "type": "uint256"
        }
      ],
      "name": "approveERC20Token",
      "outputs": [],
      "stateMutability": "nonpayable",
      "type": "function"
    },
    {
      "inputs": [
        {
          "internalType": "address",
          "name": "token",
          "type": "address"
        },
        {
          "internalType": "address",
          "name": "spender",
          "type": "address"
        },
        {
          "internalType": "uint256",
          "name": "tokenId",
          "type": "uint256"
        },
        {
          "internalType": "enum ApprovalTypes",
          "name": "approvalType",
          "type": "uint8"
        }
      ],
      "name": "approveNFT",
      "outputs": [],
      "stateMutability": "nonpayable",
      "type": "function"
    },
    {
      "inputs": [
        {
          "internalType": "uint256",
          "name": "",
          "type": "uint256"
        }
      ],
      "name": "badges",
      "outputs": [
        {
          "internalType": "contract IPlaygroundVotingBadge",
          "name": "",
          "type": "address"
        }
      ],
      "stateMutability": "view",
      "type": "function"
    },
    {
      "inputs": [
        {
          "internalType": "uint256",
          "name": "index",
          "type": "uint256"
        },
        {
          "internalType": "bytes4",
          "name": "selector",
          "type": "bytes4"
        },
        {
          "internalType": "address",
          "name": "votingContract",
          "type": "address"
        },
        {
          "internalType": "address",
          "name": "minter",
          "type": "address"
        }
      ],
      "name": "calculateId",
      "outputs": [
        {
          "internalType": "uint256",
          "name": "",
          "type": "uint256"
        }
      ],
      "stateMutability": "pure",
      "type": "function"
    },
    {
      "inputs": [
        {
          "internalType": "bytes4",
          "name": "selector",
          "type": "bytes4"
        },
        {
          "internalType": "address",
          "name": "newVotingContract",
          "type": "address"
        }
      ],
      "name": "changeAssignedContract",
      "outputs": [],
      "stateMutability": "nonpayable",
      "type": "function"
    },
    {
      "inputs": [
        {
          "internalType": "uint256",
          "name": "by",
          "type": "uint256"
        }
      ],
      "name": "changeCounter",
      "outputs": [
        {
          "internalType": "bool",
          "name": "",
          "type": "bool"
        }
      ],
      "stateMutability": "nonpayable",
      "type": "function"
    },
    {
      "inputs": [
        {
          "internalType": "bytes4",
          "name": "selector",
          "type": "bytes4"
        },
        {
          "internalType": "uint256",
          "name": "minDuration",
          "type": "uint256"
        },
        {
          "internalType": "uint256",
          "name": "minQuorum",
          "type": "uint256"
        },
        {
          "internalType": "address",
          "name": "token",
          "type": "address"
        }
      ],
      "name": "changeMetaParameters",
      "outputs": [],
      "stateMutability": "nonpayable",
      "type": "function"
    },
    {
      "inputs": [
        {
          "internalType": "enum Operation",
          "name": "newOperation",
          "type": "uint8"
        }
      ],
      "name": "changeOperation",
      "outputs": [
        {
          "internalType": "bool",
          "name": "",
          "type": "bool"
        }
      ],
      "stateMutability": "nonpayable",
      "type": "function"
    },
    {
      "inputs": [],
      "name": "counter",
      "outputs": [
        {
          "internalType": "uint256",
          "name": "counter",
          "type": "uint256"
        },
        {
          "internalType": "enum Operation",
          "name": "operation",
          "type": "uint8"
        }
      ],
      "stateMutability": "view",
      "type": "function"
    },
    {
      "inputs": [
        {
          "internalType": "bytes32",
          "name": "salt",
          "type": "bytes32"
        },
        {
          "internalType": "bytes",
          "name": "bytecode",
          "type": "bytes"
        },
        {
          "internalType": "address",
          "name": "badger",
          "type": "address"
        }
      ],
      "name": "deployNewBadge",
      "outputs": [
        {
          "internalType": "address",
          "name": "deployedContract",
          "type": "address"
        }
      ],
      "stateMutability": "nonpayable",
      "type": "function"
    },
    {
      "inputs": [
        {
          "internalType": "bytes32",
          "name": "salt",
          "type": "bytes32"
        },
        {
          "internalType": "bytes",
          "name": "bytecode",
          "type": "bytes"
        }
      ],
      "name": "deployNewContract",
      "outputs": [
        {
          "internalType": "address",
          "name": "deployedContract",
          "type": "address"
        }
      ],
      "stateMutability": "nonpayable",
      "type": "function"
    },
    {
      "inputs": [
        {
          "internalType": "uint256",
          "name": "",
          "type": "uint256"
        }
      ],
      "name": "deployedContracts",
      "outputs": [
        {
          "internalType": "address",
          "name": "",
          "type": "address"
        }
      ],
      "stateMutability": "view",
      "type": "function"
    },
    {
      "inputs": [
        {
          "internalType": "address",
          "name": "",
          "type": "address"
        }
      ],
      "name": "donationsBy",
      "outputs": [
        {
          "internalType": "uint256",
          "name": "",
          "type": "uint256"
        }
      ],
      "stateMutability": "view",
      "type": "function"
    },
    {
      "inputs": [
        {
          "internalType": "bytes4",
          "name": "",
          "type": "bytes4"
        }
      ],
      "name": "fixedVotingContract",
      "outputs": [
        {
          "internalType": "bool",
          "name": "",
          "type": "bool"
        }
      ],
      "stateMutability": "view",
      "type": "function"
    },
    {
      "inputs": [
        {
          "internalType": "bytes4",
          "name": "selector",
          "type": "bytes4"
        }
      ],
      "name": "getAssignedContract",
      "outputs": [
        {
          "internalType": "address",
          "name": "_assignedContract",
          "type": "address"
        }
      ],
      "stateMutability": "view",
      "type": "function"
    },
    {
      "inputs": [
        {
          "internalType": "string",
          "name": "office",
          "type": "string"
        }
      ],
      "name": "getIncumbentFromOffice",
      "outputs": [
        {
          "internalType": "address",
          "name": "incumbent",
          "type": "address"
        }
      ],
      "stateMutability": "view",
      "type": "function"
    },
    {
      "inputs": [
        {
          "internalType": "uint256",
          "name": "identifier",
          "type": "uint256"
        },
        {
          "internalType": "bytes",
          "name": "callback",
          "type": "bytes"
        }
      ],
      "name": "implement",
      "outputs": [],
      "stateMutability": "payable",
      "type": "function"
    },
    {
      "inputs": [
        {
          "internalType": "uint256",
          "name": "",
          "type": "uint256"
        }
      ],
      "name": "instances",
      "outputs": [
        {
          "internalType": "uint256",
          "name": "identifier",
          "type": "uint256"
        },
        {
          "internalType": "address",
          "name": "votingContract",
          "type": "address"
        }
      ],
      "stateMutability": "view",
      "type": "function"
    },
    {
      "inputs": [],
      "name": "minXpToStartAnything",
      "outputs": [
        {
          "internalType": "uint256",
          "name": "",
          "type": "uint256"
        }
      ],
      "stateMutability": "view",
      "type": "function"
    },
    {
      "inputs": [
        {
          "internalType": "bytes4",
          "name": "",
          "type": "bytes4"
        }
      ],
      "name": "minXpToStartThisFunction",
      "outputs": [
        {
          "internalType": "uint256",
          "name": "",
          "type": "uint256"
        }
      ],
      "stateMutability": "view",
      "type": "function"
    },
    {
      "inputs": [
        {
          "internalType": "string",
          "name": "office",
          "type": "string"
        },
        {
          "internalType": "address",
          "name": "_newIncumbent",
          "type": "address"
        }
      ],
      "name": "newIncumbent",
      "outputs": [
        {
          "internalType": "bool",
          "name": "",
          "type": "bool"
        }
      ],
      "stateMutability": "nonpayable",
      "type": "function"
    },
    {
      "inputs": [],
      "name": "nftAndBadgesInfo",
      "outputs": [
        {
          "internalType": "uint256",
          "name": "mainBadge",
          "type": "uint256"
        },
        {
          "internalType": "bool",
          "name": "acceptingNFTs",
          "type": "bool"
        }
      ],
      "stateMutability": "view",
      "type": "function"
    },
    {
      "inputs": [
        {
          "internalType": "uint256",
          "name": "",
          "type": "uint256"
        }
      ],
      "name": "offices",
      "outputs": [
        {
          "internalType": "string",
          "name": "",
          "type": "string"
        }
      ],
      "stateMutability": "view",
      "type": "function"
    },
    {
      "inputs": [
        {
          "internalType": "address",
          "name": "operator",
          "type": "address"
        },
        {
          "internalType": "address",
          "name": "from",
          "type": "address"
        },
        {
          "internalType": "uint256",
          "name": "tokenId",
          "type": "uint256"
        },
        {
          "internalType": "bytes",
          "name": "data",
          "type": "bytes"
        }
      ],
      "name": "onERC721Received",
      "outputs": [
        {
          "internalType": "bytes4",
          "name": "",
          "type": "bytes4"
        }
      ],
      "stateMutability": "view",
      "type": "function"
    },
    {
      "inputs": [
        {
          "internalType": "address",
          "name": "token",
          "type": "address"
        },
        {
          "internalType": "address",
          "name": "from",
          "type": "address"
        },
        {
          "internalType": "address",
          "name": "to",
          "type": "address"
        },
        {
          "internalType": "uint256",
          "name": "amount",
          "type": "uint256"
        }
      ],
      "name": "sendERC20Token",
      "outputs": [],
      "stateMutability": "nonpayable",
      "type": "function"
    },
    {
      "inputs": [
        {
          "internalType": "address",
          "name": "token",
          "type": "address"
        },
        {
          "internalType": "address",
          "name": "from",
          "type": "address"
        },
        {
          "internalType": "address",
          "name": "to",
          "type": "address"
        },
        {
          "internalType": "uint256",
          "name": "tokenId",
          "type": "uint256"
        }
      ],
      "name": "sendNFT",
      "outputs": [],
      "stateMutability": "nonpayable",
      "type": "function"
    },
    {
      "inputs": [
        {
          "internalType": "address payable",
          "name": "to",
          "type": "address"
        },
        {
          "internalType": "uint256",
          "name": "amount",
          "type": "uint256"
        }
      ],
      "name": "sendNativeToken",
      "outputs": [],
      "stateMutability": "nonpayable",
      "type": "function"
    },
    {
      "inputs": [
        {
          "internalType": "bool",
          "name": "accept",
          "type": "bool"
        }
      ],
      "name": "setAcceptingNFTs",
      "outputs": [],
      "stateMutability": "nonpayable",
      "type": "function"
    },
    {
      "inputs": [
        {
          "internalType": "uint256",
          "name": "newThreshold",
          "type": "uint256"
        }
      ],
      "name": "setEnableTradingThreshold",
      "outputs": [],
      "stateMutability": "nonpayable",
      "type": "function"
    },
    {
      "inputs": [
        {
          "internalType": "uint256",
          "name": "newMainBadge",
          "type": "uint256"
        }
      ],
      "name": "setMainBadge",
      "outputs": [],
      "stateMutability": "nonpayable",
      "type": "function"
    },
    {
      "inputs": [
        {
          "internalType": "uint256",
          "name": "newXP",
          "type": "uint256"
        }
      ],
      "name": "setMinXpToStartAnything",
      "outputs": [],
      "stateMutability": "nonpayable",
      "type": "function"
    },
    {
      "inputs": [
        {
          "internalType": "bytes4",
          "name": "selector",
          "type": "bytes4"
        },
        {
          "internalType": "uint256",
          "name": "newXP",
          "type": "uint256"
        }
      ],
      "name": "setMinXpToStartThisFunction",
      "outputs": [],
      "stateMutability": "nonpayable",
      "type": "function"
    },
    {
      "inputs": [
        {
          "internalType": "bool",
          "name": "enable",
          "type": "bool"
        }
      ],
      "name": "setTradingEnabledGlobally",
      "outputs": [],
      "stateMutability": "nonpayable",
      "type": "function"
    },
    {
      "inputs": [
        {
          "internalType": "uint24",
          "name": "",
          "type": "uint24"
        }
      ],
      "name": "simpleVotingContract",
      "outputs": [
        {
          "internalType": "address",
          "name": "",
          "type": "address"
        }
      ],
      "stateMutability": "view",
      "type": "function"
    },
    {
      "inputs": [
        {
          "internalType": "bytes",
          "name": "votingParams",
          "type": "bytes"
        },
        {
          "internalType": "bytes",
          "name": "callback",
          "type": "bytes"
        }
      ],
      "name": "start",
      "outputs": [],
      "stateMutability": "nonpayable",
      "type": "function"
    },
    {
      "inputs": [
        {
          "internalType": "uint256",
          "name": "identifier",
          "type": "uint256"
        },
        {
          "internalType": "bytes",
          "name": "votingData",
          "type": "bytes"
        }
      ],
      "name": "vote",
      "outputs": [],
      "stateMutability": "nonpayable",
      "type": "function"
    },
    {
      "inputs": [
        {
          "internalType": "bytes4",
          "name": "",
          "type": "bytes4"
        }
      ],
      "name": "votingMetaParams",
      "outputs": [
        {
          "internalType": "uint256",
          "name": "minDuration",
          "type": "uint256"
        },
        {
          "internalType": "uint256",
          "name": "minQuorum",
          "type": "uint256"
        },
        {
          "internalType": "address",
          "name": "token",
          "type": "address"
        }
      ],
      "stateMutability": "view",
      "type": "function"
    },
    {
      "inputs": [
        {
          "internalType": "address",
          "name": "contractAddress",
          "type": "address"
        },
        {
          "internalType": "bytes",
          "name": "data",
          "type": "bytes"
        },
        {
          "internalType": "uint256",
          "name": "value",
          "type": "uint256"
        }
      ],
      "name": "wildCard",
      "outputs": [],
      "stateMutability": "payable",
      "type": "function"
    },
    {
      "stateMutability": "payable",
      "type": "receive"
    }
  ],
  "bytecode": "0x60a06040523480156200001157600080fd5b5060405162006cd938038062006cd98339818101604052810190620000379190620009b2565b8673ffffffffffffffffffffffffffffffffffffffff1660808173ffffffffffffffffffffffffffffffffffffffff168152505060006200007e82620003f060201b60201c565b90508073ffffffffffffffffffffffffffffffffffffffff1660076000018190555060005b86518160ff161015620003e15760006008898360ff1681518110620000cd57620000cc62000b00565b5b60200260200101517affffffffffffffffffffffffffffffffffffffffffffffffffffff1916901b9050600060f81b7effffffffffffffffffffffffffffffffffffffffffffffffffffffffffffff1916898360ff168151811062000137576200013662000b00565b5b60200260200101517effffffffffffffffffffffffffffffffffffffffffffffffffffffffffffff1916141560166000837bffffffffffffffffffffffffffffffffffffffffffffffffffffffff19167bffffffffffffffffffffffffffffffffffffffffffffffffffffffff1916815260200190815260200160002060006101000a81548160ff0219169083151502179055506040518060600160405280888460ff1681518110620001ef57620001ee62000b00565b5b60200260200101518152602001878460ff168151811062000215576200021462000b00565b5b60200260200101518152602001868460ff16815181106200023b576200023a62000b00565b5b60200260200101516200025057600062000252565b845b73ffffffffffffffffffffffffffffffffffffffff16815250600f6000837bffffffffffffffffffffffffffffffffffffffffffffffffffffffff19167bffffffffffffffffffffffffffffffffffffffffffffffffffffffff19168152602001908152602001600020600082015181600001556020820151816001015560408201518160020160006101000a81548173ffffffffffffffffffffffffffffffffffffffff021916908373ffffffffffffffffffffffffffffffffffffffff160217905550905050878260ff168151811062000333576200033262000b00565b5b602002602001015160016000837bffffffffffffffffffffffffffffffffffffffffffffffffffffffff19167bffffffffffffffffffffffffffffffffffffffffffffffffffffffff1916815260200190815260200160002060006101000a81548173ffffffffffffffffffffffffffffffffffffffff021916908373ffffffffffffffffffffffffffffffffffffffff160217905550508080620003d89062000b6b565b915050620000a3565b50505050505050505062000cb5565b600060ff60f81b306000801b8460405160200162000412949392919062000c5f565b6040516020818303038152906040528051906020012060001c9050919050565b6000604051905090565b600080fd5b600080fd5b600073ffffffffffffffffffffffffffffffffffffffff82169050919050565b6000620004738262000446565b9050919050565b620004858162000466565b81146200049157600080fd5b50565b600081519050620004a5816200047a565b92915050565b600080fd5b6000601f19601f8301169050919050565b7f4e487b7100000000000000000000000000000000000000000000000000000000600052604160045260246000fd5b620004fb82620004b0565b810181811067ffffffffffffffff821117156200051d576200051c620004c1565b5b80604052505050565b60006200053262000432565b9050620005408282620004f0565b919050565b600067ffffffffffffffff821115620005635762000562620004c1565b5b602082029050602081019050919050565b600080fd5b60007fffffffffff00000000000000000000000000000000000000000000000000000082169050919050565b620005b08162000579565b8114620005bc57600080fd5b50565b600081519050620005d081620005a5565b92915050565b6000620005ed620005e78462000545565b62000526565b9050808382526020820190506020840283018581111562000613576200061262000574565b5b835b818110156200064057806200062b8882620005bf565b84526020840193505060208101905062000615565b5050509392505050565b600082601f830112620006625762000661620004ab565b5b815162000674848260208601620005d6565b91505092915050565b600067ffffffffffffffff8211156200069b576200069a620004c1565b5b602082029050602081019050919050565b6000620006c3620006bd846200067d565b62000526565b90508083825260208201905060208402830185811115620006e957620006e862000574565b5b835b8181101562000716578062000701888262000494565b845260208401935050602081019050620006eb565b5050509392505050565b600082601f830112620007385762000737620004ab565b5b81516200074a848260208601620006ac565b91505092915050565b600067ffffffffffffffff821115620007715762000770620004c1565b5b602082029050602081019050919050565b6000819050919050565b620007978162000782565b8114620007a357600080fd5b50565b600081519050620007b7816200078c565b92915050565b6000620007d4620007ce8462000753565b62000526565b90508083825260208201905060208402830185811115620007fa57620007f962000574565b5b835b81811015620008275780620008128882620007a6565b845260208401935050602081019050620007fc565b5050509392505050565b600082601f830112620008495762000848620004ab565b5b81516200085b848260208601620007bd565b91505092915050565b600067ffffffffffffffff821115620008825762000881620004c1565b5b602082029050602081019050919050565b60008115159050919050565b620008aa8162000893565b8114620008b657600080fd5b50565b600081519050620008ca816200089f565b92915050565b6000620008e7620008e18462000864565b62000526565b905080838252602082019050602084028301858111156200090d576200090c62000574565b5b835b818110156200093a5780620009258882620008b9565b8452602084019350506020810190506200090f565b5050509392505050565b600082601f8301126200095c576200095b620004ab565b5b81516200096e848260208601620008d0565b91505092915050565b6000819050919050565b6200098c8162000977565b81146200099857600080fd5b50565b600081519050620009ac8162000981565b92915050565b600080600080600080600060e0888a031215620009d457620009d36200043c565b5b6000620009e48a828b0162000494565b975050602088015167ffffffffffffffff81111562000a085762000a0762000441565b5b62000a168a828b016200064a565b965050604088015167ffffffffffffffff81111562000a3a5762000a3962000441565b5b62000a488a828b0162000720565b955050606088015167ffffffffffffffff81111562000a6c5762000a6b62000441565b5b62000a7a8a828b0162000831565b945050608088015167ffffffffffffffff81111562000a9e5762000a9d62000441565b5b62000aac8a828b0162000831565b93505060a088015167ffffffffffffffff81111562000ad05762000acf62000441565b5b62000ade8a828b0162000944565b92505060c062000af18a828b016200099b565b91505092959891949750929550565b7f4e487b7100000000000000000000000000000000000000000000000000000000600052603260045260246000fd5b7f4e487b7100000000000000000000000000000000000000000000000000000000600052601160045260246000fd5b600060ff82169050919050565b600062000b788262000b5e565b915060ff820362000b8e5762000b8d62000b2f565b5b600182019050919050565b60007fff0000000000000000000000000000000000000000000000000000000000000082169050919050565b6000819050919050565b62000be462000bde8262000b99565b62000bc5565b82525050565b60008160601b9050919050565b600062000c048262000bea565b9050919050565b600062000c188262000bf7565b9050919050565b62000c3462000c2e8262000466565b62000c0b565b82525050565b6000819050919050565b62000c5962000c538262000977565b62000c3a565b82525050565b600062000c6d828762000bcf565b60018201915062000c7f828662000c1f565b60148201915062000c91828562000c44565b60208201915062000ca3828462000c44565b60208201915081905095945050505050565b608051615ffa62000cdf60003960008181611fb50152818161275b0152612ad30152615ffa6000f3fe60806040526004361061024a5760003560e01c806391fae27511610139578063bf386076116100b6578063e415eb291161007a578063e415eb291461097b578063ec9ad785146109a7578063ecf88bea146109e4578063ef4a45a114610a0d578063fabfdb1d14610a36578063fe3041d914610a5f576102a6565b8063bf38607614610884578063c519fdc5146108c1578063ca32d40b146108fe578063df12306514610927578063df610fcd14610952576102a6565b80639ad1ee10116100fd5780639ad1ee101461078e578063a0e8ca96146107cb578063a2f7b3a5146107f4578063a662902714610832578063b88b82ba1461085b576102a6565b806391fae2751461068157806393a8dd9a146106aa57806395a9c336146106d557806398e36d8b1461071257806399772bff1461074f576102a6565b80634dea6274116101c757806360f1267c1161018b57806360f1267c1461058457806361bc221a146105c1578063639fd9b9146105ed57806380d5ac8a1461062a5780638f92cafb14610658576102a6565b80634dea62741461046757806353ead2d3146104a45780635698d48a146104cd5780635c4e953f1461050a5780635f3a983114610547576102a6565b80633048760d1161020e5780633048760d1461037f57806332d7b3b9146103bc5780633d974365146103e5578063458b8f481461040e5780634b9b41f41461042a576102a6565b80631080156e146102ab578063150b7a02146102d45780631540ac51146103115780631d0a40c91461032d578063204d899d14610356576102a6565b366102a65734601060003373ffffffffffffffffffffffffffffffffffffffff1673ffffffffffffffffffffffffffffffffffffffff168152602001908152602001600020600082825461029e919061427c565b925050819055005b600080fd5b3480156102b757600080fd5b506102d260048036038101906102cd919061448c565b610a9c565b005b3480156102e057600080fd5b506102fb60048036038101906102f69190614592565b610e26565b6040516103089190614655565b60405180910390f35b61032b60048036038101906103269190614670565b610e7a565b005b34801561033957600080fd5b50610354600480360381019061034f9190614708565b61106d565b005b34801561036257600080fd5b5061037d60048036038101906103789190614735565b61116b565b005b34801561038b57600080fd5b506103a660048036038101906103a191906147be565b61123c565b6040516103b39190614829565b60405180910390f35b3480156103c857600080fd5b506103e360048036038101906103de9190614844565b611300565b005b3480156103f157600080fd5b5061040c60048036038101906104079190614708565b6113aa565b005b61042860048036038101906104239190614871565b611417565b005b34801561043657600080fd5b50610451600480360381019061044c9190614920565b61155e565b60405161045e9190614829565b60405180910390f35b34801561047357600080fd5b5061048e6004803603810190610489919061494d565b611591565b60405161049b9190614829565b60405180910390f35b3480156104b057600080fd5b506104cb60048036038101906104c691906149fa565b6117dd565b005b3480156104d957600080fd5b506104f460048036038101906104ef9190614a5f565b6118db565b6040516105019190614a9b565b60405180910390f35b34801561051657600080fd5b50610531600480360381019061052c9190614b57565b6119a9565b60405161053e9190614829565b60405180910390f35b34801561055357600080fd5b5061056e60048036038101906105699190614ba0565b6119f4565b60405161057b9190614bdc565b60405180910390f35b34801561059057600080fd5b506105ab60048036038101906105a69190614844565b611a0c565b6040516105b89190614c7f565b60405180910390f35b3480156105cd57600080fd5b506105d6611ab8565b6040516105e4929190614d18565b60405180910390f35b3480156105f957600080fd5b50610614600480360381019061060f9190614d6d565b611ad7565b6040516106219190614a9b565b60405180910390f35b34801561063657600080fd5b5061063f611af7565b60405161064f9493929190614da9565b60405180910390f35b34801561066457600080fd5b5061067f600480360381019061067a9190614dee565b611b24565b005b34801561068d57600080fd5b506106a860048036038101906106a39190614e55565b611cc0565b005b3480156106b657600080fd5b506106bf611e4b565b6040516106cc9190614bdc565b60405180910390f35b3480156106e157600080fd5b506106fc60048036038101906106f79190614ebc565b611e51565b6040516107099190614bdc565b60405180910390f35b34801561071e57600080fd5b5061073960048036038101906107349190614844565b611e9f565b6040516107469190614f82565b60405180910390f35b34801561075b57600080fd5b5061077660048036038101906107719190614d6d565b611ede565b60405161078593929190614f9d565b60405180910390f35b34801561079a57600080fd5b506107b560048036038101906107b09190614844565b611f28565b6040516107c29190614829565b60405180910390f35b3480156107d757600080fd5b506107f260048036038101906107ed9190614fd4565b611f67565b005b34801561080057600080fd5b5061081b60048036038101906108169190614844565b612154565b604051610829929190615014565b60405180910390f35b34801561083e57600080fd5b506108596004803603810190610854919061503d565b6121a8565b005b34801561086757600080fd5b50610882600480360381019061087d9190614670565b612292565b005b34801561089057600080fd5b506108ab60048036038101906108a69190614d6d565b6123a5565b6040516108b89190614829565b60405180910390f35b3480156108cd57600080fd5b506108e860048036038101906108e39190614844565b612420565b6040516108f59190614a9b565b60405180910390f35b34801561090a57600080fd5b50610925600480360381019061092091906150a2565b6125d4565b005b34801561093357600080fd5b5061093c612759565b6040516109499190614829565b60405180910390f35b34801561095e57600080fd5b5061097960048036038101906109749190614e55565b61277d565b005b34801561098757600080fd5b5061099061283f565b60405161099e929190615109565b60405180910390f35b3480156109b357600080fd5b506109ce60048036038101906109c99190615132565b61285e565b6040516109db9190614a9b565b60405180910390f35b3480156109f057600080fd5b50610a0b6004803603810190610a069190614ba0565b612ad1565b005b348015610a1957600080fd5b50610a346004803603810190610a2f9190614844565b612c27565b005b348015610a4257600080fd5b50610a5d6004803603810190610a589190614844565b612d25565b005b348015610a6b57600080fd5b50610a866004803603810190610a819190614d6d565b612dcb565b604051610a939190614bdc565b60405180910390f35b610aa7838383612de3565b6000806004848490501015610b4957610ac08484612f84565b91508173ffffffffffffffffffffffffffffffffffffffff16631080156e8686866040518463ffffffff1660e01b8152600401610aff93929190615210565b6020604051808303816000875af1158015610b1e573d6000803e3d6000fd5b505050506040513d601f19601f82011682018060405250810190610b42919061525e565b9050610d59565b60008484600090600492610b5f93929190615295565b90610b6a91906152e8565b9050610b7581612f8c565b610bb657806040517f35be8c29000000000000000000000000000000000000000000000000000000008152600401610bad9190614655565b60405180910390fd5b60016000827bffffffffffffffffffffffffffffffffffffffffffffffffffffffff19167bffffffffffffffffffffffffffffffffffffffffffffffffffffffff1916815260200190815260200160002060009054906101000a900473ffffffffffffffffffffffffffffffffffffffff1692508273ffffffffffffffffffffffffffffffffffffffff16631080156e8787876040518463ffffffff1660e01b8152600401610c6793929190615210565b6020604051808303816000875af1158015610c86573d6000803e3d6000fd5b505050506040513d601f19601f82011682018060405250810190610caa919061525e565b91506000610d2960016000847bffffffffffffffffffffffffffffffffffffffffffffffffffffffff19167bffffffffffffffffffffffffffffffffffffffffffffffffffffffff1916815260200190815260200160002060009054906101000a900473ffffffffffffffffffffffffffffffffffffffff1684613036565b9050600160008083815260200190815260200160002060006101000a81548160ff02191690831515021790555050505b600260405180604001604052808381526020018473ffffffffffffffffffffffffffffffffffffffff1681525090806001815401808255809150506001900390600052602060002090600202016000909190919091506000820151816000015560208201518160010160006101000a81548173ffffffffffffffffffffffffffffffffffffffff021916908373ffffffffffffffffffffffffffffffffffffffff1602179055505050610e1f6001600280549050610e179190615347565b868686613069565b5050505050565b6000600760010160009054906101000a900460ff16610e4957600060e01b610e6f565b6000357fffffffff00000000000000000000000000000000000000000000000000000000165b905095945050505050565b610e8383613890565b6000631540ac5160e01b60028581548110610ea157610ea061537b565b5b9060005260206000209060020201600001548484604051602401610ec7939291906153aa565b604051602081830303815290604052907bffffffffffffffffffffffffffffffffffffffffffffffffffffffff19166020820180517bffffffffffffffffffffffffffffffffffffffffffffffffffffffff8381831617835250505050905060008060028681548110610f3d57610f3c61537b565b5b906000526020600020906002020160010160009054906101000a900473ffffffffffffffffffffffffffffffffffffffff1673ffffffffffffffffffffffffffffffffffffffff163484604051610f949190615418565b60006040518083038185875af1925050503d8060008114610fd1576040519150601f19603f3d011682016040523d82523d6000602084013e610fd6565b606091505b50915091507f386e73a2de2ea0e14c3906995d8e6d561e27a323ec6b38a2520d3033fd6e6660600287815481106110105761100f61537b565b5b906000526020600020906002020160010160009054906101000a900473ffffffffffffffffffffffffffffffffffffffff1683836040516110539392919061542f565b60405180910390a16110658683613893565b505050505050565b6001611078816139fd565b6110b957336040517f06246cc50000000000000000000000000000000000000000000000000000000081526004016110b09190614829565b60405180910390fd5b6003600760000154815481106110d2576110d161537b565b5b9060005260206000200160009054906101000a900473ffffffffffffffffffffffffffffffffffffffff1673ffffffffffffffffffffffffffffffffffffffff16630439f4a0836040518263ffffffff1660e01b81526004016111359190614a9b565b600060405180830381600087803b15801561114f57600080fd5b505af1158015611163573d6000803e3d6000fd5b505050505050565b6001611176816139fd565b6111b757336040517f06246cc50000000000000000000000000000000000000000000000000000000081526004016111ae9190614829565b60405180910390fd5b8373ffffffffffffffffffffffffffffffffffffffff1663095ea7b384846040518363ffffffff1660e01b81526004016111f292919061546d565b6020604051808303816000875af1158015611211573d6000803e3d6000fd5b505050506040513d601f19601f8201168201806040525081019061123591906154ab565b5050505050565b60006001611249816139fd565b61128a57336040517f06246cc50000000000000000000000000000000000000000000000000000000081526004016112819190614829565b60405180910390fd5b6112948484613b60565b91506004829080600181540180825580915050600190039060005260206000200160009091909190916101000a81548173ffffffffffffffffffffffffffffffffffffffff021916908373ffffffffffffffffffffffffffffffffffffffff1602179055505092915050565b600161130b816139fd565b61134c57336040517f06246cc50000000000000000000000000000000000000000000000000000000081526004016113439190614829565b60405180910390fd5b600380549050821061139c57816003805490506040517fcbb2109a0000000000000000000000000000000000000000000000000000000081526004016113939291906154d8565b60405180910390fd5b816007600001819055505050565b60016113b5816139fd565b6113f657336040517f06246cc50000000000000000000000000000000000000000000000000000000081526004016113ed9190614829565b60405180910390fd5b81600760010160006101000a81548160ff0219169083151502179055505050565b6001611422816139fd565b61146357336040517f06246cc500000000000000000000000000000000000000000000000000000000815260040161145a9190614829565b60405180910390fd5b814710156114a6576040517f08c379a000000000000000000000000000000000000000000000000000000000815260040161149d9061554d565b60405180910390fd5b60008573ffffffffffffffffffffffffffffffffffffffff168386866040516114d0929190615592565b60006040518083038185875af1925050503d806000811461150d576040519150601f19603f3d011682016040523d82523d6000602084013e611512565b606091505b5050905080611556576040517f08c379a000000000000000000000000000000000000000000000000000000000815260040161154d906155f7565b60405180910390fd5b505050505050565b60156020528060005260406000206000915054906101000a900473ffffffffffffffffffffffffffffffffffffffff1681565b600080600380549050036116375760076000015473ffffffffffffffffffffffffffffffffffffffff166115cb8480519060200120613b74565b73ffffffffffffffffffffffffffffffffffffffff1614611621576040517f08c379a000000000000000000000000000000000000000000000000000000000815260040161161890615663565b60405180910390fd5b6000801b93506000600760000181905550611683565b61164160016139fd565b61168257336040517f06246cc50000000000000000000000000000000000000000000000000000000081526004016116799190614829565b60405180910390fd5b5b61168d8484613b60565b90506003819080600181540180825580915050600190039060005260206000200160009091909190916101000a81548173ffffffffffffffffffffffffffffffffffffffff021916908373ffffffffffffffffffffffffffffffffffffffff160217905550600360016003805490506117069190615347565b815481106117175761171661537b565b5b9060005260206000200160009054906101000a900473ffffffffffffffffffffffffffffffffffffffff1673ffffffffffffffffffffffffffffffffffffffff1663d113cc8083600080357fffffffff0000000000000000000000000000000000000000000000000000000016336040518563ffffffff1660e01b81526004016117a494939291906156be565b600060405180830381600087803b1580156117be57600080fd5b505af11580156117d2573d6000803e3d6000fd5b505050509392505050565b60016117e8816139fd565b61182957336040517f06246cc50000000000000000000000000000000000000000000000000000000081526004016118209190614829565b60405180910390fd5b60008373ffffffffffffffffffffffffffffffffffffffff168360405161184f90615729565b60006040518083038185875af1925050503d806000811461188c576040519150601f19603f3d011682016040523d82523d6000602084013e611891565b606091505b50509050806118d5576040517f08c379a00000000000000000000000000000000000000000000000000000000081526004016118cc9061578a565b60405180910390fd5b50505050565b6000670de0b6b3a7640000601060003373ffffffffffffffffffffffffffffffffffffffff1673ffffffffffffffffffffffffffffffffffffffff168152602001908152602001600020541180611938575061193760016139fd565b5b611977576040517f08c379a000000000000000000000000000000000000000000000000000000000815260040161196e906157f6565b60405180910390fd5b81600960010160006101000a81548160ff0219169083600581111561199f5761199e614ca1565b5b0217905550919050565b6000600c826040516119bb9190615852565b908152602001604051809103902060000160009054906101000a900473ffffffffffffffffffffffffffffffffffffffff169050919050565b60106020528060005260406000206000915090505481565b600b8181548110611a1c57600080fd5b906000526020600020016000915090508054611a3790615898565b80601f0160208091040260200160405190810160405280929190818152602001828054611a6390615898565b8015611ab05780601f10611a8557610100808354040283529160200191611ab0565b820191906000526020600020905b815481529060010190602001808311611a9357829003601f168201915b505050505081565b60098060000154908060010160009054906101000a900460ff16905082565b60166020528060005260406000206000915054906101000a900460ff1681565b60118060000154908060010154908060020154908060030160009054906101000a900462ffffff16905084565b6001611b2f816139fd565b611b7057336040517f06246cc5000000000000000000000000000000000000000000000000000000008152600401611b679190614829565b60405180910390fd5b60166000867bffffffffffffffffffffffffffffffffffffffffffffffffffffffff19167bffffffffffffffffffffffffffffffffffffffffffffffffffffffff1916815260200190815260200160002060009054906101000a900460ff1615611bd957600080fd5b60405180606001604052808581526020018481526020018373ffffffffffffffffffffffffffffffffffffffff16815250600f6000877bffffffffffffffffffffffffffffffffffffffffffffffffffffffff19167bffffffffffffffffffffffffffffffffffffffffffffffffffffffff19168152602001908152602001600020600082015181600001556020820151816001015560408201518160020160006101000a81548173ffffffffffffffffffffffffffffffffffffffff021916908373ffffffffffffffffffffffffffffffffffffffff1602179055509050505050505050565b6001611ccb816139fd565b611d0c57336040517f06246cc5000000000000000000000000000000000000000000000000000000008152600401611d039190614829565b60405180910390fd5b3073ffffffffffffffffffffffffffffffffffffffff168473ffffffffffffffffffffffffffffffffffffffff1614611dc4578473ffffffffffffffffffffffffffffffffffffffff166323b872dd8585856040518463ffffffff1660e01b8152600401611d7c939291906158c9565b6020604051808303816000875af1158015611d9b573d6000803e3d6000fd5b505050506040513d601f19601f82011682018060405250810190611dbf91906154ab565b611e43565b8473ffffffffffffffffffffffffffffffffffffffff1663a9059cbb84846040518363ffffffff1660e01b8152600401611dff92919061546d565b6020604051808303816000875af1158015611e1e573d6000803e3d6000fd5b505050506040513d601f19601f82011682018060405250810190611e4291906154ab565b5b505050505050565b60055481565b600060e08560001b901b60e01c8260601b858560601b604051602001611e7a94939291906159b4565b604051602081830303815290604052611e9290615a27565b60001c9050949350505050565b60038181548110611eaf57600080fd5b906000526020600020016000915054906101000a900473ffffffffffffffffffffffffffffffffffffffff1681565b600f6020528060005260406000206000915090508060000154908060010154908060020160009054906101000a900473ffffffffffffffffffffffffffffffffffffffff16905083565b60048181548110611f3857600080fd5b906000526020600020016000915054906101000a900473ffffffffffffffffffffffffffffffffffffffff1681565b6001611f72816139fd565b611fb357336040517f06246cc5000000000000000000000000000000000000000000000000000000008152600401611faa9190614829565b60405180910390fd5b7f000000000000000000000000000000000000000000000000000000000000000073ffffffffffffffffffffffffffffffffffffffff1663c3c5a547836040518263ffffffff1660e01b815260040161200c9190614829565b602060405180830381865afa158015612029573d6000803e3d6000fd5b505050506040513d601f19601f8201168201806040525081019061204d91906154ab565b61205657600080fd5b60166000847bffffffffffffffffffffffffffffffffffffffffffffffffffffffff19167bffffffffffffffffffffffffffffffffffffffffffffffffffffffff1916815260200190815260200160002060009054906101000a900460ff16156120bf57600080fd5b8160016000857bffffffffffffffffffffffffffffffffffffffffffffffffffffffff19167bffffffffffffffffffffffffffffffffffffffffffffffffffffffff1916815260200190815260200160002060006101000a81548173ffffffffffffffffffffffffffffffffffffffff021916908373ffffffffffffffffffffffffffffffffffffffff160217905550505050565b6002818154811061216457600080fd5b90600052602060002090600202016000915090508060000154908060010160009054906101000a900473ffffffffffffffffffffffffffffffffffffffff16905082565b60016121b3816139fd565b6121f457336040517f06246cc50000000000000000000000000000000000000000000000000000000081526004016121eb9190614829565b60405180910390fd5b60288210612237576040517f08c379a000000000000000000000000000000000000000000000000000000000815260040161222e90615ada565b60405180910390fd5b8160066000857bffffffffffffffffffffffffffffffffffffffffffffffffffffffff19167bffffffffffffffffffffffffffffffffffffffffffffffffffffffff1916815260200190815260200160002081905550505050565b61229d838383613bb4565b6000600284815481106122b3576122b261537b565b5b906000526020600020906002020160010160009054906101000a900473ffffffffffffffffffffffffffffffffffffffff1673ffffffffffffffffffffffffffffffffffffffff1663b88b82ba600286815481106123145761231361537b565b5b906000526020600020906002020160000154612331878787613f62565b6040518363ffffffff1660e01b815260040161234e929190615afa565b6020604051808303816000875af115801561236d573d6000803e3d6000fd5b505050506040513d601f19601f82011682018060405250810190612391919061525e565b905061239f8482858561417d565b50505050565b600060016000837bffffffffffffffffffffffffffffffffffffffffffffffffffffffff19167bffffffffffffffffffffffffffffffffffffffffffffffffffffffff1916815260200190815260200160002060009054906101000a900473ffffffffffffffffffffffffffffffffffffffff169050919050565b600080600d60003373ffffffffffffffffffffffffffffffffffffffff1673ffffffffffffffffffffffffffffffffffffffff168152602001908152602001600020541180612475575061247460016139fd565b5b6124b4576040517f08c379a00000000000000000000000000000000000000000000000000000000081526004016124ab906157f6565b60405180910390fd5b600060058111156124c8576124c7614ca1565b5b600960010160009054906101000a900460ff1660058111156124ed576124ec614ca1565b5b03612513578160096000016000828254612507919061427c565b925050819055506125cf565b6001600581111561252757612526614ca1565b5b600960010160009054906101000a900460ff16600581111561254c5761254b614ca1565b5b036125725781600960000160008282546125669190615347565b925050819055506125ce565b6003600581111561258657612585614ca1565b5b600960010160009054906101000a900460ff1660058111156125ab576125aa614ca1565b5b036125cd5781600960000160008282546125c59190615b2a565b925050819055505b5b5b919050565b60016125df816139fd565b61262057336040517f06246cc50000000000000000000000000000000000000000000000000000000081526004016126179190614829565b60405180910390fd5b6000600281111561263457612633614ca1565b5b82600281111561264757612646614ca1565b5b146126e4578473ffffffffffffffffffffffffffffffffffffffff1663a22cb4658560028081111561267c5761267b614ca1565b5b85600281111561268f5761268e614ca1565b5b146040518363ffffffff1660e01b81526004016126ad929190615b84565b600060405180830381600087803b1580156126c757600080fd5b505af11580156126db573d6000803e3d6000fd5b50505050612752565b8473ffffffffffffffffffffffffffffffffffffffff1663095ea7b385856040518363ffffffff1660e01b815260040161271f92919061546d565b600060405180830381600087803b15801561273957600080fd5b505af115801561274d573d6000803e3d6000fd5b505050505b5050505050565b7f000000000000000000000000000000000000000000000000000000000000000081565b6001612788816139fd565b6127c957336040517f06246cc50000000000000000000000000000000000000000000000000000000081526004016127c09190614829565b60405180910390fd5b8473ffffffffffffffffffffffffffffffffffffffff166342842e0e8585856040518463ffffffff1660e01b8152600401612806939291906158c9565b600060405180830381600087803b15801561282057600080fd5b505af1158015612834573d6000803e3d6000fd5b505050505050505050565b60078060000154908060010160009054906101000a900460ff16905082565b6000600161286b816139fd565b6128ac57336040517f06246cc50000000000000000000000000000000000000000000000000000000081526004016128a39190614829565b60405180910390fd5b600073ffffffffffffffffffffffffffffffffffffffff168373ffffffffffffffffffffffffffffffffffffffff16036128e557600080fd5b6000600c856040516128f79190615852565b9081526020016040518091039020600101540361297a57600b849080600181540180825580915050600190039060005260206000200160009091909190915090805190602001906129499291906141a0565b50600b80549050600c856040516129609190615852565b908152602001604051809103902060010181905550612a13565b6001600d6000600c876040516129909190615852565b908152602001604051809103902060000160009054906101000a900473ffffffffffffffffffffffffffffffffffffffff1673ffffffffffffffffffffffffffffffffffffffff1673ffffffffffffffffffffffffffffffffffffffff1681526020019081526020016000206000828254612a0b9190615347565b925050819055505b82600c85604051612a249190615852565b908152602001604051809103902060000160006101000a81548173ffffffffffffffffffffffffffffffffffffffff021916908373ffffffffffffffffffffffffffffffffffffffff1602179055506001600d60008573ffffffffffffffffffffffffffffffffffffffff1673ffffffffffffffffffffffffffffffffffffffff1681526020019081526020016000206000828254612ac3919061427c565b925050819055505092915050565b7f000000000000000000000000000000000000000000000000000000000000000073ffffffffffffffffffffffffffffffffffffffff1663c3c5a547826040518263ffffffff1660e01b8152600401612b2a9190614829565b602060405180830381865afa158015612b47573d6000803e3d6000fd5b505050506040513d601f19601f82011682018060405250810190612b6b91906154ab565b612b7457600080fd5b8060156000601160030160009054906101000a900462ffffff1662ffffff1662ffffff16815260200190815260200160002060006101000a81548173ffffffffffffffffffffffffffffffffffffffff021916908373ffffffffffffffffffffffffffffffffffffffff1602179055506001601160030160008282829054906101000a900462ffffff16612c089190615bad565b92506101000a81548162ffffff021916908362ffffff16021790555050565b6001612c32816139fd565b612c7357336040517f06246cc5000000000000000000000000000000000000000000000000000000008152600401612c6a9190614829565b60405180910390fd5b600360076000015481548110612c8c57612c8b61537b565b5b9060005260206000200160009054906101000a900473ffffffffffffffffffffffffffffffffffffffff1673ffffffffffffffffffffffffffffffffffffffff166349d95693836040518263ffffffff1660e01b8152600401612cef9190614bdc565b600060405180830381600087803b158015612d0957600080fd5b505af1158015612d1d573d6000803e3d6000fd5b505050505050565b6001612d30816139fd565b612d7157336040517f06246cc5000000000000000000000000000000000000000000000000000000008152600401612d689190614829565b60405180910390fd5b600082118015612d815750601e82105b612dc0576040517f08c379a0000000000000000000000000000000000000000000000000000000008152600401612db790615ada565b60405180910390fd5b816005819055505050565b60066020528060005260406000206000915090505481565b60006004838390501015612df8576000612e69565b600660008484600090600492612e1093929190615295565b90612e1b91906152e8565b7bffffffffffffffffffffffffffffffffffffffffffffffffffffffff19167bffffffffffffffffffffffffffffffffffffffffffffffffffffffff19168152602001908152602001600020545b90506000600360076000015481548110612e8657612e8561537b565b5b9060005260206000200160009054906101000a900473ffffffffffffffffffffffffffffffffffffffff1673ffffffffffffffffffffffffffffffffffffffff166370a08231336040518263ffffffff1660e01b8152600401612ee99190614829565b602060405180830381865afa158015612f06573d6000803e3d6000fd5b505050506040513d601f19601f82011682018060405250810190612f2a919061525e565b90506005548110158015612f3e5750818110155b612f7d576040517f08c379a0000000000000000000000000000000000000000000000000000000008152600401612f7490615c32565b60405180910390fd5b5050505050565b600092915050565b60008073ffffffffffffffffffffffffffffffffffffffff1660016000847bffffffffffffffffffffffffffffffffffffffffffffffffffffffff19167bffffffffffffffffffffffffffffffffffffffffffffffffffffffff1916815260200190815260200160002060009054906101000a900473ffffffffffffffffffffffffffffffffffffffff1673ffffffffffffffffffffffffffffffffffffffff1614159050919050565b6000828260405160200161304b92919061546d565b60405160208183030381529060405280519060200120905092915050565b60006002858154811061307f5761307e61537b565b5b90600052602060002090600202016000015490506000600286815481106130a9576130a861537b565b5b906000526020600020906002020160010160009054906101000a900473ffffffffffffffffffffffffffffffffffffffff1690506004848490501061379357600084846000906004926130fe93929190615295565b9061310991906152e8565b905080600e600089815260200190815260200160002060006101000a81548163ffffffff021916908360e01c0217905550600060019050600060606000600f6000867bffffffffffffffffffffffffffffffffffffffffffffffffffffffff19167bffffffffffffffffffffffffffffffffffffffffffffffffffffffff19168152602001908152602001600020600001541461330e578473ffffffffffffffffffffffffffffffffffffffff16638286227560e01b876040516024016131d09190614bdc565b604051602081830303815290604052907bffffffffffffffffffffffffffffffffffffffffffffffffffffffff19166020820180517bffffffffffffffffffffffffffffffffffffffffffffffffffffffff838183161783525050505060405161323a9190615418565b6000604051808303816000865af19150503d8060008114613277576040519150601f19603f3d011682016040523d82523d6000602084013e61327c565b606091505b508092508193505050811561330d5782801561330a5750808060200190518101906132a7919061525e565b42600f6000877bffffffffffffffffffffffffffffffffffffffffffffffffffffffff19167bffffffffffffffffffffffffffffffffffffffffffffffffffffffff1916815260200190815260200160002060000154613307919061427c565b11155b92505b5b600073ffffffffffffffffffffffffffffffffffffffff16600f6000867bffffffffffffffffffffffffffffffffffffffffffffffffffffffff19167bffffffffffffffffffffffffffffffffffffffffffffffffffffffff1916815260200190815260200160002060020160009054906101000a900473ffffffffffffffffffffffffffffffffffffffff1673ffffffffffffffffffffffffffffffffffffffff1614613564578473ffffffffffffffffffffffffffffffffffffffff1663e4b50cb860e01b876040516024016133e69190614bdc565b604051602081830303815290604052907bffffffffffffffffffffffffffffffffffffffffffffffffffffffff19166020820180517bffffffffffffffffffffffffffffffffffffffffffffffffffffffff83818316178352505050506040516134509190615418565b6000604051808303816000865af19150503d806000811461348d576040519150601f19603f3d011682016040523d82523d6000602084013e613492565b606091505b5080925081935050508115613563578280156135605750600f6000857bffffffffffffffffffffffffffffffffffffffffffffffffffffffff19167bffffffffffffffffffffffffffffffffffffffffffffffffffffffff1916815260200190815260200160002060020160009054906101000a900473ffffffffffffffffffffffffffffffffffffffff1673ffffffffffffffffffffffffffffffffffffffff16818060200190518101906135489190615c67565b73ffffffffffffffffffffffffffffffffffffffff16145b92505b5b6000600f6000867bffffffffffffffffffffffffffffffffffffffffffffffffffffffff19167bffffffffffffffffffffffffffffffffffffffffffffffffffffffff19168152602001908152602001600020600101541461374e578473ffffffffffffffffffffffffffffffffffffffff16637c5a43ec60e01b876040516024016135f09190614bdc565b604051602081830303815290604052907bffffffffffffffffffffffffffffffffffffffffffffffffffffffff19166020820180517bffffffffffffffffffffffffffffffffffffffffffffffffffffffff838183161783525050505060405161365a9190615418565b6000604051808303816000865af19150503d8060008114613697576040519150601f19603f3d011682016040523d82523d6000602084013e61369c565b606091505b508092508193505050600080828060200190518101906136bc9190615c94565b915091508480156137495750600081146136ef5780620186a0836136e09190615b2a565b6136ea9190615d03565b6136f1565b815b600f6000887bffffffffffffffffffffffffffffffffffffffffffffffffffffffff19167bffffffffffffffffffffffffffffffffffffffffffffffffffffffff191681526020019081526020016000206001015411155b945050505b8261378e576040517f08c379a000000000000000000000000000000000000000000000000000000000815260040161378590615d80565b60405180910390fd5b505050505b6003600760000154815481106137ac576137ab61537b565b5b9060005260206000200160009054906101000a900473ffffffffffffffffffffffffffffffffffffffff1673ffffffffffffffffffffffffffffffffffffffff1663d113cc8033846000357fffffffff0000000000000000000000000000000000000000000000000000000016856040518563ffffffff1660e01b81526004016138399493929190615da0565b600060405180830381600087803b15801561385357600080fd5b505af1158015613867573d6000803e3d6000fd5b50505050600160116000016000828254613881919061427c565b92505081905550505050505050565b50565b80156139dc576003600760000154815481106138b2576138b161537b565b5b9060005260206000200160009054906101000a900473ffffffffffffffffffffffffffffffffffffffff1673ffffffffffffffffffffffffffffffffffffffff1663d113cc80336002858154811061390d5761390c61537b565b5b9060005260206000209060020201600001546000357fffffffff0000000000000000000000000000000000000000000000000000000016600287815481106139585761395761537b565b5b906000526020600020906002020160010160009054906101000a900473ffffffffffffffffffffffffffffffffffffffff166040518563ffffffff1660e01b81526004016139a99493929190615da0565b600060405180830381600087803b1580156139c357600080fd5b505af11580156139d7573d6000803e3d6000fd5b505050505b6001601160020160008282546139f2919061427c565b925050819055505050565b6000803373ffffffffffffffffffffffffffffffffffffffff166001600080357fffffffff00000000000000000000000000000000000000000000000000000000167bffffffffffffffffffffffffffffffffffffffffffffffffffffffff19167bffffffffffffffffffffffffffffffffffffffffffffffffffffffff1916815260200190815260200160002060009054906101000a900473ffffffffffffffffffffffffffffffffffffffff1673ffffffffffffffffffffffffffffffffffffffff16149050821580613ad0575080155b15613ade5780915050613b5b565b602460003690501015613af5576000915050613b5b565b6000803660206000369050613b0a9190615347565b90600036905092613b1d93929190615295565b90613b289190615de5565b60001c9050600080613b3a3384613036565b815260200190815260200160002060009054906101000a900460ff16925050505b919050565b6000828251602084016000f5905092915050565b600060ff60f81b306000801b84604051602001613b949493929190615efa565b6040516020818303038152906040528051906020012060001c9050919050565b6000600e600085815260200190815260200160002060009054906101000a900460e01b9050600060e01b7bffffffffffffffffffffffffffffffffffffffffffffffffffffffff1916817bffffffffffffffffffffffffffffffffffffffffffffffffffffffff191614158015613ccb5750600073ffffffffffffffffffffffffffffffffffffffff16600f6000837bffffffffffffffffffffffffffffffffffffffffffffffffffffffff19167bffffffffffffffffffffffffffffffffffffffffffffffffffffffff1916815260200190815260200160002060020160009054906101000a900473ffffffffffffffffffffffffffffffffffffffff1673ffffffffffffffffffffffffffffffffffffffff16145b15613d1d576000600d60003373ffffffffffffffffffffffffffffffffffffffff1673ffffffffffffffffffffffffffffffffffffffff1681526020019081526020016000205411613d1c57600080fd5b5b600060028581548110613d3357613d3261537b565b5b9060005260206000209060020201600001549050600060028681548110613d5d57613d5c61537b565b5b906000526020600020906002020160010160009054906101000a900473ffffffffffffffffffffffffffffffffffffffff169050600360076000015481548110613daa57613da961537b565b5b9060005260206000200160009054906101000a900473ffffffffffffffffffffffffffffffffffffffff1673ffffffffffffffffffffffffffffffffffffffff16634f558e79613e20846000357fffffffff00000000000000000000000000000000000000000000000000000000168533611e51565b6040518263ffffffff1660e01b8152600401613e3c9190614bdc565b602060405180830381865afa158015613e59573d6000803e3d6000fd5b505050506040513d601f19601f82011682018060405250810190613e7d91906154ab565b613f5a57600360076000015481548110613e9a57613e9961537b565b5b9060005260206000200160009054906101000a900473ffffffffffffffffffffffffffffffffffffffff1673ffffffffffffffffffffffffffffffffffffffff1663d113cc8033846000357fffffffff0000000000000000000000000000000000000000000000000000000016856040518563ffffffff1660e01b8152600401613f279493929190615da0565b600060405180830381600087803b158015613f4157600080fd5b505af1158015613f55573d6000803e3d6000fd5b505050505b505050505050565b606060008060028681548110613f7b57613f7a61537b565b5b906000526020600020906002020160010160009054906101000a900473ffffffffffffffffffffffffffffffffffffffff1673ffffffffffffffffffffffffffffffffffffffff16631d64c4f260e01b60028881548110613fdf57613fde61537b565b5b9060005260206000209060020201600001546040516024016140019190614bdc565b604051602081830303815290604052907bffffffffffffffffffffffffffffffffffffffffffffffffffffffff19166020820180517bffffffffffffffffffffffffffffffffffffffffffffffffffffffff838183161783525050505060405161406b9190615418565b6000604051808303816000865af19150503d80600081146140a8576040519150601f19603f3d011682016040523d82523d6000602084013e6140ad565b606091505b5091509150811561412c5760006002808111156140cd576140cc614ca1565b5b828060200190518101906140e19190615f6d565b60028111156140f3576140f2614ca1565b5b149050801561412a5733868660405160200161411193929190615f9a565b6040516020818303038152906040529350505050614176565b505b84848080601f016020809104026020016040519081016040528093929190818152602001838380828437600081840152601f19601f82011690508083019250505050505050925050505b9392505050565b600160116001016000828254614193919061427c565b9250508190555050505050565b8280546141ac90615898565b90600052602060002090601f0160209004810192826141ce5760008555614215565b82601f106141e757805160ff1916838001178555614215565b82800160010185558215614215579182015b828111156142145782518255916020019190600101906141f9565b5b5090506142229190614226565b5090565b5b8082111561423f576000816000905550600101614227565b5090565b6000819050919050565b7f4e487b7100000000000000000000000000000000000000000000000000000000600052601160045260246000fd5b600061428782614243565b915061429283614243565b9250827fffffffffffffffffffffffffffffffffffffffffffffffffffffffffffffffff038211156142c7576142c661424d565b5b828201905092915050565b6000604051905090565b600080fd5b600080fd5b600080fd5b600080fd5b6000601f19601f8301169050919050565b7f4e487b7100000000000000000000000000000000000000000000000000000000600052604160045260246000fd5b614339826142f0565b810181811067ffffffffffffffff8211171561435857614357614301565b5b80604052505050565b600061436b6142d2565b90506143778282614330565b919050565b600067ffffffffffffffff82111561439757614396614301565b5b6143a0826142f0565b9050602081019050919050565b82818337600083830152505050565b60006143cf6143ca8461437c565b614361565b9050828152602081018484840111156143eb576143ea6142eb565b5b6143f68482856143ad565b509392505050565b600082601f830112614413576144126142e6565b5b81356144238482602086016143bc565b91505092915050565b600080fd5b600080fd5b60008083601f84011261444c5761444b6142e6565b5b8235905067ffffffffffffffff8111156144695761446861442c565b5b60208301915083600182028301111561448557614484614431565b5b9250929050565b6000806000604084860312156144a5576144a46142dc565b5b600084013567ffffffffffffffff8111156144c3576144c26142e1565b5b6144cf868287016143fe565b935050602084013567ffffffffffffffff8111156144f0576144ef6142e1565b5b6144fc86828701614436565b92509250509250925092565b600073ffffffffffffffffffffffffffffffffffffffff82169050919050565b600061453382614508565b9050919050565b61454381614528565b811461454e57600080fd5b50565b6000813590506145608161453a565b92915050565b61456f81614243565b811461457a57600080fd5b50565b60008135905061458c81614566565b92915050565b6000806000806000608086880312156145ae576145ad6142dc565b5b60006145bc88828901614551565b95505060206145cd88828901614551565b94505060406145de8882890161457d565b935050606086013567ffffffffffffffff8111156145ff576145fe6142e1565b5b61460b88828901614436565b92509250509295509295909350565b60007fffffffff0000000000000000000000000000000000000000000000000000000082169050919050565b61464f8161461a565b82525050565b600060208201905061466a6000830184614646565b92915050565b600080600060408486031215614689576146886142dc565b5b60006146978682870161457d565b935050602084013567ffffffffffffffff8111156146b8576146b76142e1565b5b6146c486828701614436565b92509250509250925092565b60008115159050919050565b6146e5816146d0565b81146146f057600080fd5b50565b600081359050614702816146dc565b92915050565b60006020828403121561471e5761471d6142dc565b5b600061472c848285016146f3565b91505092915050565b60008060006060848603121561474e5761474d6142dc565b5b600061475c86828701614551565b935050602061476d86828701614551565b925050604061477e8682870161457d565b9150509250925092565b6000819050919050565b61479b81614788565b81146147a657600080fd5b50565b6000813590506147b881614792565b92915050565b600080604083850312156147d5576147d46142dc565b5b60006147e3858286016147a9565b925050602083013567ffffffffffffffff811115614804576148036142e1565b5b614810858286016143fe565b9150509250929050565b61482381614528565b82525050565b600060208201905061483e600083018461481a565b92915050565b60006020828403121561485a576148596142dc565b5b60006148688482850161457d565b91505092915050565b6000806000806060858703121561488b5761488a6142dc565b5b600061489987828801614551565b945050602085013567ffffffffffffffff8111156148ba576148b96142e1565b5b6148c687828801614436565b935093505060406148d98782880161457d565b91505092959194509250565b600062ffffff82169050919050565b6148fd816148e5565b811461490857600080fd5b50565b60008135905061491a816148f4565b92915050565b600060208284031215614936576149356142dc565b5b60006149448482850161490b565b91505092915050565b600080600060608486031215614966576149656142dc565b5b6000614974868287016147a9565b935050602084013567ffffffffffffffff811115614995576149946142e1565b5b6149a1868287016143fe565b92505060406149b286828701614551565b9150509250925092565b60006149c782614508565b9050919050565b6149d7816149bc565b81146149e257600080fd5b50565b6000813590506149f4816149ce565b92915050565b60008060408385031215614a1157614a106142dc565b5b6000614a1f858286016149e5565b9250506020614a308582860161457d565b9150509250929050565b60068110614a4757600080fd5b50565b600081359050614a5981614a3a565b92915050565b600060208284031215614a7557614a746142dc565b5b6000614a8384828501614a4a565b91505092915050565b614a95816146d0565b82525050565b6000602082019050614ab06000830184614a8c565b92915050565b600067ffffffffffffffff821115614ad157614ad0614301565b5b614ada826142f0565b9050602081019050919050565b6000614afa614af584614ab6565b614361565b905082815260208101848484011115614b1657614b156142eb565b5b614b218482856143ad565b509392505050565b600082601f830112614b3e57614b3d6142e6565b5b8135614b4e848260208601614ae7565b91505092915050565b600060208284031215614b6d57614b6c6142dc565b5b600082013567ffffffffffffffff811115614b8b57614b8a6142e1565b5b614b9784828501614b29565b91505092915050565b600060208284031215614bb657614bb56142dc565b5b6000614bc484828501614551565b91505092915050565b614bd681614243565b82525050565b6000602082019050614bf16000830184614bcd565b92915050565b600081519050919050565b600082825260208201905092915050565b60005b83811015614c31578082015181840152602081019050614c16565b83811115614c40576000848401525b50505050565b6000614c5182614bf7565b614c5b8185614c02565b9350614c6b818560208601614c13565b614c74816142f0565b840191505092915050565b60006020820190508181036000830152614c998184614c46565b905092915050565b7f4e487b7100000000000000000000000000000000000000000000000000000000600052602160045260246000fd5b60068110614ce157614ce0614ca1565b5b50565b6000819050614cf282614cd0565b919050565b6000614d0282614ce4565b9050919050565b614d1281614cf7565b82525050565b6000604082019050614d2d6000830185614bcd565b614d3a6020830184614d09565b9392505050565b614d4a8161461a565b8114614d5557600080fd5b50565b600081359050614d6781614d41565b92915050565b600060208284031215614d8357614d826142dc565b5b6000614d9184828501614d58565b91505092915050565b614da3816148e5565b82525050565b6000608082019050614dbe6000830187614bcd565b614dcb6020830186614bcd565b614dd86040830185614bcd565b614de56060830184614d9a565b95945050505050565b60008060008060808587031215614e0857614e076142dc565b5b6000614e1687828801614d58565b9450506020614e278782880161457d565b9350506040614e388782880161457d565b9250506060614e4987828801614551565b91505092959194509250565b60008060008060808587031215614e6f57614e6e6142dc565b5b6000614e7d87828801614551565b9450506020614e8e87828801614551565b9350506040614e9f87828801614551565b9250506060614eb08782880161457d565b91505092959194509250565b60008060008060808587031215614ed657614ed56142dc565b5b6000614ee48782880161457d565b9450506020614ef587828801614d58565b9350506040614f0687828801614551565b9250506060614f1787828801614551565b91505092959194509250565b6000819050919050565b6000614f48614f43614f3e84614508565b614f23565b614508565b9050919050565b6000614f5a82614f2d565b9050919050565b6000614f6c82614f4f565b9050919050565b614f7c81614f61565b82525050565b6000602082019050614f976000830184614f73565b92915050565b6000606082019050614fb26000830186614bcd565b614fbf6020830185614bcd565b614fcc604083018461481a565b949350505050565b60008060408385031215614feb57614fea6142dc565b5b6000614ff985828601614d58565b925050602061500a85828601614551565b9150509250929050565b60006040820190506150296000830185614bcd565b615036602083018461481a565b9392505050565b60008060408385031215615054576150536142dc565b5b600061506285828601614d58565b92505060206150738582860161457d565b9150509250929050565b6003811061508a57600080fd5b50565b60008135905061509c8161507d565b92915050565b600080600080608085870312156150bc576150bb6142dc565b5b60006150ca87828801614551565b94505060206150db87828801614551565b93505060406150ec8782880161457d565b92505060606150fd8782880161508d565b91505092959194509250565b600060408201905061511e6000830185614bcd565b61512b6020830184614a8c565b9392505050565b60008060408385031215615149576151486142dc565b5b600083013567ffffffffffffffff811115615167576151666142e1565b5b61517385828601614b29565b925050602061518485828601614551565b9150509250929050565b600081519050919050565b600082825260208201905092915050565b60006151b58261518e565b6151bf8185615199565b93506151cf818560208601614c13565b6151d8816142f0565b840191505092915050565b60006151ef8385615199565b93506151fc8385846143ad565b615205836142f0565b840190509392505050565b6000604082019050818103600083015261522a81866151aa565b9050818103602083015261523f8184866151e3565b9050949350505050565b60008151905061525881614566565b92915050565b600060208284031215615274576152736142dc565b5b600061528284828501615249565b91505092915050565b600080fd5b600080fd5b600080858511156152a9576152a861528b565b5b838611156152ba576152b9615290565b5b6001850283019150848603905094509492505050565b600082905092915050565b600082821b905092915050565b60006152f483836152d0565b826152ff813561461a565b9250600482101561533f5761533a7fffffffff00000000000000000000000000000000000000000000000000000000836004036008026152db565b831692505b505092915050565b600061535282614243565b915061535d83614243565b9250828210156153705761536f61424d565b5b828203905092915050565b7f4e487b7100000000000000000000000000000000000000000000000000000000600052603260045260246000fd5b60006040820190506153bf6000830186614bcd565b81810360208301526153d28184866151e3565b9050949350505050565b600081905092915050565b60006153f28261518e565b6153fc81856153dc565b935061540c818560208601614c13565b80840191505092915050565b600061542482846153e7565b915081905092915050565b6000606082019050615444600083018661481a565b6154516020830185614a8c565b818103604083015261546381846151aa565b9050949350505050565b6000604082019050615482600083018561481a565b61548f6020830184614bcd565b9392505050565b6000815190506154a5816146dc565b92915050565b6000602082840312156154c1576154c06142dc565b5b60006154cf84828501615496565b91505092915050565b60006040820190506154ed6000830185614bcd565b6154fa6020830184614bcd565b9392505050565b7f6e6f7420656e6f7567682066756e647300000000000000000000000000000000600082015250565b6000615537601083614c02565b915061554282615501565b602082019050919050565b600060208201905081810360008301526155668161552a565b9050919050565b600061557983856153dc565b93506155868385846143ad565b82840190509392505050565b600061559f82848661556d565b91508190509392505050565b7f6e6f74207375636365737366756c000000000000000000000000000000000000600082015250565b60006155e1600e83614c02565b91506155ec826155ab565b602082019050919050565b60006020820190508181036000830152615610816155d4565b9050919050565b7f57726f6e672042797465436f6465000000000000000000000000000000000000600082015250565b600061564d600e83614c02565b915061565882615617565b602082019050919050565b6000602082019050818103600083015261567c81615640565b9050919050565b6000819050919050565b60006156a86156a361569e84615683565b614f23565b614243565b9050919050565b6156b88161568d565b82525050565b60006080820190506156d3600083018761481a565b6156e060208301866156af565b6156ed6040830185614646565b6156fa606083018461481a565b95945050505050565b50565b60006157136000836153dc565b915061571e82615703565b600082019050919050565b600061573482615706565b9150819050919050565b7f4661696c656420746f2073656e64000000000000000000000000000000000000600082015250565b6000615774600e83614c02565b915061577f8261573e565b602082019050919050565b600060208201905081810360008301526157a381615767565b9050919050565b7f6e6f7420616c6c6f776564000000000000000000000000000000000000000000600082015250565b60006157e0600b83614c02565b91506157eb826157aa565b602082019050919050565b6000602082019050818103600083015261580f816157d3565b9050919050565b600081905092915050565b600061582c82614bf7565b6158368185615816565b9350615846818560208601614c13565b80840191505092915050565b600061585e8284615821565b915081905092915050565b7f4e487b7100000000000000000000000000000000000000000000000000000000600052602260045260246000fd5b600060028204905060018216806158b057607f821691505b6020821081036158c3576158c2615869565b5b50919050565b60006060820190506158de600083018661481a565b6158eb602083018561481a565b6158f86040830184614bcd565b949350505050565b600063ffffffff82169050919050565b60008160e01b9050919050565b600061592882615910565b9050919050565b61594061593b82615900565b61591d565b82525050565b60007fffffffffffffffffffffffff000000000000000000000000000000000000000082169050919050565b6000819050919050565b61598d61598882615946565b615972565b82525050565b6000819050919050565b6159ae6159a98261461a565b615993565b82525050565b60006159c0828761592f565b6004820191506159d0828661597c565b600c820191506159e0828561599d565b6004820191506159f0828461597c565b600c8201915081905095945050505050565b6000819050602082019050919050565b6000615a1e8251614788565b80915050919050565b6000615a328261518e565b82615a3c84615a02565b9050615a4781615a12565b92506020821015615a8757615a827fffffffffffffffffffffffffffffffffffffffffffffffffffffffffffffffff836020036008026152db565b831692505b5050919050565b7f4d7573742062652077697468696e20626f756e64730000000000000000000000600082015250565b6000615ac4601583614c02565b9150615acf82615a8e565b602082019050919050565b60006020820190508181036000830152615af381615ab7565b9050919050565b6000604082019050615b0f6000830185614bcd565b8181036020830152615b2181846151aa565b90509392505050565b6000615b3582614243565b9150615b4083614243565b9250817fffffffffffffffffffffffffffffffffffffffffffffffffffffffffffffffff0483118215151615615b7957615b7861424d565b5b828202905092915050565b6000604082019050615b99600083018561481a565b615ba66020830184614a8c565b9392505050565b6000615bb8826148e5565b9150615bc3836148e5565b92508262ffffff03821115615bdb57615bda61424d565b5b828201905092915050565b7f4e6f7420656e6f75676820626164676573000000000000000000000000000000600082015250565b6000615c1c601183614c02565b9150615c2782615be6565b602082019050919050565b60006020820190508181036000830152615c4b81615c0f565b9050919050565b600081519050615c61816149ce565b92915050565b600060208284031215615c7d57615c7c6142dc565b5b6000615c8b84828501615c52565b91505092915050565b60008060408385031215615cab57615caa6142dc565b5b6000615cb985828601615249565b9250506020615cca85828601615249565b9150509250929050565b7f4e487b7100000000000000000000000000000000000000000000000000000000600052601260045260246000fd5b6000615d0e82614243565b9150615d1983614243565b925082615d2957615d28615cd4565b5b828204905092915050565b7f496e76616c696420506172616d65746572730000000000000000000000000000600082015250565b6000615d6a601283614c02565b9150615d7582615d34565b602082019050919050565b60006020820190508181036000830152615d9981615d5d565b9050919050565b6000608082019050615db5600083018761481a565b615dc26020830186614bcd565b615dcf6040830185614646565b615ddc606083018461481a565b95945050505050565b6000615df183836152d0565b82615dfc8135614788565b92506020821015615e3c57615e377fffffffffffffffffffffffffffffffffffffffffffffffffffffffffffffffff836020036008026152db565b831692505b505092915050565b60007fff0000000000000000000000000000000000000000000000000000000000000082169050919050565b6000819050919050565b615e8b615e8682615e44565b615e70565b82525050565b60008160601b9050919050565b6000615ea982615e91565b9050919050565b6000615ebb82615e9e565b9050919050565b615ed3615ece82614528565b615eb0565b82525050565b6000819050919050565b615ef4615eef82614788565b615ed9565b82525050565b6000615f068287615e7a565b600182019150615f168286615ec2565b601482019150615f268285615ee3565b602082019150615f368284615ee3565b60208201915081905095945050505050565b60038110615f5557600080fd5b50565b600081519050615f6781615f48565b92915050565b600060208284031215615f8357615f826142dc565b5b6000615f9184828501615f58565b91505092915050565b6000615fa68286615ec2565b601482019150615fb782848661556d565b915081905094935050505056fea2646970667358221220d8a47bac7084a692f0faed73f3ac965f005026fc9b43c2cc259b23eeeb1f445d64736f6c634300080d0033",
  "linkReferences": {},
  "deployedLinkReferences": {}
}