{
  "_format": "hh-sol-artifact-1",
  "contractName": "VotingPlayground",
  "sourceName": "src/examples/playground/Playground.sol",
  "abi": [
    {
      "inputs": [
        {
          "internalType": "address",
          "name": "votingContractRegistry",
          "type": "address"
        },
        {
          "internalType": "bytes5[]",
          "name": "flagAndSelectors",
          "type": "bytes5[]"
        },
        {
          "internalType": "address[]",
          "name": "votingContracts",
          "type": "address[]"
        },
        {
          "internalType": "uint256[]",
          "name": "minDurations",
          "type": "uint256[]"
        },
        {
          "internalType": "uint256[]",
          "name": "minQuorums",
          "type": "uint256[]"
        },
        {
          "internalType": "bool[]",
          "name": "badgeWeightedVote",
          "type": "bool[]"
        },
        {
          "internalType": "bytes32",
          "name": "hashedBadgeBytecode",
          "type": "bytes32"
        }
      ],
      "stateMutability": "nonpayable",
      "type": "constructor"
    },
    {
      "inputs": [
        {
          "internalType": "uint256",
          "name": "mainBadge",
          "type": "uint256"
        },
        {
          "internalType": "uint256",
          "name": "numberOfBadges",
          "type": "uint256"
        }
      ],
      "name": "BadgeDoesntExist",
      "type": "error"
    },
    {
      "inputs": [
        {
          "internalType": "address",
          "name": "imposter",
          "type": "address"
        }
      ],
      "name": "IsNotImplementer",
      "type": "error"
    },
    {
      "inputs": [
        {
          "internalType": "bytes4",
          "name": "selector",
          "type": "bytes4"
        }
      ],
      "name": "IsNotVotableFunction",
      "type": "error"
    },
    {
      "inputs": [
        {
          "internalType": "address",
          "name": "implementer",
          "type": "address"
        }
      ],
      "name": "OnlyVoteImplementer",
      "type": "error"
    },
    {
      "anonymous": false,
      "inputs": [
        {
          "indexed": false,
          "internalType": "address",
          "name": "votingContract",
          "type": "address"
        },
        {
          "indexed": false,
          "internalType": "bool",
          "name": "successflag",
          "type": "bool"
        },
        {
          "indexed": false,
          "internalType": "bytes",
          "name": "response",
          "type": "bytes"
        }
      ],
      "name": "Balaa",
      "type": "event"
    },
    {
      "anonymous": false,
      "inputs": [
        {
          "indexed": true,
          "internalType": "uint256",
          "name": "index",
          "type": "uint256"
        },
        {
          "indexed": false,
          "internalType": "address",
          "name": "sender",
          "type": "address"
        },
        {
          "indexed": false,
          "internalType": "bytes",
          "name": "target",
          "type": "bytes"
        }
      ],
      "name": "VotingInstanceStarted",
      "type": "event"
    },
    {
      "anonymous": false,
      "inputs": [
        {
          "indexed": false,
          "internalType": "bool",
          "name": "success",
          "type": "bool"
        },
        {
          "indexed": false,
          "internalType": "bytes",
          "name": "response",
          "type": "bytes"
        }
      ],
      "name": "WhatsNow",
      "type": "event"
    },
    {
      "inputs": [],
      "name": "VOTING_REGISTRY",
      "outputs": [
        {
          "internalType": "address",
          "name": "",
          "type": "address"
        }
      ],
      "stateMutability": "view",
      "type": "function"
    },
    {
      "inputs": [
        {
          "internalType": "address",
          "name": "votingContract",
          "type": "address"
        }
      ],
      "name": "addSimpleVotingContract",
      "outputs": [],
      "stateMutability": "nonpayable",
      "type": "function"
    },
    {
      "inputs": [],
      "name": "analytics",
      "outputs": [
        {
          "internalType": "uint256",
          "name": "numberOfInstances",
          "type": "uint256"
        },
        {
          "internalType": "uint256",
          "name": "numberOfVotes",
          "type": "uint256"
        },
        {
          "internalType": "uint256",
          "name": "numberOfImplementations",
          "type": "uint256"
        },
        {
          "internalType": "uint24",
          "name": "numberOfSimpleVotingContracts",
          "type": "uint24"
        }
      ],
      "stateMutability": "view",
      "type": "function"
    },
    {
      "inputs": [
        {
          "internalType": "address",
          "name": "token",
          "type": "address"
        },
        {
          "internalType": "address",
          "name": "spender",
          "type": "address"
        },
        {
          "internalType": "uint256",
          "name": "amount",
          "type": "uint256"
        }
      ],
      "name": "approveERC20Token",
      "outputs": [],
      "stateMutability": "nonpayable",
      "type": "function"
    },
    {
      "inputs": [
        {
          "internalType": "address",
          "name": "token",
          "type": "address"
        },
        {
          "internalType": "address",
          "name": "spender",
          "type": "address"
        },
        {
          "internalType": "uint256",
          "name": "tokenId",
          "type": "uint256"
        }
      ],
      "name": "approveNFT",
      "outputs": [],
      "stateMutability": "nonpayable",
      "type": "function"
    },
    {
      "inputs": [
        {
          "internalType": "uint256",
          "name": "",
          "type": "uint256"
        }
      ],
      "name": "badges",
      "outputs": [
        {
          "internalType": "contract IPlaygroundVotingBadge",
          "name": "",
          "type": "address"
        }
      ],
      "stateMutability": "view",
      "type": "function"
    },
    {
      "inputs": [
        {
          "internalType": "uint256",
          "name": "index",
          "type": "uint256"
        },
        {
          "internalType": "bytes4",
          "name": "selector",
          "type": "bytes4"
        },
        {
          "internalType": "address",
          "name": "votingContract",
          "type": "address"
        },
        {
          "internalType": "address",
          "name": "minter",
          "type": "address"
        }
      ],
      "name": "calculateId",
      "outputs": [
        {
          "internalType": "uint256",
          "name": "",
          "type": "uint256"
        }
      ],
      "stateMutability": "pure",
      "type": "function"
    },
    {
      "inputs": [
        {
          "internalType": "bytes4",
          "name": "selector",
          "type": "bytes4"
        },
        {
          "internalType": "address",
          "name": "newVotingContract",
          "type": "address"
        }
      ],
      "name": "changeAssignedContract",
      "outputs": [],
      "stateMutability": "nonpayable",
      "type": "function"
    },
    {
      "inputs": [
        {
          "internalType": "uint256",
          "name": "by",
          "type": "uint256"
        }
      ],
      "name": "changeCounter",
      "outputs": [
        {
          "internalType": "bool",
          "name": "",
          "type": "bool"
        }
      ],
      "stateMutability": "nonpayable",
      "type": "function"
    },
    {
      "inputs": [
        {
          "internalType": "bytes4",
          "name": "selector",
          "type": "bytes4"
        },
        {
          "internalType": "uint256",
          "name": "minDuration",
          "type": "uint256"
        },
        {
          "internalType": "uint256",
          "name": "minQuorum",
          "type": "uint256"
        },
        {
          "internalType": "address",
          "name": "token",
          "type": "address"
        }
      ],
      "name": "changeMetaParameters",
      "outputs": [],
      "stateMutability": "nonpayable",
      "type": "function"
    },
    {
      "inputs": [
        {
          "internalType": "enum Operation",
          "name": "newOperation",
          "type": "uint8"
        }
      ],
      "name": "changeOperation",
      "outputs": [
        {
          "internalType": "bool",
          "name": "",
          "type": "bool"
        }
      ],
      "stateMutability": "nonpayable",
      "type": "function"
    },
    {
      "inputs": [],
      "name": "counter",
      "outputs": [
        {
          "internalType": "uint256",
          "name": "counter",
          "type": "uint256"
        },
        {
          "internalType": "enum Operation",
          "name": "operation",
          "type": "uint8"
        }
      ],
      "stateMutability": "view",
      "type": "function"
    },
    {
      "inputs": [
        {
          "internalType": "bytes32",
          "name": "salt",
          "type": "bytes32"
        },
        {
          "internalType": "bytes",
          "name": "bytecode",
          "type": "bytes"
        },
        {
          "internalType": "address",
          "name": "badger",
          "type": "address"
        }
      ],
      "name": "deployNewBadge",
      "outputs": [
        {
          "internalType": "address",
          "name": "deployedContract",
          "type": "address"
        }
      ],
      "stateMutability": "nonpayable",
      "type": "function"
    },
    {
      "inputs": [
        {
          "internalType": "bytes32",
          "name": "salt",
          "type": "bytes32"
        },
        {
          "internalType": "bytes",
          "name": "bytecode",
          "type": "bytes"
        }
      ],
      "name": "deployNewContract",
      "outputs": [
        {
          "internalType": "address",
          "name": "deployedContract",
          "type": "address"
        }
      ],
      "stateMutability": "nonpayable",
      "type": "function"
    },
    {
      "inputs": [
        {
          "internalType": "uint256",
          "name": "",
          "type": "uint256"
        }
      ],
      "name": "deployedContracts",
      "outputs": [
        {
          "internalType": "address",
          "name": "",
          "type": "address"
        }
      ],
      "stateMutability": "view",
      "type": "function"
    },
    {
      "inputs": [
        {
          "internalType": "address",
          "name": "",
          "type": "address"
        }
      ],
      "name": "donationsBy",
      "outputs": [
        {
          "internalType": "uint256",
          "name": "",
          "type": "uint256"
        }
      ],
      "stateMutability": "view",
      "type": "function"
    },
    {
      "inputs": [
        {
          "internalType": "bytes4",
          "name": "",
          "type": "bytes4"
        }
      ],
      "name": "fixedVotingContract",
      "outputs": [
        {
          "internalType": "bool",
          "name": "",
          "type": "bool"
        }
      ],
      "stateMutability": "view",
      "type": "function"
    },
    {
      "inputs": [
        {
          "internalType": "bytes4",
          "name": "selector",
          "type": "bytes4"
        }
      ],
      "name": "getAssignedContract",
      "outputs": [
        {
          "internalType": "address",
          "name": "_assignedContract",
          "type": "address"
        }
      ],
      "stateMutability": "view",
      "type": "function"
    },
    {
      "inputs": [
        {
          "internalType": "string",
          "name": "office",
          "type": "string"
        }
      ],
      "name": "getIncumbentFromOffice",
      "outputs": [
        {
          "internalType": "address",
          "name": "incumbent",
          "type": "address"
        }
      ],
      "stateMutability": "view",
      "type": "function"
    },
    {
      "inputs": [
        {
          "internalType": "uint256",
          "name": "identifier",
          "type": "uint256"
        },
        {
          "internalType": "bytes",
          "name": "callback",
          "type": "bytes"
        }
      ],
      "name": "implement",
      "outputs": [],
      "stateMutability": "payable",
      "type": "function"
    },
    {
      "inputs": [
        {
          "internalType": "uint256",
          "name": "",
          "type": "uint256"
        }
      ],
      "name": "instances",
      "outputs": [
        {
          "internalType": "uint256",
          "name": "identifier",
          "type": "uint256"
        },
        {
          "internalType": "address",
          "name": "votingContract",
          "type": "address"
        }
      ],
      "stateMutability": "view",
      "type": "function"
    },
    {
      "inputs": [],
      "name": "minXpToStartAnything",
      "outputs": [
        {
          "internalType": "uint256",
          "name": "",
          "type": "uint256"
        }
      ],
      "stateMutability": "view",
      "type": "function"
    },
    {
      "inputs": [
        {
          "internalType": "bytes4",
          "name": "",
          "type": "bytes4"
        }
      ],
      "name": "minXpToStartThisFunction",
      "outputs": [
        {
          "internalType": "uint256",
          "name": "",
          "type": "uint256"
        }
      ],
      "stateMutability": "view",
      "type": "function"
    },
    {
      "inputs": [
        {
          "internalType": "string",
          "name": "office",
          "type": "string"
        },
        {
          "internalType": "address",
          "name": "_newIncumbent",
          "type": "address"
        }
      ],
      "name": "newIncumbent",
      "outputs": [
        {
          "internalType": "bool",
          "name": "",
          "type": "bool"
        }
      ],
      "stateMutability": "nonpayable",
      "type": "function"
    },
    {
      "inputs": [],
      "name": "nftAndBadgesInfo",
      "outputs": [
        {
          "internalType": "uint256",
          "name": "mainBadge",
          "type": "uint256"
        },
        {
          "internalType": "bool",
          "name": "acceptingNFTs",
          "type": "bool"
        }
      ],
      "stateMutability": "view",
      "type": "function"
    },
    {
      "inputs": [
        {
          "internalType": "uint256",
          "name": "",
          "type": "uint256"
        }
      ],
      "name": "offices",
      "outputs": [
        {
          "internalType": "string",
          "name": "",
          "type": "string"
        }
      ],
      "stateMutability": "view",
      "type": "function"
    },
    {
      "inputs": [
        {
          "internalType": "address",
          "name": "operator",
          "type": "address"
        },
        {
          "internalType": "address",
          "name": "from",
          "type": "address"
        },
        {
          "internalType": "uint256",
          "name": "tokenId",
          "type": "uint256"
        },
        {
          "internalType": "bytes",
          "name": "data",
          "type": "bytes"
        }
      ],
      "name": "onERC721Received",
      "outputs": [
        {
          "internalType": "bytes4",
          "name": "",
          "type": "bytes4"
        }
      ],
      "stateMutability": "view",
      "type": "function"
    },
    {
      "inputs": [
        {
          "internalType": "address",
          "name": "token",
          "type": "address"
        },
        {
          "internalType": "address",
          "name": "from",
          "type": "address"
        },
        {
          "internalType": "address",
          "name": "to",
          "type": "address"
        },
        {
          "internalType": "uint256",
          "name": "amount",
          "type": "uint256"
        }
      ],
      "name": "sendERC20Token",
      "outputs": [],
      "stateMutability": "nonpayable",
      "type": "function"
    },
    {
      "inputs": [
        {
          "internalType": "address",
          "name": "token",
          "type": "address"
        },
        {
          "internalType": "address",
          "name": "from",
          "type": "address"
        },
        {
          "internalType": "address",
          "name": "to",
          "type": "address"
        },
        {
          "internalType": "uint256",
          "name": "tokenId",
          "type": "uint256"
        }
      ],
      "name": "sendNFT",
      "outputs": [],
      "stateMutability": "nonpayable",
      "type": "function"
    },
    {
      "inputs": [
        {
          "internalType": "address payable",
          "name": "to",
          "type": "address"
        },
        {
          "internalType": "uint256",
          "name": "amount",
          "type": "uint256"
        }
      ],
      "name": "sendNativeToken",
      "outputs": [],
      "stateMutability": "nonpayable",
      "type": "function"
    },
    {
      "inputs": [
        {
          "internalType": "bool",
          "name": "accept",
          "type": "bool"
        }
      ],
      "name": "setAcceptingNFTs",
      "outputs": [],
      "stateMutability": "nonpayable",
      "type": "function"
    },
    {
      "inputs": [
        {
          "internalType": "uint256",
          "name": "newThreshold",
          "type": "uint256"
        }
      ],
      "name": "setEnableTradingThreshold",
      "outputs": [],
      "stateMutability": "nonpayable",
      "type": "function"
    },
    {
      "inputs": [
        {
          "internalType": "uint256",
          "name": "newMainBadge",
          "type": "uint256"
        }
      ],
      "name": "setMainBadge",
      "outputs": [],
      "stateMutability": "nonpayable",
      "type": "function"
    },
    {
      "inputs": [
        {
          "internalType": "uint256",
          "name": "newXP",
          "type": "uint256"
        }
      ],
      "name": "setMinXpToStartAnything",
      "outputs": [],
      "stateMutability": "nonpayable",
      "type": "function"
    },
    {
      "inputs": [
        {
          "internalType": "bytes4",
          "name": "selector",
          "type": "bytes4"
        },
        {
          "internalType": "uint256",
          "name": "newXP",
          "type": "uint256"
        }
      ],
      "name": "setMinXpToStartThisFunction",
      "outputs": [],
      "stateMutability": "nonpayable",
      "type": "function"
    },
    {
      "inputs": [
        {
          "internalType": "bool",
          "name": "enable",
          "type": "bool"
        }
      ],
      "name": "setTradingEnabledGlobally",
      "outputs": [],
      "stateMutability": "nonpayable",
      "type": "function"
    },
    {
      "inputs": [
        {
          "internalType": "uint24",
          "name": "",
          "type": "uint24"
        }
      ],
      "name": "simpleVotingContract",
      "outputs": [
        {
          "internalType": "address",
          "name": "",
          "type": "address"
        }
      ],
      "stateMutability": "view",
      "type": "function"
    },
    {
      "inputs": [
        {
          "internalType": "bytes",
          "name": "votingParams",
          "type": "bytes"
        },
        {
          "internalType": "bytes",
          "name": "callback",
          "type": "bytes"
        }
      ],
      "name": "start",
      "outputs": [],
      "stateMutability": "nonpayable",
      "type": "function"
    },
    {
      "inputs": [
        {
          "internalType": "uint256",
          "name": "identifier",
          "type": "uint256"
        },
        {
          "internalType": "bytes",
          "name": "votingData",
          "type": "bytes"
        }
      ],
      "name": "vote",
      "outputs": [],
      "stateMutability": "nonpayable",
      "type": "function"
    },
    {
      "inputs": [
        {
          "internalType": "bytes4",
          "name": "",
          "type": "bytes4"
        }
      ],
      "name": "votingMetaParams",
      "outputs": [
        {
          "internalType": "uint256",
          "name": "minDuration",
          "type": "uint256"
        },
        {
          "internalType": "uint256",
          "name": "minQuorum",
          "type": "uint256"
        },
        {
          "internalType": "address",
          "name": "token",
          "type": "address"
        }
      ],
      "stateMutability": "view",
      "type": "function"
    },
    {
      "inputs": [
        {
          "internalType": "address",
          "name": "contractAddress",
          "type": "address"
        },
        {
          "internalType": "bytes",
          "name": "data",
          "type": "bytes"
        },
        {
          "internalType": "uint256",
          "name": "value",
          "type": "uint256"
        }
      ],
      "name": "wildCard",
      "outputs": [],
      "stateMutability": "payable",
      "type": "function"
    },
    {
      "stateMutability": "payable",
      "type": "receive"
    }
  ],
  "bytecode": "0x60a06040523480156200001157600080fd5b5060405162006bcf38038062006bcf8339818101604052810190620000379190620009b2565b8673ffffffffffffffffffffffffffffffffffffffff1660808173ffffffffffffffffffffffffffffffffffffffff168152505060006200007e82620003f060201b60201c565b90508073ffffffffffffffffffffffffffffffffffffffff1660076000018190555060005b86518160ff161015620003e15760006008898360ff1681518110620000cd57620000cc62000b00565b5b60200260200101517affffffffffffffffffffffffffffffffffffffffffffffffffffff1916901b9050600060f81b7effffffffffffffffffffffffffffffffffffffffffffffffffffffffffffff1916898360ff168151811062000137576200013662000b00565b5b60200260200101517effffffffffffffffffffffffffffffffffffffffffffffffffffffffffffff1916141560166000837bffffffffffffffffffffffffffffffffffffffffffffffffffffffff19167bffffffffffffffffffffffffffffffffffffffffffffffffffffffff1916815260200190815260200160002060006101000a81548160ff0219169083151502179055506040518060600160405280888460ff1681518110620001ef57620001ee62000b00565b5b60200260200101518152602001878460ff168151811062000215576200021462000b00565b5b60200260200101518152602001868460ff16815181106200023b576200023a62000b00565b5b60200260200101516200025057600062000252565b845b73ffffffffffffffffffffffffffffffffffffffff16815250600f6000837bffffffffffffffffffffffffffffffffffffffffffffffffffffffff19167bffffffffffffffffffffffffffffffffffffffffffffffffffffffff19168152602001908152602001600020600082015181600001556020820151816001015560408201518160020160006101000a81548173ffffffffffffffffffffffffffffffffffffffff021916908373ffffffffffffffffffffffffffffffffffffffff160217905550905050878260ff168151811062000333576200033262000b00565b5b602002602001015160016000837bffffffffffffffffffffffffffffffffffffffffffffffffffffffff19167bffffffffffffffffffffffffffffffffffffffffffffffffffffffff1916815260200190815260200160002060006101000a81548173ffffffffffffffffffffffffffffffffffffffff021916908373ffffffffffffffffffffffffffffffffffffffff160217905550508080620003d89062000b6b565b915050620000a3565b50505050505050505062000cb5565b600060ff60f81b306000801b8460405160200162000412949392919062000c5f565b6040516020818303038152906040528051906020012060001c9050919050565b6000604051905090565b600080fd5b600080fd5b600073ffffffffffffffffffffffffffffffffffffffff82169050919050565b6000620004738262000446565b9050919050565b620004858162000466565b81146200049157600080fd5b50565b600081519050620004a5816200047a565b92915050565b600080fd5b6000601f19601f8301169050919050565b7f4e487b7100000000000000000000000000000000000000000000000000000000600052604160045260246000fd5b620004fb82620004b0565b810181811067ffffffffffffffff821117156200051d576200051c620004c1565b5b80604052505050565b60006200053262000432565b9050620005408282620004f0565b919050565b600067ffffffffffffffff821115620005635762000562620004c1565b5b602082029050602081019050919050565b600080fd5b60007fffffffffff00000000000000000000000000000000000000000000000000000082169050919050565b620005b08162000579565b8114620005bc57600080fd5b50565b600081519050620005d081620005a5565b92915050565b6000620005ed620005e78462000545565b62000526565b9050808382526020820190506020840283018581111562000613576200061262000574565b5b835b818110156200064057806200062b8882620005bf565b84526020840193505060208101905062000615565b5050509392505050565b600082601f830112620006625762000661620004ab565b5b815162000674848260208601620005d6565b91505092915050565b600067ffffffffffffffff8211156200069b576200069a620004c1565b5b602082029050602081019050919050565b6000620006c3620006bd846200067d565b62000526565b90508083825260208201905060208402830185811115620006e957620006e862000574565b5b835b8181101562000716578062000701888262000494565b845260208401935050602081019050620006eb565b5050509392505050565b600082601f830112620007385762000737620004ab565b5b81516200074a848260208601620006ac565b91505092915050565b600067ffffffffffffffff821115620007715762000770620004c1565b5b602082029050602081019050919050565b6000819050919050565b620007978162000782565b8114620007a357600080fd5b50565b600081519050620007b7816200078c565b92915050565b6000620007d4620007ce8462000753565b62000526565b90508083825260208201905060208402830185811115620007fa57620007f962000574565b5b835b81811015620008275780620008128882620007a6565b845260208401935050602081019050620007fc565b5050509392505050565b600082601f830112620008495762000848620004ab565b5b81516200085b848260208601620007bd565b91505092915050565b600067ffffffffffffffff821115620008825762000881620004c1565b5b602082029050602081019050919050565b60008115159050919050565b620008aa8162000893565b8114620008b657600080fd5b50565b600081519050620008ca816200089f565b92915050565b6000620008e7620008e18462000864565b62000526565b905080838252602082019050602084028301858111156200090d576200090c62000574565b5b835b818110156200093a5780620009258882620008b9565b8452602084019350506020810190506200090f565b5050509392505050565b600082601f8301126200095c576200095b620004ab565b5b81516200096e848260208601620008d0565b91505092915050565b6000819050919050565b6200098c8162000977565b81146200099857600080fd5b50565b600081519050620009ac8162000981565b92915050565b600080600080600080600060e0888a031215620009d457620009d36200043c565b5b6000620009e48a828b0162000494565b975050602088015167ffffffffffffffff81111562000a085762000a0762000441565b5b62000a168a828b016200064a565b965050604088015167ffffffffffffffff81111562000a3a5762000a3962000441565b5b62000a488a828b0162000720565b955050606088015167ffffffffffffffff81111562000a6c5762000a6b62000441565b5b62000a7a8a828b0162000831565b945050608088015167ffffffffffffffff81111562000a9e5762000a9d62000441565b5b62000aac8a828b0162000831565b93505060a088015167ffffffffffffffff81111562000ad05762000acf62000441565b5b62000ade8a828b0162000944565b92505060c062000af18a828b016200099b565b91505092959891949750929550565b7f4e487b7100000000000000000000000000000000000000000000000000000000600052603260045260246000fd5b7f4e487b7100000000000000000000000000000000000000000000000000000000600052601160045260246000fd5b600060ff82169050919050565b600062000b788262000b5e565b915060ff820362000b8e5762000b8d62000b2f565b5b600182019050919050565b60007fff0000000000000000000000000000000000000000000000000000000000000082169050919050565b6000819050919050565b62000be462000bde8262000b99565b62000bc5565b82525050565b60008160601b9050919050565b600062000c048262000bea565b9050919050565b600062000c188262000bf7565b9050919050565b62000c3462000c2e8262000466565b62000c0b565b82525050565b6000819050919050565b62000c5962000c538262000977565b62000c3a565b82525050565b600062000c6d828762000bcf565b60018201915062000c7f828662000c1f565b60148201915062000c91828562000c44565b60208201915062000ca3828462000c44565b60208201915081905095945050505050565b608051615ef062000cdf60003960008181612077015281816126980152612a100152615ef06000f3fe60806040526004361061024a5760003560e01c80638f92cafb11610139578063b88b82ba116100b6578063e415eb291161007a578063e415eb291461097b578063ec9ad785146109a7578063ecf88bea146109e4578063ef4a45a114610a0d578063fabfdb1d14610a36578063fe3041d914610a5f576102a6565b8063b88b82ba14610884578063bf386076146108ad578063c519fdc5146108ea578063df12306514610927578063df610fcd14610952576102a6565b806399772bff116100fd57806399772bff146107785780639ad1ee10146107b7578063a0e8ca96146107f4578063a2f7b3a51461081d578063a66290271461085b576102a6565b80638f92cafb1461068157806391fae275146106aa57806393a8dd9a146106d357806395a9c336146106fe57806398e36d8b1461073b576102a6565b80634dea6274116101c757806360f1267c1161018b57806360f1267c1461058457806361bc221a146105c1578063639fd9b9146105ed5780637336aaf01461062a57806380d5ac8a14610653576102a6565b80634dea62741461046757806353ead2d3146104a45780635698d48a146104cd5780635c4e953f1461050a5780635f3a983114610547576102a6565b80633048760d1161020e5780633048760d1461037f57806332d7b3b9146103bc5780633d974365146103e5578063458b8f481461040e5780634b9b41f41461042a576102a6565b80631080156e146102ab578063150b7a02146102d45780631540ac51146103115780631d0a40c91461032d578063204d899d14610356576102a6565b366102a65734601060003373ffffffffffffffffffffffffffffffffffffffff1673ffffffffffffffffffffffffffffffffffffffff168152602001908152602001600020600082825461029e91906141f5565b925050819055005b600080fd5b3480156102b757600080fd5b506102d260048036038101906102cd9190614405565b610a9c565b005b3480156102e057600080fd5b506102fb60048036038101906102f6919061450b565b610e29565b60405161030891906145ce565b60405180910390f35b61032b600480360381019061032691906145e9565b610e7d565b005b34801561033957600080fd5b50610354600480360381019061034f9190614681565b611070565b005b34801561036257600080fd5b5061037d600480360381019061037891906146ae565b61116e565b005b34801561038b57600080fd5b506103a660048036038101906103a19190614737565b61123f565b6040516103b391906147a2565b60405180910390f35b3480156103c857600080fd5b506103e360048036038101906103de91906147bd565b611303565b005b3480156103f157600080fd5b5061040c60048036038101906104079190614681565b6113ad565b005b610428600480360381019061042391906147ea565b61141a565b005b34801561043657600080fd5b50610451600480360381019061044c9190614899565b611561565b60405161045e91906147a2565b60405180910390f35b34801561047357600080fd5b5061048e600480360381019061048991906148c6565b611594565b60405161049b91906147a2565b60405180910390f35b3480156104b057600080fd5b506104cb60048036038101906104c69190614973565b6117e0565b005b3480156104d957600080fd5b506104f460048036038101906104ef91906149d8565b6118de565b6040516105019190614a14565b60405180910390f35b34801561051657600080fd5b50610531600480360381019061052c9190614ad0565b6119ac565b60405161053e91906147a2565b60405180910390f35b34801561055357600080fd5b5061056e60048036038101906105699190614b19565b6119f7565b60405161057b9190614b55565b60405180910390f35b34801561059057600080fd5b506105ab60048036038101906105a691906147bd565b611a0f565b6040516105b89190614bf8565b60405180910390f35b3480156105cd57600080fd5b506105d6611abb565b6040516105e4929190614c91565b60405180910390f35b3480156105f957600080fd5b50610614600480360381019061060f9190614ce6565b611ada565b6040516106219190614a14565b60405180910390f35b34801561063657600080fd5b50610651600480360381019061064c91906146ae565b611afa565b005b34801561065f57600080fd5b50610668611bb9565b6040516106789493929190614d22565b60405180910390f35b34801561068d57600080fd5b506106a860048036038101906106a39190614d67565b611be6565b005b3480156106b657600080fd5b506106d160048036038101906106cc9190614dce565b611d82565b005b3480156106df57600080fd5b506106e8611f0d565b6040516106f59190614b55565b60405180910390f35b34801561070a57600080fd5b5061072560048036038101906107209190614e35565b611f13565b6040516107329190614b55565b60405180910390f35b34801561074757600080fd5b50610762600480360381019061075d91906147bd565b611f61565b60405161076f9190614efb565b60405180910390f35b34801561078457600080fd5b5061079f600480360381019061079a9190614ce6565b611fa0565b6040516107ae93929190614f16565b60405180910390f35b3480156107c357600080fd5b506107de60048036038101906107d991906147bd565b611fea565b6040516107eb91906147a2565b60405180910390f35b34801561080057600080fd5b5061081b60048036038101906108169190614f4d565b612029565b005b34801561082957600080fd5b50610844600480360381019061083f91906147bd565b612216565b604051610852929190614f8d565b60405180910390f35b34801561086757600080fd5b50610882600480360381019061087d9190614fb6565b61226a565b005b34801561089057600080fd5b506108ab60048036038101906108a691906145e9565b612354565b005b3480156108b957600080fd5b506108d460048036038101906108cf9190614ce6565b612467565b6040516108e191906147a2565b60405180910390f35b3480156108f657600080fd5b50610911600480360381019061090c91906147bd565b6124e2565b60405161091e9190614a14565b60405180910390f35b34801561093357600080fd5b5061093c612696565b60405161094991906147a2565b60405180910390f35b34801561095e57600080fd5b5061097960048036038101906109749190614dce565b6126ba565b005b34801561098757600080fd5b5061099061277c565b60405161099e929190614ff6565b60405180910390f35b3480156109b357600080fd5b506109ce60048036038101906109c9919061501f565b61279b565b6040516109db9190614a14565b60405180910390f35b3480156109f057600080fd5b50610a0b6004803603810190610a069190614b19565b612a0e565b005b348015610a1957600080fd5b50610a346004803603810190610a2f91906147bd565b612b64565b005b348015610a4257600080fd5b50610a5d6004803603810190610a5891906147bd565b612c62565b005b348015610a6b57600080fd5b50610a866004803603810190610a819190614ce6565b612d08565b604051610a939190614b55565b60405180910390f35b610aa7838383612d20565b60008060006004858590501015610b4b57610ac28585612ec1565b92508273ffffffffffffffffffffffffffffffffffffffff16631080156e8787876040518463ffffffff1660e01b8152600401610b01939291906150fd565b6020604051808303816000875af1158015610b20573d6000803e3d6000fd5b505050506040513d601f19601f82011682018060405250810190610b44919061514b565b9150610d5b565b60008585600090600492610b6193929190615182565b90610b6c91906151d5565b9050610b7781612ec9565b610bb857806040517f35be8c29000000000000000000000000000000000000000000000000000000008152600401610baf91906145ce565b60405180910390fd5b60016000827bffffffffffffffffffffffffffffffffffffffffffffffffffffffff19167bffffffffffffffffffffffffffffffffffffffffffffffffffffffff1916815260200190815260200160002060009054906101000a900473ffffffffffffffffffffffffffffffffffffffff1693508373ffffffffffffffffffffffffffffffffffffffff16631080156e8888886040518463ffffffff1660e01b8152600401610c69939291906150fd565b6020604051808303816000875af1158015610c88573d6000803e3d6000fd5b505050506040513d601f19601f82011682018060405250810190610cac919061514b565b92506000610d2b60016000847bffffffffffffffffffffffffffffffffffffffffffffffffffffffff19167bffffffffffffffffffffffffffffffffffffffffffffffffffffffff1916815260200190815260200160002060009054906101000a900473ffffffffffffffffffffffffffffffffffffffff1685612f73565b9050600160008083815260200190815260200160002060006101000a81548160ff02191690831515021790555050505b600260405180604001604052808481526020018573ffffffffffffffffffffffffffffffffffffffff1681525090806001815401808255809150506001900390600052602060002090600202016000909190919091506000820151816000015560208201518160010160006101000a81548173ffffffffffffffffffffffffffffffffffffffff021916908373ffffffffffffffffffffffffffffffffffffffff1602179055505050610e216001600280549050610e199190615234565b878787612fa6565b505050505050565b6000600760010160009054906101000a900460ff16610e4c57600060e01b610e72565b6000357fffffffff00000000000000000000000000000000000000000000000000000000165b905095945050505050565b610e8683613809565b6000631540ac5160e01b60028581548110610ea457610ea3615268565b5b9060005260206000209060020201600001548484604051602401610eca93929190615297565b604051602081830303815290604052907bffffffffffffffffffffffffffffffffffffffffffffffffffffffff19166020820180517bffffffffffffffffffffffffffffffffffffffffffffffffffffffff8381831617835250505050905060008060028681548110610f4057610f3f615268565b5b906000526020600020906002020160010160009054906101000a900473ffffffffffffffffffffffffffffffffffffffff1673ffffffffffffffffffffffffffffffffffffffff163484604051610f979190615305565b60006040518083038185875af1925050503d8060008114610fd4576040519150601f19603f3d011682016040523d82523d6000602084013e610fd9565b606091505b50915091507f386e73a2de2ea0e14c3906995d8e6d561e27a323ec6b38a2520d3033fd6e66606002878154811061101357611012615268565b5b906000526020600020906002020160010160009054906101000a900473ffffffffffffffffffffffffffffffffffffffff1683836040516110569392919061531c565b60405180910390a1611068868361380c565b505050505050565b600161107b81613976565b6110bc57336040517f06246cc50000000000000000000000000000000000000000000000000000000081526004016110b391906147a2565b60405180910390fd5b6003600760000154815481106110d5576110d4615268565b5b9060005260206000200160009054906101000a900473ffffffffffffffffffffffffffffffffffffffff1673ffffffffffffffffffffffffffffffffffffffff16630439f4a0836040518263ffffffff1660e01b81526004016111389190614a14565b600060405180830381600087803b15801561115257600080fd5b505af1158015611166573d6000803e3d6000fd5b505050505050565b600161117981613976565b6111ba57336040517f06246cc50000000000000000000000000000000000000000000000000000000081526004016111b191906147a2565b60405180910390fd5b8373ffffffffffffffffffffffffffffffffffffffff1663095ea7b384846040518363ffffffff1660e01b81526004016111f592919061535a565b6020604051808303816000875af1158015611214573d6000803e3d6000fd5b505050506040513d601f19601f820116820180604052508101906112389190615398565b5050505050565b6000600161124c81613976565b61128d57336040517f06246cc500000000000000000000000000000000000000000000000000000000815260040161128491906147a2565b60405180910390fd5b6112978484613ad9565b91506004829080600181540180825580915050600190039060005260206000200160009091909190916101000a81548173ffffffffffffffffffffffffffffffffffffffff021916908373ffffffffffffffffffffffffffffffffffffffff1602179055505092915050565b600161130e81613976565b61134f57336040517f06246cc500000000000000000000000000000000000000000000000000000000815260040161134691906147a2565b60405180910390fd5b600380549050821061139f57816003805490506040517fcbb2109a0000000000000000000000000000000000000000000000000000000081526004016113969291906153c5565b60405180910390fd5b816007600001819055505050565b60016113b881613976565b6113f957336040517f06246cc50000000000000000000000000000000000000000000000000000000081526004016113f091906147a2565b60405180910390fd5b81600760010160006101000a81548160ff0219169083151502179055505050565b600161142581613976565b61146657336040517f06246cc500000000000000000000000000000000000000000000000000000000815260040161145d91906147a2565b60405180910390fd5b814710156114a9576040517f08c379a00000000000000000000000000000000000000000000000000000000081526004016114a09061543a565b60405180910390fd5b60008573ffffffffffffffffffffffffffffffffffffffff168386866040516114d392919061547f565b60006040518083038185875af1925050503d8060008114611510576040519150601f19603f3d011682016040523d82523d6000602084013e611515565b606091505b5050905080611559576040517f08c379a0000000000000000000000000000000000000000000000000000000008152600401611550906154e4565b60405180910390fd5b505050505050565b60156020528060005260406000206000915054906101000a900473ffffffffffffffffffffffffffffffffffffffff1681565b6000806003805490500361163a5760076000015473ffffffffffffffffffffffffffffffffffffffff166115ce8480519060200120613aed565b73ffffffffffffffffffffffffffffffffffffffff1614611624576040517f08c379a000000000000000000000000000000000000000000000000000000000815260040161161b90615550565b60405180910390fd5b6000801b93506000600760000181905550611686565b6116446001613976565b61168557336040517f06246cc500000000000000000000000000000000000000000000000000000000815260040161167c91906147a2565b60405180910390fd5b5b6116908484613ad9565b90506003819080600181540180825580915050600190039060005260206000200160009091909190916101000a81548173ffffffffffffffffffffffffffffffffffffffff021916908373ffffffffffffffffffffffffffffffffffffffff160217905550600360016003805490506117099190615234565b8154811061171a57611719615268565b5b9060005260206000200160009054906101000a900473ffffffffffffffffffffffffffffffffffffffff1673ffffffffffffffffffffffffffffffffffffffff1663d113cc8083600080357fffffffff0000000000000000000000000000000000000000000000000000000016336040518563ffffffff1660e01b81526004016117a794939291906155ab565b600060405180830381600087803b1580156117c157600080fd5b505af11580156117d5573d6000803e3d6000fd5b505050509392505050565b60016117eb81613976565b61182c57336040517f06246cc500000000000000000000000000000000000000000000000000000000815260040161182391906147a2565b60405180910390fd5b60008373ffffffffffffffffffffffffffffffffffffffff168360405161185290615616565b60006040518083038185875af1925050503d806000811461188f576040519150601f19603f3d011682016040523d82523d6000602084013e611894565b606091505b50509050806118d8576040517f08c379a00000000000000000000000000000000000000000000000000000000081526004016118cf90615677565b60405180910390fd5b50505050565b6000670de0b6b3a7640000601060003373ffffffffffffffffffffffffffffffffffffffff1673ffffffffffffffffffffffffffffffffffffffff16815260200190815260200160002054118061193b575061193a6001613976565b5b61197a576040517f08c379a0000000000000000000000000000000000000000000000000000000008152600401611971906156e3565b60405180910390fd5b81600960010160006101000a81548160ff021916908360058111156119a2576119a1614c1a565b5b0217905550919050565b6000600c826040516119be919061573f565b908152602001604051809103902060000160009054906101000a900473ffffffffffffffffffffffffffffffffffffffff169050919050565b60106020528060005260406000206000915090505481565b600b8181548110611a1f57600080fd5b906000526020600020016000915090508054611a3a90615785565b80601f0160208091040260200160405190810160405280929190818152602001828054611a6690615785565b8015611ab35780601f10611a8857610100808354040283529160200191611ab3565b820191906000526020600020905b815481529060010190602001808311611a9657829003601f168201915b505050505081565b60098060000154908060010160009054906101000a900460ff16905082565b60166020528060005260406000206000915054906101000a900460ff1681565b6001611b0581613976565b611b4657336040517f06246cc5000000000000000000000000000000000000000000000000000000008152600401611b3d91906147a2565b60405180910390fd5b8373ffffffffffffffffffffffffffffffffffffffff1663095ea7b384846040518363ffffffff1660e01b8152600401611b8192919061535a565b600060405180830381600087803b158015611b9b57600080fd5b505af1158015611baf573d6000803e3d6000fd5b5050505050505050565b60118060000154908060010154908060020154908060030160009054906101000a900462ffffff16905084565b6001611bf181613976565b611c3257336040517f06246cc5000000000000000000000000000000000000000000000000000000008152600401611c2991906147a2565b60405180910390fd5b60166000867bffffffffffffffffffffffffffffffffffffffffffffffffffffffff19167bffffffffffffffffffffffffffffffffffffffffffffffffffffffff1916815260200190815260200160002060009054906101000a900460ff1615611c9b57600080fd5b60405180606001604052808581526020018481526020018373ffffffffffffffffffffffffffffffffffffffff16815250600f6000877bffffffffffffffffffffffffffffffffffffffffffffffffffffffff19167bffffffffffffffffffffffffffffffffffffffffffffffffffffffff19168152602001908152602001600020600082015181600001556020820151816001015560408201518160020160006101000a81548173ffffffffffffffffffffffffffffffffffffffff021916908373ffffffffffffffffffffffffffffffffffffffff1602179055509050505050505050565b6001611d8d81613976565b611dce57336040517f06246cc5000000000000000000000000000000000000000000000000000000008152600401611dc591906147a2565b60405180910390fd5b3073ffffffffffffffffffffffffffffffffffffffff168473ffffffffffffffffffffffffffffffffffffffff1614611e86578473ffffffffffffffffffffffffffffffffffffffff166323b872dd8585856040518463ffffffff1660e01b8152600401611e3e939291906157b6565b6020604051808303816000875af1158015611e5d573d6000803e3d6000fd5b505050506040513d601f19601f82011682018060405250810190611e819190615398565b611f05565b8473ffffffffffffffffffffffffffffffffffffffff1663a9059cbb84846040518363ffffffff1660e01b8152600401611ec192919061535a565b6020604051808303816000875af1158015611ee0573d6000803e3d6000fd5b505050506040513d601f19601f82011682018060405250810190611f049190615398565b5b505050505050565b60055481565b600060e08560001b901b60e01c8260601b858560601b604051602001611f3c94939291906158a1565b604051602081830303815290604052611f5490615914565b60001c9050949350505050565b60038181548110611f7157600080fd5b906000526020600020016000915054906101000a900473ffffffffffffffffffffffffffffffffffffffff1681565b600f6020528060005260406000206000915090508060000154908060010154908060020160009054906101000a900473ffffffffffffffffffffffffffffffffffffffff16905083565b60048181548110611ffa57600080fd5b906000526020600020016000915054906101000a900473ffffffffffffffffffffffffffffffffffffffff1681565b600161203481613976565b61207557336040517f06246cc500000000000000000000000000000000000000000000000000000000815260040161206c91906147a2565b60405180910390fd5b7f000000000000000000000000000000000000000000000000000000000000000073ffffffffffffffffffffffffffffffffffffffff1663c3c5a547836040518263ffffffff1660e01b81526004016120ce91906147a2565b602060405180830381865afa1580156120eb573d6000803e3d6000fd5b505050506040513d601f19601f8201168201806040525081019061210f9190615398565b61211857600080fd5b60166000847bffffffffffffffffffffffffffffffffffffffffffffffffffffffff19167bffffffffffffffffffffffffffffffffffffffffffffffffffffffff1916815260200190815260200160002060009054906101000a900460ff161561218157600080fd5b8160016000857bffffffffffffffffffffffffffffffffffffffffffffffffffffffff19167bffffffffffffffffffffffffffffffffffffffffffffffffffffffff1916815260200190815260200160002060006101000a81548173ffffffffffffffffffffffffffffffffffffffff021916908373ffffffffffffffffffffffffffffffffffffffff160217905550505050565b6002818154811061222657600080fd5b90600052602060002090600202016000915090508060000154908060010160009054906101000a900473ffffffffffffffffffffffffffffffffffffffff16905082565b600161227581613976565b6122b657336040517f06246cc50000000000000000000000000000000000000000000000000000000081526004016122ad91906147a2565b60405180910390fd5b602882106122f9576040517f08c379a00000000000000000000000000000000000000000000000000000000081526004016122f0906159c7565b60405180910390fd5b8160066000857bffffffffffffffffffffffffffffffffffffffffffffffffffffffff19167bffffffffffffffffffffffffffffffffffffffffffffffffffffffff1916815260200190815260200160002081905550505050565b61235f838383613b2d565b60006002848154811061237557612374615268565b5b906000526020600020906002020160010160009054906101000a900473ffffffffffffffffffffffffffffffffffffffff1673ffffffffffffffffffffffffffffffffffffffff1663b88b82ba600286815481106123d6576123d5615268565b5b9060005260206000209060020201600001546123f3878787613edb565b6040518363ffffffff1660e01b81526004016124109291906159e7565b6020604051808303816000875af115801561242f573d6000803e3d6000fd5b505050506040513d601f19601f82011682018060405250810190612453919061514b565b9050612461848285856140f6565b50505050565b600060016000837bffffffffffffffffffffffffffffffffffffffffffffffffffffffff19167bffffffffffffffffffffffffffffffffffffffffffffffffffffffff1916815260200190815260200160002060009054906101000a900473ffffffffffffffffffffffffffffffffffffffff169050919050565b600080600d60003373ffffffffffffffffffffffffffffffffffffffff1673ffffffffffffffffffffffffffffffffffffffff16815260200190815260200160002054118061253757506125366001613976565b5b612576576040517f08c379a000000000000000000000000000000000000000000000000000000000815260040161256d906156e3565b60405180910390fd5b6000600581111561258a57612589614c1a565b5b600960010160009054906101000a900460ff1660058111156125af576125ae614c1a565b5b036125d55781600960000160008282546125c991906141f5565b92505081905550612691565b600160058111156125e9576125e8614c1a565b5b600960010160009054906101000a900460ff16600581111561260e5761260d614c1a565b5b036126345781600960000160008282546126289190615234565b92505081905550612690565b6003600581111561264857612647614c1a565b5b600960010160009054906101000a900460ff16600581111561266d5761266c614c1a565b5b0361268f5781600960000160008282546126879190615a17565b925050819055505b5b5b919050565b7f000000000000000000000000000000000000000000000000000000000000000081565b60016126c581613976565b61270657336040517f06246cc50000000000000000000000000000000000000000000000000000000081526004016126fd91906147a2565b60405180910390fd5b8473ffffffffffffffffffffffffffffffffffffffff166342842e0e8585856040518463ffffffff1660e01b8152600401612743939291906157b6565b600060405180830381600087803b15801561275d57600080fd5b505af1158015612771573d6000803e3d6000fd5b505050505050505050565b60078060000154908060010160009054906101000a900460ff16905082565b600060016127a881613976565b6127e957336040517f06246cc50000000000000000000000000000000000000000000000000000000081526004016127e091906147a2565b60405180910390fd5b600073ffffffffffffffffffffffffffffffffffffffff168373ffffffffffffffffffffffffffffffffffffffff160361282257600080fd5b6000600c85604051612834919061573f565b908152602001604051809103902060010154036128b757600b84908060018154018082558091505060019003906000526020600020016000909190919091509080519060200190612886929190614119565b50600b80549050600c8560405161289d919061573f565b908152602001604051809103902060010181905550612950565b6001600d6000600c876040516128cd919061573f565b908152602001604051809103902060000160009054906101000a900473ffffffffffffffffffffffffffffffffffffffff1673ffffffffffffffffffffffffffffffffffffffff1673ffffffffffffffffffffffffffffffffffffffff16815260200190815260200160002060008282546129489190615234565b925050819055505b82600c85604051612961919061573f565b908152602001604051809103902060000160006101000a81548173ffffffffffffffffffffffffffffffffffffffff021916908373ffffffffffffffffffffffffffffffffffffffff1602179055506001600d60008573ffffffffffffffffffffffffffffffffffffffff1673ffffffffffffffffffffffffffffffffffffffff1681526020019081526020016000206000828254612a0091906141f5565b925050819055505092915050565b7f000000000000000000000000000000000000000000000000000000000000000073ffffffffffffffffffffffffffffffffffffffff1663c3c5a547826040518263ffffffff1660e01b8152600401612a6791906147a2565b602060405180830381865afa158015612a84573d6000803e3d6000fd5b505050506040513d601f19601f82011682018060405250810190612aa89190615398565b612ab157600080fd5b8060156000601160030160009054906101000a900462ffffff1662ffffff1662ffffff16815260200190815260200160002060006101000a81548173ffffffffffffffffffffffffffffffffffffffff021916908373ffffffffffffffffffffffffffffffffffffffff1602179055506001601160030160008282829054906101000a900462ffffff16612b459190615a71565b92506101000a81548162ffffff021916908362ffffff16021790555050565b6001612b6f81613976565b612bb057336040517f06246cc5000000000000000000000000000000000000000000000000000000008152600401612ba791906147a2565b60405180910390fd5b600360076000015481548110612bc957612bc8615268565b5b9060005260206000200160009054906101000a900473ffffffffffffffffffffffffffffffffffffffff1673ffffffffffffffffffffffffffffffffffffffff166349d95693836040518263ffffffff1660e01b8152600401612c2c9190614b55565b600060405180830381600087803b158015612c4657600080fd5b505af1158015612c5a573d6000803e3d6000fd5b505050505050565b6001612c6d81613976565b612cae57336040517f06246cc5000000000000000000000000000000000000000000000000000000008152600401612ca591906147a2565b60405180910390fd5b600082118015612cbe5750601e82105b612cfd576040517f08c379a0000000000000000000000000000000000000000000000000000000008152600401612cf4906159c7565b60405180910390fd5b816005819055505050565b60066020528060005260406000206000915090505481565b60006004838390501015612d35576000612da6565b600660008484600090600492612d4d93929190615182565b90612d5891906151d5565b7bffffffffffffffffffffffffffffffffffffffffffffffffffffffff19167bffffffffffffffffffffffffffffffffffffffffffffffffffffffff19168152602001908152602001600020545b90506000600360076000015481548110612dc357612dc2615268565b5b9060005260206000200160009054906101000a900473ffffffffffffffffffffffffffffffffffffffff1673ffffffffffffffffffffffffffffffffffffffff166370a08231336040518263ffffffff1660e01b8152600401612e2691906147a2565b602060405180830381865afa158015612e43573d6000803e3d6000fd5b505050506040513d601f19601f82011682018060405250810190612e67919061514b565b90506005548110158015612e7b5750818110155b612eba576040517f08c379a0000000000000000000000000000000000000000000000000000000008152600401612eb190615af6565b60405180910390fd5b5050505050565b600092915050565b60008073ffffffffffffffffffffffffffffffffffffffff1660016000847bffffffffffffffffffffffffffffffffffffffffffffffffffffffff19167bffffffffffffffffffffffffffffffffffffffffffffffffffffffff1916815260200190815260200160002060009054906101000a900473ffffffffffffffffffffffffffffffffffffffff1673ffffffffffffffffffffffffffffffffffffffff1614159050919050565b60008282604051602001612f8892919061535a565b60405160208183030381529060405280519060200120905092915050565b600060028581548110612fbc57612fbb615268565b5b9060005260206000209060020201600001549050600060028681548110612fe657612fe5615268565b5b906000526020600020906002020160010160009054906101000a900473ffffffffffffffffffffffffffffffffffffffff1690506004848490501061370c576000848460009060049261303b93929190615182565b9061304691906151d5565b905080600e600089815260200190815260200160002060006101000a81548163ffffffff021916908360e01c0217905550600060019050600060606000600f6000867bffffffffffffffffffffffffffffffffffffffffffffffffffffffff19167bffffffffffffffffffffffffffffffffffffffffffffffffffffffff19168152602001908152602001600020600001541461324b578473ffffffffffffffffffffffffffffffffffffffff16638286227560e01b8760405160240161310d9190614b55565b604051602081830303815290604052907bffffffffffffffffffffffffffffffffffffffffffffffffffffffff19166020820180517bffffffffffffffffffffffffffffffffffffffffffffffffffffffff83818316178352505050506040516131779190615305565b6000604051808303816000865af19150503d80600081146131b4576040519150601f19603f3d011682016040523d82523d6000602084013e6131b9565b606091505b508092508193505050811561324a578280156132475750808060200190518101906131e4919061514b565b42600f6000877bffffffffffffffffffffffffffffffffffffffffffffffffffffffff19167bffffffffffffffffffffffffffffffffffffffffffffffffffffffff191681526020019081526020016000206000015461324491906141f5565b11155b92505b5b600073ffffffffffffffffffffffffffffffffffffffff16600f6000867bffffffffffffffffffffffffffffffffffffffffffffffffffffffff19167bffffffffffffffffffffffffffffffffffffffffffffffffffffffff1916815260200190815260200160002060020160009054906101000a900473ffffffffffffffffffffffffffffffffffffffff1673ffffffffffffffffffffffffffffffffffffffff16146134a1578473ffffffffffffffffffffffffffffffffffffffff1663e4b50cb860e01b876040516024016133239190614b55565b604051602081830303815290604052907bffffffffffffffffffffffffffffffffffffffffffffffffffffffff19166020820180517bffffffffffffffffffffffffffffffffffffffffffffffffffffffff838183161783525050505060405161338d9190615305565b6000604051808303816000865af19150503d80600081146133ca576040519150601f19603f3d011682016040523d82523d6000602084013e6133cf565b606091505b50809250819350505081156134a05782801561349d5750600f6000857bffffffffffffffffffffffffffffffffffffffffffffffffffffffff19167bffffffffffffffffffffffffffffffffffffffffffffffffffffffff1916815260200190815260200160002060020160009054906101000a900473ffffffffffffffffffffffffffffffffffffffff1673ffffffffffffffffffffffffffffffffffffffff16818060200190518101906134859190615b2b565b73ffffffffffffffffffffffffffffffffffffffff16145b92505b5b6000600f6000867bffffffffffffffffffffffffffffffffffffffffffffffffffffffff19167bffffffffffffffffffffffffffffffffffffffffffffffffffffffff19168152602001908152602001600020600101541461368b578473ffffffffffffffffffffffffffffffffffffffff16637c5a43ec60e01b8760405160240161352d9190614b55565b604051602081830303815290604052907bffffffffffffffffffffffffffffffffffffffffffffffffffffffff19166020820180517bffffffffffffffffffffffffffffffffffffffffffffffffffffffff83818316178352505050506040516135979190615305565b6000604051808303816000865af19150503d80600081146135d4576040519150601f19603f3d011682016040523d82523d6000602084013e6135d9565b606091505b508092508193505050600080828060200190518101906135f99190615b58565b9150915084801561368657506000811461362c5780620186a08361361d9190615a17565b6136279190615bc7565b61362e565b815b600f6000887bffffffffffffffffffffffffffffffffffffffffffffffffffffffff19167bffffffffffffffffffffffffffffffffffffffffffffffffffffffff191681526020019081526020016000206001015411155b945050505b826136cb576040517f08c379a00000000000000000000000000000000000000000000000000000000081526004016136c290615c44565b60405180910390fd5b897f314573b73d7d4ee49c8816e8b989bce584519ef7ed22ad80bc08600fd57f3c67338a8a6040516136ff93929190615c64565b60405180910390a2505050505b60036007600001548154811061372557613724615268565b5b9060005260206000200160009054906101000a900473ffffffffffffffffffffffffffffffffffffffff1673ffffffffffffffffffffffffffffffffffffffff1663d113cc8033846000357fffffffff0000000000000000000000000000000000000000000000000000000016856040518563ffffffff1660e01b81526004016137b29493929190615c96565b600060405180830381600087803b1580156137cc57600080fd5b505af11580156137e0573d6000803e3d6000fd5b505050506001601160000160008282546137fa91906141f5565b92505081905550505050505050565b50565b80156139555760036007600001548154811061382b5761382a615268565b5b9060005260206000200160009054906101000a900473ffffffffffffffffffffffffffffffffffffffff1673ffffffffffffffffffffffffffffffffffffffff1663d113cc80336002858154811061388657613885615268565b5b9060005260206000209060020201600001546000357fffffffff0000000000000000000000000000000000000000000000000000000016600287815481106138d1576138d0615268565b5b906000526020600020906002020160010160009054906101000a900473ffffffffffffffffffffffffffffffffffffffff166040518563ffffffff1660e01b81526004016139229493929190615c96565b600060405180830381600087803b15801561393c57600080fd5b505af1158015613950573d6000803e3d6000fd5b505050505b60016011600201600082825461396b91906141f5565b925050819055505050565b6000803373ffffffffffffffffffffffffffffffffffffffff166001600080357fffffffff00000000000000000000000000000000000000000000000000000000167bffffffffffffffffffffffffffffffffffffffffffffffffffffffff19167bffffffffffffffffffffffffffffffffffffffffffffffffffffffff1916815260200190815260200160002060009054906101000a900473ffffffffffffffffffffffffffffffffffffffff1673ffffffffffffffffffffffffffffffffffffffff16149050821580613a49575080155b15613a575780915050613ad4565b602460003690501015613a6e576000915050613ad4565b6000803660206000369050613a839190615234565b90600036905092613a9693929190615182565b90613aa19190615cdb565b60001c9050600080613ab33384612f73565b815260200190815260200160002060009054906101000a900460ff16925050505b919050565b6000828251602084016000f5905092915050565b600060ff60f81b306000801b84604051602001613b0d9493929190615df0565b6040516020818303038152906040528051906020012060001c9050919050565b6000600e600085815260200190815260200160002060009054906101000a900460e01b9050600060e01b7bffffffffffffffffffffffffffffffffffffffffffffffffffffffff1916817bffffffffffffffffffffffffffffffffffffffffffffffffffffffff191614158015613c445750600073ffffffffffffffffffffffffffffffffffffffff16600f6000837bffffffffffffffffffffffffffffffffffffffffffffffffffffffff19167bffffffffffffffffffffffffffffffffffffffffffffffffffffffff1916815260200190815260200160002060020160009054906101000a900473ffffffffffffffffffffffffffffffffffffffff1673ffffffffffffffffffffffffffffffffffffffff16145b15613c96576000600d60003373ffffffffffffffffffffffffffffffffffffffff1673ffffffffffffffffffffffffffffffffffffffff1681526020019081526020016000205411613c9557600080fd5b5b600060028581548110613cac57613cab615268565b5b9060005260206000209060020201600001549050600060028681548110613cd657613cd5615268565b5b906000526020600020906002020160010160009054906101000a900473ffffffffffffffffffffffffffffffffffffffff169050600360076000015481548110613d2357613d22615268565b5b9060005260206000200160009054906101000a900473ffffffffffffffffffffffffffffffffffffffff1673ffffffffffffffffffffffffffffffffffffffff16634f558e79613d99846000357fffffffff00000000000000000000000000000000000000000000000000000000168533611f13565b6040518263ffffffff1660e01b8152600401613db59190614b55565b602060405180830381865afa158015613dd2573d6000803e3d6000fd5b505050506040513d601f19601f82011682018060405250810190613df69190615398565b613ed357600360076000015481548110613e1357613e12615268565b5b9060005260206000200160009054906101000a900473ffffffffffffffffffffffffffffffffffffffff1673ffffffffffffffffffffffffffffffffffffffff1663d113cc8033846000357fffffffff0000000000000000000000000000000000000000000000000000000016856040518563ffffffff1660e01b8152600401613ea09493929190615c96565b600060405180830381600087803b158015613eba57600080fd5b505af1158015613ece573d6000803e3d6000fd5b505050505b505050505050565b606060008060028681548110613ef457613ef3615268565b5b906000526020600020906002020160010160009054906101000a900473ffffffffffffffffffffffffffffffffffffffff1673ffffffffffffffffffffffffffffffffffffffff16631d64c4f260e01b60028881548110613f5857613f57615268565b5b906000526020600020906002020160000154604051602401613f7a9190614b55565b604051602081830303815290604052907bffffffffffffffffffffffffffffffffffffffffffffffffffffffff19166020820180517bffffffffffffffffffffffffffffffffffffffffffffffffffffffff8381831617835250505050604051613fe49190615305565b6000604051808303816000865af19150503d8060008114614021576040519150601f19603f3d011682016040523d82523d6000602084013e614026565b606091505b509150915081156140a557600060028081111561404657614045614c1a565b5b8280602001905181019061405a9190615e63565b600281111561406c5761406b614c1a565b5b14905080156140a35733868660405160200161408a93929190615e90565b60405160208183030381529060405293505050506140ef565b505b84848080601f016020809104026020016040519081016040528093929190818152602001838380828437600081840152601f19601f82011690508083019250505050505050925050505b9392505050565b60016011600101600082825461410c91906141f5565b9250508190555050505050565b82805461412590615785565b90600052602060002090601f016020900481019282614147576000855561418e565b82601f1061416057805160ff191683800117855561418e565b8280016001018555821561418e579182015b8281111561418d578251825591602001919060010190614172565b5b50905061419b919061419f565b5090565b5b808211156141b85760008160009055506001016141a0565b5090565b6000819050919050565b7f4e487b7100000000000000000000000000000000000000000000000000000000600052601160045260246000fd5b6000614200826141bc565b915061420b836141bc565b9250827fffffffffffffffffffffffffffffffffffffffffffffffffffffffffffffffff038211156142405761423f6141c6565b5b828201905092915050565b6000604051905090565b600080fd5b600080fd5b600080fd5b600080fd5b6000601f19601f8301169050919050565b7f4e487b7100000000000000000000000000000000000000000000000000000000600052604160045260246000fd5b6142b282614269565b810181811067ffffffffffffffff821117156142d1576142d061427a565b5b80604052505050565b60006142e461424b565b90506142f082826142a9565b919050565b600067ffffffffffffffff8211156143105761430f61427a565b5b61431982614269565b9050602081019050919050565b82818337600083830152505050565b6000614348614343846142f5565b6142da565b90508281526020810184848401111561436457614363614264565b5b61436f848285614326565b509392505050565b600082601f83011261438c5761438b61425f565b5b813561439c848260208601614335565b91505092915050565b600080fd5b600080fd5b60008083601f8401126143c5576143c461425f565b5b8235905067ffffffffffffffff8111156143e2576143e16143a5565b5b6020830191508360018202830111156143fe576143fd6143aa565b5b9250929050565b60008060006040848603121561441e5761441d614255565b5b600084013567ffffffffffffffff81111561443c5761443b61425a565b5b61444886828701614377565b935050602084013567ffffffffffffffff8111156144695761446861425a565b5b614475868287016143af565b92509250509250925092565b600073ffffffffffffffffffffffffffffffffffffffff82169050919050565b60006144ac82614481565b9050919050565b6144bc816144a1565b81146144c757600080fd5b50565b6000813590506144d9816144b3565b92915050565b6144e8816141bc565b81146144f357600080fd5b50565b600081359050614505816144df565b92915050565b60008060008060006080868803121561452757614526614255565b5b6000614535888289016144ca565b9550506020614546888289016144ca565b9450506040614557888289016144f6565b935050606086013567ffffffffffffffff8111156145785761457761425a565b5b614584888289016143af565b92509250509295509295909350565b60007fffffffff0000000000000000000000000000000000000000000000000000000082169050919050565b6145c881614593565b82525050565b60006020820190506145e360008301846145bf565b92915050565b60008060006040848603121561460257614601614255565b5b6000614610868287016144f6565b935050602084013567ffffffffffffffff8111156146315761463061425a565b5b61463d868287016143af565b92509250509250925092565b60008115159050919050565b61465e81614649565b811461466957600080fd5b50565b60008135905061467b81614655565b92915050565b60006020828403121561469757614696614255565b5b60006146a58482850161466c565b91505092915050565b6000806000606084860312156146c7576146c6614255565b5b60006146d5868287016144ca565b93505060206146e6868287016144ca565b92505060406146f7868287016144f6565b9150509250925092565b6000819050919050565b61471481614701565b811461471f57600080fd5b50565b6000813590506147318161470b565b92915050565b6000806040838503121561474e5761474d614255565b5b600061475c85828601614722565b925050602083013567ffffffffffffffff81111561477d5761477c61425a565b5b61478985828601614377565b9150509250929050565b61479c816144a1565b82525050565b60006020820190506147b76000830184614793565b92915050565b6000602082840312156147d3576147d2614255565b5b60006147e1848285016144f6565b91505092915050565b6000806000806060858703121561480457614803614255565b5b6000614812878288016144ca565b945050602085013567ffffffffffffffff8111156148335761483261425a565b5b61483f878288016143af565b93509350506040614852878288016144f6565b91505092959194509250565b600062ffffff82169050919050565b6148768161485e565b811461488157600080fd5b50565b6000813590506148938161486d565b92915050565b6000602082840312156148af576148ae614255565b5b60006148bd84828501614884565b91505092915050565b6000806000606084860312156148df576148de614255565b5b60006148ed86828701614722565b935050602084013567ffffffffffffffff81111561490e5761490d61425a565b5b61491a86828701614377565b925050604061492b868287016144ca565b9150509250925092565b600061494082614481565b9050919050565b61495081614935565b811461495b57600080fd5b50565b60008135905061496d81614947565b92915050565b6000806040838503121561498a57614989614255565b5b60006149988582860161495e565b92505060206149a9858286016144f6565b9150509250929050565b600681106149c057600080fd5b50565b6000813590506149d2816149b3565b92915050565b6000602082840312156149ee576149ed614255565b5b60006149fc848285016149c3565b91505092915050565b614a0e81614649565b82525050565b6000602082019050614a296000830184614a05565b92915050565b600067ffffffffffffffff821115614a4a57614a4961427a565b5b614a5382614269565b9050602081019050919050565b6000614a73614a6e84614a2f565b6142da565b905082815260208101848484011115614a8f57614a8e614264565b5b614a9a848285614326565b509392505050565b600082601f830112614ab757614ab661425f565b5b8135614ac7848260208601614a60565b91505092915050565b600060208284031215614ae657614ae5614255565b5b600082013567ffffffffffffffff811115614b0457614b0361425a565b5b614b1084828501614aa2565b91505092915050565b600060208284031215614b2f57614b2e614255565b5b6000614b3d848285016144ca565b91505092915050565b614b4f816141bc565b82525050565b6000602082019050614b6a6000830184614b46565b92915050565b600081519050919050565b600082825260208201905092915050565b60005b83811015614baa578082015181840152602081019050614b8f565b83811115614bb9576000848401525b50505050565b6000614bca82614b70565b614bd48185614b7b565b9350614be4818560208601614b8c565b614bed81614269565b840191505092915050565b60006020820190508181036000830152614c128184614bbf565b905092915050565b7f4e487b7100000000000000000000000000000000000000000000000000000000600052602160045260246000fd5b60068110614c5a57614c59614c1a565b5b50565b6000819050614c6b82614c49565b919050565b6000614c7b82614c5d565b9050919050565b614c8b81614c70565b82525050565b6000604082019050614ca66000830185614b46565b614cb36020830184614c82565b9392505050565b614cc381614593565b8114614cce57600080fd5b50565b600081359050614ce081614cba565b92915050565b600060208284031215614cfc57614cfb614255565b5b6000614d0a84828501614cd1565b91505092915050565b614d1c8161485e565b82525050565b6000608082019050614d376000830187614b46565b614d446020830186614b46565b614d516040830185614b46565b614d5e6060830184614d13565b95945050505050565b60008060008060808587031215614d8157614d80614255565b5b6000614d8f87828801614cd1565b9450506020614da0878288016144f6565b9350506040614db1878288016144f6565b9250506060614dc2878288016144ca565b91505092959194509250565b60008060008060808587031215614de857614de7614255565b5b6000614df6878288016144ca565b9450506020614e07878288016144ca565b9350506040614e18878288016144ca565b9250506060614e29878288016144f6565b91505092959194509250565b60008060008060808587031215614e4f57614e4e614255565b5b6000614e5d878288016144f6565b9450506020614e6e87828801614cd1565b9350506040614e7f878288016144ca565b9250506060614e90878288016144ca565b91505092959194509250565b6000819050919050565b6000614ec1614ebc614eb784614481565b614e9c565b614481565b9050919050565b6000614ed382614ea6565b9050919050565b6000614ee582614ec8565b9050919050565b614ef581614eda565b82525050565b6000602082019050614f106000830184614eec565b92915050565b6000606082019050614f2b6000830186614b46565b614f386020830185614b46565b614f456040830184614793565b949350505050565b60008060408385031215614f6457614f63614255565b5b6000614f7285828601614cd1565b9250506020614f83858286016144ca565b9150509250929050565b6000604082019050614fa26000830185614b46565b614faf6020830184614793565b9392505050565b60008060408385031215614fcd57614fcc614255565b5b6000614fdb85828601614cd1565b9250506020614fec858286016144f6565b9150509250929050565b600060408201905061500b6000830185614b46565b6150186020830184614a05565b9392505050565b6000806040838503121561503657615035614255565b5b600083013567ffffffffffffffff8111156150545761505361425a565b5b61506085828601614aa2565b9250506020615071858286016144ca565b9150509250929050565b600081519050919050565b600082825260208201905092915050565b60006150a28261507b565b6150ac8185615086565b93506150bc818560208601614b8c565b6150c581614269565b840191505092915050565b60006150dc8385615086565b93506150e9838584614326565b6150f283614269565b840190509392505050565b600060408201905081810360008301526151178186615097565b9050818103602083015261512c8184866150d0565b9050949350505050565b600081519050615145816144df565b92915050565b60006020828403121561516157615160614255565b5b600061516f84828501615136565b91505092915050565b600080fd5b600080fd5b6000808585111561519657615195615178565b5b838611156151a7576151a661517d565b5b6001850283019150848603905094509492505050565b600082905092915050565b600082821b905092915050565b60006151e183836151bd565b826151ec8135614593565b9250600482101561522c576152277fffffffff00000000000000000000000000000000000000000000000000000000836004036008026151c8565b831692505b505092915050565b600061523f826141bc565b915061524a836141bc565b92508282101561525d5761525c6141c6565b5b828203905092915050565b7f4e487b7100000000000000000000000000000000000000000000000000000000600052603260045260246000fd5b60006040820190506152ac6000830186614b46565b81810360208301526152bf8184866150d0565b9050949350505050565b600081905092915050565b60006152df8261507b565b6152e981856152c9565b93506152f9818560208601614b8c565b80840191505092915050565b600061531182846152d4565b915081905092915050565b60006060820190506153316000830186614793565b61533e6020830185614a05565b81810360408301526153508184615097565b9050949350505050565b600060408201905061536f6000830185614793565b61537c6020830184614b46565b9392505050565b60008151905061539281614655565b92915050565b6000602082840312156153ae576153ad614255565b5b60006153bc84828501615383565b91505092915050565b60006040820190506153da6000830185614b46565b6153e76020830184614b46565b9392505050565b7f6e6f7420656e6f7567682066756e647300000000000000000000000000000000600082015250565b6000615424601083614b7b565b915061542f826153ee565b602082019050919050565b6000602082019050818103600083015261545381615417565b9050919050565b600061546683856152c9565b9350615473838584614326565b82840190509392505050565b600061548c82848661545a565b91508190509392505050565b7f6e6f74207375636365737366756c000000000000000000000000000000000000600082015250565b60006154ce600e83614b7b565b91506154d982615498565b602082019050919050565b600060208201905081810360008301526154fd816154c1565b9050919050565b7f57726f6e672042797465436f6465000000000000000000000000000000000000600082015250565b600061553a600e83614b7b565b915061554582615504565b602082019050919050565b600060208201905081810360008301526155698161552d565b9050919050565b6000819050919050565b600061559561559061558b84615570565b614e9c565b6141bc565b9050919050565b6155a58161557a565b82525050565b60006080820190506155c06000830187614793565b6155cd602083018661559c565b6155da60408301856145bf565b6155e76060830184614793565b95945050505050565b50565b60006156006000836152c9565b915061560b826155f0565b600082019050919050565b6000615621826155f3565b9150819050919050565b7f4661696c656420746f2073656e64000000000000000000000000000000000000600082015250565b6000615661600e83614b7b565b915061566c8261562b565b602082019050919050565b6000602082019050818103600083015261569081615654565b9050919050565b7f6e6f7420616c6c6f776564000000000000000000000000000000000000000000600082015250565b60006156cd600b83614b7b565b91506156d882615697565b602082019050919050565b600060208201905081810360008301526156fc816156c0565b9050919050565b600081905092915050565b600061571982614b70565b6157238185615703565b9350615733818560208601614b8c565b80840191505092915050565b600061574b828461570e565b915081905092915050565b7f4e487b7100000000000000000000000000000000000000000000000000000000600052602260045260246000fd5b6000600282049050600182168061579d57607f821691505b6020821081036157b0576157af615756565b5b50919050565b60006060820190506157cb6000830186614793565b6157d86020830185614793565b6157e56040830184614b46565b949350505050565b600063ffffffff82169050919050565b60008160e01b9050919050565b6000615815826157fd565b9050919050565b61582d615828826157ed565b61580a565b82525050565b60007fffffffffffffffffffffffff000000000000000000000000000000000000000082169050919050565b6000819050919050565b61587a61587582615833565b61585f565b82525050565b6000819050919050565b61589b61589682614593565b615880565b82525050565b60006158ad828761581c565b6004820191506158bd8286615869565b600c820191506158cd828561588a565b6004820191506158dd8284615869565b600c8201915081905095945050505050565b6000819050602082019050919050565b600061590b8251614701565b80915050919050565b600061591f8261507b565b82615929846158ef565b9050615934816158ff565b925060208210156159745761596f7fffffffffffffffffffffffffffffffffffffffffffffffffffffffffffffffff836020036008026151c8565b831692505b5050919050565b7f4d7573742062652077697468696e20626f756e64730000000000000000000000600082015250565b60006159b1601583614b7b565b91506159bc8261597b565b602082019050919050565b600060208201905081810360008301526159e0816159a4565b9050919050565b60006040820190506159fc6000830185614b46565b8181036020830152615a0e8184615097565b90509392505050565b6000615a22826141bc565b9150615a2d836141bc565b9250817fffffffffffffffffffffffffffffffffffffffffffffffffffffffffffffffff0483118215151615615a6657615a656141c6565b5b828202905092915050565b6000615a7c8261485e565b9150615a878361485e565b92508262ffffff03821115615a9f57615a9e6141c6565b5b828201905092915050565b7f4e6f7420656e6f75676820626164676573000000000000000000000000000000600082015250565b6000615ae0601183614b7b565b9150615aeb82615aaa565b602082019050919050565b60006020820190508181036000830152615b0f81615ad3565b9050919050565b600081519050615b2581614947565b92915050565b600060208284031215615b4157615b40614255565b5b6000615b4f84828501615b16565b91505092915050565b60008060408385031215615b6f57615b6e614255565b5b6000615b7d85828601615136565b9250506020615b8e85828601615136565b9150509250929050565b7f4e487b7100000000000000000000000000000000000000000000000000000000600052601260045260246000fd5b6000615bd2826141bc565b9150615bdd836141bc565b925082615bed57615bec615b98565b5b828204905092915050565b7f496e76616c696420506172616d65746572730000000000000000000000000000600082015250565b6000615c2e601283614b7b565b9150615c3982615bf8565b602082019050919050565b60006020820190508181036000830152615c5d81615c21565b9050919050565b6000604082019050615c796000830186614793565b8181036020830152615c8c8184866150d0565b9050949350505050565b6000608082019050615cab6000830187614793565b615cb86020830186614b46565b615cc560408301856145bf565b615cd26060830184614793565b95945050505050565b6000615ce783836151bd565b82615cf28135614701565b92506020821015615d3257615d2d7fffffffffffffffffffffffffffffffffffffffffffffffffffffffffffffffff836020036008026151c8565b831692505b505092915050565b60007fff0000000000000000000000000000000000000000000000000000000000000082169050919050565b6000819050919050565b615d81615d7c82615d3a565b615d66565b82525050565b60008160601b9050919050565b6000615d9f82615d87565b9050919050565b6000615db182615d94565b9050919050565b615dc9615dc4826144a1565b615da6565b82525050565b6000819050919050565b615dea615de582614701565b615dcf565b82525050565b6000615dfc8287615d70565b600182019150615e0c8286615db8565b601482019150615e1c8285615dd9565b602082019150615e2c8284615dd9565b60208201915081905095945050505050565b60038110615e4b57600080fd5b50565b600081519050615e5d81615e3e565b92915050565b600060208284031215615e7957615e78614255565b5b6000615e8784828501615e4e565b91505092915050565b6000615e9c8286615db8565b601482019150615ead82848661545a565b915081905094935050505056fea26469706673582212208c2ebe0a1b9bd7fed857aefa189acfb38e2301b26a65dd7e8148d70e03c23e1864736f6c634300080d0033",
  "linkReferences": {},
  "deployedLinkReferences": {}
}