{
  "_format": "hh-sol-artifact-1",
  "contractName": "StartHybridVotingMinmlExample",
  "sourceName": "src/examples/integrations/StartHybridVoting.sol",
  "abi": [
    {
      "inputs": [
        {
          "internalType": "address",
          "name": "_votingContractOne",
          "type": "address"
        },
        {
          "internalType": "address",
          "name": "_votingContractTwo",
          "type": "address"
        }
      ],
      "stateMutability": "nonpayable",
      "type": "constructor"
    },
    {
      "inputs": [
        {
          "internalType": "address",
          "name": "imposter",
          "type": "address"
        }
      ],
      "name": "IsNotImplementer",
      "type": "error"
    },
    {
      "inputs": [
        {
          "internalType": "bytes4",
          "name": "selector",
          "type": "bytes4"
        }
      ],
      "name": "IsNotVotableFunction",
      "type": "error"
    },
    {
      "inputs": [
        {
          "internalType": "address",
          "name": "implementer",
          "type": "address"
        }
      ],
      "name": "OnlyVoteImplementer",
      "type": "error"
    },
    {
      "inputs": [],
      "name": "deployer",
      "outputs": [
        {
          "internalType": "address",
          "name": "",
          "type": "address"
        }
      ],
      "stateMutability": "view",
      "type": "function"
    },
    {
      "inputs": [],
      "name": "i",
      "outputs": [
        {
          "internalType": "uint256",
          "name": "",
          "type": "uint256"
        }
      ],
      "stateMutability": "view",
      "type": "function"
    },
    {
      "inputs": [],
      "name": "increment",
      "outputs": [],
      "stateMutability": "nonpayable",
      "type": "function"
    },
    {
      "inputs": [
        {
          "internalType": "uint256",
          "name": "_i",
          "type": "uint256"
        }
      ],
      "name": "reset",
      "outputs": [],
      "stateMutability": "nonpayable",
      "type": "function"
    },
    {
      "inputs": [
        {
          "internalType": "bytes",
          "name": "votingParams",
          "type": "bytes"
        },
        {
          "internalType": "bytes",
          "name": "callback",
          "type": "bytes"
        }
      ],
      "name": "start",
      "outputs": [],
      "stateMutability": "nonpayable",
      "type": "function"
    },
    {
      "inputs": [],
      "name": "votingContract",
      "outputs": [
        {
          "internalType": "address",
          "name": "",
          "type": "address"
        }
      ],
      "stateMutability": "view",
      "type": "function"
    }
  ],
  "bytecode": "0x60806040523480156200001157600080fd5b50604051620012b9380380620012b983398181016040528101906200003791906200028b565b81600360006101000a81548173ffffffffffffffffffffffffffffffffffffffff021916908373ffffffffffffffffffffffffffffffffffffffff16021790555033600460006101000a81548173ffffffffffffffffffffffffffffffffffffffff021916908373ffffffffffffffffffffffffffffffffffffffff16021790555080600260007fd09de08ab1a974aadf0a76e6f99a2ec20e431f22bbc101a6c3f718e53646ed8d7bffffffffffffffffffffffffffffffffffffffffffffffffffffffff19167bffffffffffffffffffffffffffffffffffffffffffffffffffffffff1916815260200190815260200160002060006101000a81548173ffffffffffffffffffffffffffffffffffffffff021916908373ffffffffffffffffffffffffffffffffffffffff16021790555080600260007f310bd74b1bcdaacf16f6a4234577ac20217c4dd976ab40b2e67577604855f5067bffffffffffffffffffffffffffffffffffffffffffffffffffffffff19167bffffffffffffffffffffffffffffffffffffffffffffffffffffffff1916815260200190815260200160002060006101000a81548173ffffffffffffffffffffffffffffffffffffffff021916908373ffffffffffffffffffffffffffffffffffffffff1602179055505050620002d2565b600080fd5b600073ffffffffffffffffffffffffffffffffffffffff82169050919050565b6000620002538262000226565b9050919050565b620002658162000246565b81146200027157600080fd5b50565b60008151905062000285816200025a565b92915050565b60008060408385031215620002a557620002a462000221565b5b6000620002b58582860162000274565b9250506020620002c88582860162000274565b9150509250929050565b610fd780620002e26000396000f3fe608060405234801561001057600080fd5b50600436106100625760003560e01c80631080156e14610067578063310bd74b14610083578063c1fc006a1461009f578063d09de08a146100bd578063d5f39488146100c7578063e5aa3d58146100e5575b600080fd5b610081600480360381019061007c91906109c6565b610103565b005b61009d60048036038101906100989190610a78565b6103d5565b005b6100a7610482565b6040516100b49190610ae6565b60405180910390f35b6100c56104a8565b005b6100cf61050c565b6040516100dc9190610ae6565b60405180910390f35b6100ed610532565b6040516100fa9190610b10565b60405180910390f35b61010c83610538565b60048282905010156101c057600360009054906101000a900473ffffffffffffffffffffffffffffffffffffffff1673ffffffffffffffffffffffffffffffffffffffff16631080156e8484846040518463ffffffff1660e01b815260040161017793929190610be0565b6020604051808303816000875af1158015610196573d6000803e3d6000fd5b505050506040513d601f19601f820116820180604052508101906101ba9190610c2e565b506103d0565b600082826000906004926101d693929190610c65565b906101e19190610ce4565b90506101ec816105cb565b61022d57806040517f35be8c290000000000000000000000000000000000000000000000000000000081526004016102249190610d52565b60405180910390fd5b600060026000837bffffffffffffffffffffffffffffffffffffffffffffffffffffffff19167bffffffffffffffffffffffffffffffffffffffffffffffffffffffff1916815260200190815260200160002060009054906101000a900473ffffffffffffffffffffffffffffffffffffffff1673ffffffffffffffffffffffffffffffffffffffff16631080156e8686866040518463ffffffff1660e01b81526004016102dd93929190610be0565b6020604051808303816000875af11580156102fc573d6000803e3d6000fd5b505050506040513d601f19601f820116820180604052508101906103209190610c2e565b9050600061039f60026000857bffffffffffffffffffffffffffffffffffffffffffffffffffffffff19167bffffffffffffffffffffffffffffffffffffffffffffffffffffffff1916815260200190815260200160002060009054906101000a900473ffffffffffffffffffffffffffffffffffffffff1683610675565b9050600180600083815260200190815260200160002060006101000a81548160ff0219169083151502179055505050505b505050565b60013373ffffffffffffffffffffffffffffffffffffffff16600460009054906101000a900473ffffffffffffffffffffffffffffffffffffffff1673ffffffffffffffffffffffffffffffffffffffff1614806104385750610437816106a8565b5b610477576040517f08c379a000000000000000000000000000000000000000000000000000000000815260040161046e90610dca565b60405180910390fd5b816000819055505050565b600360009054906101000a900473ffffffffffffffffffffffffffffffffffffffff1681565b60016104b3816106a8565b6104f457336040517f06246cc50000000000000000000000000000000000000000000000000000000081526004016104eb9190610ae6565b60405180910390fd5b60016000546105039190610e19565b60008190555050565b600460009054906101000a900473ffffffffffffffffffffffffffffffffffffffff1681565b60005481565b600460009054906101000a900473ffffffffffffffffffffffffffffffffffffffff1673ffffffffffffffffffffffffffffffffffffffff163373ffffffffffffffffffffffffffffffffffffffff16146105c8576040517f08c379a00000000000000000000000000000000000000000000000000000000081526004016105bf90610ebb565b60405180910390fd5b50565b60008073ffffffffffffffffffffffffffffffffffffffff1660026000847bffffffffffffffffffffffffffffffffffffffffffffffffffffffff19167bffffffffffffffffffffffffffffffffffffffffffffffffffffffff1916815260200190815260200160002060009054906101000a900473ffffffffffffffffffffffffffffffffffffffff1673ffffffffffffffffffffffffffffffffffffffff1614159050919050565b6000828260405160200161068a929190610edb565b60405160208183030381529060405280519060200120905092915050565b6000803373ffffffffffffffffffffffffffffffffffffffff166002600080357fffffffff00000000000000000000000000000000000000000000000000000000167bffffffffffffffffffffffffffffffffffffffffffffffffffffffff19167bffffffffffffffffffffffffffffffffffffffffffffffffffffffff1916815260200190815260200160002060009054906101000a900473ffffffffffffffffffffffffffffffffffffffff1673ffffffffffffffffffffffffffffffffffffffff1614905082158061077b575080155b156107895780915050610807565b6024600036905010156107a0576000915050610807565b60008036602060003690506107b59190610f04565b906000369050926107c893929190610c65565b906107d39190610f42565b60001c9050600160006107e63384610675565b815260200190815260200160002060009054906101000a900460ff16925050505b919050565b6000604051905090565b600080fd5b600080fd5b600080fd5b600080fd5b6000601f19601f8301169050919050565b7f4e487b7100000000000000000000000000000000000000000000000000000000600052604160045260246000fd5b6108738261082a565b810181811067ffffffffffffffff821117156108925761089161083b565b5b80604052505050565b60006108a561080c565b90506108b1828261086a565b919050565b600067ffffffffffffffff8211156108d1576108d061083b565b5b6108da8261082a565b9050602081019050919050565b82818337600083830152505050565b6000610909610904846108b6565b61089b565b90508281526020810184848401111561092557610924610825565b5b6109308482856108e7565b509392505050565b600082601f83011261094d5761094c610820565b5b813561095d8482602086016108f6565b91505092915050565b600080fd5b600080fd5b60008083601f84011261098657610985610820565b5b8235905067ffffffffffffffff8111156109a3576109a2610966565b5b6020830191508360018202830111156109bf576109be61096b565b5b9250929050565b6000806000604084860312156109df576109de610816565b5b600084013567ffffffffffffffff8111156109fd576109fc61081b565b5b610a0986828701610938565b935050602084013567ffffffffffffffff811115610a2a57610a2961081b565b5b610a3686828701610970565b92509250509250925092565b6000819050919050565b610a5581610a42565b8114610a6057600080fd5b50565b600081359050610a7281610a4c565b92915050565b600060208284031215610a8e57610a8d610816565b5b6000610a9c84828501610a63565b91505092915050565b600073ffffffffffffffffffffffffffffffffffffffff82169050919050565b6000610ad082610aa5565b9050919050565b610ae081610ac5565b82525050565b6000602082019050610afb6000830184610ad7565b92915050565b610b0a81610a42565b82525050565b6000602082019050610b256000830184610b01565b92915050565b600081519050919050565b600082825260208201905092915050565b60005b83811015610b65578082015181840152602081019050610b4a565b83811115610b74576000848401525b50505050565b6000610b8582610b2b565b610b8f8185610b36565b9350610b9f818560208601610b47565b610ba88161082a565b840191505092915050565b6000610bbf8385610b36565b9350610bcc8385846108e7565b610bd58361082a565b840190509392505050565b60006040820190508181036000830152610bfa8186610b7a565b90508181036020830152610c0f818486610bb3565b9050949350505050565b600081519050610c2881610a4c565b92915050565b600060208284031215610c4457610c43610816565b5b6000610c5284828501610c19565b91505092915050565b600080fd5b600080fd5b60008085851115610c7957610c78610c5b565b5b83861115610c8a57610c89610c60565b5b6001850283019150848603905094509492505050565b600082905092915050565b60007fffffffff0000000000000000000000000000000000000000000000000000000082169050919050565b600082821b905092915050565b6000610cf08383610ca0565b82610cfb8135610cab565b92506004821015610d3b57610d367fffffffff0000000000000000000000000000000000000000000000000000000083600403600802610cd7565b831692505b505092915050565b610d4c81610cab565b82525050565b6000602082019050610d676000830184610d43565b92915050565b600082825260208201905092915050565b7f4f6e6c79206465706c6f796572206f7220627920766f74650000000000000000600082015250565b6000610db4601883610d6d565b9150610dbf82610d7e565b602082019050919050565b60006020820190508181036000830152610de381610da7565b9050919050565b7f4e487b7100000000000000000000000000000000000000000000000000000000600052601160045260246000fd5b6000610e2482610a42565b9150610e2f83610a42565b9250827fffffffffffffffffffffffffffffffffffffffffffffffffffffffffffffffff03821115610e6457610e63610dea565b5b828201905092915050565b7f4f6e6c79206465706c6f79657200000000000000000000000000000000000000600082015250565b6000610ea5600d83610d6d565b9150610eb082610e6f565b602082019050919050565b60006020820190508181036000830152610ed481610e98565b9050919050565b6000604082019050610ef06000830185610ad7565b610efd6020830184610b01565b9392505050565b6000610f0f82610a42565b9150610f1a83610a42565b925082821015610f2d57610f2c610dea565b5b828203905092915050565b6000819050919050565b6000610f4e8383610ca0565b82610f598135610f38565b92506020821015610f9957610f947fffffffffffffffffffffffffffffffffffffffffffffffffffffffffffffffff83602003600802610cd7565b831692505b50509291505056fea2646970667358221220dc74987634dd4d06077e9fe02f8d31365cc1ee02d759ee6cd8b9288755806dca64736f6c634300080d0033",
  "linkReferences": {},
  "deployedLinkReferences": {}
}