{
  "_format": "hh-sol-artifact-1",
  "contractName": "StartHybridVotingHooksExample",
  "sourceName": "src/examples/integrations/StartHybridVoting.sol",
  "abi": [
    {
      "inputs": [
        {
          "internalType": "address",
          "name": "_votingContractOne",
          "type": "address"
        },
        {
          "internalType": "address",
          "name": "_votingContractTwo",
          "type": "address"
        }
      ],
      "stateMutability": "nonpayable",
      "type": "constructor"
    },
    {
      "inputs": [
        {
          "internalType": "address",
          "name": "imposter",
          "type": "address"
        }
      ],
      "name": "IsNotImplementer",
      "type": "error"
    },
    {
      "inputs": [
        {
          "internalType": "bytes4",
          "name": "selector",
          "type": "bytes4"
        }
      ],
      "name": "IsNotVotableFunction",
      "type": "error"
    },
    {
      "inputs": [
        {
          "internalType": "address",
          "name": "implementer",
          "type": "address"
        }
      ],
      "name": "OnlyVoteImplementer",
      "type": "error"
    },
    {
      "inputs": [],
      "name": "deployer",
      "outputs": [
        {
          "internalType": "address",
          "name": "",
          "type": "address"
        }
      ],
      "stateMutability": "view",
      "type": "function"
    },
    {
      "inputs": [],
      "name": "i",
      "outputs": [
        {
          "internalType": "uint256",
          "name": "",
          "type": "uint256"
        }
      ],
      "stateMutability": "view",
      "type": "function"
    },
    {
      "inputs": [],
      "name": "increment",
      "outputs": [],
      "stateMutability": "nonpayable",
      "type": "function"
    },
    {
      "inputs": [],
      "name": "numberOfInstances",
      "outputs": [
        {
          "internalType": "uint256",
          "name": "",
          "type": "uint256"
        }
      ],
      "stateMutability": "view",
      "type": "function"
    },
    {
      "inputs": [
        {
          "internalType": "uint256",
          "name": "_i",
          "type": "uint256"
        }
      ],
      "name": "reset",
      "outputs": [],
      "stateMutability": "nonpayable",
      "type": "function"
    },
    {
      "inputs": [
        {
          "internalType": "bytes",
          "name": "votingParams",
          "type": "bytes"
        },
        {
          "internalType": "bytes",
          "name": "callback",
          "type": "bytes"
        }
      ],
      "name": "start",
      "outputs": [],
      "stateMutability": "nonpayable",
      "type": "function"
    }
  ],
  "bytecode": "0x60806040523480156200001157600080fd5b50604051620013c1380380620013c18339818101604052810190620000379190620002a7565b33600360006101000a81548173ffffffffffffffffffffffffffffffffffffffff021916908373ffffffffffffffffffffffffffffffffffffffff1602179055508160056000600162ffffff1662ffffff16815260200190815260200160002060006101000a81548173ffffffffffffffffffffffffffffffffffffffff021916908373ffffffffffffffffffffffffffffffffffffffff16021790555080600260007fd09de08ab1a974aadf0a76e6f99a2ec20e431f22bbc101a6c3f718e53646ed8d7bffffffffffffffffffffffffffffffffffffffffffffffffffffffff19167bffffffffffffffffffffffffffffffffffffffffffffffffffffffff1916815260200190815260200160002060006101000a81548173ffffffffffffffffffffffffffffffffffffffff021916908373ffffffffffffffffffffffffffffffffffffffff16021790555080600260007f310bd74b1bcdaacf16f6a4234577ac20217c4dd976ab40b2e67577604855f5067bffffffffffffffffffffffffffffffffffffffffffffffffffffffff19167bffffffffffffffffffffffffffffffffffffffffffffffffffffffff1916815260200190815260200160002060006101000a81548173ffffffffffffffffffffffffffffffffffffffff021916908373ffffffffffffffffffffffffffffffffffffffff1602179055505050620002ee565b600080fd5b600073ffffffffffffffffffffffffffffffffffffffff82169050919050565b60006200026f8262000242565b9050919050565b620002818162000262565b81146200028d57600080fd5b50565b600081519050620002a18162000276565b92915050565b60008060408385031215620002c157620002c06200023d565b5b6000620002d18582860162000290565b9250506020620002e48582860162000290565b9150509250929050565b6110c380620002fe6000396000f3fe608060405234801561001057600080fd5b50600436106100625760003560e01c80631080156e14610067578063310bd74b14610083578063481168a61461009f578063d09de08a146100bd578063d5f39488146100c7578063e5aa3d58146100e5575b600080fd5b610081600480360381019061007c9190610a27565b610103565b005b61009d60048036038101906100989190610ad9565b6103cb565b005b6100a7610478565b6040516100b49190610b15565b60405180910390f35b6100c561047e565b005b6100cf6104e2565b6040516100dc9190610b71565b60405180910390f35b6100ed610508565b6040516100fa9190610b15565b60405180910390f35b61010e83838361050e565b600060048383905010156101ac5761012683836105a3565b73ffffffffffffffffffffffffffffffffffffffff16631080156e8585856040518463ffffffff1660e01b815260040161016293929190610c41565b6020604051808303816000875af1158015610181573d6000803e3d6000fd5b505050506040513d601f19601f820116820180604052508101906101a59190610c8f565b90506103b9565b600083836000906004926101c293929190610cc6565b906101cd9190610d45565b90506101d88161060c565b61021957806040517f35be8c290000000000000000000000000000000000000000000000000000000081526004016102109190610db3565b60405180910390fd5b60026000827bffffffffffffffffffffffffffffffffffffffffffffffffffffffff19167bffffffffffffffffffffffffffffffffffffffffffffffffffffffff1916815260200190815260200160002060009054906101000a900473ffffffffffffffffffffffffffffffffffffffff1673ffffffffffffffffffffffffffffffffffffffff16631080156e8686866040518463ffffffff1660e01b81526004016102c793929190610c41565b6020604051808303816000875af11580156102e6573d6000803e3d6000fd5b505050506040513d601f19601f8201168201806040525081019061030a9190610c8f565b9150600061038960026000847bffffffffffffffffffffffffffffffffffffffffffffffffffffffff19167bffffffffffffffffffffffffffffffffffffffffffffffffffffffff1916815260200190815260200160002060009054906101000a900473ffffffffffffffffffffffffffffffffffffffff16846106b6565b9050600180600083815260200190815260200160002060006101000a81548160ff02191690831515021790555050505b6103c5818585856106e9565b50505050565b60016103d681610709565b8061042e57503373ffffffffffffffffffffffffffffffffffffffff16600360009054906101000a900473ffffffffffffffffffffffffffffffffffffffff1673ffffffffffffffffffffffffffffffffffffffff16145b61046d576040517f08c379a000000000000000000000000000000000000000000000000000000000815260040161046490610e2b565b60405180910390fd5b816000819055505050565b60045481565b600161048981610709565b6104ca57336040517f06246cc50000000000000000000000000000000000000000000000000000000081526004016104c19190610b71565b60405180910390fd5b60016000546104d99190610e7a565b60008190555050565b600360009054906101000a900473ffffffffffffffffffffffffffffffffffffffff1681565b60005481565b600360009054906101000a900473ffffffffffffffffffffffffffffffffffffffff1673ffffffffffffffffffffffffffffffffffffffff163373ffffffffffffffffffffffffffffffffffffffff161461059e576040517f08c379a000000000000000000000000000000000000000000000000000000000815260040161059590610f1c565b60405180910390fd5b505050565b60006005600084846000906003926105bd93929190610cc6565b906105c89190610f68565b60e81c62ffffff1662ffffff16815260200190815260200160002060009054906101000a900473ffffffffffffffffffffffffffffffffffffffff16905092915050565b60008073ffffffffffffffffffffffffffffffffffffffff1660026000847bffffffffffffffffffffffffffffffffffffffffffffffffffffffff19167bffffffffffffffffffffffffffffffffffffffffffffffffffffffff1916815260200190815260200160002060009054906101000a900473ffffffffffffffffffffffffffffffffffffffff1673ffffffffffffffffffffffffffffffffffffffff1614159050919050565b600082826040516020016106cb929190610fc7565b60405160208183030381529060405280519060200120905092915050565b6001600460008282546106fc9190610e7a565b9250508190555050505050565b6000803373ffffffffffffffffffffffffffffffffffffffff166002600080357fffffffff00000000000000000000000000000000000000000000000000000000167bffffffffffffffffffffffffffffffffffffffffffffffffffffffff19167bffffffffffffffffffffffffffffffffffffffffffffffffffffffff1916815260200190815260200160002060009054906101000a900473ffffffffffffffffffffffffffffffffffffffff1673ffffffffffffffffffffffffffffffffffffffff161490508215806107dc575080155b156107ea5780915050610868565b602460003690501015610801576000915050610868565b60008036602060003690506108169190610ff0565b9060003690509261082993929190610cc6565b90610834919061102e565b60001c90506001600061084733846106b6565b815260200190815260200160002060009054906101000a900460ff16925050505b919050565b6000604051905090565b600080fd5b600080fd5b600080fd5b600080fd5b6000601f19601f8301169050919050565b7f4e487b7100000000000000000000000000000000000000000000000000000000600052604160045260246000fd5b6108d48261088b565b810181811067ffffffffffffffff821117156108f3576108f261089c565b5b80604052505050565b600061090661086d565b905061091282826108cb565b919050565b600067ffffffffffffffff8211156109325761093161089c565b5b61093b8261088b565b9050602081019050919050565b82818337600083830152505050565b600061096a61096584610917565b6108fc565b90508281526020810184848401111561098657610985610886565b5b610991848285610948565b509392505050565b600082601f8301126109ae576109ad610881565b5b81356109be848260208601610957565b91505092915050565b600080fd5b600080fd5b60008083601f8401126109e7576109e6610881565b5b8235905067ffffffffffffffff811115610a0457610a036109c7565b5b602083019150836001820283011115610a2057610a1f6109cc565b5b9250929050565b600080600060408486031215610a4057610a3f610877565b5b600084013567ffffffffffffffff811115610a5e57610a5d61087c565b5b610a6a86828701610999565b935050602084013567ffffffffffffffff811115610a8b57610a8a61087c565b5b610a97868287016109d1565b92509250509250925092565b6000819050919050565b610ab681610aa3565b8114610ac157600080fd5b50565b600081359050610ad381610aad565b92915050565b600060208284031215610aef57610aee610877565b5b6000610afd84828501610ac4565b91505092915050565b610b0f81610aa3565b82525050565b6000602082019050610b2a6000830184610b06565b92915050565b600073ffffffffffffffffffffffffffffffffffffffff82169050919050565b6000610b5b82610b30565b9050919050565b610b6b81610b50565b82525050565b6000602082019050610b866000830184610b62565b92915050565b600081519050919050565b600082825260208201905092915050565b60005b83811015610bc6578082015181840152602081019050610bab565b83811115610bd5576000848401525b50505050565b6000610be682610b8c565b610bf08185610b97565b9350610c00818560208601610ba8565b610c098161088b565b840191505092915050565b6000610c208385610b97565b9350610c2d838584610948565b610c368361088b565b840190509392505050565b60006040820190508181036000830152610c5b8186610bdb565b90508181036020830152610c70818486610c14565b9050949350505050565b600081519050610c8981610aad565b92915050565b600060208284031215610ca557610ca4610877565b5b6000610cb384828501610c7a565b91505092915050565b600080fd5b600080fd5b60008085851115610cda57610cd9610cbc565b5b83861115610ceb57610cea610cc1565b5b6001850283019150848603905094509492505050565b600082905092915050565b60007fffffffff0000000000000000000000000000000000000000000000000000000082169050919050565b600082821b905092915050565b6000610d518383610d01565b82610d5c8135610d0c565b92506004821015610d9c57610d977fffffffff0000000000000000000000000000000000000000000000000000000083600403600802610d38565b831692505b505092915050565b610dad81610d0c565b82525050565b6000602082019050610dc86000830184610da4565b92915050565b600082825260208201905092915050565b7f4f6e6c79206465706c6f796572206f7220627920766f74650000000000000000600082015250565b6000610e15601883610dce565b9150610e2082610ddf565b602082019050919050565b60006020820190508181036000830152610e4481610e08565b9050919050565b7f4e487b7100000000000000000000000000000000000000000000000000000000600052601160045260246000fd5b6000610e8582610aa3565b9150610e9083610aa3565b9250827fffffffffffffffffffffffffffffffffffffffffffffffffffffffffffffffff03821115610ec557610ec4610e4b565b5b828201905092915050565b7f4f6e6c79206465706c6f79657200000000000000000000000000000000000000600082015250565b6000610f06600d83610dce565b9150610f1182610ed0565b602082019050919050565b60006020820190508181036000830152610f3581610ef9565b9050919050565b60007fffffff000000000000000000000000000000000000000000000000000000000082169050919050565b6000610f748383610d01565b82610f7f8135610f3c565b92506003821015610fbf57610fba7fffffff000000000000000000000000000000000000000000000000000000000083600303600802610d38565b831692505b505092915050565b6000604082019050610fdc6000830185610b62565b610fe96020830184610b06565b9392505050565b6000610ffb82610aa3565b915061100683610aa3565b92508282101561101957611018610e4b565b5b828203905092915050565b6000819050919050565b600061103a8383610d01565b826110458135611024565b92506020821015611085576110807fffffffffffffffffffffffffffffffffffffffffffffffffffffffffffffffff83602003600802610d38565b831692505b50509291505056fea26469706673582212207a2bddd96fb0b068472d86bdf88fa1525789f13a1dfdd1be86c7d3753cc0e90d64736f6c634300080d0033",
  "linkReferences": {},
  "deployedLinkReferences": {}
}