{
  "_format": "hh-sol-artifact-1",
  "contractName": "Counter",
  "sourceName": "src/examples/dummies/Counter.sol",
  "abi": [
    {
      "inputs": [],
      "name": "CounterError",
      "type": "error"
    },
    {
      "inputs": [],
      "name": "fail",
      "outputs": [],
      "stateMutability": "nonpayable",
      "type": "function"
    },
    {
      "inputs": [],
      "name": "i",
      "outputs": [
        {
          "internalType": "uint256",
          "name": "",
          "type": "uint256"
        }
      ],
      "stateMutability": "view",
      "type": "function"
    },
    {
      "inputs": [],
      "name": "increment",
      "outputs": [],
      "stateMutability": "nonpayable",
      "type": "function"
    },
    {
      "inputs": [
        {
          "internalType": "uint256",
          "name": "a",
          "type": "uint256"
        }
      ],
      "name": "incrementBy",
      "outputs": [
        {
          "internalType": "bool",
          "name": "",
          "type": "bool"
        }
      ],
      "stateMutability": "nonpayable",
      "type": "function"
    },
    {
      "inputs": [],
      "name": "incrementWithReturn",
      "outputs": [
        {
          "internalType": "bool",
          "name": "",
          "type": "bool"
        }
      ],
      "stateMutability": "nonpayable",
      "type": "function"
    }
  ],
  "bytecode": "0x608060405234801561001057600080fd5b50610303806100206000396000f3fe608060405234801561001057600080fd5b50600436106100575760003560e01c806303df179c1461005c578063873d1a021461008c578063a9cc4718146100aa578063d09de08a146100b4578063e5aa3d58146100be575b600080fd5b610076600480360381019061007191906101bb565b6100dc565b6040516100839190610203565b60405180910390f35b6100946100f7565b6040516100a19190610203565b60405180910390f35b6100b2610111565b005b6100bc610163565b005b6100c661017a565b6040516100d3919061022d565b60405180910390f35b6000816000546100ec9190610277565b600081905550919050565b600060016000546101089190610277565b60008190555090565b600080540361014c576040517fd6bef5cc00000000000000000000000000000000000000000000000000000000815260040160405180910390fd5b600160005461015b9190610277565b600081905550565b60016000546101729190610277565b600081905550565b60005481565b600080fd5b6000819050919050565b61019881610185565b81146101a357600080fd5b50565b6000813590506101b58161018f565b92915050565b6000602082840312156101d1576101d0610180565b5b60006101df848285016101a6565b91505092915050565b60008115159050919050565b6101fd816101e8565b82525050565b600060208201905061021860008301846101f4565b92915050565b61022781610185565b82525050565b6000602082019050610242600083018461021e565b92915050565b7f4e487b7100000000000000000000000000000000000000000000000000000000600052601160045260246000fd5b600061028282610185565b915061028d83610185565b9250827fffffffffffffffffffffffffffffffffffffffffffffffffffffffffffffffff038211156102c2576102c1610248565b5b82820190509291505056fea26469706673582212207b7820ae91bfb71af7114347696898f0e55eb55b8189690b298e02f917e8738a64736f6c634300080d0033",
  "linkReferences": {},
  "deployedLinkReferences": {}
}