{
  "_format": "hh-sol-artifact-1",
  "contractName": "RegistrarWithDeployer",
  "sourceName": "src/implementations/registration/Registrars.sol",
  "abi": [
    {
      "inputs": [
        {
          "internalType": "address",
          "name": "_registry",
          "type": "address"
        },
        {
          "internalType": "string",
          "name": "name_",
          "type": "string"
        },
        {
          "internalType": "string",
          "name": "symbol_",
          "type": "string"
        }
      ],
      "stateMutability": "nonpayable",
      "type": "constructor"
    },
    {
      "inputs": [
        {
          "internalType": "address",
          "name": "caller",
          "type": "address"
        },
        {
          "internalType": "address",
          "name": "votingContract",
          "type": "address"
        }
      ],
      "name": "OnlyController",
      "type": "error"
    },
    {
      "anonymous": false,
      "inputs": [
        {
          "indexed": true,
          "internalType": "address",
          "name": "owner",
          "type": "address"
        },
        {
          "indexed": true,
          "internalType": "address",
          "name": "approved",
          "type": "address"
        },
        {
          "indexed": true,
          "internalType": "uint256",
          "name": "tokenId",
          "type": "uint256"
        }
      ],
      "name": "Approval",
      "type": "event"
    },
    {
      "anonymous": false,
      "inputs": [
        {
          "indexed": true,
          "internalType": "address",
          "name": "owner",
          "type": "address"
        },
        {
          "indexed": true,
          "internalType": "address",
          "name": "operator",
          "type": "address"
        },
        {
          "indexed": false,
          "internalType": "bool",
          "name": "approved",
          "type": "bool"
        }
      ],
      "name": "ApprovalForAll",
      "type": "event"
    },
    {
      "anonymous": false,
      "inputs": [
        {
          "indexed": true,
          "internalType": "address",
          "name": "from",
          "type": "address"
        },
        {
          "indexed": true,
          "internalType": "address",
          "name": "to",
          "type": "address"
        },
        {
          "indexed": true,
          "internalType": "uint256",
          "name": "tokenId",
          "type": "uint256"
        }
      ],
      "name": "Transfer",
      "type": "event"
    },
    {
      "inputs": [
        {
          "internalType": "address",
          "name": "to",
          "type": "address"
        },
        {
          "internalType": "uint256",
          "name": "tokenId",
          "type": "uint256"
        }
      ],
      "name": "approve",
      "outputs": [],
      "stateMutability": "nonpayable",
      "type": "function"
    },
    {
      "inputs": [
        {
          "internalType": "address",
          "name": "owner",
          "type": "address"
        }
      ],
      "name": "balanceOf",
      "outputs": [
        {
          "internalType": "uint256",
          "name": "",
          "type": "uint256"
        }
      ],
      "stateMutability": "view",
      "type": "function"
    },
    {
      "inputs": [
        {
          "internalType": "address",
          "name": "votingContract",
          "type": "address"
        },
        {
          "internalType": "address",
          "name": "newResolver",
          "type": "address"
        }
      ],
      "name": "changeResolver",
      "outputs": [],
      "stateMutability": "nonpayable",
      "type": "function"
    },
    {
      "inputs": [
        {
          "internalType": "bytes32",
          "name": "salt",
          "type": "bytes32"
        },
        {
          "internalType": "bytes",
          "name": "bytecode",
          "type": "bytes"
        }
      ],
      "name": "deploy",
      "outputs": [
        {
          "internalType": "address",
          "name": "deployedContract",
          "type": "address"
        }
      ],
      "stateMutability": "nonpayable",
      "type": "function"
    },
    {
      "inputs": [
        {
          "internalType": "bytes32",
          "name": "salt",
          "type": "bytes32"
        },
        {
          "internalType": "bytes",
          "name": "bytecode",
          "type": "bytes"
        },
        {
          "internalType": "address",
          "name": "resolver",
          "type": "address"
        }
      ],
      "name": "deployAndRegister",
      "outputs": [
        {
          "internalType": "address",
          "name": "votingContract",
          "type": "address"
        }
      ],
      "stateMutability": "nonpayable",
      "type": "function"
    },
    {
      "inputs": [
        {
          "internalType": "uint256",
          "name": "tokenId",
          "type": "uint256"
        }
      ],
      "name": "getApproved",
      "outputs": [
        {
          "internalType": "address",
          "name": "",
          "type": "address"
        }
      ],
      "stateMutability": "view",
      "type": "function"
    },
    {
      "inputs": [
        {
          "internalType": "address",
          "name": "votingContract",
          "type": "address"
        }
      ],
      "name": "getController",
      "outputs": [
        {
          "internalType": "address",
          "name": "controller",
          "type": "address"
        }
      ],
      "stateMutability": "view",
      "type": "function"
    },
    {
      "inputs": [
        {
          "internalType": "address",
          "name": "owner",
          "type": "address"
        },
        {
          "internalType": "address",
          "name": "operator",
          "type": "address"
        }
      ],
      "name": "isApprovedForAll",
      "outputs": [
        {
          "internalType": "bool",
          "name": "",
          "type": "bool"
        }
      ],
      "stateMutability": "view",
      "type": "function"
    },
    {
      "inputs": [],
      "name": "name",
      "outputs": [
        {
          "internalType": "string",
          "name": "",
          "type": "string"
        }
      ],
      "stateMutability": "view",
      "type": "function"
    },
    {
      "inputs": [
        {
          "internalType": "uint256",
          "name": "tokenId",
          "type": "uint256"
        }
      ],
      "name": "ownerOf",
      "outputs": [
        {
          "internalType": "address",
          "name": "",
          "type": "address"
        }
      ],
      "stateMutability": "view",
      "type": "function"
    },
    {
      "inputs": [
        {
          "internalType": "address",
          "name": "votingContract",
          "type": "address"
        },
        {
          "internalType": "address",
          "name": "resolver",
          "type": "address"
        },
        {
          "internalType": "address",
          "name": "controller",
          "type": "address"
        }
      ],
      "name": "register",
      "outputs": [],
      "stateMutability": "nonpayable",
      "type": "function"
    },
    {
      "inputs": [
        {
          "internalType": "address",
          "name": "from",
          "type": "address"
        },
        {
          "internalType": "address",
          "name": "to",
          "type": "address"
        },
        {
          "internalType": "uint256",
          "name": "tokenId",
          "type": "uint256"
        }
      ],
      "name": "safeTransferFrom",
      "outputs": [],
      "stateMutability": "nonpayable",
      "type": "function"
    },
    {
      "inputs": [
        {
          "internalType": "address",
          "name": "from",
          "type": "address"
        },
        {
          "internalType": "address",
          "name": "to",
          "type": "address"
        },
        {
          "internalType": "uint256",
          "name": "tokenId",
          "type": "uint256"
        },
        {
          "internalType": "bytes",
          "name": "_data",
          "type": "bytes"
        }
      ],
      "name": "safeTransferFrom",
      "outputs": [],
      "stateMutability": "nonpayable",
      "type": "function"
    },
    {
      "inputs": [
        {
          "internalType": "address",
          "name": "operator",
          "type": "address"
        },
        {
          "internalType": "bool",
          "name": "approved",
          "type": "bool"
        }
      ],
      "name": "setApprovalForAll",
      "outputs": [],
      "stateMutability": "nonpayable",
      "type": "function"
    },
    {
      "inputs": [
        {
          "internalType": "bytes4",
          "name": "interfaceId",
          "type": "bytes4"
        }
      ],
      "name": "supportsInterface",
      "outputs": [
        {
          "internalType": "bool",
          "name": "",
          "type": "bool"
        }
      ],
      "stateMutability": "view",
      "type": "function"
    },
    {
      "inputs": [],
      "name": "symbol",
      "outputs": [
        {
          "internalType": "string",
          "name": "",
          "type": "string"
        }
      ],
      "stateMutability": "view",
      "type": "function"
    },
    {
      "inputs": [
        {
          "internalType": "uint256",
          "name": "tokenId",
          "type": "uint256"
        }
      ],
      "name": "tokenURI",
      "outputs": [
        {
          "internalType": "string",
          "name": "",
          "type": "string"
        }
      ],
      "stateMutability": "view",
      "type": "function"
    },
    {
      "inputs": [
        {
          "internalType": "address",
          "name": "from",
          "type": "address"
        },
        {
          "internalType": "address",
          "name": "to",
          "type": "address"
        },
        {
          "internalType": "uint256",
          "name": "tokenId",
          "type": "uint256"
        }
      ],
      "name": "transferFrom",
      "outputs": [],
      "stateMutability": "nonpayable",
      "type": "function"
    }
  ],
  "bytecode": "0x60a06040523480156200001157600080fd5b5060405162002ffb38038062002ffb833981810160405281019062000037919062000368565b8282828282828181816000908051906020019062000057929190620000b6565b50806001908051906020019062000070929190620000b6565b5050508273ffffffffffffffffffffffffffffffffffffffff1660808173ffffffffffffffffffffffffffffffffffffffff168152505050505050505050505062000466565b828054620000c49062000431565b90600052602060002090601f016020900481019282620000e8576000855562000134565b82601f106200010357805160ff191683800117855562000134565b8280016001018555821562000134579182015b828111156200013357825182559160200191906001019062000116565b5b50905062000143919062000147565b5090565b5b808211156200016257600081600090555060010162000148565b5090565b6000604051905090565b600080fd5b600080fd5b600073ffffffffffffffffffffffffffffffffffffffff82169050919050565b6000620001a7826200017a565b9050919050565b620001b9816200019a565b8114620001c557600080fd5b50565b600081519050620001d981620001ae565b92915050565b600080fd5b600080fd5b6000601f19601f8301169050919050565b7f4e487b7100000000000000000000000000000000000000000000000000000000600052604160045260246000fd5b6200023482620001e9565b810181811067ffffffffffffffff82111715620002565762000255620001fa565b5b80604052505050565b60006200026b62000166565b905062000279828262000229565b919050565b600067ffffffffffffffff8211156200029c576200029b620001fa565b5b620002a782620001e9565b9050602081019050919050565b60005b83811015620002d4578082015181840152602081019050620002b7565b83811115620002e4576000848401525b50505050565b600062000301620002fb846200027e565b6200025f565b90508281526020810184848401111562000320576200031f620001e4565b5b6200032d848285620002b4565b509392505050565b600082601f8301126200034d576200034c620001df565b5b81516200035f848260208601620002ea565b91505092915050565b60008060006060848603121562000384576200038362000170565b5b60006200039486828701620001c8565b935050602084015167ffffffffffffffff811115620003b857620003b762000175565b5b620003c68682870162000335565b925050604084015167ffffffffffffffff811115620003ea57620003e962000175565b5b620003f88682870162000335565b9150509250925092565b7f4e487b7100000000000000000000000000000000000000000000000000000000600052602260045260246000fd5b600060028204905060018216806200044a57607f821691505b60208210810362000460576200045f62000402565b5b50919050565b608051612b7262000489600039600081816107b701526114c80152612b726000f3fe608060405234801561001057600080fd5b50600436106101165760003560e01c806388c662aa116100a2578063be5708f811610071578063be5708f8146102ef578063c87b56dd1461031f578063cdcb760a1461034f578063e985e9c51461037f578063f3201424146103af57610116565b806388c662aa1461026957806395d89b4114610299578063a22cb465146102b7578063b88d4fde146102d357610116565b806323b872dd116100e957806323b872dd146101b557806328c71e69146101d157806342842e0e146101ed5780636352211e1461020957806370a082311461023957610116565b806301ffc9a71461011b57806306fdde031461014b578063081812fc14610169578063095ea7b314610199575b600080fd5b6101356004803603810190610130919061197a565b6103cb565b60405161014291906119c2565b60405180910390f35b6101536104ad565b6040516101609190611a76565b60405180910390f35b610183600480360381019061017e9190611ace565b61053f565b6040516101909190611b3c565b60405180910390f35b6101b360048036038101906101ae9190611b83565b6105c4565b005b6101cf60048036038101906101ca9190611bc3565b6106db565b005b6101eb60048036038101906101e69190611c16565b61073b565b005b61020760048036038101906102029190611bc3565b610846565b005b610223600480360381019061021e9190611ace565b610866565b6040516102309190611b3c565b60405180910390f35b610253600480360381019061024e9190611c56565b610917565b6040516102609190611c92565b60405180910390f35b610283600480360381019061027e9190611c56565b6109ce565b6040516102909190611b3c565b60405180910390f35b6102a16109fb565b6040516102ae9190611a76565b60405180910390f35b6102d160048036038101906102cc9190611cd9565b610a8d565b005b6102ed60048036038101906102e89190611e4e565b610aa3565b005b61030960048036038101906103049190611f07565b610b05565b6040516103169190611b3c565b60405180910390f35b61033960048036038101906103349190611ace565b610b1b565b6040516103469190611a76565b60405180910390f35b61036960048036038101906103649190611f76565b610bc2565b6040516103769190611b3c565b60405180910390f35b61039960048036038101906103949190611c16565b610bd6565b6040516103a691906119c2565b60405180910390f35b6103c960048036038101906103c49190611fd2565b610c6a565b005b60007f80ac58cd000000000000000000000000000000000000000000000000000000007bffffffffffffffffffffffffffffffffffffffffffffffffffffffff1916827bffffffffffffffffffffffffffffffffffffffffffffffffffffffff1916148061049657507f5b5e139f000000000000000000000000000000000000000000000000000000007bffffffffffffffffffffffffffffffffffffffffffffffffffffffff1916827bffffffffffffffffffffffffffffffffffffffffffffffffffffffff1916145b806104a657506104a582610c83565b5b9050919050565b6060600080546104bc90612054565b80601f01602080910402602001604051908101604052809291908181526020018280546104e890612054565b80156105355780601f1061050a57610100808354040283529160200191610535565b820191906000526020600020905b81548152906001019060200180831161051857829003601f168201915b5050505050905090565b600061054a82610ced565b610589576040517f08c379a0000000000000000000000000000000000000000000000000000000008152600401610580906120f7565b60405180910390fd5b6004600083815260200190815260200160002060009054906101000a900473ffffffffffffffffffffffffffffffffffffffff169050919050565b60006105cf82610866565b90508073ffffffffffffffffffffffffffffffffffffffff168373ffffffffffffffffffffffffffffffffffffffff160361063f576040517f08c379a000000000000000000000000000000000000000000000000000000000815260040161063690612189565b60405180910390fd5b8073ffffffffffffffffffffffffffffffffffffffff1661065e610d59565b73ffffffffffffffffffffffffffffffffffffffff16148061068d575061068c81610687610d59565b610bd6565b5b6106cc576040517f08c379a00000000000000000000000000000000000000000000000000000000081526004016106c39061221b565b60405180910390fd5b6106d68383610d61565b505050565b6106ec6106e6610d59565b82610e1a565b61072b576040517f08c379a0000000000000000000000000000000000000000000000000000000008152600401610722906122ad565b60405180910390fd5b610736838383610ef8565b505050565b610744826109ce565b73ffffffffffffffffffffffffffffffffffffffff163373ffffffffffffffffffffffffffffffffffffffff16146107b55733826040517f017547c00000000000000000000000000000000000000000000000000000000081526004016107ac9291906122cd565b60405180910390fd5b7f000000000000000000000000000000000000000000000000000000000000000073ffffffffffffffffffffffffffffffffffffffff166328c71e6983836040518363ffffffff1660e01b81526004016108109291906122cd565b600060405180830381600087803b15801561082a57600080fd5b505af115801561083e573d6000803e3d6000fd5b505050505050565b61086183838360405180602001604052806000815250610aa3565b505050565b6000806002600084815260200190815260200160002060009054906101000a900473ffffffffffffffffffffffffffffffffffffffff169050600073ffffffffffffffffffffffffffffffffffffffff168173ffffffffffffffffffffffffffffffffffffffff160361090e576040517f08c379a000000000000000000000000000000000000000000000000000000000815260040161090590612368565b60405180910390fd5b80915050919050565b60008073ffffffffffffffffffffffffffffffffffffffff168273ffffffffffffffffffffffffffffffffffffffff1603610987576040517f08c379a000000000000000000000000000000000000000000000000000000000815260040161097e906123fa565b60405180910390fd5b600360008373ffffffffffffffffffffffffffffffffffffffff1673ffffffffffffffffffffffffffffffffffffffff168152602001908152602001600020549050919050565b6000808273ffffffffffffffffffffffffffffffffffffffff1690506109f381610866565b915050919050565b606060018054610a0a90612054565b80601f0160208091040260200160405190810160405280929190818152602001828054610a3690612054565b8015610a835780601f10610a5857610100808354040283529160200191610a83565b820191906000526020600020905b815481529060010190602001808311610a6657829003601f168201915b5050505050905090565b610a9f610a98610d59565b838361115e565b5050565b610ab4610aae610d59565b83610e1a565b610af3576040517f08c379a0000000000000000000000000000000000000000000000000000000008152600401610aea906122ad565b60405180910390fd5b610aff848484846112ca565b50505050565b6000610b12848484611326565b90509392505050565b6060610b2682610ced565b610b65576040517f08c379a0000000000000000000000000000000000000000000000000000000008152600401610b5c9061248c565b60405180910390fd5b6000610b6f61134f565b90506000815111610b8f5760405180602001604052806000815250610bba565b80610b9984611366565b604051602001610baa9291906124e8565b6040516020818303038152906040525b915050919050565b6000828251602084016000f5905092915050565b6000600560008473ffffffffffffffffffffffffffffffffffffffff1673ffffffffffffffffffffffffffffffffffffffff16815260200190815260200160002060008373ffffffffffffffffffffffffffffffffffffffff1673ffffffffffffffffffffffffffffffffffffffff16815260200190815260200160002060009054906101000a900460ff16905092915050565b610c7483836114c6565b610c7e8382611557565b505050565b60007f01ffc9a7000000000000000000000000000000000000000000000000000000007bffffffffffffffffffffffffffffffffffffffffffffffffffffffff1916827bffffffffffffffffffffffffffffffffffffffffffffffffffffffff1916149050919050565b60008073ffffffffffffffffffffffffffffffffffffffff166002600084815260200190815260200160002060009054906101000a900473ffffffffffffffffffffffffffffffffffffffff1673ffffffffffffffffffffffffffffffffffffffff1614159050919050565b600033905090565b816004600083815260200190815260200160002060006101000a81548173ffffffffffffffffffffffffffffffffffffffff021916908373ffffffffffffffffffffffffffffffffffffffff160217905550808273ffffffffffffffffffffffffffffffffffffffff16610dd483610866565b73ffffffffffffffffffffffffffffffffffffffff167f8c5be1e5ebec7d5bd14f71427d1e84f3dd0314c0f7b2291e5b200ac8c7c3b92560405160405180910390a45050565b6000610e2582610ced565b610e64576040517f08c379a0000000000000000000000000000000000000000000000000000000008152600401610e5b9061257e565b60405180910390fd5b6000610e6f83610866565b90508073ffffffffffffffffffffffffffffffffffffffff168473ffffffffffffffffffffffffffffffffffffffff161480610eb15750610eb08185610bd6565b5b80610eef57508373ffffffffffffffffffffffffffffffffffffffff16610ed78461053f565b73ffffffffffffffffffffffffffffffffffffffff16145b91505092915050565b8273ffffffffffffffffffffffffffffffffffffffff16610f1882610866565b73ffffffffffffffffffffffffffffffffffffffff1614610f6e576040517f08c379a0000000000000000000000000000000000000000000000000000000008152600401610f6590612610565b60405180910390fd5b600073ffffffffffffffffffffffffffffffffffffffff168273ffffffffffffffffffffffffffffffffffffffff1603610fdd576040517f08c379a0000000000000000000000000000000000000000000000000000000008152600401610fd4906126a2565b60405180910390fd5b610fe8838383611581565b610ff3600082610d61565b6001600360008573ffffffffffffffffffffffffffffffffffffffff1673ffffffffffffffffffffffffffffffffffffffff168152602001908152602001600020600082825461104391906126f1565b925050819055506001600360008473ffffffffffffffffffffffffffffffffffffffff1673ffffffffffffffffffffffffffffffffffffffff168152602001908152602001600020600082825461109a9190612725565b92505081905550816002600083815260200190815260200160002060006101000a81548173ffffffffffffffffffffffffffffffffffffffff021916908373ffffffffffffffffffffffffffffffffffffffff160217905550808273ffffffffffffffffffffffffffffffffffffffff168473ffffffffffffffffffffffffffffffffffffffff167fddf252ad1be2c89b69c2b068fc378daa952ba7f163c4a11628f55a4df523b3ef60405160405180910390a4611159838383611586565b505050565b8173ffffffffffffffffffffffffffffffffffffffff168373ffffffffffffffffffffffffffffffffffffffff16036111cc576040517f08c379a00000000000000000000000000000000000000000000000000000000081526004016111c3906127c7565b60405180910390fd5b80600560008573ffffffffffffffffffffffffffffffffffffffff1673ffffffffffffffffffffffffffffffffffffffff16815260200190815260200160002060008473ffffffffffffffffffffffffffffffffffffffff1673ffffffffffffffffffffffffffffffffffffffff16815260200190815260200160002060006101000a81548160ff0219169083151502179055508173ffffffffffffffffffffffffffffffffffffffff168373ffffffffffffffffffffffffffffffffffffffff167f17307eab39ab6107e8899845ad3d59bd9653f200f220920489ca2b5937696c31836040516112bd91906119c2565b60405180910390a3505050565b6112d5848484610ef8565b6112e18484848461158b565b611320576040517f08c379a000000000000000000000000000000000000000000000000000000000815260040161131790612859565b60405180910390fd5b50505050565b60006113328484610bc2565b905061133e81836114c6565b6113488133611557565b9392505050565b606060405180602001604052806000815250905090565b6060600082036113ad576040518060400160405280600181526020017f300000000000000000000000000000000000000000000000000000000000000081525090506114c1565b600082905060005b600082146113df5780806113c890612879565b915050600a826113d891906128f0565b91506113b5565b60008167ffffffffffffffff8111156113fb576113fa611d23565b5b6040519080825280601f01601f19166020018201604052801561142d5781602001600182028036833780820191505090505b5090505b600085146114ba5760018261144691906126f1565b9150600a856114559190612921565b60306114619190612725565b60f81b81838151811061147757611476612952565b5b60200101907effffffffffffffffffffffffffffffffffffffffffffffffffffffffffffff1916908160001a905350600a856114b391906128f0565b9450611431565b8093505050505b919050565b7f000000000000000000000000000000000000000000000000000000000000000073ffffffffffffffffffffffffffffffffffffffff1663aa67735483836040518363ffffffff1660e01b81526004016115219291906122cd565b600060405180830381600087803b15801561153b57600080fd5b505af115801561154f573d6000803e3d6000fd5b505050505050565b60008273ffffffffffffffffffffffffffffffffffffffff16905061157c8282611712565b505050565b505050565b505050565b60006115ac8473ffffffffffffffffffffffffffffffffffffffff166118eb565b15611705578373ffffffffffffffffffffffffffffffffffffffff1663150b7a026115d5610d59565b8786866040518563ffffffff1660e01b81526004016115f794939291906129d6565b6020604051808303816000875af192505050801561163357506040513d601f19601f820116820180604052508101906116309190612a37565b60015b6116b5573d8060008114611663576040519150601f19603f3d011682016040523d82523d6000602084013e611668565b606091505b5060008151036116ad576040517f08c379a00000000000000000000000000000000000000000000000000000000081526004016116a490612859565b60405180910390fd5b805181602001fd5b63150b7a0260e01b7bffffffffffffffffffffffffffffffffffffffffffffffffffffffff1916817bffffffffffffffffffffffffffffffffffffffffffffffffffffffff19161491505061170a565b600190505b949350505050565b600073ffffffffffffffffffffffffffffffffffffffff168273ffffffffffffffffffffffffffffffffffffffff1603611781576040517f08c379a000000000000000000000000000000000000000000000000000000000815260040161177890612ab0565b60405180910390fd5b61178a81610ced565b156117ca576040517f08c379a00000000000000000000000000000000000000000000000000000000081526004016117c190612b1c565b60405180910390fd5b6117d660008383611581565b6001600360008473ffffffffffffffffffffffffffffffffffffffff1673ffffffffffffffffffffffffffffffffffffffff16815260200190815260200160002060008282546118269190612725565b92505081905550816002600083815260200190815260200160002060006101000a81548173ffffffffffffffffffffffffffffffffffffffff021916908373ffffffffffffffffffffffffffffffffffffffff160217905550808273ffffffffffffffffffffffffffffffffffffffff16600073ffffffffffffffffffffffffffffffffffffffff167fddf252ad1be2c89b69c2b068fc378daa952ba7f163c4a11628f55a4df523b3ef60405160405180910390a46118e760008383611586565b5050565b6000808273ffffffffffffffffffffffffffffffffffffffff163b119050919050565b6000604051905090565b600080fd5b600080fd5b60007fffffffff0000000000000000000000000000000000000000000000000000000082169050919050565b61195781611922565b811461196257600080fd5b50565b6000813590506119748161194e565b92915050565b6000602082840312156119905761198f611918565b5b600061199e84828501611965565b91505092915050565b60008115159050919050565b6119bc816119a7565b82525050565b60006020820190506119d760008301846119b3565b92915050565b600081519050919050565b600082825260208201905092915050565b60005b83811015611a175780820151818401526020810190506119fc565b83811115611a26576000848401525b50505050565b6000601f19601f8301169050919050565b6000611a48826119dd565b611a5281856119e8565b9350611a628185602086016119f9565b611a6b81611a2c565b840191505092915050565b60006020820190508181036000830152611a908184611a3d565b905092915050565b6000819050919050565b611aab81611a98565b8114611ab657600080fd5b50565b600081359050611ac881611aa2565b92915050565b600060208284031215611ae457611ae3611918565b5b6000611af284828501611ab9565b91505092915050565b600073ffffffffffffffffffffffffffffffffffffffff82169050919050565b6000611b2682611afb565b9050919050565b611b3681611b1b565b82525050565b6000602082019050611b516000830184611b2d565b92915050565b611b6081611b1b565b8114611b6b57600080fd5b50565b600081359050611b7d81611b57565b92915050565b60008060408385031215611b9a57611b99611918565b5b6000611ba885828601611b6e565b9250506020611bb985828601611ab9565b9150509250929050565b600080600060608486031215611bdc57611bdb611918565b5b6000611bea86828701611b6e565b9350506020611bfb86828701611b6e565b9250506040611c0c86828701611ab9565b9150509250925092565b60008060408385031215611c2d57611c2c611918565b5b6000611c3b85828601611b6e565b9250506020611c4c85828601611b6e565b9150509250929050565b600060208284031215611c6c57611c6b611918565b5b6000611c7a84828501611b6e565b91505092915050565b611c8c81611a98565b82525050565b6000602082019050611ca76000830184611c83565b92915050565b611cb6816119a7565b8114611cc157600080fd5b50565b600081359050611cd381611cad565b92915050565b60008060408385031215611cf057611cef611918565b5b6000611cfe85828601611b6e565b9250506020611d0f85828601611cc4565b9150509250929050565b600080fd5b600080fd5b7f4e487b7100000000000000000000000000000000000000000000000000000000600052604160045260246000fd5b611d5b82611a2c565b810181811067ffffffffffffffff82111715611d7a57611d79611d23565b5b80604052505050565b6000611d8d61190e565b9050611d998282611d52565b919050565b600067ffffffffffffffff821115611db957611db8611d23565b5b611dc282611a2c565b9050602081019050919050565b82818337600083830152505050565b6000611df1611dec84611d9e565b611d83565b905082815260208101848484011115611e0d57611e0c611d1e565b5b611e18848285611dcf565b509392505050565b600082601f830112611e3557611e34611d19565b5b8135611e45848260208601611dde565b91505092915050565b60008060008060808587031215611e6857611e67611918565b5b6000611e7687828801611b6e565b9450506020611e8787828801611b6e565b9350506040611e9887828801611ab9565b925050606085013567ffffffffffffffff811115611eb957611eb861191d565b5b611ec587828801611e20565b91505092959194509250565b6000819050919050565b611ee481611ed1565b8114611eef57600080fd5b50565b600081359050611f0181611edb565b92915050565b600080600060608486031215611f2057611f1f611918565b5b6000611f2e86828701611ef2565b935050602084013567ffffffffffffffff811115611f4f57611f4e61191d565b5b611f5b86828701611e20565b9250506040611f6c86828701611b6e565b9150509250925092565b60008060408385031215611f8d57611f8c611918565b5b6000611f9b85828601611ef2565b925050602083013567ffffffffffffffff811115611fbc57611fbb61191d565b5b611fc885828601611e20565b9150509250929050565b600080600060608486031215611feb57611fea611918565b5b6000611ff986828701611b6e565b935050602061200a86828701611b6e565b925050604061201b86828701611b6e565b9150509250925092565b7f4e487b7100000000000000000000000000000000000000000000000000000000600052602260045260246000fd5b6000600282049050600182168061206c57607f821691505b60208210810361207f5761207e612025565b5b50919050565b7f4552433732313a20617070726f76656420717565727920666f72206e6f6e657860008201527f697374656e7420746f6b656e0000000000000000000000000000000000000000602082015250565b60006120e1602c836119e8565b91506120ec82612085565b604082019050919050565b60006020820190508181036000830152612110816120d4565b9050919050565b7f4552433732313a20617070726f76616c20746f2063757272656e74206f776e6560008201527f7200000000000000000000000000000000000000000000000000000000000000602082015250565b60006121736021836119e8565b915061217e82612117565b604082019050919050565b600060208201905081810360008301526121a281612166565b9050919050565b7f4552433732313a20617070726f76652063616c6c6572206973206e6f74206f7760008201527f6e6572206e6f7220617070726f76656420666f7220616c6c0000000000000000602082015250565b60006122056038836119e8565b9150612210826121a9565b604082019050919050565b60006020820190508181036000830152612234816121f8565b9050919050565b7f4552433732313a207472616e736665722063616c6c6572206973206e6f74206f60008201527f776e6572206e6f7220617070726f766564000000000000000000000000000000602082015250565b60006122976031836119e8565b91506122a28261223b565b604082019050919050565b600060208201905081810360008301526122c68161228a565b9050919050565b60006040820190506122e26000830185611b2d565b6122ef6020830184611b2d565b9392505050565b7f4552433732313a206f776e657220717565727920666f72206e6f6e657869737460008201527f656e7420746f6b656e0000000000000000000000000000000000000000000000602082015250565b60006123526029836119e8565b915061235d826122f6565b604082019050919050565b6000602082019050818103600083015261238181612345565b9050919050565b7f4552433732313a2062616c616e636520717565727920666f7220746865207a6560008201527f726f206164647265737300000000000000000000000000000000000000000000602082015250565b60006123e4602a836119e8565b91506123ef82612388565b604082019050919050565b60006020820190508181036000830152612413816123d7565b9050919050565b7f4552433732314d657461646174613a2055524920717565727920666f72206e6f60008201527f6e6578697374656e7420746f6b656e0000000000000000000000000000000000602082015250565b6000612476602f836119e8565b91506124818261241a565b604082019050919050565b600060208201905081810360008301526124a581612469565b9050919050565b600081905092915050565b60006124c2826119dd565b6124cc81856124ac565b93506124dc8185602086016119f9565b80840191505092915050565b60006124f482856124b7565b915061250082846124b7565b91508190509392505050565b7f4552433732313a206f70657261746f7220717565727920666f72206e6f6e657860008201527f697374656e7420746f6b656e0000000000000000000000000000000000000000602082015250565b6000612568602c836119e8565b91506125738261250c565b604082019050919050565b600060208201905081810360008301526125978161255b565b9050919050565b7f4552433732313a207472616e736665722066726f6d20696e636f72726563742060008201527f6f776e6572000000000000000000000000000000000000000000000000000000602082015250565b60006125fa6025836119e8565b91506126058261259e565b604082019050919050565b60006020820190508181036000830152612629816125ed565b9050919050565b7f4552433732313a207472616e7366657220746f20746865207a65726f2061646460008201527f7265737300000000000000000000000000000000000000000000000000000000602082015250565b600061268c6024836119e8565b915061269782612630565b604082019050919050565b600060208201905081810360008301526126bb8161267f565b9050919050565b7f4e487b7100000000000000000000000000000000000000000000000000000000600052601160045260246000fd5b60006126fc82611a98565b915061270783611a98565b92508282101561271a576127196126c2565b5b828203905092915050565b600061273082611a98565b915061273b83611a98565b9250827fffffffffffffffffffffffffffffffffffffffffffffffffffffffffffffffff038211156127705761276f6126c2565b5b828201905092915050565b7f4552433732313a20617070726f766520746f2063616c6c657200000000000000600082015250565b60006127b16019836119e8565b91506127bc8261277b565b602082019050919050565b600060208201905081810360008301526127e0816127a4565b9050919050565b7f4552433732313a207472616e7366657220746f206e6f6e20455243373231526560008201527f63656976657220696d706c656d656e7465720000000000000000000000000000602082015250565b60006128436032836119e8565b915061284e826127e7565b604082019050919050565b6000602082019050818103600083015261287281612836565b9050919050565b600061288482611a98565b91507fffffffffffffffffffffffffffffffffffffffffffffffffffffffffffffffff82036128b6576128b56126c2565b5b600182019050919050565b7f4e487b7100000000000000000000000000000000000000000000000000000000600052601260045260246000fd5b60006128fb82611a98565b915061290683611a98565b925082612916576129156128c1565b5b828204905092915050565b600061292c82611a98565b915061293783611a98565b925082612947576129466128c1565b5b828206905092915050565b7f4e487b7100000000000000000000000000000000000000000000000000000000600052603260045260246000fd5b600081519050919050565b600082825260208201905092915050565b60006129a882612981565b6129b2818561298c565b93506129c28185602086016119f9565b6129cb81611a2c565b840191505092915050565b60006080820190506129eb6000830187611b2d565b6129f86020830186611b2d565b612a056040830185611c83565b8181036060830152612a17818461299d565b905095945050505050565b600081519050612a318161194e565b92915050565b600060208284031215612a4d57612a4c611918565b5b6000612a5b84828501612a22565b91505092915050565b7f4552433732313a206d696e7420746f20746865207a65726f2061646472657373600082015250565b6000612a9a6020836119e8565b9150612aa582612a64565b602082019050919050565b60006020820190508181036000830152612ac981612a8d565b9050919050565b7f4552433732313a20746f6b656e20616c7265616479206d696e74656400000000600082015250565b6000612b06601c836119e8565b9150612b1182612ad0565b602082019050919050565b60006020820190508181036000830152612b3581612af9565b905091905056fea26469706673582212202b4fbb2e51f2d43596f9da06788cc620f0dc20f98c746ea3a00b59bf5c9d50a364736f6c634300080d0033",
  "linkReferences": {},
  "deployedLinkReferences": {}
}