{
  "_format": "hh-sol-artifact-1",
  "contractName": "ResolverWithControl",
  "sourceName": "src/implementations/registration/Resolver.sol",
  "abi": [
    {
      "inputs": [],
      "stateMutability": "nonpayable",
      "type": "constructor"
    },
    {
      "inputs": [
        {
          "internalType": "address",
          "name": "sender",
          "type": "address"
        },
        {
          "internalType": "address",
          "name": "registrar",
          "type": "address"
        }
      ],
      "name": "IsNotRegistrar",
      "type": "error"
    },
    {
      "inputs": [
        {
          "internalType": "address",
          "name": "sender",
          "type": "address"
        },
        {
          "internalType": "address",
          "name": "authorized",
          "type": "address"
        }
      ],
      "name": "NotAuthorized",
      "type": "error"
    },
    {
      "inputs": [
        {
          "internalType": "bytes32",
          "name": "key",
          "type": "bytes32"
        },
        {
          "internalType": "bool",
          "name": "onlyRegistrar",
          "type": "bool"
        }
      ],
      "name": "changeRegistrarControlledKeys",
      "outputs": [],
      "stateMutability": "nonpayable",
      "type": "function"
    },
    {
      "inputs": [
        {
          "internalType": "bytes32",
          "name": "key",
          "type": "bytes32"
        },
        {
          "internalType": "address",
          "name": "votingContract",
          "type": "address"
        }
      ],
      "name": "getInformation",
      "outputs": [
        {
          "internalType": "uint256",
          "name": "",
          "type": "uint256"
        }
      ],
      "stateMutability": "view",
      "type": "function"
    },
    {
      "inputs": [
        {
          "internalType": "string",
          "name": "key",
          "type": "string"
        },
        {
          "internalType": "address",
          "name": "votingContract",
          "type": "address"
        }
      ],
      "name": "getInformation",
      "outputs": [
        {
          "internalType": "uint256",
          "name": "",
          "type": "uint256"
        }
      ],
      "stateMutability": "view",
      "type": "function"
    },
    {
      "inputs": [
        {
          "internalType": "string",
          "name": "key",
          "type": "string"
        },
        {
          "internalType": "address",
          "name": "votingContract",
          "type": "address"
        },
        {
          "internalType": "uint256",
          "name": "amount",
          "type": "uint256"
        }
      ],
      "name": "setInformation",
      "outputs": [],
      "stateMutability": "nonpayable",
      "type": "function"
    },
    {
      "inputs": [
        {
          "internalType": "bytes32",
          "name": "key",
          "type": "bytes32"
        },
        {
          "internalType": "address",
          "name": "votingContract",
          "type": "address"
        },
        {
          "internalType": "uint256",
          "name": "amount",
          "type": "uint256"
        }
      ],
      "name": "setInformation",
      "outputs": [],
      "stateMutability": "nonpayable",
      "type": "function"
    },
    {
      "inputs": [
        {
          "internalType": "address",
          "name": "_registrar",
          "type": "address"
        }
      ],
      "name": "setRegistrar",
      "outputs": [],
      "stateMutability": "nonpayable",
      "type": "function"
    }
  ],
  "bytecode": "0x608060405234801561001057600080fd5b5033806000806101000a81548173ffffffffffffffffffffffffffffffffffffffff021916908373ffffffffffffffffffffffffffffffffffffffff16021790555050610d2a806100626000396000f3fe608060405234801561001057600080fd5b50600436106100625760003560e01c80631fb84565146100675780636511d520146100975780637abf8ce3146100b3578063ea3bd5be146100cf578063f0651598146100eb578063faab9d391461011b575b600080fd5b610081600480360381019061007c919061080c565b610137565b60405161008e9190610865565b60405180910390f35b6100b160048036038101906100ac91906109f2565b610192565b005b6100cd60048036038101906100c89190610a61565b610399565b005b6100e960048036038101906100e49190610aec565b610554565b005b61010560048036038101906101009190610b2c565b610635565b6040516101129190610865565b60405180910390f35b61013560048036038101906101309190610b88565b61066f565b005b60006001600084815260200190815260200160002060008373ffffffffffffffffffffffffffffffffffffffff1673ffffffffffffffffffffffffffffffffffffffff16815260200190815260200160002054905092915050565b826040516020016101a39190610c3d565b604051602081830303815290604052805190602001208260006002600084815260200190815260200160002060009054906101000a900460ff166102805760008054906101000a900473ffffffffffffffffffffffffffffffffffffffff1673ffffffffffffffffffffffffffffffffffffffff166388c662aa836040518263ffffffff1660e01b815260040161023a9190610c6e565b602060405180830381865afa158015610257573d6000803e3d6000fd5b505050506040513d601f19601f8201168201806040525081019061027b9190610c9e565b6102a2565b60008054906101000a900473ffffffffffffffffffffffffffffffffffffffff165b90508073ffffffffffffffffffffffffffffffffffffffff163373ffffffffffffffffffffffffffffffffffffffff16146103165733816040517fc55ddc9700000000000000000000000000000000000000000000000000000000815260040161030d929190610ccb565b60405180910390fd5b83600160008860405160200161032c9190610c3d565b60405160208183030381529060405280519060200120815260200190815260200160002060008773ffffffffffffffffffffffffffffffffffffffff1673ffffffffffffffffffffffffffffffffffffffff16815260200190815260200160002081905550505050505050565b828260006002600084815260200190815260200160002060009054906101000a900460ff166104615760008054906101000a900473ffffffffffffffffffffffffffffffffffffffff1673ffffffffffffffffffffffffffffffffffffffff166388c662aa836040518263ffffffff1660e01b815260040161041b9190610c6e565b602060405180830381865afa158015610438573d6000803e3d6000fd5b505050506040513d601f19601f8201168201806040525081019061045c9190610c9e565b610483565b60008054906101000a900473ffffffffffffffffffffffffffffffffffffffff165b90508073ffffffffffffffffffffffffffffffffffffffff163373ffffffffffffffffffffffffffffffffffffffff16146104f75733816040517fc55ddc970000000000000000000000000000000000000000000000000000000081526004016104ee929190610ccb565b60405180910390fd5b836001600088815260200190815260200160002060008773ffffffffffffffffffffffffffffffffffffffff1673ffffffffffffffffffffffffffffffffffffffff16815260200190815260200160002081905550505050505050565b60008054906101000a900473ffffffffffffffffffffffffffffffffffffffff1673ffffffffffffffffffffffffffffffffffffffff163373ffffffffffffffffffffffffffffffffffffffff1614610606573360008054906101000a900473ffffffffffffffffffffffffffffffffffffffff166040517ff033dfa70000000000000000000000000000000000000000000000000000000081526004016105fd929190610ccb565b60405180910390fd5b806002600084815260200190815260200160002060006101000a81548160ff0219169083151502179055505050565b60006106678360405160200161064b9190610c3d565b6040516020818303038152906040528051906020012083610137565b905092915050565b60008054906101000a900473ffffffffffffffffffffffffffffffffffffffff1673ffffffffffffffffffffffffffffffffffffffff163373ffffffffffffffffffffffffffffffffffffffff1614610721573360008054906101000a900473ffffffffffffffffffffffffffffffffffffffff166040517ff033dfa7000000000000000000000000000000000000000000000000000000008152600401610718929190610ccb565b60405180910390fd5b806000806101000a81548173ffffffffffffffffffffffffffffffffffffffff021916908373ffffffffffffffffffffffffffffffffffffffff16021790555050565b6000604051905090565b600080fd5b600080fd5b6000819050919050565b61078b81610778565b811461079657600080fd5b50565b6000813590506107a881610782565b92915050565b600073ffffffffffffffffffffffffffffffffffffffff82169050919050565b60006107d9826107ae565b9050919050565b6107e9816107ce565b81146107f457600080fd5b50565b600081359050610806816107e0565b92915050565b600080604083850312156108235761082261076e565b5b600061083185828601610799565b9250506020610842858286016107f7565b9150509250929050565b6000819050919050565b61085f8161084c565b82525050565b600060208201905061087a6000830184610856565b92915050565b600080fd5b600080fd5b6000601f19601f8301169050919050565b7f4e487b7100000000000000000000000000000000000000000000000000000000600052604160045260246000fd5b6108d38261088a565b810181811067ffffffffffffffff821117156108f2576108f161089b565b5b80604052505050565b6000610905610764565b905061091182826108ca565b919050565b600067ffffffffffffffff8211156109315761093061089b565b5b61093a8261088a565b9050602081019050919050565b82818337600083830152505050565b600061096961096484610916565b6108fb565b90508281526020810184848401111561098557610984610885565b5b610990848285610947565b509392505050565b600082601f8301126109ad576109ac610880565b5b81356109bd848260208601610956565b91505092915050565b6109cf8161084c565b81146109da57600080fd5b50565b6000813590506109ec816109c6565b92915050565b600080600060608486031215610a0b57610a0a61076e565b5b600084013567ffffffffffffffff811115610a2957610a28610773565b5b610a3586828701610998565b9350506020610a46868287016107f7565b9250506040610a57868287016109dd565b9150509250925092565b600080600060608486031215610a7a57610a7961076e565b5b6000610a8886828701610799565b9350506020610a99868287016107f7565b9250506040610aaa868287016109dd565b9150509250925092565b60008115159050919050565b610ac981610ab4565b8114610ad457600080fd5b50565b600081359050610ae681610ac0565b92915050565b60008060408385031215610b0357610b0261076e565b5b6000610b1185828601610799565b9250506020610b2285828601610ad7565b9150509250929050565b60008060408385031215610b4357610b4261076e565b5b600083013567ffffffffffffffff811115610b6157610b60610773565b5b610b6d85828601610998565b9250506020610b7e858286016107f7565b9150509250929050565b600060208284031215610b9e57610b9d61076e565b5b6000610bac848285016107f7565b91505092915050565b600081519050919050565b600082825260208201905092915050565b60005b83811015610bef578082015181840152602081019050610bd4565b83811115610bfe576000848401525b50505050565b6000610c0f82610bb5565b610c198185610bc0565b9350610c29818560208601610bd1565b610c328161088a565b840191505092915050565b60006020820190508181036000830152610c578184610c04565b905092915050565b610c68816107ce565b82525050565b6000602082019050610c836000830184610c5f565b92915050565b600081519050610c98816107e0565b92915050565b600060208284031215610cb457610cb361076e565b5b6000610cc284828501610c89565b91505092915050565b6000604082019050610ce06000830185610c5f565b610ced6020830184610c5f565b939250505056fea26469706673582212207a20a72e27d5892beb26df04a00465d77427aaddeec4c9ca9c2300a1ddc786ba64736f6c634300080d0033",
  "linkReferences": {},
  "deployedLinkReferences": {}
}