{
  "_format": "hh-sol-artifact-1",
  "contractName": "DummyNFT",
  "sourceName": "src/examples/dummies/ERC721Token.sol",
  "abi": [
    {
      "inputs": [],
      "stateMutability": "nonpayable",
      "type": "constructor"
    },
    {
      "anonymous": false,
      "inputs": [
        {
          "indexed": true,
          "internalType": "address",
          "name": "owner",
          "type": "address"
        },
        {
          "indexed": true,
          "internalType": "address",
          "name": "approved",
          "type": "address"
        },
        {
          "indexed": true,
          "internalType": "uint256",
          "name": "tokenId",
          "type": "uint256"
        }
      ],
      "name": "Approval",
      "type": "event"
    },
    {
      "anonymous": false,
      "inputs": [
        {
          "indexed": true,
          "internalType": "address",
          "name": "owner",
          "type": "address"
        },
        {
          "indexed": true,
          "internalType": "address",
          "name": "operator",
          "type": "address"
        },
        {
          "indexed": false,
          "internalType": "bool",
          "name": "approved",
          "type": "bool"
        }
      ],
      "name": "ApprovalForAll",
      "type": "event"
    },
    {
      "anonymous": false,
      "inputs": [
        {
          "indexed": true,
          "internalType": "address",
          "name": "from",
          "type": "address"
        },
        {
          "indexed": true,
          "internalType": "address",
          "name": "to",
          "type": "address"
        },
        {
          "indexed": true,
          "internalType": "uint256",
          "name": "tokenId",
          "type": "uint256"
        }
      ],
      "name": "Transfer",
      "type": "event"
    },
    {
      "inputs": [
        {
          "internalType": "address",
          "name": "to",
          "type": "address"
        },
        {
          "internalType": "uint256",
          "name": "tokenId",
          "type": "uint256"
        }
      ],
      "name": "approve",
      "outputs": [],
      "stateMutability": "nonpayable",
      "type": "function"
    },
    {
      "inputs": [
        {
          "internalType": "address",
          "name": "owner",
          "type": "address"
        }
      ],
      "name": "balanceOf",
      "outputs": [
        {
          "internalType": "uint256",
          "name": "",
          "type": "uint256"
        }
      ],
      "stateMutability": "view",
      "type": "function"
    },
    {
      "inputs": [],
      "name": "freeMint",
      "outputs": [],
      "stateMutability": "nonpayable",
      "type": "function"
    },
    {
      "inputs": [
        {
          "internalType": "uint256",
          "name": "tokenId",
          "type": "uint256"
        }
      ],
      "name": "getApproved",
      "outputs": [
        {
          "internalType": "address",
          "name": "",
          "type": "address"
        }
      ],
      "stateMutability": "view",
      "type": "function"
    },
    {
      "inputs": [
        {
          "internalType": "address",
          "name": "owner",
          "type": "address"
        },
        {
          "internalType": "address",
          "name": "operator",
          "type": "address"
        }
      ],
      "name": "isApprovedForAll",
      "outputs": [
        {
          "internalType": "bool",
          "name": "",
          "type": "bool"
        }
      ],
      "stateMutability": "view",
      "type": "function"
    },
    {
      "inputs": [],
      "name": "issuedNFTs",
      "outputs": [
        {
          "internalType": "uint256",
          "name": "",
          "type": "uint256"
        }
      ],
      "stateMutability": "view",
      "type": "function"
    },
    {
      "inputs": [],
      "name": "name",
      "outputs": [
        {
          "internalType": "string",
          "name": "",
          "type": "string"
        }
      ],
      "stateMutability": "view",
      "type": "function"
    },
    {
      "inputs": [
        {
          "internalType": "uint256",
          "name": "tokenId",
          "type": "uint256"
        }
      ],
      "name": "ownerOf",
      "outputs": [
        {
          "internalType": "address",
          "name": "",
          "type": "address"
        }
      ],
      "stateMutability": "view",
      "type": "function"
    },
    {
      "inputs": [
        {
          "internalType": "address",
          "name": "from",
          "type": "address"
        },
        {
          "internalType": "address",
          "name": "to",
          "type": "address"
        },
        {
          "internalType": "uint256",
          "name": "tokenId",
          "type": "uint256"
        }
      ],
      "name": "safeTransferFrom",
      "outputs": [],
      "stateMutability": "nonpayable",
      "type": "function"
    },
    {
      "inputs": [
        {
          "internalType": "address",
          "name": "from",
          "type": "address"
        },
        {
          "internalType": "address",
          "name": "to",
          "type": "address"
        },
        {
          "internalType": "uint256",
          "name": "tokenId",
          "type": "uint256"
        },
        {
          "internalType": "bytes",
          "name": "_data",
          "type": "bytes"
        }
      ],
      "name": "safeTransferFrom",
      "outputs": [],
      "stateMutability": "nonpayable",
      "type": "function"
    },
    {
      "inputs": [
        {
          "internalType": "address",
          "name": "operator",
          "type": "address"
        },
        {
          "internalType": "bool",
          "name": "approved",
          "type": "bool"
        }
      ],
      "name": "setApprovalForAll",
      "outputs": [],
      "stateMutability": "nonpayable",
      "type": "function"
    },
    {
      "inputs": [
        {
          "internalType": "bytes4",
          "name": "interfaceId",
          "type": "bytes4"
        }
      ],
      "name": "supportsInterface",
      "outputs": [
        {
          "internalType": "bool",
          "name": "",
          "type": "bool"
        }
      ],
      "stateMutability": "view",
      "type": "function"
    },
    {
      "inputs": [],
      "name": "symbol",
      "outputs": [
        {
          "internalType": "string",
          "name": "",
          "type": "string"
        }
      ],
      "stateMutability": "view",
      "type": "function"
    },
    {
      "inputs": [
        {
          "internalType": "uint256",
          "name": "tokenId",
          "type": "uint256"
        }
      ],
      "name": "tokenURI",
      "outputs": [
        {
          "internalType": "string",
          "name": "",
          "type": "string"
        }
      ],
      "stateMutability": "view",
      "type": "function"
    },
    {
      "inputs": [
        {
          "internalType": "address",
          "name": "from",
          "type": "address"
        },
        {
          "internalType": "address",
          "name": "to",
          "type": "address"
        },
        {
          "internalType": "uint256",
          "name": "tokenId",
          "type": "uint256"
        }
      ],
      "name": "transferFrom",
      "outputs": [],
      "stateMutability": "nonpayable",
      "type": "function"
    }
  ],
  "bytecode": "0x60806040523480156200001157600080fd5b506040518060400160405280600881526020017f44756d6d794e46540000000000000000000000000000000000000000000000008152506040518060400160405280600581526020017f44554d4d59000000000000000000000000000000000000000000000000000000815250816000908051906020019062000096929190620000b8565b508060019080519060200190620000af929190620000b8565b505050620001cc565b828054620000c69062000197565b90600052602060002090601f016020900481019282620000ea576000855562000136565b82601f106200010557805160ff191683800117855562000136565b8280016001018555821562000136579182015b828111156200013557825182559160200191906001019062000118565b5b50905062000145919062000149565b5090565b5b80821115620001645760008160009055506001016200014a565b5090565b7f4e487b7100000000000000000000000000000000000000000000000000000000600052602260045260246000fd5b60006002820490506001821680620001b057607f821691505b602082108103620001c657620001c562000168565b5b50919050565b61270180620001dc6000396000f3fe608060405234801561001057600080fd5b50600436106100f55760003560e01c80636168a97511610097578063a22cb46511610066578063a22cb46514610272578063b88d4fde1461028e578063c87b56dd146102aa578063e985e9c5146102da576100f5565b80636168a975146101d65780636352211e146101f457806370a082311461022457806395d89b4114610254576100f5565b8063095ea7b3116100d3578063095ea7b31461017857806323b872dd1461019457806342842e0e146101b05780635b70ea9f146101cc576100f5565b806301ffc9a7146100fa57806306fdde031461012a578063081812fc14610148575b600080fd5b610114600480360381019061010f9190611686565b61030a565b60405161012191906116ce565b60405180910390f35b6101326103ec565b60405161013f9190611782565b60405180910390f35b610162600480360381019061015d91906117da565b61047e565b60405161016f9190611848565b60405180910390f35b610192600480360381019061018d919061188f565b610503565b005b6101ae60048036038101906101a991906118cf565b61061a565b005b6101ca60048036038101906101c591906118cf565b61067a565b005b6101d461069a565b005b6101de6106c0565b6040516101eb9190611931565b60405180910390f35b61020e600480360381019061020991906117da565b6106c6565b60405161021b9190611848565b60405180910390f35b61023e6004803603810190610239919061194c565b610777565b60405161024b9190611931565b60405180910390f35b61025c61082e565b6040516102699190611782565b60405180910390f35b61028c600480360381019061028791906119a5565b6108c0565b005b6102a860048036038101906102a39190611b1a565b6108d6565b005b6102c460048036038101906102bf91906117da565b610938565b6040516102d19190611782565b60405180910390f35b6102f460048036038101906102ef9190611b9d565b6109df565b60405161030191906116ce565b60405180910390f35b60007f80ac58cd000000000000000000000000000000000000000000000000000000007bffffffffffffffffffffffffffffffffffffffffffffffffffffffff1916827bffffffffffffffffffffffffffffffffffffffffffffffffffffffff191614806103d557507f5b5e139f000000000000000000000000000000000000000000000000000000007bffffffffffffffffffffffffffffffffffffffffffffffffffffffff1916827bffffffffffffffffffffffffffffffffffffffffffffffffffffffff1916145b806103e557506103e482610a73565b5b9050919050565b6060600080546103fb90611c0c565b80601f016020809104026020016040519081016040528092919081815260200182805461042790611c0c565b80156104745780601f1061044957610100808354040283529160200191610474565b820191906000526020600020905b81548152906001019060200180831161045757829003601f168201915b5050505050905090565b600061048982610add565b6104c8576040517f08c379a00000000000000000000000000000000000000000000000000000000081526004016104bf90611caf565b60405180910390fd5b6004600083815260200190815260200160002060009054906101000a900473ffffffffffffffffffffffffffffffffffffffff169050919050565b600061050e826106c6565b90508073ffffffffffffffffffffffffffffffffffffffff168373ffffffffffffffffffffffffffffffffffffffff160361057e576040517f08c379a000000000000000000000000000000000000000000000000000000000815260040161057590611d41565b60405180910390fd5b8073ffffffffffffffffffffffffffffffffffffffff1661059d610b49565b73ffffffffffffffffffffffffffffffffffffffff1614806105cc57506105cb816105c6610b49565b6109df565b5b61060b576040517f08c379a000000000000000000000000000000000000000000000000000000000815260040161060290611dd3565b60405180910390fd5b6106158383610b51565b505050565b61062b610625610b49565b82610c0a565b61066a576040517f08c379a000000000000000000000000000000000000000000000000000000000815260040161066190611e65565b60405180910390fd5b610675838383610ce8565b505050565b610695838383604051806020016040528060008152506108d6565b505050565b6106a633600654610f4e565b600660008154809291906106b990611eb4565b9190505550565b60065481565b6000806002600084815260200190815260200160002060009054906101000a900473ffffffffffffffffffffffffffffffffffffffff169050600073ffffffffffffffffffffffffffffffffffffffff168173ffffffffffffffffffffffffffffffffffffffff160361076e576040517f08c379a000000000000000000000000000000000000000000000000000000000815260040161076590611f6e565b60405180910390fd5b80915050919050565b60008073ffffffffffffffffffffffffffffffffffffffff168273ffffffffffffffffffffffffffffffffffffffff16036107e7576040517f08c379a00000000000000000000000000000000000000000000000000000000081526004016107de90612000565b60405180910390fd5b600360008373ffffffffffffffffffffffffffffffffffffffff1673ffffffffffffffffffffffffffffffffffffffff168152602001908152602001600020549050919050565b60606001805461083d90611c0c565b80601f016020809104026020016040519081016040528092919081815260200182805461086990611c0c565b80156108b65780601f1061088b576101008083540402835291602001916108b6565b820191906000526020600020905b81548152906001019060200180831161089957829003601f168201915b5050505050905090565b6108d26108cb610b49565b8383611127565b5050565b6108e76108e1610b49565b83610c0a565b610926576040517f08c379a000000000000000000000000000000000000000000000000000000000815260040161091d90611e65565b60405180910390fd5b61093284848484611293565b50505050565b606061094382610add565b610982576040517f08c379a000000000000000000000000000000000000000000000000000000000815260040161097990612092565b60405180910390fd5b600061098c6112ef565b905060008151116109ac57604051806020016040528060008152506109d7565b806109b684611306565b6040516020016109c79291906120ee565b6040516020818303038152906040525b915050919050565b6000600560008473ffffffffffffffffffffffffffffffffffffffff1673ffffffffffffffffffffffffffffffffffffffff16815260200190815260200160002060008373ffffffffffffffffffffffffffffffffffffffff1673ffffffffffffffffffffffffffffffffffffffff16815260200190815260200160002060009054906101000a900460ff16905092915050565b60007f01ffc9a7000000000000000000000000000000000000000000000000000000007bffffffffffffffffffffffffffffffffffffffffffffffffffffffff1916827bffffffffffffffffffffffffffffffffffffffffffffffffffffffff1916149050919050565b60008073ffffffffffffffffffffffffffffffffffffffff166002600084815260200190815260200160002060009054906101000a900473ffffffffffffffffffffffffffffffffffffffff1673ffffffffffffffffffffffffffffffffffffffff1614159050919050565b600033905090565b816004600083815260200190815260200160002060006101000a81548173ffffffffffffffffffffffffffffffffffffffff021916908373ffffffffffffffffffffffffffffffffffffffff160217905550808273ffffffffffffffffffffffffffffffffffffffff16610bc4836106c6565b73ffffffffffffffffffffffffffffffffffffffff167f8c5be1e5ebec7d5bd14f71427d1e84f3dd0314c0f7b2291e5b200ac8c7c3b92560405160405180910390a45050565b6000610c1582610add565b610c54576040517f08c379a0000000000000000000000000000000000000000000000000000000008152600401610c4b90612184565b60405180910390fd5b6000610c5f836106c6565b90508073ffffffffffffffffffffffffffffffffffffffff168473ffffffffffffffffffffffffffffffffffffffff161480610ca15750610ca081856109df565b5b80610cdf57508373ffffffffffffffffffffffffffffffffffffffff16610cc78461047e565b73ffffffffffffffffffffffffffffffffffffffff16145b91505092915050565b8273ffffffffffffffffffffffffffffffffffffffff16610d08826106c6565b73ffffffffffffffffffffffffffffffffffffffff1614610d5e576040517f08c379a0000000000000000000000000000000000000000000000000000000008152600401610d5590612216565b60405180910390fd5b600073ffffffffffffffffffffffffffffffffffffffff168273ffffffffffffffffffffffffffffffffffffffff1603610dcd576040517f08c379a0000000000000000000000000000000000000000000000000000000008152600401610dc4906122a8565b60405180910390fd5b610dd8838383611466565b610de3600082610b51565b6001600360008573ffffffffffffffffffffffffffffffffffffffff1673ffffffffffffffffffffffffffffffffffffffff1681526020019081526020016000206000828254610e3391906122c8565b925050819055506001600360008473ffffffffffffffffffffffffffffffffffffffff1673ffffffffffffffffffffffffffffffffffffffff1681526020019081526020016000206000828254610e8a91906122fc565b92505081905550816002600083815260200190815260200160002060006101000a81548173ffffffffffffffffffffffffffffffffffffffff021916908373ffffffffffffffffffffffffffffffffffffffff160217905550808273ffffffffffffffffffffffffffffffffffffffff168473ffffffffffffffffffffffffffffffffffffffff167fddf252ad1be2c89b69c2b068fc378daa952ba7f163c4a11628f55a4df523b3ef60405160405180910390a4610f4983838361146b565b505050565b600073ffffffffffffffffffffffffffffffffffffffff168273ffffffffffffffffffffffffffffffffffffffff1603610fbd576040517f08c379a0000000000000000000000000000000000000000000000000000000008152600401610fb49061239e565b60405180910390fd5b610fc681610add565b15611006576040517f08c379a0000000000000000000000000000000000000000000000000000000008152600401610ffd9061240a565b60405180910390fd5b61101260008383611466565b6001600360008473ffffffffffffffffffffffffffffffffffffffff1673ffffffffffffffffffffffffffffffffffffffff168152602001908152602001600020600082825461106291906122fc565b92505081905550816002600083815260200190815260200160002060006101000a81548173ffffffffffffffffffffffffffffffffffffffff021916908373ffffffffffffffffffffffffffffffffffffffff160217905550808273ffffffffffffffffffffffffffffffffffffffff16600073ffffffffffffffffffffffffffffffffffffffff167fddf252ad1be2c89b69c2b068fc378daa952ba7f163c4a11628f55a4df523b3ef60405160405180910390a46111236000838361146b565b5050565b8173ffffffffffffffffffffffffffffffffffffffff168373ffffffffffffffffffffffffffffffffffffffff1603611195576040517f08c379a000000000000000000000000000000000000000000000000000000000815260040161118c90612476565b60405180910390fd5b80600560008573ffffffffffffffffffffffffffffffffffffffff1673ffffffffffffffffffffffffffffffffffffffff16815260200190815260200160002060008473ffffffffffffffffffffffffffffffffffffffff1673ffffffffffffffffffffffffffffffffffffffff16815260200190815260200160002060006101000a81548160ff0219169083151502179055508173ffffffffffffffffffffffffffffffffffffffff168373ffffffffffffffffffffffffffffffffffffffff167f17307eab39ab6107e8899845ad3d59bd9653f200f220920489ca2b5937696c318360405161128691906116ce565b60405180910390a3505050565b61129e848484610ce8565b6112aa84848484611470565b6112e9576040517f08c379a00000000000000000000000000000000000000000000000000000000081526004016112e090612508565b60405180910390fd5b50505050565b606060405180602001604052806000815250905090565b60606000820361134d576040518060400160405280600181526020017f30000000000000000000000000000000000000000000000000000000000000008152509050611461565b600082905060005b6000821461137f57808061136890611eb4565b915050600a826113789190612557565b9150611355565b60008167ffffffffffffffff81111561139b5761139a6119ef565b5b6040519080825280601f01601f1916602001820160405280156113cd5781602001600182028036833780820191505090505b5090505b6000851461145a576001826113e691906122c8565b9150600a856113f59190612588565b603061140191906122fc565b60f81b818381518110611417576114166125b9565b5b60200101907effffffffffffffffffffffffffffffffffffffffffffffffffffffffffffff1916908160001a905350600a856114539190612557565b94506113d1565b8093505050505b919050565b505050565b505050565b60006114918473ffffffffffffffffffffffffffffffffffffffff166115f7565b156115ea578373ffffffffffffffffffffffffffffffffffffffff1663150b7a026114ba610b49565b8786866040518563ffffffff1660e01b81526004016114dc949392919061263d565b6020604051808303816000875af192505050801561151857506040513d601f19601f82011682018060405250810190611515919061269e565b60015b61159a573d8060008114611548576040519150601f19603f3d011682016040523d82523d6000602084013e61154d565b606091505b506000815103611592576040517f08c379a000000000000000000000000000000000000000000000000000000000815260040161158990612508565b60405180910390fd5b805181602001fd5b63150b7a0260e01b7bffffffffffffffffffffffffffffffffffffffffffffffffffffffff1916817bffffffffffffffffffffffffffffffffffffffffffffffffffffffff1916149150506115ef565b600190505b949350505050565b6000808273ffffffffffffffffffffffffffffffffffffffff163b119050919050565b6000604051905090565b600080fd5b600080fd5b60007fffffffff0000000000000000000000000000000000000000000000000000000082169050919050565b6116638161162e565b811461166e57600080fd5b50565b6000813590506116808161165a565b92915050565b60006020828403121561169c5761169b611624565b5b60006116aa84828501611671565b91505092915050565b60008115159050919050565b6116c8816116b3565b82525050565b60006020820190506116e360008301846116bf565b92915050565b600081519050919050565b600082825260208201905092915050565b60005b83811015611723578082015181840152602081019050611708565b83811115611732576000848401525b50505050565b6000601f19601f8301169050919050565b6000611754826116e9565b61175e81856116f4565b935061176e818560208601611705565b61177781611738565b840191505092915050565b6000602082019050818103600083015261179c8184611749565b905092915050565b6000819050919050565b6117b7816117a4565b81146117c257600080fd5b50565b6000813590506117d4816117ae565b92915050565b6000602082840312156117f0576117ef611624565b5b60006117fe848285016117c5565b91505092915050565b600073ffffffffffffffffffffffffffffffffffffffff82169050919050565b600061183282611807565b9050919050565b61184281611827565b82525050565b600060208201905061185d6000830184611839565b92915050565b61186c81611827565b811461187757600080fd5b50565b60008135905061188981611863565b92915050565b600080604083850312156118a6576118a5611624565b5b60006118b48582860161187a565b92505060206118c5858286016117c5565b9150509250929050565b6000806000606084860312156118e8576118e7611624565b5b60006118f68682870161187a565b93505060206119078682870161187a565b9250506040611918868287016117c5565b9150509250925092565b61192b816117a4565b82525050565b60006020820190506119466000830184611922565b92915050565b60006020828403121561196257611961611624565b5b60006119708482850161187a565b91505092915050565b611982816116b3565b811461198d57600080fd5b50565b60008135905061199f81611979565b92915050565b600080604083850312156119bc576119bb611624565b5b60006119ca8582860161187a565b92505060206119db85828601611990565b9150509250929050565b600080fd5b600080fd5b7f4e487b7100000000000000000000000000000000000000000000000000000000600052604160045260246000fd5b611a2782611738565b810181811067ffffffffffffffff82111715611a4657611a456119ef565b5b80604052505050565b6000611a5961161a565b9050611a658282611a1e565b919050565b600067ffffffffffffffff821115611a8557611a846119ef565b5b611a8e82611738565b9050602081019050919050565b82818337600083830152505050565b6000611abd611ab884611a6a565b611a4f565b905082815260208101848484011115611ad957611ad86119ea565b5b611ae4848285611a9b565b509392505050565b600082601f830112611b0157611b006119e5565b5b8135611b11848260208601611aaa565b91505092915050565b60008060008060808587031215611b3457611b33611624565b5b6000611b428782880161187a565b9450506020611b538782880161187a565b9350506040611b64878288016117c5565b925050606085013567ffffffffffffffff811115611b8557611b84611629565b5b611b9187828801611aec565b91505092959194509250565b60008060408385031215611bb457611bb3611624565b5b6000611bc28582860161187a565b9250506020611bd38582860161187a565b9150509250929050565b7f4e487b7100000000000000000000000000000000000000000000000000000000600052602260045260246000fd5b60006002820490506001821680611c2457607f821691505b602082108103611c3757611c36611bdd565b5b50919050565b7f4552433732313a20617070726f76656420717565727920666f72206e6f6e657860008201527f697374656e7420746f6b656e0000000000000000000000000000000000000000602082015250565b6000611c99602c836116f4565b9150611ca482611c3d565b604082019050919050565b60006020820190508181036000830152611cc881611c8c565b9050919050565b7f4552433732313a20617070726f76616c20746f2063757272656e74206f776e6560008201527f7200000000000000000000000000000000000000000000000000000000000000602082015250565b6000611d2b6021836116f4565b9150611d3682611ccf565b604082019050919050565b60006020820190508181036000830152611d5a81611d1e565b9050919050565b7f4552433732313a20617070726f76652063616c6c6572206973206e6f74206f7760008201527f6e6572206e6f7220617070726f76656420666f7220616c6c0000000000000000602082015250565b6000611dbd6038836116f4565b9150611dc882611d61565b604082019050919050565b60006020820190508181036000830152611dec81611db0565b9050919050565b7f4552433732313a207472616e736665722063616c6c6572206973206e6f74206f60008201527f776e6572206e6f7220617070726f766564000000000000000000000000000000602082015250565b6000611e4f6031836116f4565b9150611e5a82611df3565b604082019050919050565b60006020820190508181036000830152611e7e81611e42565b9050919050565b7f4e487b7100000000000000000000000000000000000000000000000000000000600052601160045260246000fd5b6000611ebf826117a4565b91507fffffffffffffffffffffffffffffffffffffffffffffffffffffffffffffffff8203611ef157611ef0611e85565b5b600182019050919050565b7f4552433732313a206f776e657220717565727920666f72206e6f6e657869737460008201527f656e7420746f6b656e0000000000000000000000000000000000000000000000602082015250565b6000611f586029836116f4565b9150611f6382611efc565b604082019050919050565b60006020820190508181036000830152611f8781611f4b565b9050919050565b7f4552433732313a2062616c616e636520717565727920666f7220746865207a6560008201527f726f206164647265737300000000000000000000000000000000000000000000602082015250565b6000611fea602a836116f4565b9150611ff582611f8e565b604082019050919050565b6000602082019050818103600083015261201981611fdd565b9050919050565b7f4552433732314d657461646174613a2055524920717565727920666f72206e6f60008201527f6e6578697374656e7420746f6b656e0000000000000000000000000000000000602082015250565b600061207c602f836116f4565b915061208782612020565b604082019050919050565b600060208201905081810360008301526120ab8161206f565b9050919050565b600081905092915050565b60006120c8826116e9565b6120d281856120b2565b93506120e2818560208601611705565b80840191505092915050565b60006120fa82856120bd565b915061210682846120bd565b91508190509392505050565b7f4552433732313a206f70657261746f7220717565727920666f72206e6f6e657860008201527f697374656e7420746f6b656e0000000000000000000000000000000000000000602082015250565b600061216e602c836116f4565b915061217982612112565b604082019050919050565b6000602082019050818103600083015261219d81612161565b9050919050565b7f4552433732313a207472616e736665722066726f6d20696e636f72726563742060008201527f6f776e6572000000000000000000000000000000000000000000000000000000602082015250565b60006122006025836116f4565b915061220b826121a4565b604082019050919050565b6000602082019050818103600083015261222f816121f3565b9050919050565b7f4552433732313a207472616e7366657220746f20746865207a65726f2061646460008201527f7265737300000000000000000000000000000000000000000000000000000000602082015250565b60006122926024836116f4565b915061229d82612236565b604082019050919050565b600060208201905081810360008301526122c181612285565b9050919050565b60006122d3826117a4565b91506122de836117a4565b9250828210156122f1576122f0611e85565b5b828203905092915050565b6000612307826117a4565b9150612312836117a4565b9250827fffffffffffffffffffffffffffffffffffffffffffffffffffffffffffffffff0382111561234757612346611e85565b5b828201905092915050565b7f4552433732313a206d696e7420746f20746865207a65726f2061646472657373600082015250565b60006123886020836116f4565b915061239382612352565b602082019050919050565b600060208201905081810360008301526123b78161237b565b9050919050565b7f4552433732313a20746f6b656e20616c7265616479206d696e74656400000000600082015250565b60006123f4601c836116f4565b91506123ff826123be565b602082019050919050565b60006020820190508181036000830152612423816123e7565b9050919050565b7f4552433732313a20617070726f766520746f2063616c6c657200000000000000600082015250565b60006124606019836116f4565b915061246b8261242a565b602082019050919050565b6000602082019050818103600083015261248f81612453565b9050919050565b7f4552433732313a207472616e7366657220746f206e6f6e20455243373231526560008201527f63656976657220696d706c656d656e7465720000000000000000000000000000602082015250565b60006124f26032836116f4565b91506124fd82612496565b604082019050919050565b60006020820190508181036000830152612521816124e5565b9050919050565b7f4e487b7100000000000000000000000000000000000000000000000000000000600052601260045260246000fd5b6000612562826117a4565b915061256d836117a4565b92508261257d5761257c612528565b5b828204905092915050565b6000612593826117a4565b915061259e836117a4565b9250826125ae576125ad612528565b5b828206905092915050565b7f4e487b7100000000000000000000000000000000000000000000000000000000600052603260045260246000fd5b600081519050919050565b600082825260208201905092915050565b600061260f826125e8565b61261981856125f3565b9350612629818560208601611705565b61263281611738565b840191505092915050565b60006080820190506126526000830187611839565b61265f6020830186611839565b61266c6040830185611922565b818103606083015261267e8184612604565b905095945050505050565b6000815190506126988161165a565b92915050565b6000602082840312156126b4576126b3611624565b5b60006126c284828501612689565b9150509291505056fea264697066735822122095f3c49427692b488044672e8bb6726bdc40b95f23a6e16d5de134baf67c8dbe64736f6c634300080d0033",
  "linkReferences": {},
  "deployedLinkReferences": {}
}