{
  "_format": "hh-sol-artifact-1",
  "contractName": "MajorityVoteWithNFTQuorumAndOptionalDVGuard",
  "sourceName": "src/implementations/votingContracts/SimpleMajorityVote/MajorityVoteWithNFTQuorumAndOptionalDVGuard.sol",
  "abi": [
    {
      "inputs": [
        {
          "internalType": "uint256",
          "name": "identifier",
          "type": "uint256"
        },
        {
          "internalType": "address",
          "name": "voter",
          "type": "address"
        }
      ],
      "name": "AlreadyVoted",
      "type": "error"
    },
    {
      "inputs": [
        {
          "internalType": "uint256",
          "name": "identifier",
          "type": "uint256"
        },
        {
          "internalType": "uint256",
          "name": "deadline",
          "type": "uint256"
        }
      ],
      "name": "DeadlineHasNotPassed",
      "type": "error"
    },
    {
      "inputs": [
        {
          "internalType": "uint256",
          "name": "identifier",
          "type": "uint256"
        },
        {
          "internalType": "uint256",
          "name": "deadline",
          "type": "uint256"
        }
      ],
      "name": "DeadlineHasPassed",
      "type": "error"
    },
    {
      "inputs": [
        {
          "internalType": "uint256",
          "name": "identifier",
          "type": "uint256"
        }
      ],
      "name": "ExpectedReturnError",
      "type": "error"
    },
    {
      "inputs": [
        {
          "internalType": "uint256",
          "name": "identifier",
          "type": "uint256"
        },
        {
          "internalType": "uint256",
          "name": "status",
          "type": "uint256"
        }
      ],
      "name": "ImplementingNotPermitted",
      "type": "error"
    },
    {
      "inputs": [],
      "name": "InvalidCalldata",
      "type": "error"
    },
    {
      "inputs": [
        {
          "internalType": "uint256",
          "name": "identifier",
          "type": "uint256"
        },
        {
          "internalType": "uint256",
          "name": "status",
          "type": "uint256"
        }
      ],
      "name": "StatusError",
      "type": "error"
    },
    {
      "anonymous": false,
      "inputs": [
        {
          "indexed": false,
          "internalType": "uint256",
          "name": "identifier",
          "type": "uint256"
        }
      ],
      "name": "Implemented",
      "type": "event"
    },
    {
      "anonymous": false,
      "inputs": [
        {
          "indexed": false,
          "internalType": "uint256",
          "name": "identifier",
          "type": "uint256"
        }
      ],
      "name": "NotImplemented",
      "type": "event"
    },
    {
      "anonymous": false,
      "inputs": [
        {
          "indexed": false,
          "internalType": "uint256",
          "name": "identifier",
          "type": "uint256"
        },
        {
          "indexed": false,
          "internalType": "address",
          "name": "caller",
          "type": "address"
        }
      ],
      "name": "VotingInstanceStarted",
      "type": "event"
    },
    {
      "inputs": [
        {
          "internalType": "bytes",
          "name": "votingParams",
          "type": "bytes"
        }
      ],
      "name": "decodeParameters",
      "outputs": [
        {
          "internalType": "address",
          "name": "token",
          "type": "address"
        },
        {
          "internalType": "uint256",
          "name": "duration",
          "type": "uint256"
        },
        {
          "internalType": "uint256",
          "name": "quorumInTokens",
          "type": "uint256"
        },
        {
          "internalType": "bool",
          "name": "expectReturnValue",
          "type": "bool"
        },
        {
          "internalType": "enum HandleDoubleVotingGuard.VotingGuard",
          "name": "guardOnSenderVotingDataOrNone",
          "type": "uint8"
        }
      ],
      "stateMutability": "pure",
      "type": "function"
    },
    {
      "inputs": [
        {
          "internalType": "address",
          "name": "token",
          "type": "address"
        },
        {
          "internalType": "uint256",
          "name": "duration",
          "type": "uint256"
        },
        {
          "internalType": "uint256",
          "name": "quorumInTokens",
          "type": "uint256"
        },
        {
          "internalType": "bool",
          "name": "expectReturnValue",
          "type": "bool"
        },
        {
          "internalType": "enum HandleDoubleVotingGuard.VotingGuard",
          "name": "guardOnSenderVotingDataOrNone",
          "type": "uint8"
        }
      ],
      "name": "encodeParameters",
      "outputs": [
        {
          "internalType": "bytes",
          "name": "votingParams",
          "type": "bytes"
        }
      ],
      "stateMutability": "pure",
      "type": "function"
    },
    {
      "inputs": [],
      "name": "getCurrentIndex",
      "outputs": [
        {
          "internalType": "uint256",
          "name": "currentIndex",
          "type": "uint256"
        }
      ],
      "stateMutability": "view",
      "type": "function"
    },
    {
      "inputs": [
        {
          "internalType": "uint256",
          "name": "identifier",
          "type": "uint256"
        }
      ],
      "name": "getDeadline",
      "outputs": [
        {
          "internalType": "uint256",
          "name": "",
          "type": "uint256"
        }
      ],
      "stateMutability": "view",
      "type": "function"
    },
    {
      "inputs": [
        {
          "internalType": "uint256",
          "name": "identifier",
          "type": "uint256"
        }
      ],
      "name": "getDoubleVotingGuard",
      "outputs": [
        {
          "internalType": "enum HandleDoubleVotingGuard.VotingGuard",
          "name": "",
          "type": "uint8"
        }
      ],
      "stateMutability": "view",
      "type": "function"
    },
    {
      "inputs": [
        {
          "internalType": "uint256",
          "name": "identifier",
          "type": "uint256"
        }
      ],
      "name": "getQuorum",
      "outputs": [
        {
          "internalType": "uint256",
          "name": "quorum",
          "type": "uint256"
        },
        {
          "internalType": "uint256",
          "name": "inUnitsOf",
          "type": "uint256"
        }
      ],
      "stateMutability": "view",
      "type": "function"
    },
    {
      "inputs": [
        {
          "internalType": "uint256",
          "name": "identifier",
          "type": "uint256"
        }
      ],
      "name": "getStatus",
      "outputs": [
        {
          "internalType": "uint256",
          "name": "status",
          "type": "uint256"
        }
      ],
      "stateMutability": "view",
      "type": "function"
    },
    {
      "inputs": [
        {
          "internalType": "uint256",
          "name": "identifier",
          "type": "uint256"
        }
      ],
      "name": "getTarget",
      "outputs": [
        {
          "internalType": "address",
          "name": "target",
          "type": "address"
        }
      ],
      "stateMutability": "view",
      "type": "function"
    },
    {
      "inputs": [
        {
          "internalType": "uint256",
          "name": "identifier",
          "type": "uint256"
        }
      ],
      "name": "getToken",
      "outputs": [
        {
          "internalType": "address",
          "name": "",
          "type": "address"
        }
      ],
      "stateMutability": "view",
      "type": "function"
    },
    {
      "inputs": [
        {
          "internalType": "uint256",
          "name": "identifier",
          "type": "uint256"
        },
        {
          "internalType": "bytes",
          "name": "callback",
          "type": "bytes"
        }
      ],
      "name": "implement",
      "outputs": [
        {
          "internalType": "enum IImplementResult.Response",
          "name": "",
          "type": "uint8"
        }
      ],
      "stateMutability": "payable",
      "type": "function"
    },
    {
      "inputs": [
        {
          "internalType": "uint256",
          "name": "identifier",
          "type": "uint256"
        }
      ],
      "name": "result",
      "outputs": [
        {
          "internalType": "bytes",
          "name": "resultData",
          "type": "bytes"
        }
      ],
      "stateMutability": "view",
      "type": "function"
    },
    {
      "inputs": [
        {
          "internalType": "bytes",
          "name": "votingParams",
          "type": "bytes"
        },
        {
          "internalType": "bytes",
          "name": "callback",
          "type": "bytes"
        }
      ],
      "name": "start",
      "outputs": [
        {
          "internalType": "uint256",
          "name": "identifier",
          "type": "uint256"
        }
      ],
      "stateMutability": "nonpayable",
      "type": "function"
    },
    {
      "inputs": [
        {
          "internalType": "bytes4",
          "name": "interfaceId",
          "type": "bytes4"
        }
      ],
      "name": "supportsInterface",
      "outputs": [
        {
          "internalType": "bool",
          "name": "",
          "type": "bool"
        }
      ],
      "stateMutability": "pure",
      "type": "function"
    },
    {
      "inputs": [
        {
          "internalType": "uint256",
          "name": "identifier",
          "type": "uint256"
        },
        {
          "internalType": "bytes",
          "name": "votingData",
          "type": "bytes"
        }
      ],
      "name": "vote",
      "outputs": [
        {
          "internalType": "uint256",
          "name": "",
          "type": "uint256"
        }
      ],
      "stateMutability": "nonpayable",
      "type": "function"
    }
  ],
  "bytecode": "0x608060405234801561001057600080fd5b506122a6806100206000396000f3fe6080604052600436106100dd5760003560e01c80637c5a43ec1161007f578063c691207e11610059578063c691207e14610326578063e4b50cb814610367578063e6acc7cd146103a4578063f087b7fa146103e1576100dd565b80637c5a43ec1461026e57806382862275146102ac578063b88b82ba146102e9576100dd565b80631540ac51116100bb5780631540ac51146101875780631d64c4f2146101b75780633c594059146101f45780635c622a0e14610231576100dd565b806301ffc9a7146100e25780630d9005ae1461011f5780631080156e1461014a575b600080fd5b3480156100ee57600080fd5b506101096004803603810190610104919061167a565b61041e565b60405161011691906116c2565b60405180910390f35b34801561012b57600080fd5b506101346105d0565b60405161014191906116f6565b60405180910390f35b34801561015657600080fd5b50610171600480360381019061016c91906118b7565b6105da565b60405161017e91906116f6565b60405180910390f35b6101a1600480360381019061019c919061195f565b61064b565b6040516101ae9190611a36565b60405180910390f35b3480156101c357600080fd5b506101de60048036038101906101d99190611a51565b6107ea565b6040516101eb9190611ac6565b60405180910390f35b34801561020057600080fd5b5061021b60048036038101906102169190611a51565b610814565b6040516102289190611b69565b60405180910390f35b34801561023d57600080fd5b5061025860048036038101906102539190611a51565b610845565b60405161026591906116f6565b60405180910390f35b34801561027a57600080fd5b5061029560048036038101906102909190611a51565b610862565b6040516102a3929190611b8b565b60405180910390f35b3480156102b857600080fd5b506102d360048036038101906102ce9190611a51565b610886565b6040516102e091906116f6565b60405180910390f35b3480156102f557600080fd5b50610310600480360381019061030b919061195f565b6108a3565b60405161031d91906116f6565b60405180910390f35b34801561033257600080fd5b5061034d60048036038101906103489190611bb4565b610dab565b60405161035e959493929190611c3e565b60405180910390f35b34801561037357600080fd5b5061038e60048036038101906103899190611a51565b610de4565b60405161039b9190611c91565b60405180910390f35b3480156103b057600080fd5b506103cb60048036038101906103c69190611a51565b610e21565b6040516103d89190611c91565b60405180910390f35b3480156103ed57600080fd5b5061040860048036038101906104039190611d29565b610e5d565b6040516104159190611b69565b60405180910390f35b600061042982610e92565b8061049157507f82862275000000000000000000000000000000000000000000000000000000007bffffffffffffffffffffffffffffffffffffffffffffffffffffffff1916827bffffffffffffffffffffffffffffffffffffffffffffffffffffffff1916145b806104f957507f1d64c4f2000000000000000000000000000000000000000000000000000000007bffffffffffffffffffffffffffffffffffffffffffffffffffffffff1916827bffffffffffffffffffffffffffffffffffffffffffffffffffffffff1916145b8061056157507f7c5a43ec000000000000000000000000000000000000000000000000000000007bffffffffffffffffffffffffffffffffffffffffffffffffffffffff1916827bffffffffffffffffffffffffffffffffffffffffffffffffffffffff1916145b806105c957507fe4b50cb8000000000000000000000000000000000000000000000000000000007bffffffffffffffffffffffffffffffffffffffffffffffffffffffff1916827bffffffffffffffffffffffffffffffffffffffffffffffffffffffff1916145b9050919050565b6000600954905090565b60006105ea600954858585610f64565b7f8e967d6054e2a51c6c0b65a326c2c53edf07f50d4a854e102eed777cfb5913786009543360405161061d929190611da4565b60405180910390a1600954905060016009600082825461063d9190611dfc565b925050819055509392505050565b600061065684611118565b6106ac578360026000868152602001908152602001600020546040517f5ff5ab730000000000000000000000000000000000000000000000000000000081526004016106a3929190611b8b565b60405180910390fd5b6106b78484846111a6565b600080600086815260200190815260200160002060009054906101000a900473ffffffffffffffffffffffffffffffffffffffff16905060008061071e8387878a60405160200161070a93929190611ea3565b6040516020818303038152906040526111ec565b9150915060016002811115610736576107356119bf565b5b826002811115610749576107486119bf565b5b0361075f576107588782611283565b915061076c565b6107698782611336565b91505b600160028111156107805761077f6119bf565b5b826002811115610793576107926119bf565b5b146107b157600260048111156107ac576107ab6119bf565b5b6107c6565b600160048111156107c5576107c46119bf565b5b5b60026000898152602001908152602001600020819055508193505050509392505050565b60006005600083815260200190815260200160002060009054906101000a900460ff169050919050565b606061081f8261138a565b60405160200161082f9190611f78565b6040516020818303038152906040529050919050565b600060026000838152602001908152602001600020549050919050565b6000806008600084815260200190815260200160002054620186a091509150915091565b600060076000838152602001908152602001600020549050919050565b60006003808111156108b8576108b76119bf565b5b600260008681526020019081526020016000205414610923578360026000868152602001908152602001600020546040517f42ffc09700000000000000000000000000000000000000000000000000000000815260040161091a929190611b8b565b60405180910390fd5b61092c846113e8565b156109555761093a846113fa565b60026000858152602001908152602001600020549050610da4565b6000806000600281111561096c5761096b6119bf565b5b6005600088815260200190815260200160002060009054906101000a900460ff16600281111561099f5761099e6119bf565b5b14610c15576000600160028111156109ba576109b96119bf565b5b6005600089815260200190815260200160002060009054906101000a900460ff1660028111156109ed576109ec6119bf565b5b03610a0b573390508585810190610a049190611a51565b9250610a55565b8585600090601492610a1f93929190611f9d565b90610a2a919061201c565b60601c905085856014908888905092610a4593929190611f9d565b810190610a529190611a51565b92505b6004600088815260200190815260200160002060008273ffffffffffffffffffffffffffffffffffffffff1673ffffffffffffffffffffffffffffffffffffffff16815260200190815260200160002060009054906101000a900460ff1615610af75786816040517f04f9da63000000000000000000000000000000000000000000000000000000008152600401610aee929190611da4565b60405180910390fd5b6003600088815260200190815260200160002060009054906101000a900473ffffffffffffffffffffffffffffffffffffffff1673ffffffffffffffffffffffffffffffffffffffff166370a08231826040518263ffffffff1660e01b8152600401610b639190611c91565b602060405180830381865afa158015610b80573d6000803e3d6000fd5b505050506040513d601f19601f82011682018060405250810190610ba49190612090565b915060016004600089815260200190815260200160002060008373ffffffffffffffffffffffffffffffffffffffff1673ffffffffffffffffffffffffffffffffffffffff16815260200190815260200160002060006101000a81548160ff02191690831515021790555050610d58565b60008087815260200190815260200160002060009054906101000a900473ffffffffffffffffffffffffffffffffffffffff1673ffffffffffffffffffffffffffffffffffffffff163373ffffffffffffffffffffffffffffffffffffffff1603610c96578484810190610c8991906120bd565b8092508193505050610d57565b8484810190610ca59190611a51565b91506003600087815260200190815260200160002060009054906101000a900473ffffffffffffffffffffffffffffffffffffffff1673ffffffffffffffffffffffffffffffffffffffff166370a08231336040518263ffffffff1660e01b8152600401610d139190611c91565b602060405180830381865afa158015610d30573d6000803e3d6000fd5b505050506040513d601f19601f82011682018060405250810190610d549190612090565b90505b5b600060028311610d685782610d6b565b60025b6002811115610d7d57610d7c6119bf565b5b9050610d8a87828461144e565b600260008881526020019081526020016000205493505050505b9392505050565b600080600080600085806020019051810190610dc79190612165565b809550819650829750839850849950505050505091939590929450565b60006003600083815260200190815260200160002060009054906101000a900473ffffffffffffffffffffffffffffffffffffffff169050919050565b600080600083815260200190815260200160002060009054906101000a900473ffffffffffffffffffffffffffffffffffffffff169050919050565b60608585858585604051602001610e78959493929190611c3e565b604051602081830303815290604052905095945050505050565b60007f01ffc9a7000000000000000000000000000000000000000000000000000000007bffffffffffffffffffffffffffffffffffffffffffffffffffffffff1916827bffffffffffffffffffffffffffffffffffffffffffffffffffffffff19161480610f5d57507f9452d78d000000000000000000000000000000000000000000000000000000007bffffffffffffffffffffffffffffffffffffffffffffffffffffffff1916827bffffffffffffffffffffffffffffffffffffffffffffffffffffffff1916145b9050919050565b600380811115610f7757610f766119bf565b5b60026000868152602001908152602001600020819055506000806000806000610f9f88610dab565b8095508196508297508398508499505050505050336000808b815260200190815260200160002060006101000a81548173ffffffffffffffffffffffffffffffffffffffff021916908373ffffffffffffffffffffffffffffffffffffffff16021790555084600360008b815260200190815260200160002060006101000a81548173ffffffffffffffffffffffffffffffffffffffff021916908373ffffffffffffffffffffffffffffffffffffffff16021790555081600a60008b815260200190815260200160002060006101000a81548160ff02191690831515021790555080600560008b815260200190815260200160002060006101000a81548160ff021916908360028111156110b7576110b66119bf565b5b021790555082600860008b8152602001908152602001600020819055506110de89856114a2565b86866040516110ee9291906121e0565b6040518091039020600160008b815260200190815260200160002081905550505050505050505050565b60008060048081111561112e5761112d6119bf565b5b60026000858152602001908152602001600020541490506000611150846113e8565b801561118157506003600481111561116b5761116a6119bf565b5b6002600086815260200190815260200160002054145b9050818061119d575080801561119c575061119b846114c9565b5b5b92505050919050565b6111b1838383611595565b6111e7576040517f8129bbcd00000000000000000000000000000000000000000000000000000000815260040160405180910390fd5b505050565b600060606000808573ffffffffffffffffffffffffffffffffffffffff163486604051611219919061222a565b60006040518083038185875af1925050503d8060008114611256576040519150601f19603f3d011682016040523d82523d6000602084013e61125b565b606091505b509150915060008261126e576002611271565b60015b90508082945094505050509250929050565b6000600a600084815260200190815260200160002060009054906101000a900460ff1680156112b3575060008251145b156112f557826040517f66dabd980000000000000000000000000000000000000000000000000000000081526004016112ec91906116f6565b60405180910390fd5b600190507febde80ec5f4e6c8b3a987f2a89cdc9c91b6c5e00b337e2581ed6302994c81e3f8360405161132891906116f6565b60405180910390a192915050565b6000808251111561134957815160208301fd5b7ff1ce307d6c8f222892d7eb3afa1f623ef595620a12027617499df1e6873de9ac8360405161137891906116f6565b60405180910390a16002905092915050565b6113926115ec565b600660008381526020019081526020016000206003806020026040519081016040528092919082600380156113dc576020028201915b8154815260200190600101908083116113c8575b50505050509050919050565b60006113f3826115cd565b9050919050565b611403816114c9565b611420576002600481111561141b5761141a6119bf565b5b611434565b600480811115611433576114326119bf565b5b5b600260008381526020019081526020016000208190555050565b8060066000858152602001908152602001600020836002811115611475576114746119bf565b5b6003811061148657611485612241565b5b0160008282546114969190611dfc565b92505081905550505050565b80426114ae9190611dfc565b60076000848152602001908152602001600020819055505050565b6000806114d58361138a565b9050600060086000858152602001908152602001600020548260026003811061150157611500612241565b5b60200201518360016003811061151a57611519612241565b5b60200201518460006003811061153357611532612241565b5b60200201516115429190611dfc565b61154c9190611dfc565b101590508160006003811061156457611563612241565b5b60200201518260016003811061157d5761157c612241565b5b602002015111801561158c5750805b92505050919050565b600082826040516115a79291906121e0565b604051809103902060016000868152602001908152602001600020541490509392505050565b6000600760008381526020019081526020016000205442119050919050565b6040518060600160405280600390602082028036833780820191505090505090565b6000604051905090565b600080fd5b600080fd5b60007fffffffff0000000000000000000000000000000000000000000000000000000082169050919050565b61165781611622565b811461166257600080fd5b50565b6000813590506116748161164e565b92915050565b6000602082840312156116905761168f611618565b5b600061169e84828501611665565b91505092915050565b60008115159050919050565b6116bc816116a7565b82525050565b60006020820190506116d760008301846116b3565b92915050565b6000819050919050565b6116f0816116dd565b82525050565b600060208201905061170b60008301846116e7565b92915050565b600080fd5b600080fd5b6000601f19601f8301169050919050565b7f4e487b7100000000000000000000000000000000000000000000000000000000600052604160045260246000fd5b6117648261171b565b810181811067ffffffffffffffff821117156117835761178261172c565b5b80604052505050565b600061179661160e565b90506117a2828261175b565b919050565b600067ffffffffffffffff8211156117c2576117c161172c565b5b6117cb8261171b565b9050602081019050919050565b82818337600083830152505050565b60006117fa6117f5846117a7565b61178c565b90508281526020810184848401111561181657611815611716565b5b6118218482856117d8565b509392505050565b600082601f83011261183e5761183d611711565b5b813561184e8482602086016117e7565b91505092915050565b600080fd5b600080fd5b60008083601f84011261187757611876611711565b5b8235905067ffffffffffffffff81111561189457611893611857565b5b6020830191508360018202830111156118b0576118af61185c565b5b9250929050565b6000806000604084860312156118d0576118cf611618565b5b600084013567ffffffffffffffff8111156118ee576118ed61161d565b5b6118fa86828701611829565b935050602084013567ffffffffffffffff81111561191b5761191a61161d565b5b61192786828701611861565b92509250509250925092565b61193c816116dd565b811461194757600080fd5b50565b60008135905061195981611933565b92915050565b60008060006040848603121561197857611977611618565b5b60006119868682870161194a565b935050602084013567ffffffffffffffff8111156119a7576119a661161d565b5b6119b386828701611861565b92509250509250925092565b7f4e487b7100000000000000000000000000000000000000000000000000000000600052602160045260246000fd5b600381106119ff576119fe6119bf565b5b50565b6000819050611a10826119ee565b919050565b6000611a2082611a02565b9050919050565b611a3081611a15565b82525050565b6000602082019050611a4b6000830184611a27565b92915050565b600060208284031215611a6757611a66611618565b5b6000611a758482850161194a565b91505092915050565b60038110611a8f57611a8e6119bf565b5b50565b6000819050611aa082611a7e565b919050565b6000611ab082611a92565b9050919050565b611ac081611aa5565b82525050565b6000602082019050611adb6000830184611ab7565b92915050565b600081519050919050565b600082825260208201905092915050565b60005b83811015611b1b578082015181840152602081019050611b00565b83811115611b2a576000848401525b50505050565b6000611b3b82611ae1565b611b458185611aec565b9350611b55818560208601611afd565b611b5e8161171b565b840191505092915050565b60006020820190508181036000830152611b838184611b30565b905092915050565b6000604082019050611ba060008301856116e7565b611bad60208301846116e7565b9392505050565b600060208284031215611bca57611bc9611618565b5b600082013567ffffffffffffffff811115611be857611be761161d565b5b611bf484828501611829565b91505092915050565b600073ffffffffffffffffffffffffffffffffffffffff82169050919050565b6000611c2882611bfd565b9050919050565b611c3881611c1d565b82525050565b600060a082019050611c536000830188611c2f565b611c6060208301876116e7565b611c6d60408301866116e7565b611c7a60608301856116b3565b611c876080830184611ab7565b9695505050505050565b6000602082019050611ca66000830184611c2f565b92915050565b611cb581611c1d565b8114611cc057600080fd5b50565b600081359050611cd281611cac565b92915050565b611ce1816116a7565b8114611cec57600080fd5b50565b600081359050611cfe81611cd8565b92915050565b60038110611d1157600080fd5b50565b600081359050611d2381611d04565b92915050565b600080600080600060a08688031215611d4557611d44611618565b5b6000611d5388828901611cc3565b9550506020611d648882890161194a565b9450506040611d758882890161194a565b9350506060611d8688828901611cef565b9250506080611d9788828901611d14565b9150509295509295909350565b6000604082019050611db960008301856116e7565b611dc66020830184611c2f565b9392505050565b7f4e487b7100000000000000000000000000000000000000000000000000000000600052601160045260246000fd5b6000611e07826116dd565b9150611e12836116dd565b9250827fffffffffffffffffffffffffffffffffffffffffffffffffffffffffffffffff03821115611e4757611e46611dcd565b5b828201905092915050565b600081905092915050565b6000611e698385611e52565b9350611e768385846117d8565b82840190509392505050565b6000819050919050565b611e9d611e98826116dd565b611e82565b82525050565b6000611eb0828587611e5d565b9150611ebc8284611e8c565b602082019150819050949350505050565b600060039050919050565b600081905092915050565b6000819050919050565b611ef6816116dd565b82525050565b6000611f088383611eed565b60208301905092915050565b6000602082019050919050565b611f2a81611ecd565b611f348184611ed8565b9250611f3f82611ee3565b8060005b83811015611f70578151611f578782611efc565b9650611f6283611f14565b925050600181019050611f43565b505050505050565b6000606082019050611f8d6000830184611f21565b92915050565b600080fd5b600080fd5b60008085851115611fb157611fb0611f93565b5b83861115611fc257611fc1611f98565b5b6001850283019150848603905094509492505050565b600082905092915050565b60007fffffffffffffffffffffffffffffffffffffffff00000000000000000000000082169050919050565b600082821b905092915050565b60006120288383611fd8565b826120338135611fe3565b925060148210156120735761206e7fffffffffffffffffffffffffffffffffffffffff0000000000000000000000008360140360080261200f565b831692505b505092915050565b60008151905061208a81611933565b92915050565b6000602082840312156120a6576120a5611618565b5b60006120b48482850161207b565b91505092915050565b600080604083850312156120d4576120d3611618565b5b60006120e28582860161194a565b92505060206120f38582860161194a565b9150509250929050565b600061210882611bfd565b9050919050565b612118816120fd565b811461212357600080fd5b50565b6000815190506121358161210f565b92915050565b60008151905061214a81611cd8565b92915050565b60008151905061215f81611d04565b92915050565b600080600080600060a0868803121561218157612180611618565b5b600061218f88828901612126565b95505060206121a08882890161207b565b94505060406121b18882890161207b565b93505060606121c28882890161213b565b92505060806121d388828901612150565b9150509295509295909350565b60006121ed828486611e5d565b91508190509392505050565b600061220482611ae1565b61220e8185611e52565b935061221e818560208601611afd565b80840191505092915050565b600061223682846121f9565b915081905092915050565b7f4e487b7100000000000000000000000000000000000000000000000000000000600052603260045260246000fdfea264697066735822122029c6bbb37f7c418ef73ab965a2c4bf0357a0c490594863d01f217a498d92800264736f6c634300080d0033",
  "linkReferences": {},
  "deployedLinkReferences": {}
}