{
  "_format": "hh-sol-artifact-1",
  "contractName": "YesNoAbstainSnapshotWithToken",
  "sourceName": "src/implementations/votingContracts/OnlyStartAndVote/YesNoAbstainSnapshotWithToken.sol",
  "abi": [
    {
      "inputs": [
        {
          "internalType": "uint256",
          "name": "identifier",
          "type": "uint256"
        },
        {
          "internalType": "address",
          "name": "voter",
          "type": "address"
        }
      ],
      "name": "AlreadyVoted",
      "type": "error"
    },
    {
      "inputs": [
        {
          "internalType": "uint256",
          "name": "identifier",
          "type": "uint256"
        },
        {
          "internalType": "uint256",
          "name": "deadline",
          "type": "uint256"
        }
      ],
      "name": "DeadlineHasNotPassed",
      "type": "error"
    },
    {
      "inputs": [
        {
          "internalType": "uint256",
          "name": "identifier",
          "type": "uint256"
        },
        {
          "internalType": "uint256",
          "name": "deadline",
          "type": "uint256"
        }
      ],
      "name": "DeadlineHasPassed",
      "type": "error"
    },
    {
      "inputs": [
        {
          "internalType": "uint256",
          "name": "identifier",
          "type": "uint256"
        },
        {
          "internalType": "uint256",
          "name": "status",
          "type": "uint256"
        }
      ],
      "name": "StatusError",
      "type": "error"
    },
    {
      "anonymous": false,
      "inputs": [
        {
          "indexed": false,
          "internalType": "uint256",
          "name": "identifier",
          "type": "uint256"
        },
        {
          "indexed": false,
          "internalType": "address",
          "name": "caller",
          "type": "address"
        }
      ],
      "name": "VotingInstanceStarted",
      "type": "event"
    },
    {
      "inputs": [],
      "name": "VOTING_DURATION",
      "outputs": [
        {
          "internalType": "uint256",
          "name": "",
          "type": "uint256"
        }
      ],
      "stateMutability": "view",
      "type": "function"
    },
    {
      "inputs": [
        {
          "internalType": "uint256",
          "name": "identifier",
          "type": "uint256"
        }
      ],
      "name": "conclude",
      "outputs": [],
      "stateMutability": "nonpayable",
      "type": "function"
    },
    {
      "inputs": [
        {
          "internalType": "bytes",
          "name": "votingParams",
          "type": "bytes"
        }
      ],
      "name": "decodeParameters",
      "outputs": [
        {
          "internalType": "address",
          "name": "token",
          "type": "address"
        },
        {
          "internalType": "enum HandleDoubleVotingGuard.VotingGuard",
          "name": "guardOnSenderVotingDataOrNone",
          "type": "uint8"
        }
      ],
      "stateMutability": "pure",
      "type": "function"
    },
    {
      "inputs": [
        {
          "internalType": "address",
          "name": "token",
          "type": "address"
        },
        {
          "internalType": "enum HandleDoubleVotingGuard.VotingGuard",
          "name": "guardOnSenderVotingDataOrNone",
          "type": "uint8"
        }
      ],
      "name": "encodeParameters",
      "outputs": [
        {
          "internalType": "bytes",
          "name": "votingParams",
          "type": "bytes"
        }
      ],
      "stateMutability": "pure",
      "type": "function"
    },
    {
      "inputs": [],
      "name": "getCurrentIndex",
      "outputs": [
        {
          "internalType": "uint256",
          "name": "currentIndex",
          "type": "uint256"
        }
      ],
      "stateMutability": "view",
      "type": "function"
    },
    {
      "inputs": [
        {
          "internalType": "uint256",
          "name": "identifier",
          "type": "uint256"
        }
      ],
      "name": "getDeadline",
      "outputs": [
        {
          "internalType": "uint256",
          "name": "",
          "type": "uint256"
        }
      ],
      "stateMutability": "view",
      "type": "function"
    },
    {
      "inputs": [
        {
          "internalType": "uint256",
          "name": "identifier",
          "type": "uint256"
        }
      ],
      "name": "getDoubleVotingGuard",
      "outputs": [
        {
          "internalType": "enum HandleDoubleVotingGuard.VotingGuard",
          "name": "",
          "type": "uint8"
        }
      ],
      "stateMutability": "view",
      "type": "function"
    },
    {
      "inputs": [
        {
          "internalType": "uint256",
          "name": "identifier",
          "type": "uint256"
        }
      ],
      "name": "getStatus",
      "outputs": [
        {
          "internalType": "uint256",
          "name": "status",
          "type": "uint256"
        }
      ],
      "stateMutability": "view",
      "type": "function"
    },
    {
      "inputs": [
        {
          "internalType": "uint256",
          "name": "identifier",
          "type": "uint256"
        }
      ],
      "name": "getTarget",
      "outputs": [
        {
          "internalType": "address",
          "name": "target",
          "type": "address"
        }
      ],
      "stateMutability": "view",
      "type": "function"
    },
    {
      "inputs": [
        {
          "internalType": "uint256",
          "name": "identifier",
          "type": "uint256"
        }
      ],
      "name": "result",
      "outputs": [
        {
          "internalType": "bytes",
          "name": "resultData",
          "type": "bytes"
        }
      ],
      "stateMutability": "view",
      "type": "function"
    },
    {
      "inputs": [
        {
          "internalType": "bytes",
          "name": "votingParams",
          "type": "bytes"
        },
        {
          "internalType": "bytes",
          "name": "callback",
          "type": "bytes"
        }
      ],
      "name": "start",
      "outputs": [
        {
          "internalType": "uint256",
          "name": "identifier",
          "type": "uint256"
        }
      ],
      "stateMutability": "nonpayable",
      "type": "function"
    },
    {
      "inputs": [
        {
          "internalType": "bytes4",
          "name": "interfaceId",
          "type": "bytes4"
        }
      ],
      "name": "supportsInterface",
      "outputs": [
        {
          "internalType": "bool",
          "name": "",
          "type": "bool"
        }
      ],
      "stateMutability": "pure",
      "type": "function"
    },
    {
      "inputs": [
        {
          "internalType": "uint256",
          "name": "identifier",
          "type": "uint256"
        },
        {
          "internalType": "bytes",
          "name": "votingData",
          "type": "bytes"
        }
      ],
      "name": "vote",
      "outputs": [
        {
          "internalType": "uint256",
          "name": "",
          "type": "uint256"
        }
      ],
      "stateMutability": "nonpayable",
      "type": "function"
    }
  ],
  "bytecode": "0x608060405234801561001057600080fd5b50611833806100206000396000f3fe608060405234801561001057600080fd5b50600436106100cf5760003560e01c80635c622a0e1161008c578063b88b82ba11610066578063b88b82ba1461024c578063c691207e1461027c578063e41cac49146102ad578063e6acc7cd146102dd576100cf565b80635c622a0e146101ce57806382862275146101fe578063a438d2081461022e576100cf565b806301ffc9a7146100d45780630d9005ae146101045780631080156e146101225780631d64c4f2146101525780633487b256146101825780633c5940591461019e575b600080fd5b6100ee60048036038101906100e99190610e27565b61030d565b6040516100fb9190610e6f565b60405180910390f35b61010c6103ef565b6040516101199190610ea3565b60405180910390f35b61013c60048036038101906101379190611064565b6103f9565b6040516101499190610ea3565b60405180910390f35b61016c6004803603810190610167919061110c565b61046a565b60405161017991906111b0565b60405180910390f35b61019c6004803603810190610197919061110c565b610494565b005b6101b860048036038101906101b3919061110c565b61057d565b6040516101c59190611253565b60405180910390f35b6101e860048036038101906101e3919061110c565b6105ae565b6040516101f59190610ea3565b60405180910390f35b6102186004803603810190610213919061110c565b6105cb565b6040516102259190610ea3565b60405180910390f35b6102366105e8565b6040516102439190610ea3565b60405180910390f35b61026660048036038101906102619190611275565b6105ef565b6040516102739190610ea3565b60405180910390f35b610296600480360381019061029191906112d5565b6109ca565b6040516102a492919061135f565b60405180910390f35b6102c760048036038101906102c291906113d9565b6109ee565b6040516102d49190611253565b60405180910390f35b6102f760048036038101906102f2919061110c565b610a1a565b6040516103049190611419565b60405180910390f35b600061031882610a57565b8061038057507f82862275000000000000000000000000000000000000000000000000000000007bffffffffffffffffffffffffffffffffffffffffffffffffffffffff1916827bffffffffffffffffffffffffffffffffffffffffffffffffffffffff1916145b806103e857507f1d64c4f2000000000000000000000000000000000000000000000000000000007bffffffffffffffffffffffffffffffffffffffffffffffffffffffff1916827bffffffffffffffffffffffffffffffffffffffffffffffffffffffff1916145b9050919050565b6000600754905090565b6000610409600754858585610b29565b7f8e967d6054e2a51c6c0b65a326c2c53edf07f50d4a854e102eed777cfb5913786007543360405161043c929190611434565b60405180910390a1600754905060016007600082825461045c919061148c565b925050819055509392505050565b60006001600083815260200190815260200160002060009054906101000a900460ff169050919050565b6003808111156104a7576104a6611139565b5b600660008381526020019081526020016000205414610512578060066000838152602001908152602001600020546040517f42ffc0970000000000000000000000000000000000000000000000000000000081526004016105099291906114e2565b60405180910390fd5b61051b81610c02565b610571578060036000838152602001908152602001600020546040517fa2030cfc0000000000000000000000000000000000000000000000000000000081526004016105689291906114e2565b60405180910390fd5b61057a81610c14565b50565b606061058882610ca1565b60405160200161059891906115b6565b6040516020818303038152906040529050919050565b600060066000838152602001908152602001600020549050919050565b600060036000838152602001908152602001600020549050919050565b6206978081565b600060038081111561060457610603611139565b5b60066000868152602001908152602001600020541461066f578360066000868152602001908152602001600020546040517f42ffc0970000000000000000000000000000000000000000000000000000000081526004016106669291906114e2565b60405180910390fd5b61067884610c02565b156106a15761068684610c14565b600660008581526020019081526020016000205490506109c3565b600080600060028111156106b8576106b7611139565b5b6001600088815260200190815260200160002060009054906101000a900460ff1660028111156106eb576106ea611139565b5b1461095f5760006001600281111561070657610705611139565b5b6001600089815260200190815260200160002060009054906101000a900460ff16600281111561073957610738611139565b5b03610757573390508585810190610750919061110c565b92506107a1565b858560009060149261076b939291906115db565b90610776919061165a565b60601c905085856014908888905092610791939291906115db565b81019061079e919061110c565b92505b60008088815260200190815260200160002060008273ffffffffffffffffffffffffffffffffffffffff1673ffffffffffffffffffffffffffffffffffffffff16815260200190815260200160002060009054906101000a900460ff16156108425786816040517f04f9da63000000000000000000000000000000000000000000000000000000008152600401610839929190611434565b60405180910390fd5b6004600088815260200190815260200160002060009054906101000a900473ffffffffffffffffffffffffffffffffffffffff1673ffffffffffffffffffffffffffffffffffffffff166370a08231826040518263ffffffff1660e01b81526004016108ae9190611419565b602060405180830381865afa1580156108cb573d6000803e3d6000fd5b505050506040513d601f19601f820116820180604052508101906108ef91906116ce565b9150600160008089815260200190815260200160002060008373ffffffffffffffffffffffffffffffffffffffff1673ffffffffffffffffffffffffffffffffffffffff16815260200190815260200160002060006101000a81548160ff02191690831515021790555050610977565b848481019061096e91906116fb565b80925081935050505b600060028311610987578261098a565b60025b600281111561099c5761099b611139565b5b90506109a9878284610cff565b600660008881526020019081526020016000205493505050505b9392505050565b600080828060200190518101906109e1919061178e565b8092508193505050915091565b60608282604051602001610a0392919061135f565b604051602081830303815290604052905092915050565b60006005600083815260200190815260200160002060009054906101000a900473ffffffffffffffffffffffffffffffffffffffff169050919050565b60007f01ffc9a7000000000000000000000000000000000000000000000000000000007bffffffffffffffffffffffffffffffffffffffffffffffffffffffff1916827bffffffffffffffffffffffffffffffffffffffffffffffffffffffff19161480610b2257507f9452d78d000000000000000000000000000000000000000000000000000000007bffffffffffffffffffffffffffffffffffffffffffffffffffffffff1916827bffffffffffffffffffffffffffffffffffffffffffffffffffffffff1916145b9050919050565b600380811115610b3c57610b3b611139565b5b6006600086815260200190815260200160002081905550610b5c836109ca565b6004600087815260200190815260200160002060006001600089815260200190815260200160002060008491906101000a81548160ff02191690836002811115610ba957610ba8611139565b5b02179055508391906101000a81548173ffffffffffffffffffffffffffffffffffffffff021916908373ffffffffffffffffffffffffffffffffffffffff1602179055505050610bfc8462069780610d53565b50505050565b6000610c0d82610d7a565b9050919050565b6000610c1f82610ca1565b905080600060038110610c3557610c346117ce565b5b602002015181600160038110610c4e57610c4d6117ce565b5b602002015111610c715760026003811115610c6c57610c6b611139565b5b610c86565b60016003811115610c8557610c84611139565b5b5b60066000848152602001908152602001600020819055505050565b610ca9610d99565b60026000838152602001908152602001600020600380602002604051908101604052809291908260038015610cf3576020028201915b815481526020019060010190808311610cdf575b50505050509050919050565b8060026000858152602001908152602001600020836002811115610d2657610d25611139565b5b60038110610d3757610d366117ce565b5b016000828254610d47919061148c565b92505081905550505050565b8042610d5f919061148c565b60036000848152602001908152602001600020819055505050565b6000600360008381526020019081526020016000205442119050919050565b6040518060600160405280600390602082028036833780820191505090505090565b6000604051905090565b600080fd5b600080fd5b60007fffffffff0000000000000000000000000000000000000000000000000000000082169050919050565b610e0481610dcf565b8114610e0f57600080fd5b50565b600081359050610e2181610dfb565b92915050565b600060208284031215610e3d57610e3c610dc5565b5b6000610e4b84828501610e12565b91505092915050565b60008115159050919050565b610e6981610e54565b82525050565b6000602082019050610e846000830184610e60565b92915050565b6000819050919050565b610e9d81610e8a565b82525050565b6000602082019050610eb86000830184610e94565b92915050565b600080fd5b600080fd5b6000601f19601f8301169050919050565b7f4e487b7100000000000000000000000000000000000000000000000000000000600052604160045260246000fd5b610f1182610ec8565b810181811067ffffffffffffffff82111715610f3057610f2f610ed9565b5b80604052505050565b6000610f43610dbb565b9050610f4f8282610f08565b919050565b600067ffffffffffffffff821115610f6f57610f6e610ed9565b5b610f7882610ec8565b9050602081019050919050565b82818337600083830152505050565b6000610fa7610fa284610f54565b610f39565b905082815260208101848484011115610fc357610fc2610ec3565b5b610fce848285610f85565b509392505050565b600082601f830112610feb57610fea610ebe565b5b8135610ffb848260208601610f94565b91505092915050565b600080fd5b600080fd5b60008083601f84011261102457611023610ebe565b5b8235905067ffffffffffffffff81111561104157611040611004565b5b60208301915083600182028301111561105d5761105c611009565b5b9250929050565b60008060006040848603121561107d5761107c610dc5565b5b600084013567ffffffffffffffff81111561109b5761109a610dca565b5b6110a786828701610fd6565b935050602084013567ffffffffffffffff8111156110c8576110c7610dca565b5b6110d48682870161100e565b92509250509250925092565b6110e981610e8a565b81146110f457600080fd5b50565b600081359050611106816110e0565b92915050565b60006020828403121561112257611121610dc5565b5b6000611130848285016110f7565b91505092915050565b7f4e487b7100000000000000000000000000000000000000000000000000000000600052602160045260246000fd5b6003811061117957611178611139565b5b50565b600081905061118a82611168565b919050565b600061119a8261117c565b9050919050565b6111aa8161118f565b82525050565b60006020820190506111c560008301846111a1565b92915050565b600081519050919050565b600082825260208201905092915050565b60005b838110156112055780820151818401526020810190506111ea565b83811115611214576000848401525b50505050565b6000611225826111cb565b61122f81856111d6565b935061123f8185602086016111e7565b61124881610ec8565b840191505092915050565b6000602082019050818103600083015261126d818461121a565b905092915050565b60008060006040848603121561128e5761128d610dc5565b5b600061129c868287016110f7565b935050602084013567ffffffffffffffff8111156112bd576112bc610dca565b5b6112c98682870161100e565b92509250509250925092565b6000602082840312156112eb576112ea610dc5565b5b600082013567ffffffffffffffff81111561130957611308610dca565b5b61131584828501610fd6565b91505092915050565b600073ffffffffffffffffffffffffffffffffffffffff82169050919050565b60006113498261131e565b9050919050565b6113598161133e565b82525050565b60006040820190506113746000830185611350565b61138160208301846111a1565b9392505050565b6113918161133e565b811461139c57600080fd5b50565b6000813590506113ae81611388565b92915050565b600381106113c157600080fd5b50565b6000813590506113d3816113b4565b92915050565b600080604083850312156113f0576113ef610dc5565b5b60006113fe8582860161139f565b925050602061140f858286016113c4565b9150509250929050565b600060208201905061142e6000830184611350565b92915050565b60006040820190506114496000830185610e94565b6114566020830184611350565b9392505050565b7f4e487b7100000000000000000000000000000000000000000000000000000000600052601160045260246000fd5b600061149782610e8a565b91506114a283610e8a565b9250827fffffffffffffffffffffffffffffffffffffffffffffffffffffffffffffffff038211156114d7576114d661145d565b5b828201905092915050565b60006040820190506114f76000830185610e94565b6115046020830184610e94565b9392505050565b600060039050919050565b600081905092915050565b6000819050919050565b61153481610e8a565b82525050565b6000611546838361152b565b60208301905092915050565b6000602082019050919050565b6115688161150b565b6115728184611516565b925061157d82611521565b8060005b838110156115ae578151611595878261153a565b96506115a083611552565b925050600181019050611581565b505050505050565b60006060820190506115cb600083018461155f565b92915050565b600080fd5b600080fd5b600080858511156115ef576115ee6115d1565b5b83861115611600576115ff6115d6565b5b6001850283019150848603905094509492505050565b600082905092915050565b60007fffffffffffffffffffffffffffffffffffffffff00000000000000000000000082169050919050565b600082821b905092915050565b60006116668383611616565b826116718135611621565b925060148210156116b1576116ac7fffffffffffffffffffffffffffffffffffffffff0000000000000000000000008360140360080261164d565b831692505b505092915050565b6000815190506116c8816110e0565b92915050565b6000602082840312156116e4576116e3610dc5565b5b60006116f2848285016116b9565b91505092915050565b6000806040838503121561171257611711610dc5565b5b6000611720858286016110f7565b9250506020611731858286016110f7565b9150509250929050565b60006117468261131e565b9050919050565b6117568161173b565b811461176157600080fd5b50565b6000815190506117738161174d565b92915050565b600081519050611788816113b4565b92915050565b600080604083850312156117a5576117a4610dc5565b5b60006117b385828601611764565b92505060206117c485828601611779565b9150509250929050565b7f4e487b7100000000000000000000000000000000000000000000000000000000600052603260045260246000fdfea2646970667358221220541d16e0b78fda503a792f65f9ef2b7299822f6409b534c476a7fa1d4de2305664736f6c634300080d0033",
  "linkReferences": {},
  "deployedLinkReferences": {}
}