{
  "_format": "hh-sol-artifact-1",
  "contractName": "YesNoAbstainSnapshotWithToken",
  "sourceName": "src/implementations/votingContracts/OnlyStartAndVote/YesNoAbstainSnapshotWithToken.sol",
  "abi": [
    {
      "inputs": [
        {
          "internalType": "uint256",
          "name": "identifier",
          "type": "uint256"
        },
        {
          "internalType": "address",
          "name": "voter",
          "type": "address"
        }
      ],
      "name": "AlreadyVoted",
      "type": "error"
    },
    {
      "inputs": [
        {
          "internalType": "uint256",
          "name": "identifier",
          "type": "uint256"
        },
        {
          "internalType": "uint256",
          "name": "deadline",
          "type": "uint256"
        }
      ],
      "name": "DeadlineHasNotPassed",
      "type": "error"
    },
    {
      "inputs": [
        {
          "internalType": "uint256",
          "name": "identifier",
          "type": "uint256"
        },
        {
          "internalType": "uint256",
          "name": "deadline",
          "type": "uint256"
        }
      ],
      "name": "DeadlineHasPassed",
      "type": "error"
    },
    {
      "inputs": [
        {
          "internalType": "uint256",
          "name": "identifier",
          "type": "uint256"
        },
        {
          "internalType": "uint256",
          "name": "status",
          "type": "uint256"
        }
      ],
      "name": "StatusError",
      "type": "error"
    },
    {
      "anonymous": false,
      "inputs": [
        {
          "indexed": true,
          "internalType": "uint256",
          "name": "identifier",
          "type": "uint256"
        },
        {
          "indexed": false,
          "internalType": "address",
          "name": "caller",
          "type": "address"
        }
      ],
      "name": "VotingInstanceStarted",
      "type": "event"
    },
    {
      "inputs": [],
      "name": "VOTING_DURATION",
      "outputs": [
        {
          "internalType": "uint256",
          "name": "",
          "type": "uint256"
        }
      ],
      "stateMutability": "view",
      "type": "function"
    },
    {
      "inputs": [
        {
          "internalType": "uint256",
          "name": "identifier",
          "type": "uint256"
        }
      ],
      "name": "conclude",
      "outputs": [],
      "stateMutability": "nonpayable",
      "type": "function"
    },
    {
      "inputs": [
        {
          "internalType": "bytes",
          "name": "votingParams",
          "type": "bytes"
        }
      ],
      "name": "decodeParameters",
      "outputs": [
        {
          "internalType": "address",
          "name": "token",
          "type": "address"
        },
        {
          "internalType": "enum HandleDoubleVotingGuard.VotingGuard",
          "name": "guardOnSenderVotingDataOrNone",
          "type": "uint8"
        }
      ],
      "stateMutability": "pure",
      "type": "function"
    },
    {
      "inputs": [
        {
          "internalType": "address",
          "name": "token",
          "type": "address"
        },
        {
          "internalType": "enum HandleDoubleVotingGuard.VotingGuard",
          "name": "guardOnSenderVotingDataOrNone",
          "type": "uint8"
        }
      ],
      "name": "encodeParameters",
      "outputs": [
        {
          "internalType": "bytes",
          "name": "votingParams",
          "type": "bytes"
        }
      ],
      "stateMutability": "pure",
      "type": "function"
    },
    {
      "inputs": [],
      "name": "getCurrentIndex",
      "outputs": [
        {
          "internalType": "uint256",
          "name": "currentIndex",
          "type": "uint256"
        }
      ],
      "stateMutability": "view",
      "type": "function"
    },
    {
      "inputs": [
        {
          "internalType": "uint256",
          "name": "identifier",
          "type": "uint256"
        }
      ],
      "name": "getDeadline",
      "outputs": [
        {
          "internalType": "uint256",
          "name": "",
          "type": "uint256"
        }
      ],
      "stateMutability": "view",
      "type": "function"
    },
    {
      "inputs": [
        {
          "internalType": "uint256",
          "name": "identifier",
          "type": "uint256"
        }
      ],
      "name": "getDoubleVotingGuard",
      "outputs": [
        {
          "internalType": "enum HandleDoubleVotingGuard.VotingGuard",
          "name": "",
          "type": "uint8"
        }
      ],
      "stateMutability": "view",
      "type": "function"
    },
    {
      "inputs": [
        {
          "internalType": "uint256",
          "name": "identifier",
          "type": "uint256"
        }
      ],
      "name": "getStatus",
      "outputs": [
        {
          "internalType": "uint256",
          "name": "status",
          "type": "uint256"
        }
      ],
      "stateMutability": "view",
      "type": "function"
    },
    {
      "inputs": [
        {
          "internalType": "uint256",
          "name": "identifier",
          "type": "uint256"
        }
      ],
      "name": "getTarget",
      "outputs": [
        {
          "internalType": "address",
          "name": "target",
          "type": "address"
        }
      ],
      "stateMutability": "view",
      "type": "function"
    },
    {
      "inputs": [
        {
          "internalType": "uint256",
          "name": "identifier",
          "type": "uint256"
        }
      ],
      "name": "result",
      "outputs": [
        {
          "internalType": "bytes",
          "name": "resultData",
          "type": "bytes"
        }
      ],
      "stateMutability": "view",
      "type": "function"
    },
    {
      "inputs": [
        {
          "internalType": "bytes",
          "name": "votingParams",
          "type": "bytes"
        },
        {
          "internalType": "bytes",
          "name": "callback",
          "type": "bytes"
        }
      ],
      "name": "start",
      "outputs": [
        {
          "internalType": "uint256",
          "name": "identifier",
          "type": "uint256"
        }
      ],
      "stateMutability": "nonpayable",
      "type": "function"
    },
    {
      "inputs": [
        {
          "internalType": "bytes4",
          "name": "interfaceId",
          "type": "bytes4"
        }
      ],
      "name": "supportsInterface",
      "outputs": [
        {
          "internalType": "bool",
          "name": "",
          "type": "bool"
        }
      ],
      "stateMutability": "pure",
      "type": "function"
    },
    {
      "inputs": [
        {
          "internalType": "uint256",
          "name": "identifier",
          "type": "uint256"
        },
        {
          "internalType": "bytes",
          "name": "votingData",
          "type": "bytes"
        }
      ],
      "name": "vote",
      "outputs": [
        {
          "internalType": "uint256",
          "name": "",
          "type": "uint256"
        }
      ],
      "stateMutability": "nonpayable",
      "type": "function"
    }
  ],
  "bytecode": "0x608060405234801561001057600080fd5b50611832806100206000396000f3fe608060405234801561001057600080fd5b50600436106100cf5760003560e01c80635c622a0e1161008c578063b88b82ba11610066578063b88b82ba1461024c578063c691207e1461027c578063e41cac49146102ad578063e6acc7cd146102dd576100cf565b80635c622a0e146101ce57806382862275146101fe578063a438d2081461022e576100cf565b806301ffc9a7146100d45780630d9005ae146101045780631080156e146101225780631d64c4f2146101525780633487b256146101825780633c5940591461019e575b600080fd5b6100ee60048036038101906100e99190610e26565b61030d565b6040516100fb9190610e6e565b60405180910390f35b61010c6103ef565b6040516101199190610ea2565b60405180910390f35b61013c60048036038101906101379190611063565b6103f9565b6040516101499190610ea2565b60405180910390f35b61016c6004803603810190610167919061110b565b610469565b60405161017991906111af565b60405180910390f35b61019c6004803603810190610197919061110b565b610493565b005b6101b860048036038101906101b3919061110b565b61057c565b6040516101c59190611252565b60405180910390f35b6101e860048036038101906101e3919061110b565b6105ad565b6040516101f59190610ea2565b60405180910390f35b6102186004803603810190610213919061110b565b6105ca565b6040516102259190610ea2565b60405180910390f35b6102366105e7565b6040516102439190610ea2565b60405180910390f35b61026660048036038101906102619190611274565b6105ee565b6040516102739190610ea2565b60405180910390f35b610296600480360381019061029191906112d4565b6109c9565b6040516102a492919061135e565b60405180910390f35b6102c760048036038101906102c291906113d8565b6109ed565b6040516102d49190611252565b60405180910390f35b6102f760048036038101906102f2919061110b565b610a19565b6040516103049190611418565b60405180910390f35b600061031882610a56565b8061038057507f82862275000000000000000000000000000000000000000000000000000000007bffffffffffffffffffffffffffffffffffffffffffffffffffffffff1916827bffffffffffffffffffffffffffffffffffffffffffffffffffffffff1916145b806103e857507f1d64c4f2000000000000000000000000000000000000000000000000000000007bffffffffffffffffffffffffffffffffffffffffffffffffffffffff1916827bffffffffffffffffffffffffffffffffffffffffffffffffffffffff1916145b9050919050565b6000600754905090565b6000610409600754858585610b28565b6007547f8e967d6054e2a51c6c0b65a326c2c53edf07f50d4a854e102eed777cfb5913783360405161043b9190611418565b60405180910390a2600754905060016007600082825461045b9190611462565b925050819055509392505050565b60006001600083815260200190815260200160002060009054906101000a900460ff169050919050565b6003808111156104a6576104a5611138565b5b600660008381526020019081526020016000205414610511578060066000838152602001908152602001600020546040517f42ffc0970000000000000000000000000000000000000000000000000000000081526004016105089291906114b8565b60405180910390fd5b61051a81610c01565b610570578060036000838152602001908152602001600020546040517fa2030cfc0000000000000000000000000000000000000000000000000000000081526004016105679291906114b8565b60405180910390fd5b61057981610c13565b50565b606061058782610ca0565b604051602001610597919061158c565b6040516020818303038152906040529050919050565b600060066000838152602001908152602001600020549050919050565b600060036000838152602001908152602001600020549050919050565b6206978081565b600060038081111561060357610602611138565b5b60066000868152602001908152602001600020541461066e578360066000868152602001908152602001600020546040517f42ffc0970000000000000000000000000000000000000000000000000000000081526004016106659291906114b8565b60405180910390fd5b61067784610c01565b156106a05761068584610c13565b600660008581526020019081526020016000205490506109c2565b600080600060028111156106b7576106b6611138565b5b6001600088815260200190815260200160002060009054906101000a900460ff1660028111156106ea576106e9611138565b5b1461095e5760006001600281111561070557610704611138565b5b6001600089815260200190815260200160002060009054906101000a900460ff16600281111561073857610737611138565b5b0361075657339050858581019061074f919061110b565b92506107a0565b858560009060149261076a939291906115b1565b906107759190611630565b60601c905085856014908888905092610790939291906115b1565b81019061079d919061110b565b92505b60008088815260200190815260200160002060008273ffffffffffffffffffffffffffffffffffffffff1673ffffffffffffffffffffffffffffffffffffffff16815260200190815260200160002060009054906101000a900460ff16156108415786816040517f04f9da6300000000000000000000000000000000000000000000000000000000815260040161083892919061168f565b60405180910390fd5b6004600088815260200190815260200160002060009054906101000a900473ffffffffffffffffffffffffffffffffffffffff1673ffffffffffffffffffffffffffffffffffffffff166370a08231826040518263ffffffff1660e01b81526004016108ad9190611418565b602060405180830381865afa1580156108ca573d6000803e3d6000fd5b505050506040513d601f19601f820116820180604052508101906108ee91906116cd565b9150600160008089815260200190815260200160002060008373ffffffffffffffffffffffffffffffffffffffff1673ffffffffffffffffffffffffffffffffffffffff16815260200190815260200160002060006101000a81548160ff02191690831515021790555050610976565b848481019061096d91906116fa565b80925081935050505b6000600283116109865782610989565b60025b600281111561099b5761099a611138565b5b90506109a8878284610cfe565b600660008881526020019081526020016000205493505050505b9392505050565b600080828060200190518101906109e0919061178d565b8092508193505050915091565b60608282604051602001610a0292919061135e565b604051602081830303815290604052905092915050565b60006005600083815260200190815260200160002060009054906101000a900473ffffffffffffffffffffffffffffffffffffffff169050919050565b60007f01ffc9a7000000000000000000000000000000000000000000000000000000007bffffffffffffffffffffffffffffffffffffffffffffffffffffffff1916827bffffffffffffffffffffffffffffffffffffffffffffffffffffffff19161480610b2157507f9452d78d000000000000000000000000000000000000000000000000000000007bffffffffffffffffffffffffffffffffffffffffffffffffffffffff1916827bffffffffffffffffffffffffffffffffffffffffffffffffffffffff1916145b9050919050565b600380811115610b3b57610b3a611138565b5b6006600086815260200190815260200160002081905550610b5b836109c9565b6004600087815260200190815260200160002060006001600089815260200190815260200160002060008491906101000a81548160ff02191690836002811115610ba857610ba7611138565b5b02179055508391906101000a81548173ffffffffffffffffffffffffffffffffffffffff021916908373ffffffffffffffffffffffffffffffffffffffff1602179055505050610bfb8462069780610d52565b50505050565b6000610c0c82610d79565b9050919050565b6000610c1e82610ca0565b905080600060038110610c3457610c336117cd565b5b602002015181600160038110610c4d57610c4c6117cd565b5b602002015111610c705760026003811115610c6b57610c6a611138565b5b610c85565b60016003811115610c8457610c83611138565b5b5b60066000848152602001908152602001600020819055505050565b610ca8610d98565b60026000838152602001908152602001600020600380602002604051908101604052809291908260038015610cf2576020028201915b815481526020019060010190808311610cde575b50505050509050919050565b8060026000858152602001908152602001600020836002811115610d2557610d24611138565b5b60038110610d3657610d356117cd565b5b016000828254610d469190611462565b92505081905550505050565b8042610d5e9190611462565b60036000848152602001908152602001600020819055505050565b6000600360008381526020019081526020016000205442119050919050565b6040518060600160405280600390602082028036833780820191505090505090565b6000604051905090565b600080fd5b600080fd5b60007fffffffff0000000000000000000000000000000000000000000000000000000082169050919050565b610e0381610dce565b8114610e0e57600080fd5b50565b600081359050610e2081610dfa565b92915050565b600060208284031215610e3c57610e3b610dc4565b5b6000610e4a84828501610e11565b91505092915050565b60008115159050919050565b610e6881610e53565b82525050565b6000602082019050610e836000830184610e5f565b92915050565b6000819050919050565b610e9c81610e89565b82525050565b6000602082019050610eb76000830184610e93565b92915050565b600080fd5b600080fd5b6000601f19601f8301169050919050565b7f4e487b7100000000000000000000000000000000000000000000000000000000600052604160045260246000fd5b610f1082610ec7565b810181811067ffffffffffffffff82111715610f2f57610f2e610ed8565b5b80604052505050565b6000610f42610dba565b9050610f4e8282610f07565b919050565b600067ffffffffffffffff821115610f6e57610f6d610ed8565b5b610f7782610ec7565b9050602081019050919050565b82818337600083830152505050565b6000610fa6610fa184610f53565b610f38565b905082815260208101848484011115610fc257610fc1610ec2565b5b610fcd848285610f84565b509392505050565b600082601f830112610fea57610fe9610ebd565b5b8135610ffa848260208601610f93565b91505092915050565b600080fd5b600080fd5b60008083601f84011261102357611022610ebd565b5b8235905067ffffffffffffffff8111156110405761103f611003565b5b60208301915083600182028301111561105c5761105b611008565b5b9250929050565b60008060006040848603121561107c5761107b610dc4565b5b600084013567ffffffffffffffff81111561109a57611099610dc9565b5b6110a686828701610fd5565b935050602084013567ffffffffffffffff8111156110c7576110c6610dc9565b5b6110d38682870161100d565b92509250509250925092565b6110e881610e89565b81146110f357600080fd5b50565b600081359050611105816110df565b92915050565b60006020828403121561112157611120610dc4565b5b600061112f848285016110f6565b91505092915050565b7f4e487b7100000000000000000000000000000000000000000000000000000000600052602160045260246000fd5b6003811061117857611177611138565b5b50565b600081905061118982611167565b919050565b60006111998261117b565b9050919050565b6111a98161118e565b82525050565b60006020820190506111c460008301846111a0565b92915050565b600081519050919050565b600082825260208201905092915050565b60005b838110156112045780820151818401526020810190506111e9565b83811115611213576000848401525b50505050565b6000611224826111ca565b61122e81856111d5565b935061123e8185602086016111e6565b61124781610ec7565b840191505092915050565b6000602082019050818103600083015261126c8184611219565b905092915050565b60008060006040848603121561128d5761128c610dc4565b5b600061129b868287016110f6565b935050602084013567ffffffffffffffff8111156112bc576112bb610dc9565b5b6112c88682870161100d565b92509250509250925092565b6000602082840312156112ea576112e9610dc4565b5b600082013567ffffffffffffffff81111561130857611307610dc9565b5b61131484828501610fd5565b91505092915050565b600073ffffffffffffffffffffffffffffffffffffffff82169050919050565b60006113488261131d565b9050919050565b6113588161133d565b82525050565b6000604082019050611373600083018561134f565b61138060208301846111a0565b9392505050565b6113908161133d565b811461139b57600080fd5b50565b6000813590506113ad81611387565b92915050565b600381106113c057600080fd5b50565b6000813590506113d2816113b3565b92915050565b600080604083850312156113ef576113ee610dc4565b5b60006113fd8582860161139e565b925050602061140e858286016113c3565b9150509250929050565b600060208201905061142d600083018461134f565b92915050565b7f4e487b7100000000000000000000000000000000000000000000000000000000600052601160045260246000fd5b600061146d82610e89565b915061147883610e89565b9250827fffffffffffffffffffffffffffffffffffffffffffffffffffffffffffffffff038211156114ad576114ac611433565b5b828201905092915050565b60006040820190506114cd6000830185610e93565b6114da6020830184610e93565b9392505050565b600060039050919050565b600081905092915050565b6000819050919050565b61150a81610e89565b82525050565b600061151c8383611501565b60208301905092915050565b6000602082019050919050565b61153e816114e1565b61154881846114ec565b9250611553826114f7565b8060005b8381101561158457815161156b8782611510565b965061157683611528565b925050600181019050611557565b505050505050565b60006060820190506115a16000830184611535565b92915050565b600080fd5b600080fd5b600080858511156115c5576115c46115a7565b5b838611156115d6576115d56115ac565b5b6001850283019150848603905094509492505050565b600082905092915050565b60007fffffffffffffffffffffffffffffffffffffffff00000000000000000000000082169050919050565b600082821b905092915050565b600061163c83836115ec565b8261164781356115f7565b92506014821015611687576116827fffffffffffffffffffffffffffffffffffffffff00000000000000000000000083601403600802611623565b831692505b505092915050565b60006040820190506116a46000830185610e93565b6116b1602083018461134f565b9392505050565b6000815190506116c7816110df565b92915050565b6000602082840312156116e3576116e2610dc4565b5b60006116f1848285016116b8565b91505092915050565b6000806040838503121561171157611710610dc4565b5b600061171f858286016110f6565b9250506020611730858286016110f6565b9150509250929050565b60006117458261131d565b9050919050565b6117558161173a565b811461176057600080fd5b50565b6000815190506117728161174c565b92915050565b600081519050611787816113b3565b92915050565b600080604083850312156117a4576117a3610dc4565b5b60006117b285828601611763565b92505060206117c385828601611778565b9150509250929050565b7f4e487b7100000000000000000000000000000000000000000000000000000000600052603260045260246000fdfea26469706673582212209f8bc87fdf1893e7d50e1d3fedcaa8e2fe7d6651b5227ac9dcb71dddb3f1747364736f6c634300080d0033",
  "linkReferences": {},
  "deployedLinkReferences": {}
}