{
  "_format": "hh-sol-artifact-1",
  "contractName": "StartVoteAndImplementHybridVotingHooksExample",
  "sourceName": "src/examples/integrations/StartVoteAndImplementHybridVoting.sol",
  "abi": [
    {
      "inputs": [
        {
          "internalType": "address",
          "name": "_votingContractOne",
          "type": "address"
        },
        {
          "internalType": "address",
          "name": "_votingContractTwo",
          "type": "address"
        }
      ],
      "stateMutability": "nonpayable",
      "type": "constructor"
    },
    {
      "inputs": [
        {
          "internalType": "address",
          "name": "imposter",
          "type": "address"
        }
      ],
      "name": "IsNotImplementer",
      "type": "error"
    },
    {
      "inputs": [
        {
          "internalType": "bytes4",
          "name": "selector",
          "type": "bytes4"
        }
      ],
      "name": "IsNotVotableFunction",
      "type": "error"
    },
    {
      "inputs": [
        {
          "internalType": "address",
          "name": "implementer",
          "type": "address"
        }
      ],
      "name": "OnlyVoteImplementer",
      "type": "error"
    },
    {
      "anonymous": false,
      "inputs": [
        {
          "indexed": false,
          "internalType": "address",
          "name": "votingContract",
          "type": "address"
        },
        {
          "indexed": false,
          "internalType": "bool",
          "name": "successflag",
          "type": "bool"
        },
        {
          "indexed": false,
          "internalType": "bytes",
          "name": "response",
          "type": "bytes"
        }
      ],
      "name": "Balaa",
      "type": "event"
    },
    {
      "anonymous": false,
      "inputs": [
        {
          "indexed": false,
          "internalType": "bool",
          "name": "success",
          "type": "bool"
        },
        {
          "indexed": false,
          "internalType": "bytes",
          "name": "response",
          "type": "bytes"
        }
      ],
      "name": "WhatsNow",
      "type": "event"
    },
    {
      "inputs": [],
      "name": "deployer",
      "outputs": [
        {
          "internalType": "address",
          "name": "",
          "type": "address"
        }
      ],
      "stateMutability": "view",
      "type": "function"
    },
    {
      "inputs": [],
      "name": "i",
      "outputs": [
        {
          "internalType": "uint256",
          "name": "",
          "type": "uint256"
        }
      ],
      "stateMutability": "view",
      "type": "function"
    },
    {
      "inputs": [
        {
          "internalType": "uint256",
          "name": "identifier",
          "type": "uint256"
        },
        {
          "internalType": "bytes",
          "name": "callback",
          "type": "bytes"
        }
      ],
      "name": "implement",
      "outputs": [],
      "stateMutability": "payable",
      "type": "function"
    },
    {
      "inputs": [],
      "name": "implementations",
      "outputs": [
        {
          "internalType": "uint256",
          "name": "",
          "type": "uint256"
        }
      ],
      "stateMutability": "view",
      "type": "function"
    },
    {
      "inputs": [],
      "name": "increment",
      "outputs": [],
      "stateMutability": "nonpayable",
      "type": "function"
    },
    {
      "inputs": [
        {
          "internalType": "uint256",
          "name": "",
          "type": "uint256"
        }
      ],
      "name": "instances",
      "outputs": [
        {
          "internalType": "uint256",
          "name": "identifier",
          "type": "uint256"
        },
        {
          "internalType": "address",
          "name": "votingContract",
          "type": "address"
        }
      ],
      "stateMutability": "view",
      "type": "function"
    },
    {
      "inputs": [],
      "name": "numberOfInstances",
      "outputs": [
        {
          "internalType": "uint256",
          "name": "",
          "type": "uint256"
        }
      ],
      "stateMutability": "view",
      "type": "function"
    },
    {
      "inputs": [
        {
          "internalType": "uint256",
          "name": "_i",
          "type": "uint256"
        }
      ],
      "name": "reset",
      "outputs": [],
      "stateMutability": "nonpayable",
      "type": "function"
    },
    {
      "inputs": [
        {
          "internalType": "uint256",
          "name": "",
          "type": "uint256"
        }
      ],
      "name": "responseStatus",
      "outputs": [
        {
          "internalType": "bool",
          "name": "",
          "type": "bool"
        }
      ],
      "stateMutability": "view",
      "type": "function"
    },
    {
      "inputs": [
        {
          "internalType": "bytes",
          "name": "votingParams",
          "type": "bytes"
        },
        {
          "internalType": "bytes",
          "name": "callback",
          "type": "bytes"
        }
      ],
      "name": "start",
      "outputs": [],
      "stateMutability": "nonpayable",
      "type": "function"
    },
    {
      "inputs": [
        {
          "internalType": "uint256",
          "name": "identifier",
          "type": "uint256"
        },
        {
          "internalType": "bytes",
          "name": "votingData",
          "type": "bytes"
        }
      ],
      "name": "vote",
      "outputs": [],
      "stateMutability": "nonpayable",
      "type": "function"
    },
    {
      "inputs": [],
      "name": "votes",
      "outputs": [
        {
          "internalType": "uint256",
          "name": "",
          "type": "uint256"
        }
      ],
      "stateMutability": "view",
      "type": "function"
    },
    {
      "inputs": [
        {
          "internalType": "uint256",
          "name": "",
          "type": "uint256"
        }
      ],
      "name": "votingStatus",
      "outputs": [
        {
          "internalType": "uint256",
          "name": "",
          "type": "uint256"
        }
      ],
      "stateMutability": "view",
      "type": "function"
    }
  ],
  "bytecode": "0x60806040523480156200001157600080fd5b5060405162001cdf38038062001cdf8339818101604052810190620000379190620002a7565b33600460006101000a81548173ffffffffffffffffffffffffffffffffffffffff021916908373ffffffffffffffffffffffffffffffffffffffff16021790555081600a6000600162ffffff1662ffffff16815260200190815260200160002060006101000a81548173ffffffffffffffffffffffffffffffffffffffff021916908373ffffffffffffffffffffffffffffffffffffffff16021790555080600260007fd09de08ab1a974aadf0a76e6f99a2ec20e431f22bbc101a6c3f718e53646ed8d7bffffffffffffffffffffffffffffffffffffffffffffffffffffffff19167bffffffffffffffffffffffffffffffffffffffffffffffffffffffff1916815260200190815260200160002060006101000a81548173ffffffffffffffffffffffffffffffffffffffff021916908373ffffffffffffffffffffffffffffffffffffffff16021790555080600260007f310bd74b1bcdaacf16f6a4234577ac20217c4dd976ab40b2e67577604855f5067bffffffffffffffffffffffffffffffffffffffffffffffffffffffff19167bffffffffffffffffffffffffffffffffffffffffffffffffffffffff1916815260200190815260200160002060006101000a81548173ffffffffffffffffffffffffffffffffffffffff021916908373ffffffffffffffffffffffffffffffffffffffff1602179055505050620002ee565b600080fd5b600073ffffffffffffffffffffffffffffffffffffffff82169050919050565b60006200026f8262000242565b9050919050565b620002818162000262565b81146200028d57600080fd5b50565b600081519050620002a18162000276565b92915050565b60008060408385031215620002c157620002c06200023d565b5b6000620002d18582860162000290565b9250506020620002e48582860162000290565b9150509250929050565b6119e180620002fe6000396000f3fe6080604052600436106100c25760003560e01c80637a8e1d971161007f578063d09de08a11610059578063d09de08a1461026c578063d5f3948814610283578063e168c3ec146102ae578063e5aa3d58146102d9576100c2565b80637a8e1d97146101c8578063a2f7b3a514610205578063b88b82ba14610243576100c2565b80630e13dd74146100c75780631080156e146101045780631540ac511461012d57806330e9012c14610149578063310bd74b14610174578063481168a61461019d575b600080fd5b3480156100d357600080fd5b506100ee60048036038101906100e99190610ff4565b610304565b6040516100fb9190611030565b60405180910390f35b34801561011057600080fd5b5061012b600480360381019061012691906111f1565b61031c565b005b6101476004803603810190610142919061126d565b6106a9565b005b34801561015557600080fd5b5061015e61089c565b60405161016b9190611030565b60405180910390f35b34801561018057600080fd5b5061019b60048036038101906101969190610ff4565b6108a2565b005b3480156101a957600080fd5b506101b261094f565b6040516101bf9190611030565b60405180910390f35b3480156101d457600080fd5b506101ef60048036038101906101ea9190610ff4565b610955565b6040516101fc91906112e8565b60405180910390f35b34801561021157600080fd5b5061022c60048036038101906102279190610ff4565b610975565b60405161023a929190611344565b60405180910390f35b34801561024f57600080fd5b5061026a6004803603810190610265919061126d565b6109c9565b005b34801561027857600080fd5b50610281610adc565b005b34801561028f57600080fd5b50610298610b40565b6040516102a5919061136d565b60405180910390f35b3480156102ba57600080fd5b506102c3610b66565b6040516102d09190611030565b60405180910390f35b3480156102e557600080fd5b506102ee610b6c565b6040516102fb9190611030565b60405180910390f35b60086020528060005260406000206000915090505481565b610327838383610b72565b600080600060048585905010156103cb576103428585610c07565b92508273ffffffffffffffffffffffffffffffffffffffff16631080156e8787876040518463ffffffff1660e01b81526004016103819392919061143d565b6020604051808303816000875af11580156103a0573d6000803e3d6000fd5b505050506040513d601f19601f820116820180604052508101906103c4919061148b565b91506105db565b600085856000906004926103e1939291906114c2565b906103ec9190611541565b90506103f781610c70565b61043857806040517f35be8c2900000000000000000000000000000000000000000000000000000000815260040161042f91906115af565b60405180910390fd5b60026000827bffffffffffffffffffffffffffffffffffffffffffffffffffffffff19167bffffffffffffffffffffffffffffffffffffffffffffffffffffffff1916815260200190815260200160002060009054906101000a900473ffffffffffffffffffffffffffffffffffffffff1693508373ffffffffffffffffffffffffffffffffffffffff16631080156e8888886040518463ffffffff1660e01b81526004016104e99392919061143d565b6020604051808303816000875af1158015610508573d6000803e3d6000fd5b505050506040513d601f19601f8201168201806040525081019061052c919061148b565b925060006105ab60026000847bffffffffffffffffffffffffffffffffffffffffffffffffffffffff19167bffffffffffffffffffffffffffffffffffffffffffffffffffffffff1916815260200190815260200160002060009054906101000a900473ffffffffffffffffffffffffffffffffffffffff1685610d1a565b9050600180600083815260200190815260200160002060006101000a81548160ff02191690831515021790555050505b600360405180604001604052808481526020018573ffffffffffffffffffffffffffffffffffffffff1681525090806001815401808255809150506001900390600052602060002090600202016000909190919091506000820151816000015560208201518160010160006101000a81548173ffffffffffffffffffffffffffffffffffffffff021916908373ffffffffffffffffffffffffffffffffffffffff16021790555050506106a1600160038054905061069991906115f9565b878787610d4d565b505050505050565b6106b283610d6d565b6000631540ac5160e01b600385815481106106d0576106cf61162d565b5b90600052602060002090600202016000015484846040516024016106f69392919061165c565b604051602081830303815290604052907bffffffffffffffffffffffffffffffffffffffffffffffffffffffff19166020820180517bffffffffffffffffffffffffffffffffffffffffffffffffffffffff838183161783525050505090506000806003868154811061076c5761076b61162d565b5b906000526020600020906002020160010160009054906101000a900473ffffffffffffffffffffffffffffffffffffffff1673ffffffffffffffffffffffffffffffffffffffff1634846040516107c391906116ca565b60006040518083038185875af1925050503d8060008114610800576040519150601f19603f3d011682016040523d82523d6000602084013e610805565b606091505b50915091507f386e73a2de2ea0e14c3906995d8e6d561e27a323ec6b38a2520d3033fd6e66606003878154811061083f5761083e61162d565b5b906000526020600020906002020160010160009054906101000a900473ffffffffffffffffffffffffffffffffffffffff168383604051610882939291906116e1565b60405180910390a16108948683610d8a565b505050505050565b60075481565b60016108ad81610db9565b8061090557503373ffffffffffffffffffffffffffffffffffffffff16600460009054906101000a900473ffffffffffffffffffffffffffffffffffffffff1673ffffffffffffffffffffffffffffffffffffffff16145b610944576040517f08c379a000000000000000000000000000000000000000000000000000000000815260040161093b9061177c565b60405180910390fd5b816000819055505050565b60055481565b60096020528060005260406000206000915054906101000a900460ff1681565b6003818154811061098557600080fd5b90600052602060002090600202016000915090508060000154908060010160009054906101000a900473ffffffffffffffffffffffffffffffffffffffff16905082565b6109d4838383610f1d565b6000600384815481106109ea576109e961162d565b5b906000526020600020906002020160010160009054906101000a900473ffffffffffffffffffffffffffffffffffffffff1673ffffffffffffffffffffffffffffffffffffffff1663b88b82ba60038681548110610a4b57610a4a61162d565b5b906000526020600020906002020160000154610a68878787610f3c565b6040518363ffffffff1660e01b8152600401610a8592919061179c565b6020604051808303816000875af1158015610aa4573d6000803e3d6000fd5b505050506040513d601f19601f82011682018060405250810190610ac8919061148b565b9050610ad684828585610f8c565b50505050565b6001610ae781610db9565b610b2857336040517f06246cc5000000000000000000000000000000000000000000000000000000008152600401610b1f919061136d565b60405180910390fd5b6001600054610b3791906117cc565b60008190555050565b600460009054906101000a900473ffffffffffffffffffffffffffffffffffffffff1681565b60065481565b60005481565b600460009054906101000a900473ffffffffffffffffffffffffffffffffffffffff1673ffffffffffffffffffffffffffffffffffffffff163373ffffffffffffffffffffffffffffffffffffffff1614610c02576040517f08c379a0000000000000000000000000000000000000000000000000000000008152600401610bf99061186e565b60405180910390fd5b505050565b6000600a60008484600090600392610c21939291906114c2565b90610c2c91906118ba565b60e81c62ffffff1662ffffff16815260200190815260200160002060009054906101000a900473ffffffffffffffffffffffffffffffffffffffff16905092915050565b60008073ffffffffffffffffffffffffffffffffffffffff1660026000847bffffffffffffffffffffffffffffffffffffffffffffffffffffffff19167bffffffffffffffffffffffffffffffffffffffffffffffffffffffff1916815260200190815260200160002060009054906101000a900473ffffffffffffffffffffffffffffffffffffffff1673ffffffffffffffffffffffffffffffffffffffff1614159050919050565b60008282604051602001610d2f929190611919565b60405160208183030381529060405280519060200120905092915050565b600160056000828254610d6091906117cc565b9250508190555050505050565b600160076000828254610d8091906117cc565b9250508190555050565b806009600084815260200190815260200160002060006101000a81548160ff0219169083151502179055505050565b6000803373ffffffffffffffffffffffffffffffffffffffff166002600080357fffffffff00000000000000000000000000000000000000000000000000000000167bffffffffffffffffffffffffffffffffffffffffffffffffffffffff19167bffffffffffffffffffffffffffffffffffffffffffffffffffffffff1916815260200190815260200160002060009054906101000a900473ffffffffffffffffffffffffffffffffffffffff1673ffffffffffffffffffffffffffffffffffffffff16149050821580610e8c575080155b15610e9a5780915050610f18565b602460003690501015610eb1576000915050610f18565b6000803660206000369050610ec691906115f9565b90600036905092610ed9939291906114c2565b90610ee4919061194c565b60001c905060016000610ef73384610d1a565b815260200190815260200160002060009054906101000a900460ff16925050505b919050565b600160066000828254610f3091906117cc565b92505081905550505050565b606082828080601f016020809104026020016040519081016040528093929190818152602001838380828437600081840152601f19601f8201169050808301925050505050505090509392505050565b82600860008681526020019081526020016000208190555050505050565b6000604051905090565b600080fd5b600080fd5b6000819050919050565b610fd181610fbe565b8114610fdc57600080fd5b50565b600081359050610fee81610fc8565b92915050565b60006020828403121561100a57611009610fb4565b5b600061101884828501610fdf565b91505092915050565b61102a81610fbe565b82525050565b60006020820190506110456000830184611021565b92915050565b600080fd5b600080fd5b6000601f19601f8301169050919050565b7f4e487b7100000000000000000000000000000000000000000000000000000000600052604160045260246000fd5b61109e82611055565b810181811067ffffffffffffffff821117156110bd576110bc611066565b5b80604052505050565b60006110d0610faa565b90506110dc8282611095565b919050565b600067ffffffffffffffff8211156110fc576110fb611066565b5b61110582611055565b9050602081019050919050565b82818337600083830152505050565b600061113461112f846110e1565b6110c6565b9050828152602081018484840111156111505761114f611050565b5b61115b848285611112565b509392505050565b600082601f8301126111785761117761104b565b5b8135611188848260208601611121565b91505092915050565b600080fd5b600080fd5b60008083601f8401126111b1576111b061104b565b5b8235905067ffffffffffffffff8111156111ce576111cd611191565b5b6020830191508360018202830111156111ea576111e9611196565b5b9250929050565b60008060006040848603121561120a57611209610fb4565b5b600084013567ffffffffffffffff81111561122857611227610fb9565b5b61123486828701611163565b935050602084013567ffffffffffffffff81111561125557611254610fb9565b5b6112618682870161119b565b92509250509250925092565b60008060006040848603121561128657611285610fb4565b5b600061129486828701610fdf565b935050602084013567ffffffffffffffff8111156112b5576112b4610fb9565b5b6112c18682870161119b565b92509250509250925092565b60008115159050919050565b6112e2816112cd565b82525050565b60006020820190506112fd60008301846112d9565b92915050565b600073ffffffffffffffffffffffffffffffffffffffff82169050919050565b600061132e82611303565b9050919050565b61133e81611323565b82525050565b60006040820190506113596000830185611021565b6113666020830184611335565b9392505050565b60006020820190506113826000830184611335565b92915050565b600081519050919050565b600082825260208201905092915050565b60005b838110156113c25780820151818401526020810190506113a7565b838111156113d1576000848401525b50505050565b60006113e282611388565b6113ec8185611393565b93506113fc8185602086016113a4565b61140581611055565b840191505092915050565b600061141c8385611393565b9350611429838584611112565b61143283611055565b840190509392505050565b6000604082019050818103600083015261145781866113d7565b9050818103602083015261146c818486611410565b9050949350505050565b60008151905061148581610fc8565b92915050565b6000602082840312156114a1576114a0610fb4565b5b60006114af84828501611476565b91505092915050565b600080fd5b600080fd5b600080858511156114d6576114d56114b8565b5b838611156114e7576114e66114bd565b5b6001850283019150848603905094509492505050565b600082905092915050565b60007fffffffff0000000000000000000000000000000000000000000000000000000082169050919050565b600082821b905092915050565b600061154d83836114fd565b826115588135611508565b92506004821015611598576115937fffffffff0000000000000000000000000000000000000000000000000000000083600403600802611534565b831692505b505092915050565b6115a981611508565b82525050565b60006020820190506115c460008301846115a0565b92915050565b7f4e487b7100000000000000000000000000000000000000000000000000000000600052601160045260246000fd5b600061160482610fbe565b915061160f83610fbe565b925082821015611622576116216115ca565b5b828203905092915050565b7f4e487b7100000000000000000000000000000000000000000000000000000000600052603260045260246000fd5b60006040820190506116716000830186611021565b8181036020830152611684818486611410565b9050949350505050565b600081905092915050565b60006116a482611388565b6116ae818561168e565b93506116be8185602086016113a4565b80840191505092915050565b60006116d68284611699565b915081905092915050565b60006060820190506116f66000830186611335565b61170360208301856112d9565b818103604083015261171581846113d7565b9050949350505050565b600082825260208201905092915050565b7f4f6e6c79206465706c6f796572206f7220627920766f74650000000000000000600082015250565b600061176660188361171f565b915061177182611730565b602082019050919050565b6000602082019050818103600083015261179581611759565b9050919050565b60006040820190506117b16000830185611021565b81810360208301526117c381846113d7565b90509392505050565b60006117d782610fbe565b91506117e283610fbe565b9250827fffffffffffffffffffffffffffffffffffffffffffffffffffffffffffffffff03821115611817576118166115ca565b5b828201905092915050565b7f4f6e6c79206465706c6f79657200000000000000000000000000000000000000600082015250565b6000611858600d8361171f565b915061186382611822565b602082019050919050565b600060208201905081810360008301526118878161184b565b9050919050565b60007fffffff000000000000000000000000000000000000000000000000000000000082169050919050565b60006118c683836114fd565b826118d1813561188e565b925060038210156119115761190c7fffffff000000000000000000000000000000000000000000000000000000000083600303600802611534565b831692505b505092915050565b600060408201905061192e6000830185611335565b61193b6020830184611021565b9392505050565b6000819050919050565b600061195883836114fd565b826119638135611942565b925060208210156119a35761199e7fffffffffffffffffffffffffffffffffffffffffffffffffffffffffffffffff83602003600802611534565b831692505b50509291505056fea2646970667358221220e86092d4547b3612a676d4ae165ac23deec502ef696195b49ca84d4198f35e3164736f6c634300080d0033",
  "linkReferences": {},
  "deployedLinkReferences": {}
}