{
  "_format": "hh-sol-artifact-1",
  "contractName": "StartVoteAndImplementHybridVotingHooksExample",
  "sourceName": "src/examples/integrations/StartVoteAndImplementHybridVoting.sol",
  "abi": [
    {
      "inputs": [
        {
          "internalType": "address",
          "name": "_votingContractOne",
          "type": "address"
        },
        {
          "internalType": "address",
          "name": "_votingContractTwo",
          "type": "address"
        }
      ],
      "stateMutability": "nonpayable",
      "type": "constructor"
    },
    {
      "inputs": [
        {
          "internalType": "address",
          "name": "imposter",
          "type": "address"
        }
      ],
      "name": "IsNotImplementer",
      "type": "error"
    },
    {
      "inputs": [
        {
          "internalType": "bytes4",
          "name": "selector",
          "type": "bytes4"
        }
      ],
      "name": "IsNotVotableFunction",
      "type": "error"
    },
    {
      "inputs": [
        {
          "internalType": "address",
          "name": "implementer",
          "type": "address"
        }
      ],
      "name": "OnlyVoteImplementer",
      "type": "error"
    },
    {
      "anonymous": false,
      "inputs": [
        {
          "indexed": false,
          "internalType": "address",
          "name": "votingContract",
          "type": "address"
        },
        {
          "indexed": false,
          "internalType": "bool",
          "name": "successflag",
          "type": "bool"
        },
        {
          "indexed": false,
          "internalType": "bytes",
          "name": "response",
          "type": "bytes"
        }
      ],
      "name": "Balaa",
      "type": "event"
    },
    {
      "anonymous": false,
      "inputs": [
        {
          "indexed": false,
          "internalType": "bool",
          "name": "success",
          "type": "bool"
        },
        {
          "indexed": false,
          "internalType": "bytes",
          "name": "response",
          "type": "bytes"
        }
      ],
      "name": "WhatsNow",
      "type": "event"
    },
    {
      "inputs": [],
      "name": "deployer",
      "outputs": [
        {
          "internalType": "address",
          "name": "",
          "type": "address"
        }
      ],
      "stateMutability": "view",
      "type": "function"
    },
    {
      "inputs": [],
      "name": "i",
      "outputs": [
        {
          "internalType": "uint256",
          "name": "",
          "type": "uint256"
        }
      ],
      "stateMutability": "view",
      "type": "function"
    },
    {
      "inputs": [
        {
          "internalType": "uint256",
          "name": "identifier",
          "type": "uint256"
        },
        {
          "internalType": "bytes",
          "name": "callback",
          "type": "bytes"
        }
      ],
      "name": "implement",
      "outputs": [],
      "stateMutability": "payable",
      "type": "function"
    },
    {
      "inputs": [],
      "name": "implementations",
      "outputs": [
        {
          "internalType": "uint256",
          "name": "",
          "type": "uint256"
        }
      ],
      "stateMutability": "view",
      "type": "function"
    },
    {
      "inputs": [],
      "name": "increment",
      "outputs": [],
      "stateMutability": "nonpayable",
      "type": "function"
    },
    {
      "inputs": [
        {
          "internalType": "uint256",
          "name": "",
          "type": "uint256"
        }
      ],
      "name": "instances",
      "outputs": [
        {
          "internalType": "uint256",
          "name": "identifier",
          "type": "uint256"
        },
        {
          "internalType": "address",
          "name": "votingContract",
          "type": "address"
        }
      ],
      "stateMutability": "view",
      "type": "function"
    },
    {
      "inputs": [],
      "name": "numberOfInstances",
      "outputs": [
        {
          "internalType": "uint256",
          "name": "",
          "type": "uint256"
        }
      ],
      "stateMutability": "view",
      "type": "function"
    },
    {
      "inputs": [
        {
          "internalType": "uint256",
          "name": "_i",
          "type": "uint256"
        }
      ],
      "name": "reset",
      "outputs": [],
      "stateMutability": "nonpayable",
      "type": "function"
    },
    {
      "inputs": [
        {
          "internalType": "uint256",
          "name": "",
          "type": "uint256"
        }
      ],
      "name": "responseStatus",
      "outputs": [
        {
          "internalType": "bool",
          "name": "",
          "type": "bool"
        }
      ],
      "stateMutability": "view",
      "type": "function"
    },
    {
      "inputs": [
        {
          "internalType": "bytes",
          "name": "votingParams",
          "type": "bytes"
        },
        {
          "internalType": "bytes",
          "name": "callback",
          "type": "bytes"
        }
      ],
      "name": "start",
      "outputs": [],
      "stateMutability": "nonpayable",
      "type": "function"
    },
    {
      "inputs": [
        {
          "internalType": "uint256",
          "name": "identifier",
          "type": "uint256"
        },
        {
          "internalType": "bytes",
          "name": "votingData",
          "type": "bytes"
        }
      ],
      "name": "vote",
      "outputs": [],
      "stateMutability": "nonpayable",
      "type": "function"
    },
    {
      "inputs": [],
      "name": "votes",
      "outputs": [
        {
          "internalType": "uint256",
          "name": "",
          "type": "uint256"
        }
      ],
      "stateMutability": "view",
      "type": "function"
    },
    {
      "inputs": [
        {
          "internalType": "uint256",
          "name": "",
          "type": "uint256"
        }
      ],
      "name": "votingStatus",
      "outputs": [
        {
          "internalType": "uint256",
          "name": "",
          "type": "uint256"
        }
      ],
      "stateMutability": "view",
      "type": "function"
    }
  ],
  "bytecode": "0x60806040523480156200001157600080fd5b5060405162001cdc38038062001cdc8339818101604052810190620000379190620002a7565b33600460006101000a81548173ffffffffffffffffffffffffffffffffffffffff021916908373ffffffffffffffffffffffffffffffffffffffff16021790555081600a6000600162ffffff1662ffffff16815260200190815260200160002060006101000a81548173ffffffffffffffffffffffffffffffffffffffff021916908373ffffffffffffffffffffffffffffffffffffffff16021790555080600260007fd09de08ab1a974aadf0a76e6f99a2ec20e431f22bbc101a6c3f718e53646ed8d7bffffffffffffffffffffffffffffffffffffffffffffffffffffffff19167bffffffffffffffffffffffffffffffffffffffffffffffffffffffff1916815260200190815260200160002060006101000a81548173ffffffffffffffffffffffffffffffffffffffff021916908373ffffffffffffffffffffffffffffffffffffffff16021790555080600260007f310bd74b1bcdaacf16f6a4234577ac20217c4dd976ab40b2e67577604855f5067bffffffffffffffffffffffffffffffffffffffffffffffffffffffff19167bffffffffffffffffffffffffffffffffffffffffffffffffffffffff1916815260200190815260200160002060006101000a81548173ffffffffffffffffffffffffffffffffffffffff021916908373ffffffffffffffffffffffffffffffffffffffff1602179055505050620002ee565b600080fd5b600073ffffffffffffffffffffffffffffffffffffffff82169050919050565b60006200026f8262000242565b9050919050565b620002818162000262565b81146200028d57600080fd5b50565b600081519050620002a18162000276565b92915050565b60008060408385031215620002c157620002c06200023d565b5b6000620002d18582860162000290565b9250506020620002e48582860162000290565b9150509250929050565b6119de80620002fe6000396000f3fe6080604052600436106100c25760003560e01c80637a8e1d971161007f578063d09de08a11610059578063d09de08a1461026c578063d5f3948814610283578063e168c3ec146102ae578063e5aa3d58146102d9576100c2565b80637a8e1d97146101c8578063a2f7b3a514610205578063b88b82ba14610243576100c2565b80630e13dd74146100c75780631080156e146101045780631540ac511461012d57806330e9012c14610149578063310bd74b14610174578063481168a61461019d575b600080fd5b3480156100d357600080fd5b506100ee60048036038101906100e99190610ff1565b610304565b6040516100fb919061102d565b60405180910390f35b34801561011057600080fd5b5061012b600480360381019061012691906111ee565b61031c565b005b6101476004803603810190610142919061126a565b6106a6565b005b34801561015557600080fd5b5061015e610899565b60405161016b919061102d565b60405180910390f35b34801561018057600080fd5b5061019b60048036038101906101969190610ff1565b61089f565b005b3480156101a957600080fd5b506101b261094c565b6040516101bf919061102d565b60405180910390f35b3480156101d457600080fd5b506101ef60048036038101906101ea9190610ff1565b610952565b6040516101fc91906112e5565b60405180910390f35b34801561021157600080fd5b5061022c60048036038101906102279190610ff1565b610972565b60405161023a929190611341565b60405180910390f35b34801561024f57600080fd5b5061026a6004803603810190610265919061126a565b6109c6565b005b34801561027857600080fd5b50610281610ad9565b005b34801561028f57600080fd5b50610298610b3d565b6040516102a5919061136a565b60405180910390f35b3480156102ba57600080fd5b506102c3610b63565b6040516102d0919061102d565b60405180910390f35b3480156102e557600080fd5b506102ee610b69565b6040516102fb919061102d565b60405180910390f35b60086020528060005260406000206000915090505481565b610327838383610b6f565b60008060048484905010156103c9576103408484610c04565b91508173ffffffffffffffffffffffffffffffffffffffff16631080156e8686866040518463ffffffff1660e01b815260040161037f9392919061143a565b6020604051808303816000875af115801561039e573d6000803e3d6000fd5b505050506040513d601f19601f820116820180604052508101906103c29190611488565b90506105d9565b600084846000906004926103df939291906114bf565b906103ea919061153e565b90506103f581610c6d565b61043657806040517f35be8c2900000000000000000000000000000000000000000000000000000000815260040161042d91906115ac565b60405180910390fd5b60026000827bffffffffffffffffffffffffffffffffffffffffffffffffffffffff19167bffffffffffffffffffffffffffffffffffffffffffffffffffffffff1916815260200190815260200160002060009054906101000a900473ffffffffffffffffffffffffffffffffffffffff1692508273ffffffffffffffffffffffffffffffffffffffff16631080156e8787876040518463ffffffff1660e01b81526004016104e79392919061143a565b6020604051808303816000875af1158015610506573d6000803e3d6000fd5b505050506040513d601f19601f8201168201806040525081019061052a9190611488565b915060006105a960026000847bffffffffffffffffffffffffffffffffffffffffffffffffffffffff19167bffffffffffffffffffffffffffffffffffffffffffffffffffffffff1916815260200190815260200160002060009054906101000a900473ffffffffffffffffffffffffffffffffffffffff1684610d17565b9050600180600083815260200190815260200160002060006101000a81548160ff02191690831515021790555050505b600360405180604001604052808381526020018473ffffffffffffffffffffffffffffffffffffffff1681525090806001815401808255809150506001900390600052602060002090600202016000909190919091506000820151816000015560208201518160010160006101000a81548173ffffffffffffffffffffffffffffffffffffffff021916908373ffffffffffffffffffffffffffffffffffffffff160217905550505061069f600160038054905061069791906115f6565b868686610d4a565b5050505050565b6106af83610d6a565b6000631540ac5160e01b600385815481106106cd576106cc61162a565b5b90600052602060002090600202016000015484846040516024016106f393929190611659565b604051602081830303815290604052907bffffffffffffffffffffffffffffffffffffffffffffffffffffffff19166020820180517bffffffffffffffffffffffffffffffffffffffffffffffffffffffff83818316178352505050509050600080600386815481106107695761076861162a565b5b906000526020600020906002020160010160009054906101000a900473ffffffffffffffffffffffffffffffffffffffff1673ffffffffffffffffffffffffffffffffffffffff1634846040516107c091906116c7565b60006040518083038185875af1925050503d80600081146107fd576040519150601f19603f3d011682016040523d82523d6000602084013e610802565b606091505b50915091507f386e73a2de2ea0e14c3906995d8e6d561e27a323ec6b38a2520d3033fd6e66606003878154811061083c5761083b61162a565b5b906000526020600020906002020160010160009054906101000a900473ffffffffffffffffffffffffffffffffffffffff16838360405161087f939291906116de565b60405180910390a16108918683610d87565b505050505050565b60075481565b60016108aa81610db6565b8061090257503373ffffffffffffffffffffffffffffffffffffffff16600460009054906101000a900473ffffffffffffffffffffffffffffffffffffffff1673ffffffffffffffffffffffffffffffffffffffff16145b610941576040517f08c379a000000000000000000000000000000000000000000000000000000000815260040161093890611779565b60405180910390fd5b816000819055505050565b60055481565b60096020528060005260406000206000915054906101000a900460ff1681565b6003818154811061098257600080fd5b90600052602060002090600202016000915090508060000154908060010160009054906101000a900473ffffffffffffffffffffffffffffffffffffffff16905082565b6109d1838383610f1a565b6000600384815481106109e7576109e661162a565b5b906000526020600020906002020160010160009054906101000a900473ffffffffffffffffffffffffffffffffffffffff1673ffffffffffffffffffffffffffffffffffffffff1663b88b82ba60038681548110610a4857610a4761162a565b5b906000526020600020906002020160000154610a65878787610f39565b6040518363ffffffff1660e01b8152600401610a82929190611799565b6020604051808303816000875af1158015610aa1573d6000803e3d6000fd5b505050506040513d601f19601f82011682018060405250810190610ac59190611488565b9050610ad384828585610f89565b50505050565b6001610ae481610db6565b610b2557336040517f06246cc5000000000000000000000000000000000000000000000000000000008152600401610b1c919061136a565b60405180910390fd5b6001600054610b3491906117c9565b60008190555050565b600460009054906101000a900473ffffffffffffffffffffffffffffffffffffffff1681565b60065481565b60005481565b600460009054906101000a900473ffffffffffffffffffffffffffffffffffffffff1673ffffffffffffffffffffffffffffffffffffffff163373ffffffffffffffffffffffffffffffffffffffff1614610bff576040517f08c379a0000000000000000000000000000000000000000000000000000000008152600401610bf69061186b565b60405180910390fd5b505050565b6000600a60008484600090600392610c1e939291906114bf565b90610c2991906118b7565b60e81c62ffffff1662ffffff16815260200190815260200160002060009054906101000a900473ffffffffffffffffffffffffffffffffffffffff16905092915050565b60008073ffffffffffffffffffffffffffffffffffffffff1660026000847bffffffffffffffffffffffffffffffffffffffffffffffffffffffff19167bffffffffffffffffffffffffffffffffffffffffffffffffffffffff1916815260200190815260200160002060009054906101000a900473ffffffffffffffffffffffffffffffffffffffff1673ffffffffffffffffffffffffffffffffffffffff1614159050919050565b60008282604051602001610d2c929190611916565b60405160208183030381529060405280519060200120905092915050565b600160056000828254610d5d91906117c9565b9250508190555050505050565b600160076000828254610d7d91906117c9565b9250508190555050565b806009600084815260200190815260200160002060006101000a81548160ff0219169083151502179055505050565b6000803373ffffffffffffffffffffffffffffffffffffffff166002600080357fffffffff00000000000000000000000000000000000000000000000000000000167bffffffffffffffffffffffffffffffffffffffffffffffffffffffff19167bffffffffffffffffffffffffffffffffffffffffffffffffffffffff1916815260200190815260200160002060009054906101000a900473ffffffffffffffffffffffffffffffffffffffff1673ffffffffffffffffffffffffffffffffffffffff16149050821580610e89575080155b15610e975780915050610f15565b602460003690501015610eae576000915050610f15565b6000803660206000369050610ec391906115f6565b90600036905092610ed6939291906114bf565b90610ee19190611949565b60001c905060016000610ef43384610d17565b815260200190815260200160002060009054906101000a900460ff16925050505b919050565b600160066000828254610f2d91906117c9565b92505081905550505050565b606082828080601f016020809104026020016040519081016040528093929190818152602001838380828437600081840152601f19601f8201169050808301925050505050505090509392505050565b82600860008681526020019081526020016000208190555050505050565b6000604051905090565b600080fd5b600080fd5b6000819050919050565b610fce81610fbb565b8114610fd957600080fd5b50565b600081359050610feb81610fc5565b92915050565b60006020828403121561100757611006610fb1565b5b600061101584828501610fdc565b91505092915050565b61102781610fbb565b82525050565b6000602082019050611042600083018461101e565b92915050565b600080fd5b600080fd5b6000601f19601f8301169050919050565b7f4e487b7100000000000000000000000000000000000000000000000000000000600052604160045260246000fd5b61109b82611052565b810181811067ffffffffffffffff821117156110ba576110b9611063565b5b80604052505050565b60006110cd610fa7565b90506110d98282611092565b919050565b600067ffffffffffffffff8211156110f9576110f8611063565b5b61110282611052565b9050602081019050919050565b82818337600083830152505050565b600061113161112c846110de565b6110c3565b90508281526020810184848401111561114d5761114c61104d565b5b61115884828561110f565b509392505050565b600082601f83011261117557611174611048565b5b813561118584826020860161111e565b91505092915050565b600080fd5b600080fd5b60008083601f8401126111ae576111ad611048565b5b8235905067ffffffffffffffff8111156111cb576111ca61118e565b5b6020830191508360018202830111156111e7576111e6611193565b5b9250929050565b60008060006040848603121561120757611206610fb1565b5b600084013567ffffffffffffffff81111561122557611224610fb6565b5b61123186828701611160565b935050602084013567ffffffffffffffff81111561125257611251610fb6565b5b61125e86828701611198565b92509250509250925092565b60008060006040848603121561128357611282610fb1565b5b600061129186828701610fdc565b935050602084013567ffffffffffffffff8111156112b2576112b1610fb6565b5b6112be86828701611198565b92509250509250925092565b60008115159050919050565b6112df816112ca565b82525050565b60006020820190506112fa60008301846112d6565b92915050565b600073ffffffffffffffffffffffffffffffffffffffff82169050919050565b600061132b82611300565b9050919050565b61133b81611320565b82525050565b6000604082019050611356600083018561101e565b6113636020830184611332565b9392505050565b600060208201905061137f6000830184611332565b92915050565b600081519050919050565b600082825260208201905092915050565b60005b838110156113bf5780820151818401526020810190506113a4565b838111156113ce576000848401525b50505050565b60006113df82611385565b6113e98185611390565b93506113f98185602086016113a1565b61140281611052565b840191505092915050565b60006114198385611390565b935061142683858461110f565b61142f83611052565b840190509392505050565b6000604082019050818103600083015261145481866113d4565b9050818103602083015261146981848661140d565b9050949350505050565b60008151905061148281610fc5565b92915050565b60006020828403121561149e5761149d610fb1565b5b60006114ac84828501611473565b91505092915050565b600080fd5b600080fd5b600080858511156114d3576114d26114b5565b5b838611156114e4576114e36114ba565b5b6001850283019150848603905094509492505050565b600082905092915050565b60007fffffffff0000000000000000000000000000000000000000000000000000000082169050919050565b600082821b905092915050565b600061154a83836114fa565b826115558135611505565b92506004821015611595576115907fffffffff0000000000000000000000000000000000000000000000000000000083600403600802611531565b831692505b505092915050565b6115a681611505565b82525050565b60006020820190506115c1600083018461159d565b92915050565b7f4e487b7100000000000000000000000000000000000000000000000000000000600052601160045260246000fd5b600061160182610fbb565b915061160c83610fbb565b92508282101561161f5761161e6115c7565b5b828203905092915050565b7f4e487b7100000000000000000000000000000000000000000000000000000000600052603260045260246000fd5b600060408201905061166e600083018661101e565b818103602083015261168181848661140d565b9050949350505050565b600081905092915050565b60006116a182611385565b6116ab818561168b565b93506116bb8185602086016113a1565b80840191505092915050565b60006116d38284611696565b915081905092915050565b60006060820190506116f36000830186611332565b61170060208301856112d6565b818103604083015261171281846113d4565b9050949350505050565b600082825260208201905092915050565b7f4f6e6c79206465706c6f796572206f7220627920766f74650000000000000000600082015250565b600061176360188361171c565b915061176e8261172d565b602082019050919050565b6000602082019050818103600083015261179281611756565b9050919050565b60006040820190506117ae600083018561101e565b81810360208301526117c081846113d4565b90509392505050565b60006117d482610fbb565b91506117df83610fbb565b9250827fffffffffffffffffffffffffffffffffffffffffffffffffffffffffffffffff03821115611814576118136115c7565b5b828201905092915050565b7f4f6e6c79206465706c6f79657200000000000000000000000000000000000000600082015250565b6000611855600d8361171c565b91506118608261181f565b602082019050919050565b6000602082019050818103600083015261188481611848565b9050919050565b60007fffffff000000000000000000000000000000000000000000000000000000000082169050919050565b60006118c383836114fa565b826118ce813561188b565b9250600382101561190e576119097fffffff000000000000000000000000000000000000000000000000000000000083600303600802611531565b831692505b505092915050565b600060408201905061192b6000830185611332565b611938602083018461101e565b9392505050565b6000819050919050565b600061195583836114fa565b82611960813561193f565b925060208210156119a05761199b7fffffffffffffffffffffffffffffffffffffffffffffffffffffffffffffffff83602003600802611531565b831692505b50509291505056fea264697066735822122061ada38eba0683fcc8a190db338307ef055bd54e3fd212a8ef89278bb699441b64736f6c634300080d0033",
  "linkReferences": {},
  "deployedLinkReferences": {}
}