{
  "_format": "hh-sol-artifact-1",
  "contractName": "StartVoteAndImplementHybridVotingMinmlExample",
  "sourceName": "src/examples/integrations/StartVoteAndImplementHybridVoting.sol",
  "abi": [
    {
      "inputs": [
        {
          "internalType": "address",
          "name": "_votingContractOne",
          "type": "address"
        },
        {
          "internalType": "address",
          "name": "_votingContractTwo",
          "type": "address"
        }
      ],
      "stateMutability": "nonpayable",
      "type": "constructor"
    },
    {
      "inputs": [
        {
          "internalType": "address",
          "name": "imposter",
          "type": "address"
        }
      ],
      "name": "IsNotImplementer",
      "type": "error"
    },
    {
      "inputs": [
        {
          "internalType": "bytes4",
          "name": "selector",
          "type": "bytes4"
        }
      ],
      "name": "IsNotVotableFunction",
      "type": "error"
    },
    {
      "inputs": [
        {
          "internalType": "address",
          "name": "implementer",
          "type": "address"
        }
      ],
      "name": "OnlyVoteImplementer",
      "type": "error"
    },
    {
      "inputs": [],
      "name": "deployer",
      "outputs": [
        {
          "internalType": "address",
          "name": "",
          "type": "address"
        }
      ],
      "stateMutability": "view",
      "type": "function"
    },
    {
      "inputs": [],
      "name": "i",
      "outputs": [
        {
          "internalType": "uint256",
          "name": "",
          "type": "uint256"
        }
      ],
      "stateMutability": "view",
      "type": "function"
    },
    {
      "inputs": [
        {
          "internalType": "uint256",
          "name": "identifier",
          "type": "uint256"
        },
        {
          "internalType": "bytes",
          "name": "callback",
          "type": "bytes"
        }
      ],
      "name": "implement",
      "outputs": [],
      "stateMutability": "payable",
      "type": "function"
    },
    {
      "inputs": [],
      "name": "implementations",
      "outputs": [
        {
          "internalType": "uint256",
          "name": "",
          "type": "uint256"
        }
      ],
      "stateMutability": "view",
      "type": "function"
    },
    {
      "inputs": [],
      "name": "increment",
      "outputs": [],
      "stateMutability": "nonpayable",
      "type": "function"
    },
    {
      "inputs": [
        {
          "internalType": "uint256",
          "name": "",
          "type": "uint256"
        }
      ],
      "name": "instances",
      "outputs": [
        {
          "internalType": "uint256",
          "name": "identifier",
          "type": "uint256"
        },
        {
          "internalType": "address",
          "name": "votingContract",
          "type": "address"
        }
      ],
      "stateMutability": "view",
      "type": "function"
    },
    {
      "inputs": [
        {
          "internalType": "uint256",
          "name": "_i",
          "type": "uint256"
        }
      ],
      "name": "reset",
      "outputs": [],
      "stateMutability": "nonpayable",
      "type": "function"
    },
    {
      "inputs": [
        {
          "internalType": "bytes",
          "name": "votingParams",
          "type": "bytes"
        },
        {
          "internalType": "bytes",
          "name": "callback",
          "type": "bytes"
        }
      ],
      "name": "start",
      "outputs": [],
      "stateMutability": "nonpayable",
      "type": "function"
    },
    {
      "inputs": [
        {
          "internalType": "uint256",
          "name": "identifier",
          "type": "uint256"
        },
        {
          "internalType": "bytes",
          "name": "votingData",
          "type": "bytes"
        }
      ],
      "name": "vote",
      "outputs": [],
      "stateMutability": "nonpayable",
      "type": "function"
    },
    {
      "inputs": [],
      "name": "votes",
      "outputs": [
        {
          "internalType": "uint256",
          "name": "",
          "type": "uint256"
        }
      ],
      "stateMutability": "view",
      "type": "function"
    },
    {
      "inputs": [],
      "name": "votingContract",
      "outputs": [
        {
          "internalType": "address",
          "name": "",
          "type": "address"
        }
      ],
      "stateMutability": "view",
      "type": "function"
    }
  ],
  "bytecode": "0x60806040523480156200001157600080fd5b50604051620018943803806200189483398181016040528101906200003791906200028b565b81600460006101000a81548173ffffffffffffffffffffffffffffffffffffffff021916908373ffffffffffffffffffffffffffffffffffffffff16021790555033600560006101000a81548173ffffffffffffffffffffffffffffffffffffffff021916908373ffffffffffffffffffffffffffffffffffffffff16021790555080600260007fd09de08ab1a974aadf0a76e6f99a2ec20e431f22bbc101a6c3f718e53646ed8d7bffffffffffffffffffffffffffffffffffffffffffffffffffffffff19167bffffffffffffffffffffffffffffffffffffffffffffffffffffffff1916815260200190815260200160002060006101000a81548173ffffffffffffffffffffffffffffffffffffffff021916908373ffffffffffffffffffffffffffffffffffffffff16021790555080600260007f310bd74b1bcdaacf16f6a4234577ac20217c4dd976ab40b2e67577604855f5067bffffffffffffffffffffffffffffffffffffffffffffffffffffffff19167bffffffffffffffffffffffffffffffffffffffffffffffffffffffff1916815260200190815260200160002060006101000a81548173ffffffffffffffffffffffffffffffffffffffff021916908373ffffffffffffffffffffffffffffffffffffffff1602179055505050620002d2565b600080fd5b600073ffffffffffffffffffffffffffffffffffffffff82169050919050565b6000620002538262000226565b9050919050565b620002658162000246565b81146200027157600080fd5b50565b60008151905062000285816200025a565b92915050565b60008060408385031215620002a557620002a462000221565b5b6000620002b58582860162000274565b9250506020620002c88582860162000274565b9150509250929050565b6115b280620002e26000396000f3fe60806040526004361061009c5760003560e01c8063b88b82ba11610064578063b88b82ba14610178578063c1fc006a146101a1578063d09de08a146101cc578063d5f39488146101e3578063e168c3ec1461020e578063e5aa3d58146102395761009c565b80631080156e146100a15780631540ac51146100ca57806330e9012c146100e6578063310bd74b14610111578063a2f7b3a51461013a575b600080fd5b3480156100ad57600080fd5b506100c860048036038101906100c39190610e65565b610264565b005b6100e460048036038101906100df9190610f17565b6105e8565b005b3480156100f257600080fd5b506100fb6106e1565b6040516101089190610f86565b60405180910390f35b34801561011d57600080fd5b5061013860048036038101906101339190610fa1565b6106e7565b005b34801561014657600080fd5b50610161600480360381019061015c9190610fa1565b610794565b60405161016f92919061100f565b60405180910390f35b34801561018457600080fd5b5061019f600480360381019061019a9190610f17565b6107e8565b005b3480156101ad57600080fd5b506101b66108e1565b6040516101c39190611038565b60405180910390f35b3480156101d857600080fd5b506101e1610907565b005b3480156101ef57600080fd5b506101f861096b565b6040516102059190611038565b60405180910390f35b34801561021a57600080fd5b50610223610991565b6040516102309190610f86565b60405180910390f35b34801561024557600080fd5b5061024e610997565b60405161025b9190610f86565b60405180910390f35b61026d8361099d565b600080600484849050101561032857600460009054906101000a900473ffffffffffffffffffffffffffffffffffffffff1691508173ffffffffffffffffffffffffffffffffffffffff16631080156e8686866040518463ffffffff1660e01b81526004016102de93929190611108565b6020604051808303816000875af11580156102fd573d6000803e3d6000fd5b505050506040513d601f19601f820116820180604052508101906103219190611156565b9050610538565b6000848460009060049261033e9392919061118d565b90610349919061120c565b905061035481610a30565b61039557806040517f35be8c2900000000000000000000000000000000000000000000000000000000815260040161038c919061127a565b60405180910390fd5b60026000827bffffffffffffffffffffffffffffffffffffffffffffffffffffffff19167bffffffffffffffffffffffffffffffffffffffffffffffffffffffff1916815260200190815260200160002060009054906101000a900473ffffffffffffffffffffffffffffffffffffffff1692508273ffffffffffffffffffffffffffffffffffffffff16631080156e8787876040518463ffffffff1660e01b815260040161044693929190611108565b6020604051808303816000875af1158015610465573d6000803e3d6000fd5b505050506040513d601f19601f820116820180604052508101906104899190611156565b9150600061050860026000847bffffffffffffffffffffffffffffffffffffffffffffffffffffffff19167bffffffffffffffffffffffffffffffffffffffffffffffffffffffff1916815260200190815260200160002060009054906101000a900473ffffffffffffffffffffffffffffffffffffffff1684610ada565b9050600180600083815260200190815260200160002060006101000a81548160ff02191690831515021790555050505b600360405180604001604052808381526020018473ffffffffffffffffffffffffffffffffffffffff1681525090806001815401808255809150506001900390600052602060002090600202016000909190919091506000820151816000015560208201518160010160006101000a81548173ffffffffffffffffffffffffffffffffffffffff021916908373ffffffffffffffffffffffffffffffffffffffff16021790555050505050505050565b6105f183610b0d565b6003838154811061060557610604611295565b5b906000526020600020906002020160010160009054906101000a900473ffffffffffffffffffffffffffffffffffffffff1673ffffffffffffffffffffffffffffffffffffffff16631540ac516003858154811061066657610665611295565b5b90600052602060002090600202016000015484846040518463ffffffff1660e01b8152600401610698939291906112c4565b6020604051808303816000875af11580156106b7573d6000803e3d6000fd5b505050506040513d601f19601f820116820180604052508101906106db919061131b565b50505050565b60075481565b60013373ffffffffffffffffffffffffffffffffffffffff16600560009054906101000a900473ffffffffffffffffffffffffffffffffffffffff1673ffffffffffffffffffffffffffffffffffffffff16148061074a575061074981610b2a565b5b610789576040517f08c379a0000000000000000000000000000000000000000000000000000000008152600401610780906113a5565b60405180910390fd5b816000819055505050565b600381815481106107a457600080fd5b90600052602060002090600202016000915090508060000154908060010160009054906101000a900473ffffffffffffffffffffffffffffffffffffffff16905082565b6107f183610c8e565b6003838154811061080557610804611295565b5b906000526020600020906002020160010160009054906101000a900473ffffffffffffffffffffffffffffffffffffffff1673ffffffffffffffffffffffffffffffffffffffff1663b88b82ba6003858154811061086657610865611295565b5b90600052602060002090600202016000015484846040518463ffffffff1660e01b8152600401610898939291906112c4565b6020604051808303816000875af11580156108b7573d6000803e3d6000fd5b505050506040513d601f19601f820116820180604052508101906108db9190611156565b50505050565b600460009054906101000a900473ffffffffffffffffffffffffffffffffffffffff1681565b600161091281610b2a565b61095357336040517f06246cc500000000000000000000000000000000000000000000000000000000815260040161094a9190611038565b60405180910390fd5b600160005461096291906113f4565b60008190555050565b600560009054906101000a900473ffffffffffffffffffffffffffffffffffffffff1681565b60065481565b60005481565b600560009054906101000a900473ffffffffffffffffffffffffffffffffffffffff1673ffffffffffffffffffffffffffffffffffffffff163373ffffffffffffffffffffffffffffffffffffffff1614610a2d576040517f08c379a0000000000000000000000000000000000000000000000000000000008152600401610a2490611496565b60405180910390fd5b50565b60008073ffffffffffffffffffffffffffffffffffffffff1660026000847bffffffffffffffffffffffffffffffffffffffffffffffffffffffff19167bffffffffffffffffffffffffffffffffffffffffffffffffffffffff1916815260200190815260200160002060009054906101000a900473ffffffffffffffffffffffffffffffffffffffff1673ffffffffffffffffffffffffffffffffffffffff1614159050919050565b60008282604051602001610aef9291906114b6565b60405160208183030381529060405280519060200120905092915050565b600160076000828254610b2091906113f4565b9250508190555050565b6000803373ffffffffffffffffffffffffffffffffffffffff166002600080357fffffffff00000000000000000000000000000000000000000000000000000000167bffffffffffffffffffffffffffffffffffffffffffffffffffffffff19167bffffffffffffffffffffffffffffffffffffffffffffffffffffffff1916815260200190815260200160002060009054906101000a900473ffffffffffffffffffffffffffffffffffffffff1673ffffffffffffffffffffffffffffffffffffffff16149050821580610bfd575080155b15610c0b5780915050610c89565b602460003690501015610c22576000915050610c89565b6000803660206000369050610c3791906114df565b90600036905092610c4a9392919061118d565b90610c55919061151d565b60001c905060016000610c683384610ada565b815260200190815260200160002060009054906101000a900460ff16925050505b919050565b600160066000828254610ca191906113f4565b9250508190555050565b6000604051905090565b600080fd5b600080fd5b600080fd5b600080fd5b6000601f19601f8301169050919050565b7f4e487b7100000000000000000000000000000000000000000000000000000000600052604160045260246000fd5b610d1282610cc9565b810181811067ffffffffffffffff82111715610d3157610d30610cda565b5b80604052505050565b6000610d44610cab565b9050610d508282610d09565b919050565b600067ffffffffffffffff821115610d7057610d6f610cda565b5b610d7982610cc9565b9050602081019050919050565b82818337600083830152505050565b6000610da8610da384610d55565b610d3a565b905082815260208101848484011115610dc457610dc3610cc4565b5b610dcf848285610d86565b509392505050565b600082601f830112610dec57610deb610cbf565b5b8135610dfc848260208601610d95565b91505092915050565b600080fd5b600080fd5b60008083601f840112610e2557610e24610cbf565b5b8235905067ffffffffffffffff811115610e4257610e41610e05565b5b602083019150836001820283011115610e5e57610e5d610e0a565b5b9250929050565b600080600060408486031215610e7e57610e7d610cb5565b5b600084013567ffffffffffffffff811115610e9c57610e9b610cba565b5b610ea886828701610dd7565b935050602084013567ffffffffffffffff811115610ec957610ec8610cba565b5b610ed586828701610e0f565b92509250509250925092565b6000819050919050565b610ef481610ee1565b8114610eff57600080fd5b50565b600081359050610f1181610eeb565b92915050565b600080600060408486031215610f3057610f2f610cb5565b5b6000610f3e86828701610f02565b935050602084013567ffffffffffffffff811115610f5f57610f5e610cba565b5b610f6b86828701610e0f565b92509250509250925092565b610f8081610ee1565b82525050565b6000602082019050610f9b6000830184610f77565b92915050565b600060208284031215610fb757610fb6610cb5565b5b6000610fc584828501610f02565b91505092915050565b600073ffffffffffffffffffffffffffffffffffffffff82169050919050565b6000610ff982610fce565b9050919050565b61100981610fee565b82525050565b60006040820190506110246000830185610f77565b6110316020830184611000565b9392505050565b600060208201905061104d6000830184611000565b92915050565b600081519050919050565b600082825260208201905092915050565b60005b8381101561108d578082015181840152602081019050611072565b8381111561109c576000848401525b50505050565b60006110ad82611053565b6110b7818561105e565b93506110c781856020860161106f565b6110d081610cc9565b840191505092915050565b60006110e7838561105e565b93506110f4838584610d86565b6110fd83610cc9565b840190509392505050565b6000604082019050818103600083015261112281866110a2565b905081810360208301526111378184866110db565b9050949350505050565b60008151905061115081610eeb565b92915050565b60006020828403121561116c5761116b610cb5565b5b600061117a84828501611141565b91505092915050565b600080fd5b600080fd5b600080858511156111a1576111a0611183565b5b838611156111b2576111b1611188565b5b6001850283019150848603905094509492505050565b600082905092915050565b60007fffffffff0000000000000000000000000000000000000000000000000000000082169050919050565b600082821b905092915050565b600061121883836111c8565b8261122381356111d3565b925060048210156112635761125e7fffffffff00000000000000000000000000000000000000000000000000000000836004036008026111ff565b831692505b505092915050565b611274816111d3565b82525050565b600060208201905061128f600083018461126b565b92915050565b7f4e487b7100000000000000000000000000000000000000000000000000000000600052603260045260246000fd5b60006040820190506112d96000830186610f77565b81810360208301526112ec8184866110db565b9050949350505050565b6003811061130357600080fd5b50565b600081519050611315816112f6565b92915050565b60006020828403121561133157611330610cb5565b5b600061133f84828501611306565b91505092915050565b600082825260208201905092915050565b7f4f6e6c79206465706c6f796572206f7220627920766f74650000000000000000600082015250565b600061138f601883611348565b915061139a82611359565b602082019050919050565b600060208201905081810360008301526113be81611382565b9050919050565b7f4e487b7100000000000000000000000000000000000000000000000000000000600052601160045260246000fd5b60006113ff82610ee1565b915061140a83610ee1565b9250827fffffffffffffffffffffffffffffffffffffffffffffffffffffffffffffffff0382111561143f5761143e6113c5565b5b828201905092915050565b7f4f6e6c79206465706c6f79657200000000000000000000000000000000000000600082015250565b6000611480600d83611348565b915061148b8261144a565b602082019050919050565b600060208201905081810360008301526114af81611473565b9050919050565b60006040820190506114cb6000830185611000565b6114d86020830184610f77565b9392505050565b60006114ea82610ee1565b91506114f583610ee1565b925082821015611508576115076113c5565b5b828203905092915050565b6000819050919050565b600061152983836111c8565b826115348135611513565b925060208210156115745761156f7fffffffffffffffffffffffffffffffffffffffffffffffffffffffffffffffff836020036008026111ff565b831692505b50509291505056fea2646970667358221220a226f402bc656de8f4df94e495db0888007d3785b7ae68a4c9bd869329e0d78464736f6c634300080d0033",
  "linkReferences": {},
  "deployedLinkReferences": {}
}