{
  "_format": "hh-sol-artifact-1",
  "contractName": "PlainMajorityVote",
  "sourceName": "src/implementations/votingContracts/SimpleMajorityVote/PlainMajorityVote.sol",
  "abi": [
    {
      "inputs": [
        {
          "internalType": "uint256",
          "name": "identifier",
          "type": "uint256"
        },
        {
          "internalType": "address",
          "name": "voter",
          "type": "address"
        }
      ],
      "name": "AlreadyVoted",
      "type": "error"
    },
    {
      "inputs": [
        {
          "internalType": "uint256",
          "name": "identifier",
          "type": "uint256"
        },
        {
          "internalType": "uint256",
          "name": "deadline",
          "type": "uint256"
        }
      ],
      "name": "DeadlineHasNotPassed",
      "type": "error"
    },
    {
      "inputs": [
        {
          "internalType": "uint256",
          "name": "identifier",
          "type": "uint256"
        },
        {
          "internalType": "uint256",
          "name": "deadline",
          "type": "uint256"
        }
      ],
      "name": "DeadlineHasPassed",
      "type": "error"
    },
    {
      "inputs": [
        {
          "internalType": "uint256",
          "name": "identifier",
          "type": "uint256"
        }
      ],
      "name": "ExpectedReturnError",
      "type": "error"
    },
    {
      "inputs": [
        {
          "internalType": "uint256",
          "name": "identifier",
          "type": "uint256"
        },
        {
          "internalType": "uint256",
          "name": "status",
          "type": "uint256"
        }
      ],
      "name": "ImplementingNotPermitted",
      "type": "error"
    },
    {
      "inputs": [],
      "name": "InvalidCalldata",
      "type": "error"
    },
    {
      "inputs": [
        {
          "internalType": "uint256",
          "name": "identifier",
          "type": "uint256"
        },
        {
          "internalType": "uint256",
          "name": "status",
          "type": "uint256"
        }
      ],
      "name": "StatusError",
      "type": "error"
    },
    {
      "anonymous": false,
      "inputs": [
        {
          "indexed": false,
          "internalType": "uint256",
          "name": "identifier",
          "type": "uint256"
        }
      ],
      "name": "Implemented",
      "type": "event"
    },
    {
      "anonymous": false,
      "inputs": [
        {
          "indexed": false,
          "internalType": "uint256",
          "name": "identifier",
          "type": "uint256"
        }
      ],
      "name": "NotImplemented",
      "type": "event"
    },
    {
      "anonymous": false,
      "inputs": [
        {
          "indexed": true,
          "internalType": "uint256",
          "name": "identifier",
          "type": "uint256"
        },
        {
          "indexed": false,
          "internalType": "address",
          "name": "caller",
          "type": "address"
        }
      ],
      "name": "VotingInstanceStarted",
      "type": "event"
    },
    {
      "inputs": [],
      "name": "VOTING_DURATION",
      "outputs": [
        {
          "internalType": "uint256",
          "name": "",
          "type": "uint256"
        }
      ],
      "stateMutability": "view",
      "type": "function"
    },
    {
      "inputs": [
        {
          "internalType": "bytes",
          "name": "votingParams",
          "type": "bytes"
        }
      ],
      "name": "decodeParameters",
      "outputs": [
        {
          "internalType": "address",
          "name": "target",
          "type": "address"
        },
        {
          "internalType": "bool",
          "name": "expectReturnValue",
          "type": "bool"
        }
      ],
      "stateMutability": "pure",
      "type": "function"
    },
    {
      "inputs": [
        {
          "internalType": "address",
          "name": "target",
          "type": "address"
        },
        {
          "internalType": "bool",
          "name": "expectReturnValue",
          "type": "bool"
        }
      ],
      "name": "encodeParameters",
      "outputs": [
        {
          "internalType": "bytes",
          "name": "votingParams",
          "type": "bytes"
        }
      ],
      "stateMutability": "pure",
      "type": "function"
    },
    {
      "inputs": [],
      "name": "getCurrentIndex",
      "outputs": [
        {
          "internalType": "uint256",
          "name": "currentIndex",
          "type": "uint256"
        }
      ],
      "stateMutability": "view",
      "type": "function"
    },
    {
      "inputs": [
        {
          "internalType": "uint256",
          "name": "identifier",
          "type": "uint256"
        }
      ],
      "name": "getDeadline",
      "outputs": [
        {
          "internalType": "uint256",
          "name": "",
          "type": "uint256"
        }
      ],
      "stateMutability": "view",
      "type": "function"
    },
    {
      "inputs": [
        {
          "internalType": "uint256",
          "name": "identifier",
          "type": "uint256"
        }
      ],
      "name": "getDoubleVotingGuard",
      "outputs": [
        {
          "internalType": "enum HandleDoubleVotingGuard.VotingGuard",
          "name": "",
          "type": "uint8"
        }
      ],
      "stateMutability": "view",
      "type": "function"
    },
    {
      "inputs": [
        {
          "internalType": "uint256",
          "name": "identifier",
          "type": "uint256"
        }
      ],
      "name": "getStatus",
      "outputs": [
        {
          "internalType": "uint256",
          "name": "status",
          "type": "uint256"
        }
      ],
      "stateMutability": "view",
      "type": "function"
    },
    {
      "inputs": [
        {
          "internalType": "uint256",
          "name": "identifier",
          "type": "uint256"
        }
      ],
      "name": "getTarget",
      "outputs": [
        {
          "internalType": "address",
          "name": "target",
          "type": "address"
        }
      ],
      "stateMutability": "view",
      "type": "function"
    },
    {
      "inputs": [
        {
          "internalType": "uint256",
          "name": "identifier",
          "type": "uint256"
        },
        {
          "internalType": "bytes",
          "name": "callback",
          "type": "bytes"
        }
      ],
      "name": "implement",
      "outputs": [
        {
          "internalType": "enum IImplementResult.Response",
          "name": "",
          "type": "uint8"
        }
      ],
      "stateMutability": "payable",
      "type": "function"
    },
    {
      "inputs": [
        {
          "internalType": "uint256",
          "name": "identifier",
          "type": "uint256"
        }
      ],
      "name": "result",
      "outputs": [
        {
          "internalType": "bytes",
          "name": "resultData",
          "type": "bytes"
        }
      ],
      "stateMutability": "view",
      "type": "function"
    },
    {
      "inputs": [
        {
          "internalType": "bytes",
          "name": "votingParams",
          "type": "bytes"
        },
        {
          "internalType": "bytes",
          "name": "callback",
          "type": "bytes"
        }
      ],
      "name": "start",
      "outputs": [
        {
          "internalType": "uint256",
          "name": "identifier",
          "type": "uint256"
        }
      ],
      "stateMutability": "nonpayable",
      "type": "function"
    },
    {
      "inputs": [
        {
          "internalType": "bytes4",
          "name": "interfaceId",
          "type": "bytes4"
        }
      ],
      "name": "supportsInterface",
      "outputs": [
        {
          "internalType": "bool",
          "name": "",
          "type": "bool"
        }
      ],
      "stateMutability": "pure",
      "type": "function"
    },
    {
      "inputs": [
        {
          "internalType": "uint256",
          "name": "identifier",
          "type": "uint256"
        },
        {
          "internalType": "bytes",
          "name": "votingData",
          "type": "bytes"
        }
      ],
      "name": "vote",
      "outputs": [
        {
          "internalType": "uint256",
          "name": "",
          "type": "uint256"
        }
      ],
      "stateMutability": "nonpayable",
      "type": "function"
    }
  ],
  "bytecode": "0x608060405234801561001057600080fd5b506119c0806100206000396000f3fe6080604052600436106100c25760003560e01c80635c622a0e1161007f578063a438d20811610059578063a438d208146102cd578063b88b82ba146102f8578063c691207e14610335578063e6acc7cd14610373576100c2565b80635c622a0e14610216578063618b35ab146102535780638286227514610290576100c2565b806301ffc9a7146100c75780630d9005ae146101045780631080156e1461012f5780631540ac511461016c5780631d64c4f21461019c5780633c594059146101d9575b600080fd5b3480156100d357600080fd5b506100ee60048036038101906100e99190610fd8565b6103b0565b6040516100fb9190611020565b60405180910390f35b34801561011057600080fd5b50610119610492565b6040516101269190611054565b60405180910390f35b34801561013b57600080fd5b5061015660048036038101906101519190611215565b61049c565b6040516101639190611054565b60405180910390f35b610186600480360381019061018191906112bd565b61050c565b6040516101939190611394565b60405180910390f35b3480156101a857600080fd5b506101c360048036038101906101be91906113af565b6106ab565b6040516101d09190611424565b60405180910390f35b3480156101e557600080fd5b5061020060048036038101906101fb91906113af565b6106d8565b60405161020d91906114c7565b60405180910390f35b34801561022257600080fd5b5061023d600480360381019061023891906113af565b610709565b60405161024a9190611054565b60405180910390f35b34801561025f57600080fd5b5061027a60048036038101906102759190611573565b610726565b60405161028791906114c7565b60405180910390f35b34801561029c57600080fd5b506102b760048036038101906102b291906113af565b610752565b6040516102c49190611054565b60405180910390f35b3480156102d957600080fd5b506102e261076f565b6040516102ef9190611054565b60405180910390f35b34801561030457600080fd5b5061031f600480360381019061031a91906112bd565b610776565b60405161032c9190611054565b60405180910390f35b34801561034157600080fd5b5061035c600480360381019061035791906115b3565b61099c565b60405161036a92919061160b565b60405180910390f35b34801561037f57600080fd5b5061039a600480360381019061039591906113af565b6109c0565b6040516103a79190611634565b60405180910390f35b60006103bb826109fc565b8061042357507f82862275000000000000000000000000000000000000000000000000000000007bffffffffffffffffffffffffffffffffffffffffffffffffffffffff1916827bffffffffffffffffffffffffffffffffffffffffffffffffffffffff1916145b8061048b57507f1d64c4f2000000000000000000000000000000000000000000000000000000007bffffffffffffffffffffffffffffffffffffffffffffffffffffffff1916827bffffffffffffffffffffffffffffffffffffffffffffffffffffffff1916145b9050919050565b6000600654905090565b60006104ac600654858585610ace565b6006547f8e967d6054e2a51c6c0b65a326c2c53edf07f50d4a854e102eed777cfb591378336040516104de9190611634565b60405180910390a260065490506001600660008282546104fe919061167e565b925050819055509392505050565b600061051784610bc5565b61056d578360026000868152602001908152602001600020546040517f5ff5ab730000000000000000000000000000000000000000000000000000000081526004016105649291906116d4565b60405180910390fd5b610578848484610c56565b600080600086815260200190815260200160002060009054906101000a900473ffffffffffffffffffffffffffffffffffffffff1690506000806105df8387878a6040516020016105cb9392919061174e565b604051602081830303815290604052610c9c565b91509150600160028111156105f7576105f661131d565b5b82600281111561060a5761060961131d565b5b03610620576106198782610d33565b915061062d565b61062a8782610de6565b91505b600160028111156106415761064061131d565b5b8260028111156106545761065361131d565b5b14610672576002600481111561066d5761066c61131d565b5b610687565b600160048111156106865761068561131d565b5b5b60026000898152602001908152602001600020819055508193505050509392505050565b6000806002600084815260200190815260200160002054146106ce5760016106d1565b60005b9050919050565b60606106e382610e3a565b6040516020016106f39190611791565b6040516020818303038152906040529050919050565b600060026000838152602001908152602001600020549050919050565b6060828260405160200161073b92919061160b565b604051602081830303815290604052905092915050565b600060056000838152602001908152602001600020549050919050565b6206978081565b600060038081111561078b5761078a61131d565b5b6002600086815260200190815260200160002054146107f6578360026000868152602001908152602001600020546040517f42ffc0970000000000000000000000000000000000000000000000000000000081526004016107ed9291906116d4565b60405180910390fd5b6107ff84610e57565b156108285761080d84610e69565b60026000858152602001908152602001600020549050610995565b6003600085815260200190815260200160002060003373ffffffffffffffffffffffffffffffffffffffff1673ffffffffffffffffffffffffffffffffffffffff16815260200190815260200160002060009054906101000a900460ff16156108ca5783336040517f04f9da630000000000000000000000000000000000000000000000000000000081526004016108c19291906117ac565b60405180910390fd5b60016003600086815260200190815260200160002060003373ffffffffffffffffffffffffffffffffffffffff1673ffffffffffffffffffffffffffffffffffffffff16815260200190815260200160002060006101000a81548160ff0219169083151502179055506000838381019061094491906117d5565b905061097d8582610975577fffffffffffffffffffffffffffffffffffffffffffffffffffffffffffffffff610978565b60015b610ec0565b60026000868152602001908152602001600020549150505b9392505050565b600080828060200190518101906109b39190611855565b8092508193505050915091565b600080600083815260200190815260200160002060009054906101000a900473ffffffffffffffffffffffffffffffffffffffff169050919050565b60007f01ffc9a7000000000000000000000000000000000000000000000000000000007bffffffffffffffffffffffffffffffffffffffffffffffffffffffff1916827bffffffffffffffffffffffffffffffffffffffffffffffffffffffff19161480610ac757507f9452d78d000000000000000000000000000000000000000000000000000000007bffffffffffffffffffffffffffffffffffffffffffffffffffffffff1916827bffffffffffffffffffffffffffffffffffffffffffffffffffffffff1916145b9050919050565b600380811115610ae157610ae061131d565b5b6002600086815260200190815260200160002081905550610b018361099c565b60008087815260200190815260200160002060006007600089815260200190815260200160002060008491906101000a81548160ff0219169083151502179055508391906101000a81548173ffffffffffffffffffffffffffffffffffffffff021916908373ffffffffffffffffffffffffffffffffffffffff1602179055505050610b908462069780610eee565b8181604051610ba0929190611895565b6040518091039020600160008681526020019081526020016000208190555050505050565b600080600480811115610bdb57610bda61131d565b5b60026000858152602001908152602001600020541490506000610bfd84610e57565b8015610c2e575060036004811115610c1857610c1761131d565b5b6002600086815260200190815260200160002054145b90508180610c4d5750808015610c4c57506000610c4a85610e3a565b135b5b92505050919050565b610c61838383610f15565b610c97576040517f8129bbcd00000000000000000000000000000000000000000000000000000000815260040160405180910390fd5b505050565b600060606000808573ffffffffffffffffffffffffffffffffffffffff163486604051610cc991906118df565b60006040518083038185875af1925050503d8060008114610d06576040519150601f19603f3d011682016040523d82523d6000602084013e610d0b565b606091505b5091509150600082610d1e576002610d21565b60015b90508082945094505050509250929050565b60006007600084815260200190815260200160002060009054906101000a900460ff168015610d63575060008251145b15610da557826040517f66dabd98000000000000000000000000000000000000000000000000000000008152600401610d9c9190611054565b60405180910390fd5b600190507febde80ec5f4e6c8b3a987f2a89cdc9c91b6c5e00b337e2581ed6302994c81e3f83604051610dd89190611054565b60405180910390a192915050565b60008082511115610df957815160208301fd5b7ff1ce307d6c8f222892d7eb3afa1f623ef595620a12027617499df1e6873de9ac83604051610e289190611054565b60405180910390a16002905092915050565b600060046000838152602001908152602001600020549050919050565b6000610e6282610f4d565b9050919050565b6000610e7482610e3a565b13610e925760026004811115610e8d57610e8c61131d565b5b610ea6565b600480811115610ea557610ea461131d565b5b5b600260008381526020019081526020016000208190555050565b80600460008481526020019081526020016000206000828254610ee391906118f6565b925050819055505050565b8042610efa919061167e565b60056000848152602001908152602001600020819055505050565b60008282604051610f27929190611895565b604051809103902060016000868152602001908152602001600020541490509392505050565b6000600560008381526020019081526020016000205442119050919050565b6000604051905090565b600080fd5b600080fd5b60007fffffffff0000000000000000000000000000000000000000000000000000000082169050919050565b610fb581610f80565b8114610fc057600080fd5b50565b600081359050610fd281610fac565b92915050565b600060208284031215610fee57610fed610f76565b5b6000610ffc84828501610fc3565b91505092915050565b60008115159050919050565b61101a81611005565b82525050565b60006020820190506110356000830184611011565b92915050565b6000819050919050565b61104e8161103b565b82525050565b60006020820190506110696000830184611045565b92915050565b600080fd5b600080fd5b6000601f19601f8301169050919050565b7f4e487b7100000000000000000000000000000000000000000000000000000000600052604160045260246000fd5b6110c282611079565b810181811067ffffffffffffffff821117156110e1576110e061108a565b5b80604052505050565b60006110f4610f6c565b905061110082826110b9565b919050565b600067ffffffffffffffff8211156111205761111f61108a565b5b61112982611079565b9050602081019050919050565b82818337600083830152505050565b600061115861115384611105565b6110ea565b90508281526020810184848401111561117457611173611074565b5b61117f848285611136565b509392505050565b600082601f83011261119c5761119b61106f565b5b81356111ac848260208601611145565b91505092915050565b600080fd5b600080fd5b60008083601f8401126111d5576111d461106f565b5b8235905067ffffffffffffffff8111156111f2576111f16111b5565b5b60208301915083600182028301111561120e5761120d6111ba565b5b9250929050565b60008060006040848603121561122e5761122d610f76565b5b600084013567ffffffffffffffff81111561124c5761124b610f7b565b5b61125886828701611187565b935050602084013567ffffffffffffffff81111561127957611278610f7b565b5b611285868287016111bf565b92509250509250925092565b61129a8161103b565b81146112a557600080fd5b50565b6000813590506112b781611291565b92915050565b6000806000604084860312156112d6576112d5610f76565b5b60006112e4868287016112a8565b935050602084013567ffffffffffffffff81111561130557611304610f7b565b5b611311868287016111bf565b92509250509250925092565b7f4e487b7100000000000000000000000000000000000000000000000000000000600052602160045260246000fd5b6003811061135d5761135c61131d565b5b50565b600081905061136e8261134c565b919050565b600061137e82611360565b9050919050565b61138e81611373565b82525050565b60006020820190506113a96000830184611385565b92915050565b6000602082840312156113c5576113c4610f76565b5b60006113d3848285016112a8565b91505092915050565b600381106113ed576113ec61131d565b5b50565b60008190506113fe826113dc565b919050565b600061140e826113f0565b9050919050565b61141e81611403565b82525050565b60006020820190506114396000830184611415565b92915050565b600081519050919050565b600082825260208201905092915050565b60005b8381101561147957808201518184015260208101905061145e565b83811115611488576000848401525b50505050565b60006114998261143f565b6114a3818561144a565b93506114b381856020860161145b565b6114bc81611079565b840191505092915050565b600060208201905081810360008301526114e1818461148e565b905092915050565b600073ffffffffffffffffffffffffffffffffffffffff82169050919050565b6000611514826114e9565b9050919050565b61152481611509565b811461152f57600080fd5b50565b6000813590506115418161151b565b92915050565b61155081611005565b811461155b57600080fd5b50565b60008135905061156d81611547565b92915050565b6000806040838503121561158a57611589610f76565b5b600061159885828601611532565b92505060206115a98582860161155e565b9150509250929050565b6000602082840312156115c9576115c8610f76565b5b600082013567ffffffffffffffff8111156115e7576115e6610f7b565b5b6115f384828501611187565b91505092915050565b61160581611509565b82525050565b600060408201905061162060008301856115fc565b61162d6020830184611011565b9392505050565b600060208201905061164960008301846115fc565b92915050565b7f4e487b7100000000000000000000000000000000000000000000000000000000600052601160045260246000fd5b60006116898261103b565b91506116948361103b565b9250827fffffffffffffffffffffffffffffffffffffffffffffffffffffffffffffffff038211156116c9576116c861164f565b5b828201905092915050565b60006040820190506116e96000830185611045565b6116f66020830184611045565b9392505050565b600081905092915050565b600061171483856116fd565b9350611721838584611136565b82840190509392505050565b6000819050919050565b6117486117438261103b565b61172d565b82525050565b600061175b828587611708565b91506117678284611737565b602082019150819050949350505050565b6000819050919050565b61178b81611778565b82525050565b60006020820190506117a66000830184611782565b92915050565b60006040820190506117c16000830185611045565b6117ce60208301846115fc565b9392505050565b6000602082840312156117eb576117ea610f76565b5b60006117f98482850161155e565b91505092915050565b600061180d826114e9565b9050919050565b61181d81611802565b811461182857600080fd5b50565b60008151905061183a81611814565b92915050565b60008151905061184f81611547565b92915050565b6000806040838503121561186c5761186b610f76565b5b600061187a8582860161182b565b925050602061188b85828601611840565b9150509250929050565b60006118a2828486611708565b91508190509392505050565b60006118b98261143f565b6118c381856116fd565b93506118d381856020860161145b565b80840191505092915050565b60006118eb82846118ae565b915081905092915050565b600061190182611778565b915061190c83611778565b9250817f7fffffffffffffffffffffffffffffffffffffffffffffffffffffffffffffff038313600083121516156119475761194661164f565b5b817f800000000000000000000000000000000000000000000000000000000000000003831260008312161561197f5761197e61164f565b5b82820190509291505056fea264697066735822122067b9603c0bb719aa9d5dd75219cd01f84ecf8dbeb784156524f2c586d86513a764736f6c634300080d0033",
  "linkReferences": {},
  "deployedLinkReferences": {}
}