{
  "_format": "hh-sol-artifact-1",
  "contractName": "PlainMajorityVote",
  "sourceName": "src/implementations/votingContracts/SimpleMajorityVote/PlainMajorityVote.sol",
  "abi": [
    {
      "inputs": [
        {
          "internalType": "uint256",
          "name": "identifier",
          "type": "uint256"
        },
        {
          "internalType": "address",
          "name": "voter",
          "type": "address"
        }
      ],
      "name": "AlreadyVoted",
      "type": "error"
    },
    {
      "inputs": [
        {
          "internalType": "uint256",
          "name": "identifier",
          "type": "uint256"
        },
        {
          "internalType": "uint256",
          "name": "deadline",
          "type": "uint256"
        }
      ],
      "name": "DeadlineHasNotPassed",
      "type": "error"
    },
    {
      "inputs": [
        {
          "internalType": "uint256",
          "name": "identifier",
          "type": "uint256"
        },
        {
          "internalType": "uint256",
          "name": "deadline",
          "type": "uint256"
        }
      ],
      "name": "DeadlineHasPassed",
      "type": "error"
    },
    {
      "inputs": [
        {
          "internalType": "uint256",
          "name": "identifier",
          "type": "uint256"
        }
      ],
      "name": "ExpectedReturnError",
      "type": "error"
    },
    {
      "inputs": [
        {
          "internalType": "uint256",
          "name": "identifier",
          "type": "uint256"
        },
        {
          "internalType": "uint256",
          "name": "status",
          "type": "uint256"
        }
      ],
      "name": "ImplementingNotPermitted",
      "type": "error"
    },
    {
      "inputs": [],
      "name": "InvalidCalldata",
      "type": "error"
    },
    {
      "inputs": [
        {
          "internalType": "uint256",
          "name": "identifier",
          "type": "uint256"
        },
        {
          "internalType": "uint256",
          "name": "status",
          "type": "uint256"
        }
      ],
      "name": "StatusError",
      "type": "error"
    },
    {
      "anonymous": false,
      "inputs": [
        {
          "indexed": false,
          "internalType": "uint256",
          "name": "identifier",
          "type": "uint256"
        }
      ],
      "name": "Implemented",
      "type": "event"
    },
    {
      "anonymous": false,
      "inputs": [
        {
          "indexed": false,
          "internalType": "uint256",
          "name": "identifier",
          "type": "uint256"
        }
      ],
      "name": "NotImplemented",
      "type": "event"
    },
    {
      "anonymous": false,
      "inputs": [
        {
          "indexed": false,
          "internalType": "uint256",
          "name": "identifier",
          "type": "uint256"
        },
        {
          "indexed": false,
          "internalType": "address",
          "name": "caller",
          "type": "address"
        }
      ],
      "name": "VotingInstanceStarted",
      "type": "event"
    },
    {
      "inputs": [],
      "name": "VOTING_DURATION",
      "outputs": [
        {
          "internalType": "uint256",
          "name": "",
          "type": "uint256"
        }
      ],
      "stateMutability": "view",
      "type": "function"
    },
    {
      "inputs": [
        {
          "internalType": "bytes",
          "name": "votingParams",
          "type": "bytes"
        }
      ],
      "name": "decodeParameters",
      "outputs": [
        {
          "internalType": "address",
          "name": "target",
          "type": "address"
        },
        {
          "internalType": "bool",
          "name": "expectReturnValue",
          "type": "bool"
        }
      ],
      "stateMutability": "pure",
      "type": "function"
    },
    {
      "inputs": [
        {
          "internalType": "address",
          "name": "target",
          "type": "address"
        },
        {
          "internalType": "bool",
          "name": "expectReturnValue",
          "type": "bool"
        }
      ],
      "name": "encodeParameters",
      "outputs": [
        {
          "internalType": "bytes",
          "name": "votingParams",
          "type": "bytes"
        }
      ],
      "stateMutability": "pure",
      "type": "function"
    },
    {
      "inputs": [],
      "name": "getCurrentIndex",
      "outputs": [
        {
          "internalType": "uint256",
          "name": "currentIndex",
          "type": "uint256"
        }
      ],
      "stateMutability": "view",
      "type": "function"
    },
    {
      "inputs": [
        {
          "internalType": "uint256",
          "name": "identifier",
          "type": "uint256"
        }
      ],
      "name": "getDeadline",
      "outputs": [
        {
          "internalType": "uint256",
          "name": "",
          "type": "uint256"
        }
      ],
      "stateMutability": "view",
      "type": "function"
    },
    {
      "inputs": [
        {
          "internalType": "uint256",
          "name": "identifier",
          "type": "uint256"
        }
      ],
      "name": "getDoubleVotingGuard",
      "outputs": [
        {
          "internalType": "enum HandleDoubleVotingGuard.VotingGuard",
          "name": "",
          "type": "uint8"
        }
      ],
      "stateMutability": "view",
      "type": "function"
    },
    {
      "inputs": [
        {
          "internalType": "uint256",
          "name": "identifier",
          "type": "uint256"
        }
      ],
      "name": "getStatus",
      "outputs": [
        {
          "internalType": "uint256",
          "name": "status",
          "type": "uint256"
        }
      ],
      "stateMutability": "view",
      "type": "function"
    },
    {
      "inputs": [
        {
          "internalType": "uint256",
          "name": "identifier",
          "type": "uint256"
        }
      ],
      "name": "getTarget",
      "outputs": [
        {
          "internalType": "address",
          "name": "target",
          "type": "address"
        }
      ],
      "stateMutability": "view",
      "type": "function"
    },
    {
      "inputs": [
        {
          "internalType": "uint256",
          "name": "identifier",
          "type": "uint256"
        },
        {
          "internalType": "bytes",
          "name": "callback",
          "type": "bytes"
        }
      ],
      "name": "implement",
      "outputs": [
        {
          "internalType": "enum IImplementResult.Response",
          "name": "",
          "type": "uint8"
        }
      ],
      "stateMutability": "payable",
      "type": "function"
    },
    {
      "inputs": [
        {
          "internalType": "uint256",
          "name": "identifier",
          "type": "uint256"
        }
      ],
      "name": "result",
      "outputs": [
        {
          "internalType": "bytes",
          "name": "resultData",
          "type": "bytes"
        }
      ],
      "stateMutability": "view",
      "type": "function"
    },
    {
      "inputs": [
        {
          "internalType": "bytes",
          "name": "votingParams",
          "type": "bytes"
        },
        {
          "internalType": "bytes",
          "name": "callback",
          "type": "bytes"
        }
      ],
      "name": "start",
      "outputs": [
        {
          "internalType": "uint256",
          "name": "identifier",
          "type": "uint256"
        }
      ],
      "stateMutability": "nonpayable",
      "type": "function"
    },
    {
      "inputs": [
        {
          "internalType": "bytes4",
          "name": "interfaceId",
          "type": "bytes4"
        }
      ],
      "name": "supportsInterface",
      "outputs": [
        {
          "internalType": "bool",
          "name": "",
          "type": "bool"
        }
      ],
      "stateMutability": "pure",
      "type": "function"
    },
    {
      "inputs": [
        {
          "internalType": "uint256",
          "name": "identifier",
          "type": "uint256"
        },
        {
          "internalType": "bytes",
          "name": "votingData",
          "type": "bytes"
        }
      ],
      "name": "vote",
      "outputs": [
        {
          "internalType": "uint256",
          "name": "",
          "type": "uint256"
        }
      ],
      "stateMutability": "nonpayable",
      "type": "function"
    }
  ],
  "bytecode": "0x608060405234801561001057600080fd5b506119c1806100206000396000f3fe6080604052600436106100c25760003560e01c80635c622a0e1161007f578063a438d20811610059578063a438d208146102cd578063b88b82ba146102f8578063c691207e14610335578063e6acc7cd14610373576100c2565b80635c622a0e14610216578063618b35ab146102535780638286227514610290576100c2565b806301ffc9a7146100c75780630d9005ae146101045780631080156e1461012f5780631540ac511461016c5780631d64c4f21461019c5780633c594059146101d9575b600080fd5b3480156100d357600080fd5b506100ee60048036038101906100e99190610fd9565b6103b0565b6040516100fb9190611021565b60405180910390f35b34801561011057600080fd5b50610119610492565b6040516101269190611055565b60405180910390f35b34801561013b57600080fd5b5061015660048036038101906101519190611216565b61049c565b6040516101639190611055565b60405180910390f35b610186600480360381019061018191906112be565b61050d565b6040516101939190611395565b60405180910390f35b3480156101a857600080fd5b506101c360048036038101906101be91906113b0565b6106ac565b6040516101d09190611425565b60405180910390f35b3480156101e557600080fd5b5061020060048036038101906101fb91906113b0565b6106d9565b60405161020d91906114c8565b60405180910390f35b34801561022257600080fd5b5061023d600480360381019061023891906113b0565b61070a565b60405161024a9190611055565b60405180910390f35b34801561025f57600080fd5b5061027a60048036038101906102759190611574565b610727565b60405161028791906114c8565b60405180910390f35b34801561029c57600080fd5b506102b760048036038101906102b291906113b0565b610753565b6040516102c49190611055565b60405180910390f35b3480156102d957600080fd5b506102e2610770565b6040516102ef9190611055565b60405180910390f35b34801561030457600080fd5b5061031f600480360381019061031a91906112be565b610777565b60405161032c9190611055565b60405180910390f35b34801561034157600080fd5b5061035c600480360381019061035791906115b4565b61099d565b60405161036a92919061160c565b60405180910390f35b34801561037f57600080fd5b5061039a600480360381019061039591906113b0565b6109c1565b6040516103a79190611635565b60405180910390f35b60006103bb826109fd565b8061042357507f82862275000000000000000000000000000000000000000000000000000000007bffffffffffffffffffffffffffffffffffffffffffffffffffffffff1916827bffffffffffffffffffffffffffffffffffffffffffffffffffffffff1916145b8061048b57507f1d64c4f2000000000000000000000000000000000000000000000000000000007bffffffffffffffffffffffffffffffffffffffffffffffffffffffff1916827bffffffffffffffffffffffffffffffffffffffffffffffffffffffff1916145b9050919050565b6000600654905090565b60006104ac600654858585610acf565b7f8e967d6054e2a51c6c0b65a326c2c53edf07f50d4a854e102eed777cfb591378600654336040516104df929190611650565b60405180910390a160065490506001600660008282546104ff91906116a8565b925050819055509392505050565b600061051884610bc6565b61056e578360026000868152602001908152602001600020546040517f5ff5ab730000000000000000000000000000000000000000000000000000000081526004016105659291906116fe565b60405180910390fd5b610579848484610c57565b600080600086815260200190815260200160002060009054906101000a900473ffffffffffffffffffffffffffffffffffffffff1690506000806105e08387878a6040516020016105cc93929190611778565b604051602081830303815290604052610c9d565b91509150600160028111156105f8576105f761131e565b5b82600281111561060b5761060a61131e565b5b036106215761061a8782610d34565b915061062e565b61062b8782610de7565b91505b600160028111156106425761064161131e565b5b8260028111156106555761065461131e565b5b14610673576002600481111561066e5761066d61131e565b5b610688565b600160048111156106875761068661131e565b5b5b60026000898152602001908152602001600020819055508193505050509392505050565b6000806002600084815260200190815260200160002054146106cf5760016106d2565b60005b9050919050565b60606106e482610e3b565b6040516020016106f491906117bb565b6040516020818303038152906040529050919050565b600060026000838152602001908152602001600020549050919050565b6060828260405160200161073c92919061160c565b604051602081830303815290604052905092915050565b600060056000838152602001908152602001600020549050919050565b6206978081565b600060038081111561078c5761078b61131e565b5b6002600086815260200190815260200160002054146107f7578360026000868152602001908152602001600020546040517f42ffc0970000000000000000000000000000000000000000000000000000000081526004016107ee9291906116fe565b60405180910390fd5b61080084610e58565b156108295761080e84610e6a565b60026000858152602001908152602001600020549050610996565b6003600085815260200190815260200160002060003373ffffffffffffffffffffffffffffffffffffffff1673ffffffffffffffffffffffffffffffffffffffff16815260200190815260200160002060009054906101000a900460ff16156108cb5783336040517f04f9da630000000000000000000000000000000000000000000000000000000081526004016108c2929190611650565b60405180910390fd5b60016003600086815260200190815260200160002060003373ffffffffffffffffffffffffffffffffffffffff1673ffffffffffffffffffffffffffffffffffffffff16815260200190815260200160002060006101000a81548160ff0219169083151502179055506000838381019061094591906117d6565b905061097e8582610976577fffffffffffffffffffffffffffffffffffffffffffffffffffffffffffffffff610979565b60015b610ec1565b60026000868152602001908152602001600020549150505b9392505050565b600080828060200190518101906109b49190611856565b8092508193505050915091565b600080600083815260200190815260200160002060009054906101000a900473ffffffffffffffffffffffffffffffffffffffff169050919050565b60007f01ffc9a7000000000000000000000000000000000000000000000000000000007bffffffffffffffffffffffffffffffffffffffffffffffffffffffff1916827bffffffffffffffffffffffffffffffffffffffffffffffffffffffff19161480610ac857507f9452d78d000000000000000000000000000000000000000000000000000000007bffffffffffffffffffffffffffffffffffffffffffffffffffffffff1916827bffffffffffffffffffffffffffffffffffffffffffffffffffffffff1916145b9050919050565b600380811115610ae257610ae161131e565b5b6002600086815260200190815260200160002081905550610b028361099d565b60008087815260200190815260200160002060006007600089815260200190815260200160002060008491906101000a81548160ff0219169083151502179055508391906101000a81548173ffffffffffffffffffffffffffffffffffffffff021916908373ffffffffffffffffffffffffffffffffffffffff1602179055505050610b918462069780610eef565b8181604051610ba1929190611896565b6040518091039020600160008681526020019081526020016000208190555050505050565b600080600480811115610bdc57610bdb61131e565b5b60026000858152602001908152602001600020541490506000610bfe84610e58565b8015610c2f575060036004811115610c1957610c1861131e565b5b6002600086815260200190815260200160002054145b90508180610c4e5750808015610c4d57506000610c4b85610e3b565b135b5b92505050919050565b610c62838383610f16565b610c98576040517f8129bbcd00000000000000000000000000000000000000000000000000000000815260040160405180910390fd5b505050565b600060606000808573ffffffffffffffffffffffffffffffffffffffff163486604051610cca91906118e0565b60006040518083038185875af1925050503d8060008114610d07576040519150601f19603f3d011682016040523d82523d6000602084013e610d0c565b606091505b5091509150600082610d1f576002610d22565b60015b90508082945094505050509250929050565b60006007600084815260200190815260200160002060009054906101000a900460ff168015610d64575060008251145b15610da657826040517f66dabd98000000000000000000000000000000000000000000000000000000008152600401610d9d9190611055565b60405180910390fd5b600190507febde80ec5f4e6c8b3a987f2a89cdc9c91b6c5e00b337e2581ed6302994c81e3f83604051610dd99190611055565b60405180910390a192915050565b60008082511115610dfa57815160208301fd5b7ff1ce307d6c8f222892d7eb3afa1f623ef595620a12027617499df1e6873de9ac83604051610e299190611055565b60405180910390a16002905092915050565b600060046000838152602001908152602001600020549050919050565b6000610e6382610f4e565b9050919050565b6000610e7582610e3b565b13610e935760026004811115610e8e57610e8d61131e565b5b610ea7565b600480811115610ea657610ea561131e565b5b5b600260008381526020019081526020016000208190555050565b80600460008481526020019081526020016000206000828254610ee491906118f7565b925050819055505050565b8042610efb91906116a8565b60056000848152602001908152602001600020819055505050565b60008282604051610f28929190611896565b604051809103902060016000868152602001908152602001600020541490509392505050565b6000600560008381526020019081526020016000205442119050919050565b6000604051905090565b600080fd5b600080fd5b60007fffffffff0000000000000000000000000000000000000000000000000000000082169050919050565b610fb681610f81565b8114610fc157600080fd5b50565b600081359050610fd381610fad565b92915050565b600060208284031215610fef57610fee610f77565b5b6000610ffd84828501610fc4565b91505092915050565b60008115159050919050565b61101b81611006565b82525050565b60006020820190506110366000830184611012565b92915050565b6000819050919050565b61104f8161103c565b82525050565b600060208201905061106a6000830184611046565b92915050565b600080fd5b600080fd5b6000601f19601f8301169050919050565b7f4e487b7100000000000000000000000000000000000000000000000000000000600052604160045260246000fd5b6110c38261107a565b810181811067ffffffffffffffff821117156110e2576110e161108b565b5b80604052505050565b60006110f5610f6d565b905061110182826110ba565b919050565b600067ffffffffffffffff8211156111215761112061108b565b5b61112a8261107a565b9050602081019050919050565b82818337600083830152505050565b600061115961115484611106565b6110eb565b90508281526020810184848401111561117557611174611075565b5b611180848285611137565b509392505050565b600082601f83011261119d5761119c611070565b5b81356111ad848260208601611146565b91505092915050565b600080fd5b600080fd5b60008083601f8401126111d6576111d5611070565b5b8235905067ffffffffffffffff8111156111f3576111f26111b6565b5b60208301915083600182028301111561120f5761120e6111bb565b5b9250929050565b60008060006040848603121561122f5761122e610f77565b5b600084013567ffffffffffffffff81111561124d5761124c610f7c565b5b61125986828701611188565b935050602084013567ffffffffffffffff81111561127a57611279610f7c565b5b611286868287016111c0565b92509250509250925092565b61129b8161103c565b81146112a657600080fd5b50565b6000813590506112b881611292565b92915050565b6000806000604084860312156112d7576112d6610f77565b5b60006112e5868287016112a9565b935050602084013567ffffffffffffffff81111561130657611305610f7c565b5b611312868287016111c0565b92509250509250925092565b7f4e487b7100000000000000000000000000000000000000000000000000000000600052602160045260246000fd5b6003811061135e5761135d61131e565b5b50565b600081905061136f8261134d565b919050565b600061137f82611361565b9050919050565b61138f81611374565b82525050565b60006020820190506113aa6000830184611386565b92915050565b6000602082840312156113c6576113c5610f77565b5b60006113d4848285016112a9565b91505092915050565b600381106113ee576113ed61131e565b5b50565b60008190506113ff826113dd565b919050565b600061140f826113f1565b9050919050565b61141f81611404565b82525050565b600060208201905061143a6000830184611416565b92915050565b600081519050919050565b600082825260208201905092915050565b60005b8381101561147a57808201518184015260208101905061145f565b83811115611489576000848401525b50505050565b600061149a82611440565b6114a4818561144b565b93506114b481856020860161145c565b6114bd8161107a565b840191505092915050565b600060208201905081810360008301526114e2818461148f565b905092915050565b600073ffffffffffffffffffffffffffffffffffffffff82169050919050565b6000611515826114ea565b9050919050565b6115258161150a565b811461153057600080fd5b50565b6000813590506115428161151c565b92915050565b61155181611006565b811461155c57600080fd5b50565b60008135905061156e81611548565b92915050565b6000806040838503121561158b5761158a610f77565b5b600061159985828601611533565b92505060206115aa8582860161155f565b9150509250929050565b6000602082840312156115ca576115c9610f77565b5b600082013567ffffffffffffffff8111156115e8576115e7610f7c565b5b6115f484828501611188565b91505092915050565b6116068161150a565b82525050565b600060408201905061162160008301856115fd565b61162e6020830184611012565b9392505050565b600060208201905061164a60008301846115fd565b92915050565b60006040820190506116656000830185611046565b61167260208301846115fd565b9392505050565b7f4e487b7100000000000000000000000000000000000000000000000000000000600052601160045260246000fd5b60006116b38261103c565b91506116be8361103c565b9250827fffffffffffffffffffffffffffffffffffffffffffffffffffffffffffffffff038211156116f3576116f2611679565b5b828201905092915050565b60006040820190506117136000830185611046565b6117206020830184611046565b9392505050565b600081905092915050565b600061173e8385611727565b935061174b838584611137565b82840190509392505050565b6000819050919050565b61177261176d8261103c565b611757565b82525050565b6000611785828587611732565b91506117918284611761565b602082019150819050949350505050565b6000819050919050565b6117b5816117a2565b82525050565b60006020820190506117d060008301846117ac565b92915050565b6000602082840312156117ec576117eb610f77565b5b60006117fa8482850161155f565b91505092915050565b600061180e826114ea565b9050919050565b61181e81611803565b811461182957600080fd5b50565b60008151905061183b81611815565b92915050565b60008151905061185081611548565b92915050565b6000806040838503121561186d5761186c610f77565b5b600061187b8582860161182c565b925050602061188c85828601611841565b9150509250929050565b60006118a3828486611732565b91508190509392505050565b60006118ba82611440565b6118c48185611727565b93506118d481856020860161145c565b80840191505092915050565b60006118ec82846118af565b915081905092915050565b6000611902826117a2565b915061190d836117a2565b9250817f7fffffffffffffffffffffffffffffffffffffffffffffffffffffffffffffff0383136000831215161561194857611947611679565b5b817f80000000000000000000000000000000000000000000000000000000000000000383126000831216156119805761197f611679565b5b82820190509291505056fea2646970667358221220e6fb66d6bf84d683aa433a834a2e416a04d4b8c98e23867daca2cce556704b9f64736f6c634300080d0033",
  "linkReferences": {},
  "deployedLinkReferences": {}
}