{
  "_format": "hh-sol-artifact-1",
  "contractName": "DummyTournamentIntegrator",
  "sourceName": "src/examples/dummies/TournamentIntegrator.sol",
  "abi": [
    {
      "inputs": [
        {
          "internalType": "address",
          "name": "_votingContract",
          "type": "address"
        }
      ],
      "stateMutability": "nonpayable",
      "type": "constructor"
    },
    {
      "inputs": [
        {
          "internalType": "address",
          "name": "imposter",
          "type": "address"
        }
      ],
      "name": "IsNotImplementer",
      "type": "error"
    },
    {
      "inputs": [
        {
          "internalType": "bytes4",
          "name": "selector",
          "type": "bytes4"
        }
      ],
      "name": "IsNotVotableFunction",
      "type": "error"
    },
    {
      "inputs": [
        {
          "internalType": "address",
          "name": "implementer",
          "type": "address"
        }
      ],
      "name": "OnlyVoteImplementer",
      "type": "error"
    },
    {
      "inputs": [],
      "name": "claimImperatorship",
      "outputs": [],
      "stateMutability": "nonpayable",
      "type": "function"
    },
    {
      "inputs": [
        {
          "internalType": "uint256",
          "name": "badNumber",
          "type": "uint256"
        }
      ],
      "name": "fail",
      "outputs": [
        {
          "internalType": "bool",
          "name": "",
          "type": "bool"
        }
      ],
      "stateMutability": "nonpayable",
      "type": "function"
    },
    {
      "inputs": [],
      "name": "imperator",
      "outputs": [
        {
          "internalType": "address",
          "name": "",
          "type": "address"
        }
      ],
      "stateMutability": "view",
      "type": "function"
    },
    {
      "inputs": [],
      "name": "imperatorElect",
      "outputs": [
        {
          "internalType": "address",
          "name": "",
          "type": "address"
        }
      ],
      "stateMutability": "view",
      "type": "function"
    },
    {
      "inputs": [
        {
          "internalType": "address",
          "name": "_imperator",
          "type": "address"
        }
      ],
      "name": "proposeNewImperator",
      "outputs": [
        {
          "internalType": "bool",
          "name": "",
          "type": "bool"
        }
      ],
      "stateMutability": "nonpayable",
      "type": "function"
    },
    {
      "inputs": [
        {
          "internalType": "bytes",
          "name": "votingParams",
          "type": "bytes"
        },
        {
          "internalType": "bytes",
          "name": "callback",
          "type": "bytes"
        }
      ],
      "name": "start",
      "outputs": [],
      "stateMutability": "nonpayable",
      "type": "function"
    }
  ],
  "bytecode": "0x60806040523480156200001157600080fd5b506040516200123b3803806200123b833981810160405281019062000037919062000208565b80600160007f8f9bb031a0684501ec7cd98687b3960f8b93df2b63399d80912610d5316fdbef7bffffffffffffffffffffffffffffffffffffffffffffffffffffffff19167bffffffffffffffffffffffffffffffffffffffffffffffffffffffff1916815260200190815260200160002060006101000a81548173ffffffffffffffffffffffffffffffffffffffff021916908373ffffffffffffffffffffffffffffffffffffffff16021790555080600160007f132e4f3c911fc961ee6e46daa96718c60884ce1a9e47c852552ee06ad22775627bffffffffffffffffffffffffffffffffffffffffffffffffffffffff19167bffffffffffffffffffffffffffffffffffffffffffffffffffffffff1916815260200190815260200160002060006101000a81548173ffffffffffffffffffffffffffffffffffffffff021916908373ffffffffffffffffffffffffffffffffffffffff160217905550506200023a565b600080fd5b600073ffffffffffffffffffffffffffffffffffffffff82169050919050565b6000620001d082620001a3565b9050919050565b620001e281620001c3565b8114620001ee57600080fd5b50565b6000815190506200020281620001d7565b92915050565b6000602082840312156200022157620002206200019e565b5b60006200023184828501620001f1565b91505092915050565b610ff1806200024a6000396000f3fe608060405234801561001057600080fd5b50600436106100625760003560e01c80631080156e14610067578063132e4f3c146100835780632eaf41a4146100b3578063782c160e146100d15780638f9bb031146100db5780639cc63e2e1461010b575b600080fd5b610081600480360381019061007c91906109c2565b610129565b005b61009d60048036038101906100989190610a74565b610346565b6040516100aa9190610abc565b60405180910390f35b6100bb6103cf565b6040516100c89190610b18565b60405180910390f35b6100d96103f5565b005b6100f560048036038101906100f09190610b5f565b61050a565b6040516101029190610abc565b60405180910390f35b61011361059f565b6040516101209190610b18565b60405180910390f35b610132836105c5565b6000828260009060049261014893929190610b96565b906101539190610c15565b905061015e816105c8565b61019f57806040517f35be8c290000000000000000000000000000000000000000000000000000000081526004016101969190610c83565b60405180910390fd5b600060016000837bffffffffffffffffffffffffffffffffffffffffffffffffffffffff19167bffffffffffffffffffffffffffffffffffffffffffffffffffffffff1916815260200190815260200160002060009054906101000a900473ffffffffffffffffffffffffffffffffffffffff1673ffffffffffffffffffffffffffffffffffffffff16631080156e8686866040518463ffffffff1660e01b815260040161024f93929190610d53565b6020604051808303816000875af115801561026e573d6000803e3d6000fd5b505050506040513d601f19601f820116820180604052508101906102929190610da1565b9050600061031160016000857bffffffffffffffffffffffffffffffffffffffffffffffffffffffff19167bffffffffffffffffffffffffffffffffffffffffffffffffffffffff1916815260200190815260200160002060009054906101000a900473ffffffffffffffffffffffffffffffffffffffff1683610672565b9050600160008083815260200190815260200160002060006101000a81548160ff021916908315150217905550505050505050565b60006001610353816106a5565b61039457336040517f06246cc500000000000000000000000000000000000000000000000000000000815260040161038b9190610b18565b60405180910390fd5b6040517f08c379a00000000000000000000000000000000000000000000000000000000081526004016103c690610e2b565b60405180910390fd5b600360009054906101000a900473ffffffffffffffffffffffffffffffffffffffff1681565b600360009054906101000a900473ffffffffffffffffffffffffffffffffffffffff1673ffffffffffffffffffffffffffffffffffffffff163373ffffffffffffffffffffffffffffffffffffffff1614610485576040517f08c379a000000000000000000000000000000000000000000000000000000000815260040161047c90610e97565b60405180910390fd5b33600260006101000a81548173ffffffffffffffffffffffffffffffffffffffff021916908373ffffffffffffffffffffffffffffffffffffffff1602179055506000600360006101000a81548173ffffffffffffffffffffffffffffffffffffffff021916908373ffffffffffffffffffffffffffffffffffffffff160217905550565b60006001610517816106a5565b61055857336040517f06246cc500000000000000000000000000000000000000000000000000000000815260040161054f9190610b18565b60405180910390fd5b82600360006101000a81548173ffffffffffffffffffffffffffffffffffffffff021916908373ffffffffffffffffffffffffffffffffffffffff16021790555050919050565b600260009054906101000a900473ffffffffffffffffffffffffffffffffffffffff1681565b50565b60008073ffffffffffffffffffffffffffffffffffffffff1660016000847bffffffffffffffffffffffffffffffffffffffffffffffffffffffff19167bffffffffffffffffffffffffffffffffffffffffffffffffffffffff1916815260200190815260200160002060009054906101000a900473ffffffffffffffffffffffffffffffffffffffff1673ffffffffffffffffffffffffffffffffffffffff1614159050919050565b60008282604051602001610687929190610ec6565b60405160208183030381529060405280519060200120905092915050565b6000803373ffffffffffffffffffffffffffffffffffffffff166001600080357fffffffff00000000000000000000000000000000000000000000000000000000167bffffffffffffffffffffffffffffffffffffffffffffffffffffffff19167bffffffffffffffffffffffffffffffffffffffffffffffffffffffff1916815260200190815260200160002060009054906101000a900473ffffffffffffffffffffffffffffffffffffffff1673ffffffffffffffffffffffffffffffffffffffff16149050821580610778575080155b156107865780915050610803565b60246000369050101561079d576000915050610803565b60008036602060003690506107b29190610f1e565b906000369050926107c593929190610b96565b906107d09190610f5c565b60001c90506000806107e23384610672565b815260200190815260200160002060009054906101000a900460ff16925050505b919050565b6000604051905090565b600080fd5b600080fd5b600080fd5b600080fd5b6000601f19601f8301169050919050565b7f4e487b7100000000000000000000000000000000000000000000000000000000600052604160045260246000fd5b61086f82610826565b810181811067ffffffffffffffff8211171561088e5761088d610837565b5b80604052505050565b60006108a1610808565b90506108ad8282610866565b919050565b600067ffffffffffffffff8211156108cd576108cc610837565b5b6108d682610826565b9050602081019050919050565b82818337600083830152505050565b6000610905610900846108b2565b610897565b90508281526020810184848401111561092157610920610821565b5b61092c8482856108e3565b509392505050565b600082601f8301126109495761094861081c565b5b81356109598482602086016108f2565b91505092915050565b600080fd5b600080fd5b60008083601f8401126109825761098161081c565b5b8235905067ffffffffffffffff81111561099f5761099e610962565b5b6020830191508360018202830111156109bb576109ba610967565b5b9250929050565b6000806000604084860312156109db576109da610812565b5b600084013567ffffffffffffffff8111156109f9576109f8610817565b5b610a0586828701610934565b935050602084013567ffffffffffffffff811115610a2657610a25610817565b5b610a328682870161096c565b92509250509250925092565b6000819050919050565b610a5181610a3e565b8114610a5c57600080fd5b50565b600081359050610a6e81610a48565b92915050565b600060208284031215610a8a57610a89610812565b5b6000610a9884828501610a5f565b91505092915050565b60008115159050919050565b610ab681610aa1565b82525050565b6000602082019050610ad16000830184610aad565b92915050565b600073ffffffffffffffffffffffffffffffffffffffff82169050919050565b6000610b0282610ad7565b9050919050565b610b1281610af7565b82525050565b6000602082019050610b2d6000830184610b09565b92915050565b610b3c81610af7565b8114610b4757600080fd5b50565b600081359050610b5981610b33565b92915050565b600060208284031215610b7557610b74610812565b5b6000610b8384828501610b4a565b91505092915050565b600080fd5b600080fd5b60008085851115610baa57610ba9610b8c565b5b83861115610bbb57610bba610b91565b5b6001850283019150848603905094509492505050565b600082905092915050565b60007fffffffff0000000000000000000000000000000000000000000000000000000082169050919050565b600082821b905092915050565b6000610c218383610bd1565b82610c2c8135610bdc565b92506004821015610c6c57610c677fffffffff0000000000000000000000000000000000000000000000000000000083600403600802610c08565b831692505b505092915050565b610c7d81610bdc565b82525050565b6000602082019050610c986000830184610c74565b92915050565b600081519050919050565b600082825260208201905092915050565b60005b83811015610cd8578082015181840152602081019050610cbd565b83811115610ce7576000848401525b50505050565b6000610cf882610c9e565b610d028185610ca9565b9350610d12818560208601610cba565b610d1b81610826565b840191505092915050565b6000610d328385610ca9565b9350610d3f8385846108e3565b610d4883610826565b840190509392505050565b60006040820190508181036000830152610d6d8186610ced565b90508181036020830152610d82818486610d26565b9050949350505050565b600081519050610d9b81610a48565b92915050565b600060208284031215610db757610db6610812565b5b6000610dc584828501610d8c565b91505092915050565b600082825260208201905092915050565b7f5a6f6e6721000000000000000000000000000000000000000000000000000000600082015250565b6000610e15600583610dce565b9150610e2082610ddf565b602082019050919050565b60006020820190508181036000830152610e4481610e08565b9050919050565b7f506c6561736520726561642074686520436f6e737469747574696f6e21000000600082015250565b6000610e81601d83610dce565b9150610e8c82610e4b565b602082019050919050565b60006020820190508181036000830152610eb081610e74565b9050919050565b610ec081610a3e565b82525050565b6000604082019050610edb6000830185610b09565b610ee86020830184610eb7565b9392505050565b7f4e487b7100000000000000000000000000000000000000000000000000000000600052601160045260246000fd5b6000610f2982610a3e565b9150610f3483610a3e565b925082821015610f4757610f46610eef565b5b828203905092915050565b6000819050919050565b6000610f688383610bd1565b82610f738135610f52565b92506020821015610fb357610fae7fffffffffffffffffffffffffffffffffffffffffffffffffffffffffffffffff83602003600802610c08565b831692505b50509291505056fea264697066735822122026018c88ca14e10efdc0cc273fadd0bacec6f1c71206c858a4cfeb486f757ea864736f6c634300080d0033",
  "linkReferences": {},
  "deployedLinkReferences": {}
}