{
  "_format": "hh-sol-artifact-1",
  "contractName": "ControllableRegistrar",
  "sourceName": "src/implementations/registration/RegistrarAndResolver.sol",
  "abi": [
    {
      "inputs": [
        {
          "internalType": "address",
          "name": "_initialVotingContract",
          "type": "address"
        },
        {
          "internalType": "address",
          "name": "_registry",
          "type": "address"
        },
        {
          "internalType": "address",
          "name": "_resolver",
          "type": "address"
        },
        {
          "internalType": "string",
          "name": "_name",
          "type": "string"
        },
        {
          "internalType": "string",
          "name": "_symbol",
          "type": "string"
        }
      ],
      "stateMutability": "nonpayable",
      "type": "constructor"
    },
    {
      "inputs": [
        {
          "internalType": "address",
          "name": "imposter",
          "type": "address"
        }
      ],
      "name": "IsNotImplementer",
      "type": "error"
    },
    {
      "inputs": [
        {
          "internalType": "bytes4",
          "name": "selector",
          "type": "bytes4"
        }
      ],
      "name": "IsNotVotableFunction",
      "type": "error"
    },
    {
      "inputs": [
        {
          "internalType": "address",
          "name": "implementer",
          "type": "address"
        }
      ],
      "name": "OnlyVoteImplementer",
      "type": "error"
    },
    {
      "anonymous": false,
      "inputs": [
        {
          "indexed": true,
          "internalType": "address",
          "name": "owner",
          "type": "address"
        },
        {
          "indexed": true,
          "internalType": "address",
          "name": "approved",
          "type": "address"
        },
        {
          "indexed": true,
          "internalType": "uint256",
          "name": "tokenId",
          "type": "uint256"
        }
      ],
      "name": "Approval",
      "type": "event"
    },
    {
      "anonymous": false,
      "inputs": [
        {
          "indexed": true,
          "internalType": "address",
          "name": "owner",
          "type": "address"
        },
        {
          "indexed": true,
          "internalType": "address",
          "name": "operator",
          "type": "address"
        },
        {
          "indexed": false,
          "internalType": "bool",
          "name": "approved",
          "type": "bool"
        }
      ],
      "name": "ApprovalForAll",
      "type": "event"
    },
    {
      "anonymous": false,
      "inputs": [
        {
          "indexed": true,
          "internalType": "address",
          "name": "from",
          "type": "address"
        },
        {
          "indexed": true,
          "internalType": "address",
          "name": "to",
          "type": "address"
        },
        {
          "indexed": true,
          "internalType": "uint256",
          "name": "tokenId",
          "type": "uint256"
        }
      ],
      "name": "Transfer",
      "type": "event"
    },
    {
      "inputs": [],
      "name": "RESOLVER",
      "outputs": [
        {
          "internalType": "contract IResolverWithControl",
          "name": "",
          "type": "address"
        }
      ],
      "stateMutability": "view",
      "type": "function"
    },
    {
      "inputs": [
        {
          "internalType": "address",
          "name": "to",
          "type": "address"
        },
        {
          "internalType": "uint256",
          "name": "tokenId",
          "type": "uint256"
        }
      ],
      "name": "approve",
      "outputs": [],
      "stateMutability": "nonpayable",
      "type": "function"
    },
    {
      "inputs": [
        {
          "internalType": "address",
          "name": "owner",
          "type": "address"
        }
      ],
      "name": "balanceOf",
      "outputs": [
        {
          "internalType": "uint256",
          "name": "",
          "type": "uint256"
        }
      ],
      "stateMutability": "view",
      "type": "function"
    },
    {
      "inputs": [
        {
          "internalType": "bytes32",
          "name": "key",
          "type": "bytes32"
        },
        {
          "internalType": "bool",
          "name": "onlyRegistrar",
          "type": "bool"
        }
      ],
      "name": "changeRegistrarControlledKeys",
      "outputs": [
        {
          "internalType": "bool",
          "name": "",
          "type": "bool"
        }
      ],
      "stateMutability": "nonpayable",
      "type": "function"
    },
    {
      "inputs": [
        {
          "internalType": "bytes32",
          "name": "salt",
          "type": "bytes32"
        },
        {
          "internalType": "bytes",
          "name": "bytecode",
          "type": "bytes"
        }
      ],
      "name": "deploy",
      "outputs": [
        {
          "internalType": "address",
          "name": "deployedContract",
          "type": "address"
        }
      ],
      "stateMutability": "nonpayable",
      "type": "function"
    },
    {
      "inputs": [
        {
          "internalType": "bytes32",
          "name": "salt",
          "type": "bytes32"
        },
        {
          "internalType": "bytes",
          "name": "bytecode",
          "type": "bytes"
        }
      ],
      "name": "deployAndRegister",
      "outputs": [
        {
          "internalType": "address",
          "name": "votingContract",
          "type": "address"
        }
      ],
      "stateMutability": "nonpayable",
      "type": "function"
    },
    {
      "inputs": [
        {
          "internalType": "uint256",
          "name": "tokenId",
          "type": "uint256"
        }
      ],
      "name": "getApproved",
      "outputs": [
        {
          "internalType": "address",
          "name": "",
          "type": "address"
        }
      ],
      "stateMutability": "view",
      "type": "function"
    },
    {
      "inputs": [
        {
          "internalType": "address",
          "name": "votingContract",
          "type": "address"
        }
      ],
      "name": "getController",
      "outputs": [
        {
          "internalType": "address",
          "name": "controller",
          "type": "address"
        }
      ],
      "stateMutability": "view",
      "type": "function"
    },
    {
      "inputs": [
        {
          "internalType": "address",
          "name": "owner",
          "type": "address"
        },
        {
          "internalType": "address",
          "name": "operator",
          "type": "address"
        }
      ],
      "name": "isApprovedForAll",
      "outputs": [
        {
          "internalType": "bool",
          "name": "",
          "type": "bool"
        }
      ],
      "stateMutability": "view",
      "type": "function"
    },
    {
      "inputs": [],
      "name": "name",
      "outputs": [
        {
          "internalType": "string",
          "name": "",
          "type": "string"
        }
      ],
      "stateMutability": "view",
      "type": "function"
    },
    {
      "inputs": [
        {
          "internalType": "uint256",
          "name": "tokenId",
          "type": "uint256"
        }
      ],
      "name": "ownerOf",
      "outputs": [
        {
          "internalType": "address",
          "name": "",
          "type": "address"
        }
      ],
      "stateMutability": "view",
      "type": "function"
    },
    {
      "inputs": [
        {
          "internalType": "address",
          "name": "votingContract",
          "type": "address"
        }
      ],
      "name": "register",
      "outputs": [],
      "stateMutability": "nonpayable",
      "type": "function"
    },
    {
      "inputs": [
        {
          "internalType": "address",
          "name": "votingContract",
          "type": "address"
        },
        {
          "internalType": "address",
          "name": "resolver",
          "type": "address"
        },
        {
          "internalType": "address",
          "name": "controller",
          "type": "address"
        }
      ],
      "name": "register",
      "outputs": [],
      "stateMutability": "nonpayable",
      "type": "function"
    },
    {
      "inputs": [
        {
          "internalType": "address",
          "name": "from",
          "type": "address"
        },
        {
          "internalType": "address",
          "name": "to",
          "type": "address"
        },
        {
          "internalType": "uint256",
          "name": "tokenId",
          "type": "uint256"
        }
      ],
      "name": "safeTransferFrom",
      "outputs": [],
      "stateMutability": "nonpayable",
      "type": "function"
    },
    {
      "inputs": [
        {
          "internalType": "address",
          "name": "from",
          "type": "address"
        },
        {
          "internalType": "address",
          "name": "to",
          "type": "address"
        },
        {
          "internalType": "uint256",
          "name": "tokenId",
          "type": "uint256"
        },
        {
          "internalType": "bytes",
          "name": "_data",
          "type": "bytes"
        }
      ],
      "name": "safeTransferFrom",
      "outputs": [],
      "stateMutability": "nonpayable",
      "type": "function"
    },
    {
      "inputs": [
        {
          "internalType": "address",
          "name": "operator",
          "type": "address"
        },
        {
          "internalType": "bool",
          "name": "approved",
          "type": "bool"
        }
      ],
      "name": "setApprovalForAll",
      "outputs": [],
      "stateMutability": "nonpayable",
      "type": "function"
    },
    {
      "inputs": [
        {
          "internalType": "string",
          "name": "key",
          "type": "string"
        },
        {
          "internalType": "address",
          "name": "votingContract",
          "type": "address"
        },
        {
          "internalType": "uint256",
          "name": "amount",
          "type": "uint256"
        }
      ],
      "name": "setInformation",
      "outputs": [
        {
          "internalType": "bool",
          "name": "",
          "type": "bool"
        }
      ],
      "stateMutability": "nonpayable",
      "type": "function"
    },
    {
      "inputs": [
        {
          "internalType": "bytes32",
          "name": "key",
          "type": "bytes32"
        },
        {
          "internalType": "address",
          "name": "votingContract",
          "type": "address"
        },
        {
          "internalType": "uint256",
          "name": "amount",
          "type": "uint256"
        }
      ],
      "name": "setInformation",
      "outputs": [
        {
          "internalType": "bool",
          "name": "",
          "type": "bool"
        }
      ],
      "stateMutability": "nonpayable",
      "type": "function"
    },
    {
      "inputs": [
        {
          "internalType": "bytes",
          "name": "votingParams",
          "type": "bytes"
        },
        {
          "internalType": "bytes",
          "name": "callback",
          "type": "bytes"
        }
      ],
      "name": "start",
      "outputs": [],
      "stateMutability": "nonpayable",
      "type": "function"
    },
    {
      "inputs": [
        {
          "internalType": "bytes4",
          "name": "interfaceId",
          "type": "bytes4"
        }
      ],
      "name": "supportsInterface",
      "outputs": [
        {
          "internalType": "bool",
          "name": "",
          "type": "bool"
        }
      ],
      "stateMutability": "view",
      "type": "function"
    },
    {
      "inputs": [],
      "name": "symbol",
      "outputs": [
        {
          "internalType": "string",
          "name": "",
          "type": "string"
        }
      ],
      "stateMutability": "view",
      "type": "function"
    },
    {
      "inputs": [
        {
          "internalType": "uint256",
          "name": "tokenId",
          "type": "uint256"
        }
      ],
      "name": "tokenURI",
      "outputs": [
        {
          "internalType": "string",
          "name": "",
          "type": "string"
        }
      ],
      "stateMutability": "view",
      "type": "function"
    },
    {
      "inputs": [
        {
          "internalType": "address",
          "name": "from",
          "type": "address"
        },
        {
          "internalType": "address",
          "name": "to",
          "type": "address"
        },
        {
          "internalType": "uint256",
          "name": "tokenId",
          "type": "uint256"
        }
      ],
      "name": "transferFrom",
      "outputs": [],
      "stateMutability": "nonpayable",
      "type": "function"
    }
  ],
  "bytecode": "0x60a06040523480156200001157600080fd5b5060405162003e7938038062003e7983398181016040528101906200003791906200050b565b838282828282818181600090805190602001906200005792919062000259565b5080600190805190602001906200007092919062000259565b5050508273ffffffffffffffffffffffffffffffffffffffff1660808173ffffffffffffffffffffffffffffffffffffffff168152505050505050505084600760007fea3bd5beb629601f94ce8005fa6e9de60a5be0625732c0555f0e8950dac58a027bffffffffffffffffffffffffffffffffffffffffffffffffffffffff19167bffffffffffffffffffffffffffffffffffffffffffffffffffffffff1916815260200190815260200160002060006101000a81548173ffffffffffffffffffffffffffffffffffffffff021916908373ffffffffffffffffffffffffffffffffffffffff16021790555084600760007f7abf8ce3258019b0a38fbe05ce1ffb02ca6d8b1d38d77a45a7541278621f0c5e7bffffffffffffffffffffffffffffffffffffffffffffffffffffffff19167bffffffffffffffffffffffffffffffffffffffffffffffffffffffff1916815260200190815260200160002060006101000a81548173ffffffffffffffffffffffffffffffffffffffff021916908373ffffffffffffffffffffffffffffffffffffffff16021790555082600860006101000a81548173ffffffffffffffffffffffffffffffffffffffff021916908373ffffffffffffffffffffffffffffffffffffffff160217905550505050505062000635565b828054620002679062000600565b90600052602060002090601f0160209004810192826200028b5760008555620002d7565b82601f10620002a657805160ff1916838001178555620002d7565b82800160010185558215620002d7579182015b82811115620002d6578251825591602001919060010190620002b9565b5b509050620002e69190620002ea565b5090565b5b8082111562000305576000816000905550600101620002eb565b5090565b6000604051905090565b600080fd5b600080fd5b600073ffffffffffffffffffffffffffffffffffffffff82169050919050565b60006200034a826200031d565b9050919050565b6200035c816200033d565b81146200036857600080fd5b50565b6000815190506200037c8162000351565b92915050565b600080fd5b600080fd5b6000601f19601f8301169050919050565b7f4e487b7100000000000000000000000000000000000000000000000000000000600052604160045260246000fd5b620003d7826200038c565b810181811067ffffffffffffffff82111715620003f957620003f86200039d565b5b80604052505050565b60006200040e62000309565b90506200041c8282620003cc565b919050565b600067ffffffffffffffff8211156200043f576200043e6200039d565b5b6200044a826200038c565b9050602081019050919050565b60005b83811015620004775780820151818401526020810190506200045a565b8381111562000487576000848401525b50505050565b6000620004a46200049e8462000421565b62000402565b905082815260208101848484011115620004c357620004c262000387565b5b620004d084828562000457565b509392505050565b600082601f830112620004f057620004ef62000382565b5b8151620005028482602086016200048d565b91505092915050565b600080600080600060a086880312156200052a576200052962000313565b5b60006200053a888289016200036b565b95505060206200054d888289016200036b565b945050604062000560888289016200036b565b935050606086015167ffffffffffffffff81111562000584576200058362000318565b5b6200059288828901620004d8565b925050608086015167ffffffffffffffff811115620005b657620005b562000318565b5b620005c488828901620004d8565b9150509295509295909350565b7f4e487b7100000000000000000000000000000000000000000000000000000000600052602260045260246000fd5b600060028204905060018216806200061957607f821691505b6020821081036200062f576200062e620005d1565b5b50919050565b608051613828620006516000396000611c6f01526138286000f3fe608060405234801561001057600080fd5b506004361061014d5760003560e01c806370a08231116100c3578063c87b56dd1161007c578063c87b56dd146103c0578063cdcb760a146103f0578063d541785e14610420578063e985e9c514610450578063ea3bd5be14610480578063f3201424146104b05761014d565b806370a08231146102da5780637abf8ce31461030a57806388c662aa1461033a57806395d89b411461036a578063a22cb46514610388578063b88d4fde146103a45761014d565b806323b872dd1161011557806323b872dd1461020857806342842e0e146102245780634420e486146102405780634d77532d1461025c5780636352211e1461027a5780636511d520146102aa5761014d565b806301ffc9a71461015257806306fdde0314610182578063081812fc146101a0578063095ea7b3146101d05780631080156e146101ec575b600080fd5b61016c60048036038101906101679190612121565b6104cc565b6040516101799190612169565b60405180910390f35b61018a6105ae565b604051610197919061221d565b60405180910390f35b6101ba60048036038101906101b59190612275565b610640565b6040516101c791906122e3565b60405180910390f35b6101ea60048036038101906101e5919061232a565b6106c5565b005b610206600480360381019061020191906124ff565b6107dc565b005b610222600480360381019061021d919061257b565b6109fa565b005b61023e6004803603810190610239919061257b565b610a5a565b005b61025a600480360381019061025591906125ce565b610a7a565b005b610264610aaa565b604051610271919061265a565b60405180910390f35b610294600480360381019061028f9190612275565b610ad0565b6040516102a191906122e3565b60405180910390f35b6102c460048036038101906102bf9190612716565b610b81565b6040516102d19190612169565b60405180910390f35b6102f460048036038101906102ef91906125ce565b610c8e565b6040516103019190612794565b60405180910390f35b610324600480360381019061031f91906127e5565b610d45565b6040516103319190612169565b60405180910390f35b610354600480360381019061034f91906125ce565b610e2c565b60405161036191906122e3565b60405180910390f35b610372610e59565b60405161037f919061221d565b60405180910390f35b6103a2600480360381019061039d9190612864565b610eeb565b005b6103be60048036038101906103b991906128a4565b610f01565b005b6103da60048036038101906103d59190612275565b610f63565b6040516103e7919061221d565b60405180910390f35b61040a60048036038101906104059190612927565b61100a565b60405161041791906122e3565b60405180910390f35b61043a60048036038101906104359190612927565b61101e565b60405161044791906122e3565b60405180910390f35b61046a60048036038101906104659190612983565b611055565b6040516104779190612169565b60405180910390f35b61049a600480360381019061049591906129c3565b6110e9565b6040516104a79190612169565b60405180910390f35b6104ca60048036038101906104c59190612a03565b6111cd565b005b60007f80ac58cd000000000000000000000000000000000000000000000000000000007bffffffffffffffffffffffffffffffffffffffffffffffffffffffff1916827bffffffffffffffffffffffffffffffffffffffffffffffffffffffff1916148061059757507f5b5e139f000000000000000000000000000000000000000000000000000000007bffffffffffffffffffffffffffffffffffffffffffffffffffffffff1916827bffffffffffffffffffffffffffffffffffffffffffffffffffffffff1916145b806105a757506105a6826111e6565b5b9050919050565b6060600080546105bd90612a85565b80601f01602080910402602001604051908101604052809291908181526020018280546105e990612a85565b80156106365780601f1061060b57610100808354040283529160200191610636565b820191906000526020600020905b81548152906001019060200180831161061957829003601f168201915b5050505050905090565b600061064b82611250565b61068a576040517f08c379a000000000000000000000000000000000000000000000000000000000815260040161068190612b28565b60405180910390fd5b6004600083815260200190815260200160002060009054906101000a900473ffffffffffffffffffffffffffffffffffffffff169050919050565b60006106d082610ad0565b90508073ffffffffffffffffffffffffffffffffffffffff168373ffffffffffffffffffffffffffffffffffffffff1603610740576040517f08c379a000000000000000000000000000000000000000000000000000000000815260040161073790612bba565b60405180910390fd5b8073ffffffffffffffffffffffffffffffffffffffff1661075f6112bc565b73ffffffffffffffffffffffffffffffffffffffff16148061078e575061078d816107886112bc565b611055565b5b6107cd576040517f08c379a00000000000000000000000000000000000000000000000000000000081526004016107c490612c4c565b60405180910390fd5b6107d783836112c4565b505050565b6107e58361137d565b600082826000906004926107fb93929190612c76565b906108069190612cc9565b905061081181611380565b61085257806040517f35be8c290000000000000000000000000000000000000000000000000000000081526004016108499190612d37565b60405180910390fd5b600060076000837bffffffffffffffffffffffffffffffffffffffffffffffffffffffff19167bffffffffffffffffffffffffffffffffffffffffffffffffffffffff1916815260200190815260200160002060009054906101000a900473ffffffffffffffffffffffffffffffffffffffff1673ffffffffffffffffffffffffffffffffffffffff16631080156e8686866040518463ffffffff1660e01b815260040161090293929190612dd4565b6020604051808303816000875af1158015610921573d6000803e3d6000fd5b505050506040513d601f19601f820116820180604052508101906109459190612e22565b905060006109c460076000857bffffffffffffffffffffffffffffffffffffffffffffffffffffffff19167bffffffffffffffffffffffffffffffffffffffffffffffffffffffff1916815260200190815260200160002060009054906101000a900473ffffffffffffffffffffffffffffffffffffffff168361142a565b905060016006600083815260200190815260200160002060006101000a81548160ff021916908315150217905550505050505050565b610a0b610a056112bc565b8261145d565b610a4a576040517f08c379a0000000000000000000000000000000000000000000000000000000008152600401610a4190612ec1565b60405180910390fd5b610a5583838361153b565b505050565b610a7583838360405180602001604052806000815250610f01565b505050565b610aa781600860009054906101000a900473ffffffffffffffffffffffffffffffffffffffff16336111cd565b50565b600860009054906101000a900473ffffffffffffffffffffffffffffffffffffffff1681565b6000806002600084815260200190815260200160002060009054906101000a900473ffffffffffffffffffffffffffffffffffffffff169050600073ffffffffffffffffffffffffffffffffffffffff168173ffffffffffffffffffffffffffffffffffffffff1603610b78576040517f08c379a0000000000000000000000000000000000000000000000000000000008152600401610b6f90612f53565b60405180910390fd5b80915050919050565b60006001610b8e816117a1565b610bcf57336040517f06246cc5000000000000000000000000000000000000000000000000000000008152600401610bc691906122e3565b60405180910390fd5b600860009054906101000a900473ffffffffffffffffffffffffffffffffffffffff1673ffffffffffffffffffffffffffffffffffffffff16637abf8ce386604051602001610c1e919061221d565b6040516020818303038152906040528051906020012086866040518463ffffffff1660e01b8152600401610c5493929190612f82565b600060405180830381600087803b158015610c6e57600080fd5b505af1158015610c82573d6000803e3d6000fd5b50505050509392505050565b60008073ffffffffffffffffffffffffffffffffffffffff168273ffffffffffffffffffffffffffffffffffffffff1603610cfe576040517f08c379a0000000000000000000000000000000000000000000000000000000008152600401610cf59061302b565b60405180910390fd5b600360008373ffffffffffffffffffffffffffffffffffffffff1673ffffffffffffffffffffffffffffffffffffffff168152602001908152602001600020549050919050565b60006001610d52816117a1565b610d9357336040517f06246cc5000000000000000000000000000000000000000000000000000000008152600401610d8a91906122e3565b60405180910390fd5b600860009054906101000a900473ffffffffffffffffffffffffffffffffffffffff1673ffffffffffffffffffffffffffffffffffffffff16637abf8ce38686866040518463ffffffff1660e01b8152600401610df293929190612f82565b600060405180830381600087803b158015610e0c57600080fd5b505af1158015610e20573d6000803e3d6000fd5b50505050509392505050565b6000808273ffffffffffffffffffffffffffffffffffffffff169050610e5181610ad0565b915050919050565b606060018054610e6890612a85565b80601f0160208091040260200160405190810160405280929190818152602001828054610e9490612a85565b8015610ee15780601f10610eb657610100808354040283529160200191610ee1565b820191906000526020600020905b815481529060010190602001808311610ec457829003601f168201915b5050505050905090565b610efd610ef66112bc565b8383611905565b5050565b610f12610f0c6112bc565b8361145d565b610f51576040517f08c379a0000000000000000000000000000000000000000000000000000000008152600401610f4890612ec1565b60405180910390fd5b610f5d84848484611a71565b50505050565b6060610f6e82611250565b610fad576040517f08c379a0000000000000000000000000000000000000000000000000000000008152600401610fa4906130bd565b60405180910390fd5b6000610fb7611acd565b90506000815111610fd75760405180602001604052806000815250611002565b80610fe184611ae4565b604051602001610ff2929190613119565b6040516020818303038152906040525b915050919050565b6000828251602084016000f5905092915050565b600061104d8383600860009054906101000a900473ffffffffffffffffffffffffffffffffffffffff16611c44565b905092915050565b6000600560008473ffffffffffffffffffffffffffffffffffffffff1673ffffffffffffffffffffffffffffffffffffffff16815260200190815260200160002060008373ffffffffffffffffffffffffffffffffffffffff1673ffffffffffffffffffffffffffffffffffffffff16815260200190815260200160002060009054906101000a900460ff16905092915050565b600060016110f6816117a1565b61113757336040517f06246cc500000000000000000000000000000000000000000000000000000000815260040161112e91906122e3565b60405180910390fd5b600860009054906101000a900473ffffffffffffffffffffffffffffffffffffffff1673ffffffffffffffffffffffffffffffffffffffff1663ea3bd5be85856040518363ffffffff1660e01b815260040161119492919061313d565b600060405180830381600087803b1580156111ae57600080fd5b505af11580156111c2573d6000803e3d6000fd5b505050505092915050565b6111d78383611c6d565b6111e18382611cfe565b505050565b60007f01ffc9a7000000000000000000000000000000000000000000000000000000007bffffffffffffffffffffffffffffffffffffffffffffffffffffffff1916827bffffffffffffffffffffffffffffffffffffffffffffffffffffffff1916149050919050565b60008073ffffffffffffffffffffffffffffffffffffffff166002600084815260200190815260200160002060009054906101000a900473ffffffffffffffffffffffffffffffffffffffff1673ffffffffffffffffffffffffffffffffffffffff1614159050919050565b600033905090565b816004600083815260200190815260200160002060006101000a81548173ffffffffffffffffffffffffffffffffffffffff021916908373ffffffffffffffffffffffffffffffffffffffff160217905550808273ffffffffffffffffffffffffffffffffffffffff1661133783610ad0565b73ffffffffffffffffffffffffffffffffffffffff167f8c5be1e5ebec7d5bd14f71427d1e84f3dd0314c0f7b2291e5b200ac8c7c3b92560405160405180910390a45050565b50565b60008073ffffffffffffffffffffffffffffffffffffffff1660076000847bffffffffffffffffffffffffffffffffffffffffffffffffffffffff19167bffffffffffffffffffffffffffffffffffffffffffffffffffffffff1916815260200190815260200160002060009054906101000a900473ffffffffffffffffffffffffffffffffffffffff1673ffffffffffffffffffffffffffffffffffffffff1614159050919050565b6000828260405160200161143f929190613166565b60405160208183030381529060405280519060200120905092915050565b600061146882611250565b6114a7576040517f08c379a000000000000000000000000000000000000000000000000000000000815260040161149e90613201565b60405180910390fd5b60006114b283610ad0565b90508073ffffffffffffffffffffffffffffffffffffffff168473ffffffffffffffffffffffffffffffffffffffff1614806114f457506114f38185611055565b5b8061153257508373ffffffffffffffffffffffffffffffffffffffff1661151a84610640565b73ffffffffffffffffffffffffffffffffffffffff16145b91505092915050565b8273ffffffffffffffffffffffffffffffffffffffff1661155b82610ad0565b73ffffffffffffffffffffffffffffffffffffffff16146115b1576040517f08c379a00000000000000000000000000000000000000000000000000000000081526004016115a890613293565b60405180910390fd5b600073ffffffffffffffffffffffffffffffffffffffff168273ffffffffffffffffffffffffffffffffffffffff1603611620576040517f08c379a000000000000000000000000000000000000000000000000000000000815260040161161790613325565b60405180910390fd5b61162b838383611d28565b6116366000826112c4565b6001600360008573ffffffffffffffffffffffffffffffffffffffff1673ffffffffffffffffffffffffffffffffffffffff16815260200190815260200160002060008282546116869190613374565b925050819055506001600360008473ffffffffffffffffffffffffffffffffffffffff1673ffffffffffffffffffffffffffffffffffffffff16815260200190815260200160002060008282546116dd91906133a8565b92505081905550816002600083815260200190815260200160002060006101000a81548173ffffffffffffffffffffffffffffffffffffffff021916908373ffffffffffffffffffffffffffffffffffffffff160217905550808273ffffffffffffffffffffffffffffffffffffffff168473ffffffffffffffffffffffffffffffffffffffff167fddf252ad1be2c89b69c2b068fc378daa952ba7f163c4a11628f55a4df523b3ef60405160405180910390a461179c838383611d2d565b505050565b6000803373ffffffffffffffffffffffffffffffffffffffff166007600080357fffffffff00000000000000000000000000000000000000000000000000000000167bffffffffffffffffffffffffffffffffffffffffffffffffffffffff19167bffffffffffffffffffffffffffffffffffffffffffffffffffffffff1916815260200190815260200160002060009054906101000a900473ffffffffffffffffffffffffffffffffffffffff1673ffffffffffffffffffffffffffffffffffffffff16149050821580611874575080155b156118825780915050611900565b602460003690501015611899576000915050611900565b60008036602060003690506118ae9190613374565b906000369050926118c193929190612c76565b906118cc91906133fe565b60001c9050600660006118df338461142a565b815260200190815260200160002060009054906101000a900460ff16925050505b919050565b8173ffffffffffffffffffffffffffffffffffffffff168373ffffffffffffffffffffffffffffffffffffffff1603611973576040517f08c379a000000000000000000000000000000000000000000000000000000000815260040161196a906134a9565b60405180910390fd5b80600560008573ffffffffffffffffffffffffffffffffffffffff1673ffffffffffffffffffffffffffffffffffffffff16815260200190815260200160002060008473ffffffffffffffffffffffffffffffffffffffff1673ffffffffffffffffffffffffffffffffffffffff16815260200190815260200160002060006101000a81548160ff0219169083151502179055508173ffffffffffffffffffffffffffffffffffffffff168373ffffffffffffffffffffffffffffffffffffffff167f17307eab39ab6107e8899845ad3d59bd9653f200f220920489ca2b5937696c3183604051611a649190612169565b60405180910390a3505050565b611a7c84848461153b565b611a8884848484611d32565b611ac7576040517f08c379a0000000000000000000000000000000000000000000000000000000008152600401611abe9061353b565b60405180910390fd5b50505050565b606060405180602001604052806000815250905090565b606060008203611b2b576040518060400160405280600181526020017f30000000000000000000000000000000000000000000000000000000000000008152509050611c3f565b600082905060005b60008214611b5d578080611b469061355b565b915050600a82611b5691906135d2565b9150611b33565b60008167ffffffffffffffff811115611b7957611b78612374565b5b6040519080825280601f01601f191660200182016040528015611bab5781602001600182028036833780820191505090505b5090505b60008514611c3857600182611bc49190613374565b9150600a85611bd39190613603565b6030611bdf91906133a8565b60f81b818381518110611bf557611bf4613634565b5b60200101907effffffffffffffffffffffffffffffffffffffffffffffffffffffffffffff1916908160001a905350600a85611c3191906135d2565b9450611baf565b8093505050505b919050565b6000611c50848461100a565b9050611c5c8183611c6d565b611c668133611cfe565b9392505050565b7f000000000000000000000000000000000000000000000000000000000000000073ffffffffffffffffffffffffffffffffffffffff1663aa67735483836040518363ffffffff1660e01b8152600401611cc8929190613663565b600060405180830381600087803b158015611ce257600080fd5b505af1158015611cf6573d6000803e3d6000fd5b505050505050565b60008273ffffffffffffffffffffffffffffffffffffffff169050611d238282611eb9565b505050565b505050565b505050565b6000611d538473ffffffffffffffffffffffffffffffffffffffff16612092565b15611eac578373ffffffffffffffffffffffffffffffffffffffff1663150b7a02611d7c6112bc565b8786866040518563ffffffff1660e01b8152600401611d9e949392919061368c565b6020604051808303816000875af1925050508015611dda57506040513d601f19601f82011682018060405250810190611dd791906136ed565b60015b611e5c573d8060008114611e0a576040519150601f19603f3d011682016040523d82523d6000602084013e611e0f565b606091505b506000815103611e54576040517f08c379a0000000000000000000000000000000000000000000000000000000008152600401611e4b9061353b565b60405180910390fd5b805181602001fd5b63150b7a0260e01b7bffffffffffffffffffffffffffffffffffffffffffffffffffffffff1916817bffffffffffffffffffffffffffffffffffffffffffffffffffffffff191614915050611eb1565b600190505b949350505050565b600073ffffffffffffffffffffffffffffffffffffffff168273ffffffffffffffffffffffffffffffffffffffff1603611f28576040517f08c379a0000000000000000000000000000000000000000000000000000000008152600401611f1f90613766565b60405180910390fd5b611f3181611250565b15611f71576040517f08c379a0000000000000000000000000000000000000000000000000000000008152600401611f68906137d2565b60405180910390fd5b611f7d60008383611d28565b6001600360008473ffffffffffffffffffffffffffffffffffffffff1673ffffffffffffffffffffffffffffffffffffffff1681526020019081526020016000206000828254611fcd91906133a8565b92505081905550816002600083815260200190815260200160002060006101000a81548173ffffffffffffffffffffffffffffffffffffffff021916908373ffffffffffffffffffffffffffffffffffffffff160217905550808273ffffffffffffffffffffffffffffffffffffffff16600073ffffffffffffffffffffffffffffffffffffffff167fddf252ad1be2c89b69c2b068fc378daa952ba7f163c4a11628f55a4df523b3ef60405160405180910390a461208e60008383611d2d565b5050565b6000808273ffffffffffffffffffffffffffffffffffffffff163b119050919050565b6000604051905090565b600080fd5b600080fd5b60007fffffffff0000000000000000000000000000000000000000000000000000000082169050919050565b6120fe816120c9565b811461210957600080fd5b50565b60008135905061211b816120f5565b92915050565b600060208284031215612137576121366120bf565b5b60006121458482850161210c565b91505092915050565b60008115159050919050565b6121638161214e565b82525050565b600060208201905061217e600083018461215a565b92915050565b600081519050919050565b600082825260208201905092915050565b60005b838110156121be5780820151818401526020810190506121a3565b838111156121cd576000848401525b50505050565b6000601f19601f8301169050919050565b60006121ef82612184565b6121f9818561218f565b93506122098185602086016121a0565b612212816121d3565b840191505092915050565b6000602082019050818103600083015261223781846121e4565b905092915050565b6000819050919050565b6122528161223f565b811461225d57600080fd5b50565b60008135905061226f81612249565b92915050565b60006020828403121561228b5761228a6120bf565b5b600061229984828501612260565b91505092915050565b600073ffffffffffffffffffffffffffffffffffffffff82169050919050565b60006122cd826122a2565b9050919050565b6122dd816122c2565b82525050565b60006020820190506122f860008301846122d4565b92915050565b612307816122c2565b811461231257600080fd5b50565b600081359050612324816122fe565b92915050565b60008060408385031215612341576123406120bf565b5b600061234f85828601612315565b925050602061236085828601612260565b9150509250929050565b600080fd5b600080fd5b7f4e487b7100000000000000000000000000000000000000000000000000000000600052604160045260246000fd5b6123ac826121d3565b810181811067ffffffffffffffff821117156123cb576123ca612374565b5b80604052505050565b60006123de6120b5565b90506123ea82826123a3565b919050565b600067ffffffffffffffff82111561240a57612409612374565b5b612413826121d3565b9050602081019050919050565b82818337600083830152505050565b600061244261243d846123ef565b6123d4565b90508281526020810184848401111561245e5761245d61236f565b5b612469848285612420565b509392505050565b600082601f8301126124865761248561236a565b5b813561249684826020860161242f565b91505092915050565b600080fd5b600080fd5b60008083601f8401126124bf576124be61236a565b5b8235905067ffffffffffffffff8111156124dc576124db61249f565b5b6020830191508360018202830111156124f8576124f76124a4565b5b9250929050565b600080600060408486031215612518576125176120bf565b5b600084013567ffffffffffffffff811115612536576125356120c4565b5b61254286828701612471565b935050602084013567ffffffffffffffff811115612563576125626120c4565b5b61256f868287016124a9565b92509250509250925092565b600080600060608486031215612594576125936120bf565b5b60006125a286828701612315565b93505060206125b386828701612315565b92505060406125c486828701612260565b9150509250925092565b6000602082840312156125e4576125e36120bf565b5b60006125f284828501612315565b91505092915050565b6000819050919050565b600061262061261b612616846122a2565b6125fb565b6122a2565b9050919050565b600061263282612605565b9050919050565b600061264482612627565b9050919050565b61265481612639565b82525050565b600060208201905061266f600083018461264b565b92915050565b600067ffffffffffffffff8211156126905761268f612374565b5b612699826121d3565b9050602081019050919050565b60006126b96126b484612675565b6123d4565b9050828152602081018484840111156126d5576126d461236f565b5b6126e0848285612420565b509392505050565b600082601f8301126126fd576126fc61236a565b5b813561270d8482602086016126a6565b91505092915050565b60008060006060848603121561272f5761272e6120bf565b5b600084013567ffffffffffffffff81111561274d5761274c6120c4565b5b612759868287016126e8565b935050602061276a86828701612315565b925050604061277b86828701612260565b9150509250925092565b61278e8161223f565b82525050565b60006020820190506127a96000830184612785565b92915050565b6000819050919050565b6127c2816127af565b81146127cd57600080fd5b50565b6000813590506127df816127b9565b92915050565b6000806000606084860312156127fe576127fd6120bf565b5b600061280c868287016127d0565b935050602061281d86828701612315565b925050604061282e86828701612260565b9150509250925092565b6128418161214e565b811461284c57600080fd5b50565b60008135905061285e81612838565b92915050565b6000806040838503121561287b5761287a6120bf565b5b600061288985828601612315565b925050602061289a8582860161284f565b9150509250929050565b600080600080608085870312156128be576128bd6120bf565b5b60006128cc87828801612315565b94505060206128dd87828801612315565b93505060406128ee87828801612260565b925050606085013567ffffffffffffffff81111561290f5761290e6120c4565b5b61291b87828801612471565b91505092959194509250565b6000806040838503121561293e5761293d6120bf565b5b600061294c858286016127d0565b925050602083013567ffffffffffffffff81111561296d5761296c6120c4565b5b61297985828601612471565b9150509250929050565b6000806040838503121561299a576129996120bf565b5b60006129a885828601612315565b92505060206129b985828601612315565b9150509250929050565b600080604083850312156129da576129d96120bf565b5b60006129e8858286016127d0565b92505060206129f98582860161284f565b9150509250929050565b600080600060608486031215612a1c57612a1b6120bf565b5b6000612a2a86828701612315565b9350506020612a3b86828701612315565b9250506040612a4c86828701612315565b9150509250925092565b7f4e487b7100000000000000000000000000000000000000000000000000000000600052602260045260246000fd5b60006002820490506001821680612a9d57607f821691505b602082108103612ab057612aaf612a56565b5b50919050565b7f4552433732313a20617070726f76656420717565727920666f72206e6f6e657860008201527f697374656e7420746f6b656e0000000000000000000000000000000000000000602082015250565b6000612b12602c8361218f565b9150612b1d82612ab6565b604082019050919050565b60006020820190508181036000830152612b4181612b05565b9050919050565b7f4552433732313a20617070726f76616c20746f2063757272656e74206f776e6560008201527f7200000000000000000000000000000000000000000000000000000000000000602082015250565b6000612ba460218361218f565b9150612baf82612b48565b604082019050919050565b60006020820190508181036000830152612bd381612b97565b9050919050565b7f4552433732313a20617070726f76652063616c6c6572206973206e6f74206f7760008201527f6e6572206e6f7220617070726f76656420666f7220616c6c0000000000000000602082015250565b6000612c3660388361218f565b9150612c4182612bda565b604082019050919050565b60006020820190508181036000830152612c6581612c29565b9050919050565b600080fd5b600080fd5b60008085851115612c8a57612c89612c6c565b5b83861115612c9b57612c9a612c71565b5b6001850283019150848603905094509492505050565b600082905092915050565b600082821b905092915050565b6000612cd58383612cb1565b82612ce081356120c9565b92506004821015612d2057612d1b7fffffffff0000000000000000000000000000000000000000000000000000000083600403600802612cbc565b831692505b505092915050565b612d31816120c9565b82525050565b6000602082019050612d4c6000830184612d28565b92915050565b600081519050919050565b600082825260208201905092915050565b6000612d7982612d52565b612d838185612d5d565b9350612d938185602086016121a0565b612d9c816121d3565b840191505092915050565b6000612db38385612d5d565b9350612dc0838584612420565b612dc9836121d3565b840190509392505050565b60006040820190508181036000830152612dee8186612d6e565b90508181036020830152612e03818486612da7565b9050949350505050565b600081519050612e1c81612249565b92915050565b600060208284031215612e3857612e376120bf565b5b6000612e4684828501612e0d565b91505092915050565b7f4552433732313a207472616e736665722063616c6c6572206973206e6f74206f60008201527f776e6572206e6f7220617070726f766564000000000000000000000000000000602082015250565b6000612eab60318361218f565b9150612eb682612e4f565b604082019050919050565b60006020820190508181036000830152612eda81612e9e565b9050919050565b7f4552433732313a206f776e657220717565727920666f72206e6f6e657869737460008201527f656e7420746f6b656e0000000000000000000000000000000000000000000000602082015250565b6000612f3d60298361218f565b9150612f4882612ee1565b604082019050919050565b60006020820190508181036000830152612f6c81612f30565b9050919050565b612f7c816127af565b82525050565b6000606082019050612f976000830186612f73565b612fa460208301856122d4565b612fb16040830184612785565b949350505050565b7f4552433732313a2062616c616e636520717565727920666f7220746865207a6560008201527f726f206164647265737300000000000000000000000000000000000000000000602082015250565b6000613015602a8361218f565b915061302082612fb9565b604082019050919050565b6000602082019050818103600083015261304481613008565b9050919050565b7f4552433732314d657461646174613a2055524920717565727920666f72206e6f60008201527f6e6578697374656e7420746f6b656e0000000000000000000000000000000000602082015250565b60006130a7602f8361218f565b91506130b28261304b565b604082019050919050565b600060208201905081810360008301526130d68161309a565b9050919050565b600081905092915050565b60006130f382612184565b6130fd81856130dd565b935061310d8185602086016121a0565b80840191505092915050565b600061312582856130e8565b915061313182846130e8565b91508190509392505050565b60006040820190506131526000830185612f73565b61315f602083018461215a565b9392505050565b600060408201905061317b60008301856122d4565b6131886020830184612785565b9392505050565b7f4552433732313a206f70657261746f7220717565727920666f72206e6f6e657860008201527f697374656e7420746f6b656e0000000000000000000000000000000000000000602082015250565b60006131eb602c8361218f565b91506131f68261318f565b604082019050919050565b6000602082019050818103600083015261321a816131de565b9050919050565b7f4552433732313a207472616e736665722066726f6d20696e636f72726563742060008201527f6f776e6572000000000000000000000000000000000000000000000000000000602082015250565b600061327d60258361218f565b915061328882613221565b604082019050919050565b600060208201905081810360008301526132ac81613270565b9050919050565b7f4552433732313a207472616e7366657220746f20746865207a65726f2061646460008201527f7265737300000000000000000000000000000000000000000000000000000000602082015250565b600061330f60248361218f565b915061331a826132b3565b604082019050919050565b6000602082019050818103600083015261333e81613302565b9050919050565b7f4e487b7100000000000000000000000000000000000000000000000000000000600052601160045260246000fd5b600061337f8261223f565b915061338a8361223f565b92508282101561339d5761339c613345565b5b828203905092915050565b60006133b38261223f565b91506133be8361223f565b9250827fffffffffffffffffffffffffffffffffffffffffffffffffffffffffffffffff038211156133f3576133f2613345565b5b828201905092915050565b600061340a8383612cb1565b8261341581356127af565b92506020821015613455576134507fffffffffffffffffffffffffffffffffffffffffffffffffffffffffffffffff83602003600802612cbc565b831692505b505092915050565b7f4552433732313a20617070726f766520746f2063616c6c657200000000000000600082015250565b600061349360198361218f565b915061349e8261345d565b602082019050919050565b600060208201905081810360008301526134c281613486565b9050919050565b7f4552433732313a207472616e7366657220746f206e6f6e20455243373231526560008201527f63656976657220696d706c656d656e7465720000000000000000000000000000602082015250565b600061352560328361218f565b9150613530826134c9565b604082019050919050565b6000602082019050818103600083015261355481613518565b9050919050565b60006135668261223f565b91507fffffffffffffffffffffffffffffffffffffffffffffffffffffffffffffffff820361359857613597613345565b5b600182019050919050565b7f4e487b7100000000000000000000000000000000000000000000000000000000600052601260045260246000fd5b60006135dd8261223f565b91506135e88361223f565b9250826135f8576135f76135a3565b5b828204905092915050565b600061360e8261223f565b91506136198361223f565b925082613629576136286135a3565b5b828206905092915050565b7f4e487b7100000000000000000000000000000000000000000000000000000000600052603260045260246000fd5b600060408201905061367860008301856122d4565b61368560208301846122d4565b9392505050565b60006080820190506136a160008301876122d4565b6136ae60208301866122d4565b6136bb6040830185612785565b81810360608301526136cd8184612d6e565b905095945050505050565b6000815190506136e7816120f5565b92915050565b600060208284031215613703576137026120bf565b5b6000613711848285016136d8565b91505092915050565b7f4552433732313a206d696e7420746f20746865207a65726f2061646472657373600082015250565b600061375060208361218f565b915061375b8261371a565b602082019050919050565b6000602082019050818103600083015261377f81613743565b9050919050565b7f4552433732313a20746f6b656e20616c7265616479206d696e74656400000000600082015250565b60006137bc601c8361218f565b91506137c782613786565b602082019050919050565b600060208201905081810360008301526137eb816137af565b905091905056fea26469706673582212208614cb3bba1fd51775fd903917d1ab8037f3783441277e96eb0062e9532930e964736f6c634300080d0033",
  "linkReferences": {},
  "deployedLinkReferences": {}
}