{
  "_format": "hh-sol-artifact-1",
  "contractName": "VotingRegistry",
  "sourceName": "src/registration/registry/VotingRegistry.sol",
  "abi": [
    {
      "inputs": [
        {
          "internalType": "bytes4",
          "name": "_VOTING_CONTRACT_STANDARD_ID",
          "type": "bytes4"
        }
      ],
      "stateMutability": "nonpayable",
      "type": "constructor"
    },
    {
      "inputs": [
        {
          "internalType": "address",
          "name": "contractAddress",
          "type": "address"
        },
        {
          "internalType": "address",
          "name": "registrar",
          "type": "address"
        }
      ],
      "name": "AlreadyRegistered",
      "type": "error"
    },
    {
      "inputs": [
        {
          "internalType": "address",
          "name": "contractAddress",
          "type": "address"
        }
      ],
      "name": "DoesNotSatisfyInterface",
      "type": "error"
    },
    {
      "inputs": [
        {
          "internalType": "address",
          "name": "sender",
          "type": "address"
        },
        {
          "internalType": "address",
          "name": "registrar",
          "type": "address"
        }
      ],
      "name": "OnlyRegistrar",
      "type": "error"
    },
    {
      "anonymous": false,
      "inputs": [
        {
          "indexed": false,
          "internalType": "address",
          "name": "contractAddress",
          "type": "address"
        },
        {
          "indexed": false,
          "internalType": "address",
          "name": "registrar",
          "type": "address"
        },
        {
          "indexed": false,
          "internalType": "address",
          "name": "resolver",
          "type": "address"
        }
      ],
      "name": "Registered",
      "type": "event"
    },
    {
      "anonymous": false,
      "inputs": [
        {
          "indexed": false,
          "internalType": "address",
          "name": "newResolver",
          "type": "address"
        }
      ],
      "name": "ResolverUpdated",
      "type": "event"
    },
    {
      "inputs": [
        {
          "internalType": "address",
          "name": "contractAddress",
          "type": "address"
        },
        {
          "internalType": "address",
          "name": "resolver",
          "type": "address"
        }
      ],
      "name": "changeResolver",
      "outputs": [],
      "stateMutability": "nonpayable",
      "type": "function"
    },
    {
      "inputs": [
        {
          "internalType": "address",
          "name": "votingContract",
          "type": "address"
        }
      ],
      "name": "getRegistrar",
      "outputs": [
        {
          "internalType": "address",
          "name": "registrar",
          "type": "address"
        }
      ],
      "stateMutability": "view",
      "type": "function"
    },
    {
      "inputs": [
        {
          "internalType": "address",
          "name": "votingContract",
          "type": "address"
        }
      ],
      "name": "getResolver",
      "outputs": [
        {
          "internalType": "address",
          "name": "resolver",
          "type": "address"
        }
      ],
      "stateMutability": "view",
      "type": "function"
    },
    {
      "inputs": [
        {
          "internalType": "address",
          "name": "votingContract",
          "type": "address"
        }
      ],
      "name": "isRegistered",
      "outputs": [
        {
          "internalType": "bool",
          "name": "registrationStatus",
          "type": "bool"
        }
      ],
      "stateMutability": "view",
      "type": "function"
    },
    {
      "inputs": [
        {
          "internalType": "address",
          "name": "contractAddress",
          "type": "address"
        },
        {
          "internalType": "address",
          "name": "resolver",
          "type": "address"
        }
      ],
      "name": "register",
      "outputs": [],
      "stateMutability": "nonpayable",
      "type": "function"
    }
  ],
  "bytecode": "0x60a060405234801561001057600080fd5b50604051610b05380380610b05833981810160405281019061003291906100db565b807bffffffffffffffffffffffffffffffffffffffffffffffffffffffff19166080817bffffffffffffffffffffffffffffffffffffffffffffffffffffffff19168152505050610108565b600080fd5b60007fffffffff0000000000000000000000000000000000000000000000000000000082169050919050565b6100b881610083565b81146100c357600080fd5b50565b6000815190506100d5816100af565b92915050565b6000602082840312156100f1576100f061007e565b5b60006100ff848285016100c6565b91505092915050565b6080516109e261012360003960006106ea01526109e26000f3fe608060405234801561001057600080fd5b50600436106100575760003560e01c806328c71e691461005c5780635392c157146100785780639e3e9119146100a8578063aa677354146100d8578063c3c5a547146100f4575b600080fd5b610076600480360381019061007191906107d0565b610124565b005b610092600480360381019061008d9190610810565b610313565b60405161009f919061084c565b60405180910390f35b6100c260048036038101906100bd9190610810565b61037e565b6040516100cf919061084c565b60405180910390f35b6100f260048036038101906100ed91906107d0565b6103e9565b005b61010e60048036038101906101099190610810565b610630565b60405161011b9190610882565b60405180910390f35b6000808373ffffffffffffffffffffffffffffffffffffffff1673ffffffffffffffffffffffffffffffffffffffff16815260200190815260200160002060000160009054906101000a900473ffffffffffffffffffffffffffffffffffffffff1673ffffffffffffffffffffffffffffffffffffffff163373ffffffffffffffffffffffffffffffffffffffff161461025857336000808473ffffffffffffffffffffffffffffffffffffffff1673ffffffffffffffffffffffffffffffffffffffff16815260200190815260200160002060000160009054906101000a900473ffffffffffffffffffffffffffffffffffffffff166040517f017e0f5600000000000000000000000000000000000000000000000000000000815260040161024f92919061089d565b60405180910390fd5b806000808473ffffffffffffffffffffffffffffffffffffffff1673ffffffffffffffffffffffffffffffffffffffff16815260200190815260200160002060010160006101000a81548173ffffffffffffffffffffffffffffffffffffffff021916908373ffffffffffffffffffffffffffffffffffffffff1602179055507f15cd6d20bba01b3fcb790c73829dd07412cbdf689ef818c96a2505889f3736a281604051610307919061084c565b60405180910390a15050565b60008060008373ffffffffffffffffffffffffffffffffffffffff1673ffffffffffffffffffffffffffffffffffffffff16815260200190815260200160002060010160009054906101000a900473ffffffffffffffffffffffffffffffffffffffff169050919050565b60008060008373ffffffffffffffffffffffffffffffffffffffff1673ffffffffffffffffffffffffffffffffffffffff16815260200190815260200160002060000160009054906101000a900473ffffffffffffffffffffffffffffffffffffffff169050919050565b6103f282610630565b1561049757816000808473ffffffffffffffffffffffffffffffffffffffff1673ffffffffffffffffffffffffffffffffffffffff16815260200190815260200160002060000160009054906101000a900473ffffffffffffffffffffffffffffffffffffffff166040517ff52f412300000000000000000000000000000000000000000000000000000000815260040161048e92919061089d565b60405180910390fd5b6104a0826106ca565b6104e157816040517f563ebe280000000000000000000000000000000000000000000000000000000081526004016104d8919061084c565b60405180910390fd5b60405180604001604052803373ffffffffffffffffffffffffffffffffffffffff1681526020018273ffffffffffffffffffffffffffffffffffffffff168152506000808473ffffffffffffffffffffffffffffffffffffffff1673ffffffffffffffffffffffffffffffffffffffff16815260200190815260200160002060008201518160000160006101000a81548173ffffffffffffffffffffffffffffffffffffffff021916908373ffffffffffffffffffffffffffffffffffffffff16021790555060208201518160010160006101000a81548173ffffffffffffffffffffffffffffffffffffffff021916908373ffffffffffffffffffffffffffffffffffffffff1602179055509050507fa47563c41dab010f91a8ef9dc7ac2bcdfa0ef2af697e575048e71e6eec60dda3823383604051610624939291906108c6565b60405180910390a15050565b60008073ffffffffffffffffffffffffffffffffffffffff166000808473ffffffffffffffffffffffffffffffffffffffff1673ffffffffffffffffffffffffffffffffffffffff16815260200190815260200160002060000160009054906101000a900473ffffffffffffffffffffffffffffffffffffffff1673ffffffffffffffffffffffffffffffffffffffff1614159050919050565b60008173ffffffffffffffffffffffffffffffffffffffff166301ffc9a77f00000000000000000000000000000000000000000000000000000000000000006040518263ffffffff1660e01b81526004016107259190610938565b602060405180830381865afa158015610742573d6000803e3d6000fd5b505050506040513d601f19601f82011682018060405250810190610766919061097f565b9050919050565b600080fd5b600073ffffffffffffffffffffffffffffffffffffffff82169050919050565b600061079d82610772565b9050919050565b6107ad81610792565b81146107b857600080fd5b50565b6000813590506107ca816107a4565b92915050565b600080604083850312156107e7576107e661076d565b5b60006107f5858286016107bb565b9250506020610806858286016107bb565b9150509250929050565b6000602082840312156108265761082561076d565b5b6000610834848285016107bb565b91505092915050565b61084681610792565b82525050565b6000602082019050610861600083018461083d565b92915050565b60008115159050919050565b61087c81610867565b82525050565b60006020820190506108976000830184610873565b92915050565b60006040820190506108b2600083018561083d565b6108bf602083018461083d565b9392505050565b60006060820190506108db600083018661083d565b6108e8602083018561083d565b6108f5604083018461083d565b949350505050565b60007fffffffff0000000000000000000000000000000000000000000000000000000082169050919050565b610932816108fd565b82525050565b600060208201905061094d6000830184610929565b92915050565b61095c81610867565b811461096757600080fd5b50565b60008151905061097981610953565b92915050565b6000602082840312156109955761099461076d565b5b60006109a38482850161096a565b9150509291505056fea26469706673582212208d8b19f4191204211d0b84614a1f4d84aad8a434a854d1ece67bce110394c99464736f6c634300080d0033",
  "linkReferences": {},
  "deployedLinkReferences": {}
}