{
  "_format": "hh-sol-artifact-1",
  "contractName": "PlainMajorityVoteWithQuorum",
  "sourceName": "src/implementations/votingContracts/SimpleMajorityVote/PlainMajorityVoteWithQuorum.sol",
  "abi": [
    {
      "inputs": [
        {
          "internalType": "uint256",
          "name": "identifier",
          "type": "uint256"
        },
        {
          "internalType": "address",
          "name": "voter",
          "type": "address"
        }
      ],
      "name": "AlreadyVoted",
      "type": "error"
    },
    {
      "inputs": [
        {
          "internalType": "uint256",
          "name": "identifier",
          "type": "uint256"
        },
        {
          "internalType": "uint256",
          "name": "deadline",
          "type": "uint256"
        }
      ],
      "name": "DeadlineHasNotPassed",
      "type": "error"
    },
    {
      "inputs": [
        {
          "internalType": "uint256",
          "name": "identifier",
          "type": "uint256"
        },
        {
          "internalType": "uint256",
          "name": "deadline",
          "type": "uint256"
        }
      ],
      "name": "DeadlineHasPassed",
      "type": "error"
    },
    {
      "inputs": [
        {
          "internalType": "uint256",
          "name": "identifier",
          "type": "uint256"
        }
      ],
      "name": "ExpectedReturnError",
      "type": "error"
    },
    {
      "inputs": [
        {
          "internalType": "uint256",
          "name": "identifier",
          "type": "uint256"
        },
        {
          "internalType": "uint256",
          "name": "status",
          "type": "uint256"
        }
      ],
      "name": "ImplementingNotPermitted",
      "type": "error"
    },
    {
      "inputs": [],
      "name": "InvalidCalldata",
      "type": "error"
    },
    {
      "inputs": [
        {
          "internalType": "uint256",
          "name": "identifier",
          "type": "uint256"
        },
        {
          "internalType": "uint256",
          "name": "status",
          "type": "uint256"
        }
      ],
      "name": "StatusError",
      "type": "error"
    },
    {
      "anonymous": false,
      "inputs": [
        {
          "indexed": false,
          "internalType": "uint256",
          "name": "identifier",
          "type": "uint256"
        }
      ],
      "name": "Implemented",
      "type": "event"
    },
    {
      "anonymous": false,
      "inputs": [
        {
          "indexed": false,
          "internalType": "uint256",
          "name": "identifier",
          "type": "uint256"
        }
      ],
      "name": "NotImplemented",
      "type": "event"
    },
    {
      "anonymous": false,
      "inputs": [
        {
          "indexed": false,
          "internalType": "uint256",
          "name": "identifier",
          "type": "uint256"
        },
        {
          "indexed": false,
          "internalType": "address",
          "name": "caller",
          "type": "address"
        }
      ],
      "name": "VotingInstanceStarted",
      "type": "event"
    },
    {
      "inputs": [
        {
          "internalType": "bytes",
          "name": "votingParams",
          "type": "bytes"
        }
      ],
      "name": "decodeParameters",
      "outputs": [
        {
          "internalType": "address",
          "name": "target",
          "type": "address"
        },
        {
          "internalType": "uint256",
          "name": "quorum",
          "type": "uint256"
        },
        {
          "internalType": "uint256",
          "name": "duration",
          "type": "uint256"
        },
        {
          "internalType": "bool",
          "name": "expectReturnValue",
          "type": "bool"
        }
      ],
      "stateMutability": "pure",
      "type": "function"
    },
    {
      "inputs": [
        {
          "internalType": "address",
          "name": "target",
          "type": "address"
        },
        {
          "internalType": "uint256",
          "name": "quorum",
          "type": "uint256"
        },
        {
          "internalType": "uint256",
          "name": "duration",
          "type": "uint256"
        },
        {
          "internalType": "bool",
          "name": "expectReturnValue",
          "type": "bool"
        }
      ],
      "name": "encodeParameters",
      "outputs": [
        {
          "internalType": "bytes",
          "name": "votingParams",
          "type": "bytes"
        }
      ],
      "stateMutability": "pure",
      "type": "function"
    },
    {
      "inputs": [],
      "name": "getCurrentIndex",
      "outputs": [
        {
          "internalType": "uint256",
          "name": "currentIndex",
          "type": "uint256"
        }
      ],
      "stateMutability": "view",
      "type": "function"
    },
    {
      "inputs": [
        {
          "internalType": "uint256",
          "name": "identifier",
          "type": "uint256"
        }
      ],
      "name": "getDeadline",
      "outputs": [
        {
          "internalType": "uint256",
          "name": "",
          "type": "uint256"
        }
      ],
      "stateMutability": "view",
      "type": "function"
    },
    {
      "inputs": [
        {
          "internalType": "uint256",
          "name": "identifier",
          "type": "uint256"
        }
      ],
      "name": "getDoubleVotingGuard",
      "outputs": [
        {
          "internalType": "enum HandleDoubleVotingGuard.VotingGuard",
          "name": "",
          "type": "uint8"
        }
      ],
      "stateMutability": "view",
      "type": "function"
    },
    {
      "inputs": [
        {
          "internalType": "uint256",
          "name": "identifier",
          "type": "uint256"
        }
      ],
      "name": "getQuorum",
      "outputs": [
        {
          "internalType": "uint256",
          "name": "quorum",
          "type": "uint256"
        },
        {
          "internalType": "uint256",
          "name": "inUnitsOf",
          "type": "uint256"
        }
      ],
      "stateMutability": "view",
      "type": "function"
    },
    {
      "inputs": [
        {
          "internalType": "uint256",
          "name": "identifier",
          "type": "uint256"
        }
      ],
      "name": "getStatus",
      "outputs": [
        {
          "internalType": "uint256",
          "name": "status",
          "type": "uint256"
        }
      ],
      "stateMutability": "view",
      "type": "function"
    },
    {
      "inputs": [
        {
          "internalType": "uint256",
          "name": "identifier",
          "type": "uint256"
        }
      ],
      "name": "getTarget",
      "outputs": [
        {
          "internalType": "address",
          "name": "target",
          "type": "address"
        }
      ],
      "stateMutability": "view",
      "type": "function"
    },
    {
      "inputs": [
        {
          "internalType": "uint256",
          "name": "identifier",
          "type": "uint256"
        },
        {
          "internalType": "bytes",
          "name": "callback",
          "type": "bytes"
        }
      ],
      "name": "implement",
      "outputs": [
        {
          "internalType": "enum IImplementResult.Response",
          "name": "",
          "type": "uint8"
        }
      ],
      "stateMutability": "payable",
      "type": "function"
    },
    {
      "inputs": [
        {
          "internalType": "uint256",
          "name": "identifier",
          "type": "uint256"
        }
      ],
      "name": "result",
      "outputs": [
        {
          "internalType": "bytes",
          "name": "resultData",
          "type": "bytes"
        }
      ],
      "stateMutability": "view",
      "type": "function"
    },
    {
      "inputs": [
        {
          "internalType": "bytes",
          "name": "votingParams",
          "type": "bytes"
        },
        {
          "internalType": "bytes",
          "name": "callback",
          "type": "bytes"
        }
      ],
      "name": "start",
      "outputs": [
        {
          "internalType": "uint256",
          "name": "identifier",
          "type": "uint256"
        }
      ],
      "stateMutability": "nonpayable",
      "type": "function"
    },
    {
      "inputs": [
        {
          "internalType": "bytes4",
          "name": "interfaceId",
          "type": "bytes4"
        }
      ],
      "name": "supportsInterface",
      "outputs": [
        {
          "internalType": "bool",
          "name": "",
          "type": "bool"
        }
      ],
      "stateMutability": "pure",
      "type": "function"
    },
    {
      "inputs": [
        {
          "internalType": "uint256",
          "name": "identifier",
          "type": "uint256"
        },
        {
          "internalType": "bytes",
          "name": "votingData",
          "type": "bytes"
        }
      ],
      "name": "vote",
      "outputs": [
        {
          "internalType": "uint256",
          "name": "",
          "type": "uint256"
        }
      ],
      "stateMutability": "nonpayable",
      "type": "function"
    }
  ],
  "bytecode": "0x608060405234801561001057600080fd5b50611be9806100206000396000f3fe6080604052600436106100c25760003560e01c80635c622a0e1161007f578063828622751161005957806382862275146102ce578063b88b82ba1461030b578063c691207e14610348578063e6acc7cd14610388576100c2565b80635c622a0e1461021657806364a2ca4e146102535780637c5a43ec14610290576100c2565b806301ffc9a7146100c75780630d9005ae146101045780631080156e1461012f5780631540ac511461016c5780631d64c4f21461019c5780633c594059146101d9575b600080fd5b3480156100d357600080fd5b506100ee60048036038101906100e9919061113a565b6103c5565b6040516100fb9190611182565b60405180910390f35b34801561011057600080fd5b5061011961050f565b60405161012691906111b6565b60405180910390f35b34801561013b57600080fd5b5061015660048036038101906101519190611377565b610519565b60405161016391906111b6565b60405180910390f35b6101866004803603810190610181919061141f565b61058a565b60405161019391906114f6565b60405180910390f35b3480156101a857600080fd5b506101c360048036038101906101be9190611511565b610729565b6040516101d09190611586565b60405180910390f35b3480156101e557600080fd5b5061020060048036038101906101fb9190611511565b610756565b60405161020d9190611629565b60405180910390f35b34801561022257600080fd5b5061023d60048036038101906102389190611511565b610787565b60405161024a91906111b6565b60405180910390f35b34801561025f57600080fd5b5061027a600480360381019061027591906116d5565b6107a4565b6040516102879190611629565b60405180910390f35b34801561029c57600080fd5b506102b760048036038101906102b29190611511565b6107d6565b6040516102c592919061173c565b60405180910390f35b3480156102da57600080fd5b506102f560048036038101906102f09190611511565b6107f8565b60405161030291906111b6565b60405180910390f35b34801561031757600080fd5b50610332600480360381019061032d919061141f565b610815565b60405161033f91906111b6565b60405180910390f35b34801561035457600080fd5b5061036f600480360381019061036a9190611765565b610a64565b60405161037f94939291906117bd565b60405180910390f35b34801561039457600080fd5b506103af60048036038101906103aa9190611511565b610a95565b6040516103bc9190611802565b60405180910390f35b60006103d082610ad1565b8061043857507f82862275000000000000000000000000000000000000000000000000000000007bffffffffffffffffffffffffffffffffffffffffffffffffffffffff1916827bffffffffffffffffffffffffffffffffffffffffffffffffffffffff1916145b806104a057507f1d64c4f2000000000000000000000000000000000000000000000000000000007bffffffffffffffffffffffffffffffffffffffffffffffffffffffff1916827bffffffffffffffffffffffffffffffffffffffffffffffffffffffff1916145b8061050857507f7c5a43ec000000000000000000000000000000000000000000000000000000007bffffffffffffffffffffffffffffffffffffffffffffffffffffffff1916827bffffffffffffffffffffffffffffffffffffffffffffffffffffffff1916145b9050919050565b6000600754905090565b6000610529600754858585610ba3565b7f8e967d6054e2a51c6c0b65a326c2c53edf07f50d4a854e102eed777cfb5913786007543360405161055c92919061181d565b60405180910390a1600754905060016007600082825461057c9190611875565b925050819055509392505050565b600061059584610cc3565b6105eb578360026000868152602001908152602001600020546040517f5ff5ab730000000000000000000000000000000000000000000000000000000081526004016105e292919061173c565b60405180910390fd5b6105f6848484610d86565b600080600086815260200190815260200160002060009054906101000a900473ffffffffffffffffffffffffffffffffffffffff16905060008061065d8387878a6040516020016106499392919061191c565b604051602081830303815290604052610dcc565b91509150600160028111156106755761067461147f565b5b8260028111156106885761068761147f565b5b0361069e576106978782610e63565b91506106ab565b6106a88782610f16565b91505b600160028111156106bf576106be61147f565b5b8260028111156106d2576106d161147f565b5b146106f057600260048111156106eb576106ea61147f565b5b610705565b600160048111156107045761070361147f565b5b5b60026000898152602001908152602001600020819055508193505050509392505050565b60008060026000848152602001908152602001600020541461074c57600161074f565b60005b9050919050565b606061076182610f6a565b604051602001610771919061195f565b6040516020818303038152906040529050919050565b600060026000838152602001908152602001600020549050919050565b6060848484846040516020016107bd94939291906117bd565b6040516020818303038152906040529050949350505050565b6000806006600084815260200190815260200160002054600091509150915091565b600060056000838152602001908152602001600020549050919050565b600060038081111561082a5761082961147f565b5b600260008681526020019081526020016000205414610895578360026000868152602001908152602001600020546040517f42ffc09700000000000000000000000000000000000000000000000000000000815260040161088c92919061173c565b60405180910390fd5b61089e84610f87565b156108c7576108ac84610f99565b60026000858152602001908152602001600020549050610a5d565b6003600085815260200190815260200160002060003373ffffffffffffffffffffffffffffffffffffffff1673ffffffffffffffffffffffffffffffffffffffff16815260200190815260200160002060009054906101000a900460ff16156109695783336040517f04f9da6300000000000000000000000000000000000000000000000000000000815260040161096092919061181d565b60405180910390fd5b60016003600086815260200190815260200160002060003373ffffffffffffffffffffffffffffffffffffffff1673ffffffffffffffffffffffffffffffffffffffff16815260200190815260200160002060006101000a81548160ff021916908315150217905550600083838101906109e3919061197a565b9050610a1c8582610a14577fffffffffffffffffffffffffffffffffffffffffffffffffffffffffffffffff610a17565b60015b611022565b600960008681526020019081526020016000206000815480929190610a40906119a7565b919050555060026000868152602001908152602001600020549150505b9392505050565b60008060008084806020019051810190610a7e9190611a57565b809450819550829650839750505050509193509193565b600080600083815260200190815260200160002060009054906101000a900473ffffffffffffffffffffffffffffffffffffffff169050919050565b60007f01ffc9a7000000000000000000000000000000000000000000000000000000007bffffffffffffffffffffffffffffffffffffffffffffffffffffffff1916827bffffffffffffffffffffffffffffffffffffffffffffffffffffffff19161480610b9c57507f9452d78d000000000000000000000000000000000000000000000000000000007bffffffffffffffffffffffffffffffffffffffffffffffffffffffff1916827bffffffffffffffffffffffffffffffffffffffffffffffffffffffff1916145b9050919050565b600380811115610bb657610bb561147f565b5b6002600086815260200190815260200160002081905550600080600080610bdc87610a64565b80945081965082955083975050505050836000808a815260200190815260200160002060006101000a81548173ffffffffffffffffffffffffffffffffffffffff021916908373ffffffffffffffffffffffffffffffffffffffff16021790555081600660008a81526020019081526020016000208190555080600860008a815260200190815260200160002060006101000a81548160ff021916908315150217905550610c8a8884611050565b8585604051610c9a929190611abe565b6040518091039020600160008a8152602001908152602001600020819055505050505050505050565b600080600480811115610cd957610cd861147f565b5b60026000858152602001908152602001600020541490506000610cfb84610f87565b8015610d2c575060036004811115610d1657610d1561147f565b5b6002600086815260200190815260200160002054145b90508180610d7d5750808015610d4a57506000610d4885610f6a565b135b8015610d7c57506006600085815260200190815260200160002054600960008681526020019081526020016000205410155b5b92505050919050565b610d91838383611077565b610dc7576040517f8129bbcd00000000000000000000000000000000000000000000000000000000815260040160405180910390fd5b505050565b600060606000808573ffffffffffffffffffffffffffffffffffffffff163486604051610df99190611b08565b60006040518083038185875af1925050503d8060008114610e36576040519150601f19603f3d011682016040523d82523d6000602084013e610e3b565b606091505b5091509150600082610e4e576002610e51565b60015b90508082945094505050509250929050565b60006008600084815260200190815260200160002060009054906101000a900460ff168015610e93575060008251145b15610ed557826040517f66dabd98000000000000000000000000000000000000000000000000000000008152600401610ecc91906111b6565b60405180910390fd5b600190507febde80ec5f4e6c8b3a987f2a89cdc9c91b6c5e00b337e2581ed6302994c81e3f83604051610f0891906111b6565b60405180910390a192915050565b60008082511115610f2957815160208301fd5b7ff1ce307d6c8f222892d7eb3afa1f623ef595620a12027617499df1e6873de9ac83604051610f5891906111b6565b60405180910390a16002905092915050565b600060046000838152602001908152602001600020549050919050565b6000610f92826110af565b9050919050565b6000610fa482610f6a565b138015610fd757506006600082815260200190815260200160002054600960008381526020019081526020016000205410155b610ff45760026004811115610fef57610fee61147f565b5b611008565b6004808111156110075761100661147f565b5b5b600260008381526020019081526020016000208190555050565b806004600084815260200190815260200160002060008282546110459190611b1f565b925050819055505050565b804261105c9190611875565b60056000848152602001908152602001600020819055505050565b60008282604051611089929190611abe565b604051809103902060016000868152602001908152602001600020541490509392505050565b6000600560008381526020019081526020016000205442119050919050565b6000604051905090565b600080fd5b600080fd5b60007fffffffff0000000000000000000000000000000000000000000000000000000082169050919050565b611117816110e2565b811461112257600080fd5b50565b6000813590506111348161110e565b92915050565b6000602082840312156111505761114f6110d8565b5b600061115e84828501611125565b91505092915050565b60008115159050919050565b61117c81611167565b82525050565b60006020820190506111976000830184611173565b92915050565b6000819050919050565b6111b08161119d565b82525050565b60006020820190506111cb60008301846111a7565b92915050565b600080fd5b600080fd5b6000601f19601f8301169050919050565b7f4e487b7100000000000000000000000000000000000000000000000000000000600052604160045260246000fd5b611224826111db565b810181811067ffffffffffffffff82111715611243576112426111ec565b5b80604052505050565b60006112566110ce565b9050611262828261121b565b919050565b600067ffffffffffffffff821115611282576112816111ec565b5b61128b826111db565b9050602081019050919050565b82818337600083830152505050565b60006112ba6112b584611267565b61124c565b9050828152602081018484840111156112d6576112d56111d6565b5b6112e1848285611298565b509392505050565b600082601f8301126112fe576112fd6111d1565b5b813561130e8482602086016112a7565b91505092915050565b600080fd5b600080fd5b60008083601f840112611337576113366111d1565b5b8235905067ffffffffffffffff81111561135457611353611317565b5b6020830191508360018202830111156113705761136f61131c565b5b9250929050565b6000806000604084860312156113905761138f6110d8565b5b600084013567ffffffffffffffff8111156113ae576113ad6110dd565b5b6113ba868287016112e9565b935050602084013567ffffffffffffffff8111156113db576113da6110dd565b5b6113e786828701611321565b92509250509250925092565b6113fc8161119d565b811461140757600080fd5b50565b600081359050611419816113f3565b92915050565b600080600060408486031215611438576114376110d8565b5b60006114468682870161140a565b935050602084013567ffffffffffffffff811115611467576114666110dd565b5b61147386828701611321565b92509250509250925092565b7f4e487b7100000000000000000000000000000000000000000000000000000000600052602160045260246000fd5b600381106114bf576114be61147f565b5b50565b60008190506114d0826114ae565b919050565b60006114e0826114c2565b9050919050565b6114f0816114d5565b82525050565b600060208201905061150b60008301846114e7565b92915050565b600060208284031215611527576115266110d8565b5b60006115358482850161140a565b91505092915050565b6003811061154f5761154e61147f565b5b50565b60008190506115608261153e565b919050565b600061157082611552565b9050919050565b61158081611565565b82525050565b600060208201905061159b6000830184611577565b92915050565b600081519050919050565b600082825260208201905092915050565b60005b838110156115db5780820151818401526020810190506115c0565b838111156115ea576000848401525b50505050565b60006115fb826115a1565b61160581856115ac565b93506116158185602086016115bd565b61161e816111db565b840191505092915050565b6000602082019050818103600083015261164381846115f0565b905092915050565b600073ffffffffffffffffffffffffffffffffffffffff82169050919050565b60006116768261164b565b9050919050565b6116868161166b565b811461169157600080fd5b50565b6000813590506116a38161167d565b92915050565b6116b281611167565b81146116bd57600080fd5b50565b6000813590506116cf816116a9565b92915050565b600080600080608085870312156116ef576116ee6110d8565b5b60006116fd87828801611694565b945050602061170e8782880161140a565b935050604061171f8782880161140a565b9250506060611730878288016116c0565b91505092959194509250565b600060408201905061175160008301856111a7565b61175e60208301846111a7565b9392505050565b60006020828403121561177b5761177a6110d8565b5b600082013567ffffffffffffffff811115611799576117986110dd565b5b6117a5848285016112e9565b91505092915050565b6117b78161166b565b82525050565b60006080820190506117d260008301876117ae565b6117df60208301866111a7565b6117ec60408301856111a7565b6117f96060830184611173565b95945050505050565b600060208201905061181760008301846117ae565b92915050565b600060408201905061183260008301856111a7565b61183f60208301846117ae565b9392505050565b7f4e487b7100000000000000000000000000000000000000000000000000000000600052601160045260246000fd5b60006118808261119d565b915061188b8361119d565b9250827fffffffffffffffffffffffffffffffffffffffffffffffffffffffffffffffff038211156118c0576118bf611846565b5b828201905092915050565b600081905092915050565b60006118e283856118cb565b93506118ef838584611298565b82840190509392505050565b6000819050919050565b6119166119118261119d565b6118fb565b82525050565b60006119298285876118d6565b91506119358284611905565b602082019150819050949350505050565b6000819050919050565b61195981611946565b82525050565b60006020820190506119746000830184611950565b92915050565b6000602082840312156119905761198f6110d8565b5b600061199e848285016116c0565b91505092915050565b60006119b28261119d565b91507fffffffffffffffffffffffffffffffffffffffffffffffffffffffffffffffff82036119e4576119e3611846565b5b600182019050919050565b60006119fa8261164b565b9050919050565b611a0a816119ef565b8114611a1557600080fd5b50565b600081519050611a2781611a01565b92915050565b600081519050611a3c816113f3565b92915050565b600081519050611a51816116a9565b92915050565b60008060008060808587031215611a7157611a706110d8565b5b6000611a7f87828801611a18565b9450506020611a9087828801611a2d565b9350506040611aa187828801611a2d565b9250506060611ab287828801611a42565b91505092959194509250565b6000611acb8284866118d6565b91508190509392505050565b6000611ae2826115a1565b611aec81856118cb565b9350611afc8185602086016115bd565b80840191505092915050565b6000611b148284611ad7565b915081905092915050565b6000611b2a82611946565b9150611b3583611946565b9250817f7fffffffffffffffffffffffffffffffffffffffffffffffffffffffffffffff03831360008312151615611b7057611b6f611846565b5b817f8000000000000000000000000000000000000000000000000000000000000000038312600083121615611ba857611ba7611846565b5b82820190509291505056fea2646970667358221220a6c5550fb2e3e0c9e634e3eb5b4945685dfacf5b53d57c9ac2d80486a087ac7a64736f6c634300080d0033",
  "linkReferences": {},
  "deployedLinkReferences": {}
}