{
  "_format": "hh-sol-artifact-1",
  "contractName": "PlainMajorityVoteWithQuorum",
  "sourceName": "src/implementations/votingContracts/SimpleMajorityVote/PlainMajorityVoteWithQuorum.sol",
  "abi": [
    {
      "inputs": [
        {
          "internalType": "uint256",
          "name": "identifier",
          "type": "uint256"
        },
        {
          "internalType": "address",
          "name": "voter",
          "type": "address"
        }
      ],
      "name": "AlreadyVoted",
      "type": "error"
    },
    {
      "inputs": [
        {
          "internalType": "uint256",
          "name": "identifier",
          "type": "uint256"
        },
        {
          "internalType": "uint256",
          "name": "deadline",
          "type": "uint256"
        }
      ],
      "name": "DeadlineHasNotPassed",
      "type": "error"
    },
    {
      "inputs": [
        {
          "internalType": "uint256",
          "name": "identifier",
          "type": "uint256"
        },
        {
          "internalType": "uint256",
          "name": "deadline",
          "type": "uint256"
        }
      ],
      "name": "DeadlineHasPassed",
      "type": "error"
    },
    {
      "inputs": [
        {
          "internalType": "uint256",
          "name": "identifier",
          "type": "uint256"
        }
      ],
      "name": "ExpectedReturnError",
      "type": "error"
    },
    {
      "inputs": [
        {
          "internalType": "uint256",
          "name": "identifier",
          "type": "uint256"
        },
        {
          "internalType": "uint256",
          "name": "status",
          "type": "uint256"
        }
      ],
      "name": "ImplementingNotPermitted",
      "type": "error"
    },
    {
      "inputs": [],
      "name": "InvalidCalldata",
      "type": "error"
    },
    {
      "inputs": [
        {
          "internalType": "uint256",
          "name": "identifier",
          "type": "uint256"
        },
        {
          "internalType": "uint256",
          "name": "status",
          "type": "uint256"
        }
      ],
      "name": "StatusError",
      "type": "error"
    },
    {
      "anonymous": false,
      "inputs": [
        {
          "indexed": false,
          "internalType": "uint256",
          "name": "identifier",
          "type": "uint256"
        }
      ],
      "name": "Implemented",
      "type": "event"
    },
    {
      "anonymous": false,
      "inputs": [
        {
          "indexed": false,
          "internalType": "uint256",
          "name": "identifier",
          "type": "uint256"
        }
      ],
      "name": "NotImplemented",
      "type": "event"
    },
    {
      "anonymous": false,
      "inputs": [
        {
          "indexed": true,
          "internalType": "uint256",
          "name": "identifier",
          "type": "uint256"
        },
        {
          "indexed": false,
          "internalType": "address",
          "name": "caller",
          "type": "address"
        }
      ],
      "name": "VotingInstanceStarted",
      "type": "event"
    },
    {
      "inputs": [
        {
          "internalType": "bytes",
          "name": "votingParams",
          "type": "bytes"
        }
      ],
      "name": "decodeParameters",
      "outputs": [
        {
          "internalType": "address",
          "name": "target",
          "type": "address"
        },
        {
          "internalType": "uint256",
          "name": "quorum",
          "type": "uint256"
        },
        {
          "internalType": "uint256",
          "name": "duration",
          "type": "uint256"
        },
        {
          "internalType": "bool",
          "name": "expectReturnValue",
          "type": "bool"
        }
      ],
      "stateMutability": "pure",
      "type": "function"
    },
    {
      "inputs": [
        {
          "internalType": "address",
          "name": "target",
          "type": "address"
        },
        {
          "internalType": "uint256",
          "name": "quorum",
          "type": "uint256"
        },
        {
          "internalType": "uint256",
          "name": "duration",
          "type": "uint256"
        },
        {
          "internalType": "bool",
          "name": "expectReturnValue",
          "type": "bool"
        }
      ],
      "name": "encodeParameters",
      "outputs": [
        {
          "internalType": "bytes",
          "name": "votingParams",
          "type": "bytes"
        }
      ],
      "stateMutability": "pure",
      "type": "function"
    },
    {
      "inputs": [],
      "name": "getCurrentIndex",
      "outputs": [
        {
          "internalType": "uint256",
          "name": "currentIndex",
          "type": "uint256"
        }
      ],
      "stateMutability": "view",
      "type": "function"
    },
    {
      "inputs": [
        {
          "internalType": "uint256",
          "name": "identifier",
          "type": "uint256"
        }
      ],
      "name": "getDeadline",
      "outputs": [
        {
          "internalType": "uint256",
          "name": "",
          "type": "uint256"
        }
      ],
      "stateMutability": "view",
      "type": "function"
    },
    {
      "inputs": [
        {
          "internalType": "uint256",
          "name": "identifier",
          "type": "uint256"
        }
      ],
      "name": "getDoubleVotingGuard",
      "outputs": [
        {
          "internalType": "enum HandleDoubleVotingGuard.VotingGuard",
          "name": "",
          "type": "uint8"
        }
      ],
      "stateMutability": "view",
      "type": "function"
    },
    {
      "inputs": [
        {
          "internalType": "uint256",
          "name": "identifier",
          "type": "uint256"
        }
      ],
      "name": "getQuorum",
      "outputs": [
        {
          "internalType": "uint256",
          "name": "quorum",
          "type": "uint256"
        },
        {
          "internalType": "uint256",
          "name": "inUnitsOf",
          "type": "uint256"
        }
      ],
      "stateMutability": "view",
      "type": "function"
    },
    {
      "inputs": [
        {
          "internalType": "uint256",
          "name": "identifier",
          "type": "uint256"
        }
      ],
      "name": "getStatus",
      "outputs": [
        {
          "internalType": "uint256",
          "name": "status",
          "type": "uint256"
        }
      ],
      "stateMutability": "view",
      "type": "function"
    },
    {
      "inputs": [
        {
          "internalType": "uint256",
          "name": "identifier",
          "type": "uint256"
        }
      ],
      "name": "getTarget",
      "outputs": [
        {
          "internalType": "address",
          "name": "target",
          "type": "address"
        }
      ],
      "stateMutability": "view",
      "type": "function"
    },
    {
      "inputs": [
        {
          "internalType": "uint256",
          "name": "identifier",
          "type": "uint256"
        },
        {
          "internalType": "bytes",
          "name": "callback",
          "type": "bytes"
        }
      ],
      "name": "implement",
      "outputs": [
        {
          "internalType": "enum IImplementResult.Response",
          "name": "",
          "type": "uint8"
        }
      ],
      "stateMutability": "payable",
      "type": "function"
    },
    {
      "inputs": [
        {
          "internalType": "uint256",
          "name": "identifier",
          "type": "uint256"
        }
      ],
      "name": "result",
      "outputs": [
        {
          "internalType": "bytes",
          "name": "resultData",
          "type": "bytes"
        }
      ],
      "stateMutability": "view",
      "type": "function"
    },
    {
      "inputs": [
        {
          "internalType": "bytes",
          "name": "votingParams",
          "type": "bytes"
        },
        {
          "internalType": "bytes",
          "name": "callback",
          "type": "bytes"
        }
      ],
      "name": "start",
      "outputs": [
        {
          "internalType": "uint256",
          "name": "identifier",
          "type": "uint256"
        }
      ],
      "stateMutability": "nonpayable",
      "type": "function"
    },
    {
      "inputs": [
        {
          "internalType": "bytes4",
          "name": "interfaceId",
          "type": "bytes4"
        }
      ],
      "name": "supportsInterface",
      "outputs": [
        {
          "internalType": "bool",
          "name": "",
          "type": "bool"
        }
      ],
      "stateMutability": "pure",
      "type": "function"
    },
    {
      "inputs": [
        {
          "internalType": "uint256",
          "name": "identifier",
          "type": "uint256"
        },
        {
          "internalType": "bytes",
          "name": "votingData",
          "type": "bytes"
        }
      ],
      "name": "vote",
      "outputs": [
        {
          "internalType": "uint256",
          "name": "",
          "type": "uint256"
        }
      ],
      "stateMutability": "nonpayable",
      "type": "function"
    }
  ],
  "bytecode": "0x608060405234801561001057600080fd5b50611be8806100206000396000f3fe6080604052600436106100c25760003560e01c80635c622a0e1161007f578063828622751161005957806382862275146102ce578063b88b82ba1461030b578063c691207e14610348578063e6acc7cd14610388576100c2565b80635c622a0e1461021657806364a2ca4e146102535780637c5a43ec14610290576100c2565b806301ffc9a7146100c75780630d9005ae146101045780631080156e1461012f5780631540ac511461016c5780631d64c4f21461019c5780633c594059146101d9575b600080fd5b3480156100d357600080fd5b506100ee60048036038101906100e99190611139565b6103c5565b6040516100fb9190611181565b60405180910390f35b34801561011057600080fd5b5061011961050f565b60405161012691906111b5565b60405180910390f35b34801561013b57600080fd5b5061015660048036038101906101519190611376565b610519565b60405161016391906111b5565b60405180910390f35b6101866004803603810190610181919061141e565b610589565b60405161019391906114f5565b60405180910390f35b3480156101a857600080fd5b506101c360048036038101906101be9190611510565b610728565b6040516101d09190611585565b60405180910390f35b3480156101e557600080fd5b5061020060048036038101906101fb9190611510565b610755565b60405161020d9190611628565b60405180910390f35b34801561022257600080fd5b5061023d60048036038101906102389190611510565b610786565b60405161024a91906111b5565b60405180910390f35b34801561025f57600080fd5b5061027a600480360381019061027591906116d4565b6107a3565b6040516102879190611628565b60405180910390f35b34801561029c57600080fd5b506102b760048036038101906102b29190611510565b6107d5565b6040516102c592919061173b565b60405180910390f35b3480156102da57600080fd5b506102f560048036038101906102f09190611510565b6107f7565b60405161030291906111b5565b60405180910390f35b34801561031757600080fd5b50610332600480360381019061032d919061141e565b610814565b60405161033f91906111b5565b60405180910390f35b34801561035457600080fd5b5061036f600480360381019061036a9190611764565b610a63565b60405161037f94939291906117bc565b60405180910390f35b34801561039457600080fd5b506103af60048036038101906103aa9190611510565b610a94565b6040516103bc9190611801565b60405180910390f35b60006103d082610ad0565b8061043857507f82862275000000000000000000000000000000000000000000000000000000007bffffffffffffffffffffffffffffffffffffffffffffffffffffffff1916827bffffffffffffffffffffffffffffffffffffffffffffffffffffffff1916145b806104a057507f1d64c4f2000000000000000000000000000000000000000000000000000000007bffffffffffffffffffffffffffffffffffffffffffffffffffffffff1916827bffffffffffffffffffffffffffffffffffffffffffffffffffffffff1916145b8061050857507f7c5a43ec000000000000000000000000000000000000000000000000000000007bffffffffffffffffffffffffffffffffffffffffffffffffffffffff1916827bffffffffffffffffffffffffffffffffffffffffffffffffffffffff1916145b9050919050565b6000600754905090565b6000610529600754858585610ba2565b6007547f8e967d6054e2a51c6c0b65a326c2c53edf07f50d4a854e102eed777cfb5913783360405161055b9190611801565b60405180910390a2600754905060016007600082825461057b919061184b565b925050819055509392505050565b600061059484610cc2565b6105ea578360026000868152602001908152602001600020546040517f5ff5ab730000000000000000000000000000000000000000000000000000000081526004016105e192919061173b565b60405180910390fd5b6105f5848484610d85565b600080600086815260200190815260200160002060009054906101000a900473ffffffffffffffffffffffffffffffffffffffff16905060008061065c8387878a604051602001610648939291906118f2565b604051602081830303815290604052610dcb565b91509150600160028111156106745761067361147e565b5b8260028111156106875761068661147e565b5b0361069d576106968782610e62565b91506106aa565b6106a78782610f15565b91505b600160028111156106be576106bd61147e565b5b8260028111156106d1576106d061147e565b5b146106ef57600260048111156106ea576106e961147e565b5b610704565b600160048111156107035761070261147e565b5b5b60026000898152602001908152602001600020819055508193505050509392505050565b60008060026000848152602001908152602001600020541461074b57600161074e565b60005b9050919050565b606061076082610f69565b6040516020016107709190611935565b6040516020818303038152906040529050919050565b600060026000838152602001908152602001600020549050919050565b6060848484846040516020016107bc94939291906117bc565b6040516020818303038152906040529050949350505050565b6000806006600084815260200190815260200160002054600091509150915091565b600060056000838152602001908152602001600020549050919050565b60006003808111156108295761082861147e565b5b600260008681526020019081526020016000205414610894578360026000868152602001908152602001600020546040517f42ffc09700000000000000000000000000000000000000000000000000000000815260040161088b92919061173b565b60405180910390fd5b61089d84610f86565b156108c6576108ab84610f98565b60026000858152602001908152602001600020549050610a5c565b6003600085815260200190815260200160002060003373ffffffffffffffffffffffffffffffffffffffff1673ffffffffffffffffffffffffffffffffffffffff16815260200190815260200160002060009054906101000a900460ff16156109685783336040517f04f9da6300000000000000000000000000000000000000000000000000000000815260040161095f929190611950565b60405180910390fd5b60016003600086815260200190815260200160002060003373ffffffffffffffffffffffffffffffffffffffff1673ffffffffffffffffffffffffffffffffffffffff16815260200190815260200160002060006101000a81548160ff021916908315150217905550600083838101906109e29190611979565b9050610a1b8582610a13577fffffffffffffffffffffffffffffffffffffffffffffffffffffffffffffffff610a16565b60015b611021565b600960008681526020019081526020016000206000815480929190610a3f906119a6565b919050555060026000868152602001908152602001600020549150505b9392505050565b60008060008084806020019051810190610a7d9190611a56565b809450819550829650839750505050509193509193565b600080600083815260200190815260200160002060009054906101000a900473ffffffffffffffffffffffffffffffffffffffff169050919050565b60007f01ffc9a7000000000000000000000000000000000000000000000000000000007bffffffffffffffffffffffffffffffffffffffffffffffffffffffff1916827bffffffffffffffffffffffffffffffffffffffffffffffffffffffff19161480610b9b57507f9452d78d000000000000000000000000000000000000000000000000000000007bffffffffffffffffffffffffffffffffffffffffffffffffffffffff1916827bffffffffffffffffffffffffffffffffffffffffffffffffffffffff1916145b9050919050565b600380811115610bb557610bb461147e565b5b6002600086815260200190815260200160002081905550600080600080610bdb87610a63565b80945081965082955083975050505050836000808a815260200190815260200160002060006101000a81548173ffffffffffffffffffffffffffffffffffffffff021916908373ffffffffffffffffffffffffffffffffffffffff16021790555081600660008a81526020019081526020016000208190555080600860008a815260200190815260200160002060006101000a81548160ff021916908315150217905550610c89888461104f565b8585604051610c99929190611abd565b6040518091039020600160008a8152602001908152602001600020819055505050505050505050565b600080600480811115610cd857610cd761147e565b5b60026000858152602001908152602001600020541490506000610cfa84610f86565b8015610d2b575060036004811115610d1557610d1461147e565b5b6002600086815260200190815260200160002054145b90508180610d7c5750808015610d4957506000610d4785610f69565b135b8015610d7b57506006600085815260200190815260200160002054600960008681526020019081526020016000205410155b5b92505050919050565b610d90838383611076565b610dc6576040517f8129bbcd00000000000000000000000000000000000000000000000000000000815260040160405180910390fd5b505050565b600060606000808573ffffffffffffffffffffffffffffffffffffffff163486604051610df89190611b07565b60006040518083038185875af1925050503d8060008114610e35576040519150601f19603f3d011682016040523d82523d6000602084013e610e3a565b606091505b5091509150600082610e4d576002610e50565b60015b90508082945094505050509250929050565b60006008600084815260200190815260200160002060009054906101000a900460ff168015610e92575060008251145b15610ed457826040517f66dabd98000000000000000000000000000000000000000000000000000000008152600401610ecb91906111b5565b60405180910390fd5b600190507febde80ec5f4e6c8b3a987f2a89cdc9c91b6c5e00b337e2581ed6302994c81e3f83604051610f0791906111b5565b60405180910390a192915050565b60008082511115610f2857815160208301fd5b7ff1ce307d6c8f222892d7eb3afa1f623ef595620a12027617499df1e6873de9ac83604051610f5791906111b5565b60405180910390a16002905092915050565b600060046000838152602001908152602001600020549050919050565b6000610f91826110ae565b9050919050565b6000610fa382610f69565b138015610fd657506006600082815260200190815260200160002054600960008381526020019081526020016000205410155b610ff35760026004811115610fee57610fed61147e565b5b611007565b6004808111156110065761100561147e565b5b5b600260008381526020019081526020016000208190555050565b806004600084815260200190815260200160002060008282546110449190611b1e565b925050819055505050565b804261105b919061184b565b60056000848152602001908152602001600020819055505050565b60008282604051611088929190611abd565b604051809103902060016000868152602001908152602001600020541490509392505050565b6000600560008381526020019081526020016000205442119050919050565b6000604051905090565b600080fd5b600080fd5b60007fffffffff0000000000000000000000000000000000000000000000000000000082169050919050565b611116816110e1565b811461112157600080fd5b50565b6000813590506111338161110d565b92915050565b60006020828403121561114f5761114e6110d7565b5b600061115d84828501611124565b91505092915050565b60008115159050919050565b61117b81611166565b82525050565b60006020820190506111966000830184611172565b92915050565b6000819050919050565b6111af8161119c565b82525050565b60006020820190506111ca60008301846111a6565b92915050565b600080fd5b600080fd5b6000601f19601f8301169050919050565b7f4e487b7100000000000000000000000000000000000000000000000000000000600052604160045260246000fd5b611223826111da565b810181811067ffffffffffffffff82111715611242576112416111eb565b5b80604052505050565b60006112556110cd565b9050611261828261121a565b919050565b600067ffffffffffffffff821115611281576112806111eb565b5b61128a826111da565b9050602081019050919050565b82818337600083830152505050565b60006112b96112b484611266565b61124b565b9050828152602081018484840111156112d5576112d46111d5565b5b6112e0848285611297565b509392505050565b600082601f8301126112fd576112fc6111d0565b5b813561130d8482602086016112a6565b91505092915050565b600080fd5b600080fd5b60008083601f840112611336576113356111d0565b5b8235905067ffffffffffffffff81111561135357611352611316565b5b60208301915083600182028301111561136f5761136e61131b565b5b9250929050565b60008060006040848603121561138f5761138e6110d7565b5b600084013567ffffffffffffffff8111156113ad576113ac6110dc565b5b6113b9868287016112e8565b935050602084013567ffffffffffffffff8111156113da576113d96110dc565b5b6113e686828701611320565b92509250509250925092565b6113fb8161119c565b811461140657600080fd5b50565b600081359050611418816113f2565b92915050565b600080600060408486031215611437576114366110d7565b5b600061144586828701611409565b935050602084013567ffffffffffffffff811115611466576114656110dc565b5b61147286828701611320565b92509250509250925092565b7f4e487b7100000000000000000000000000000000000000000000000000000000600052602160045260246000fd5b600381106114be576114bd61147e565b5b50565b60008190506114cf826114ad565b919050565b60006114df826114c1565b9050919050565b6114ef816114d4565b82525050565b600060208201905061150a60008301846114e6565b92915050565b600060208284031215611526576115256110d7565b5b600061153484828501611409565b91505092915050565b6003811061154e5761154d61147e565b5b50565b600081905061155f8261153d565b919050565b600061156f82611551565b9050919050565b61157f81611564565b82525050565b600060208201905061159a6000830184611576565b92915050565b600081519050919050565b600082825260208201905092915050565b60005b838110156115da5780820151818401526020810190506115bf565b838111156115e9576000848401525b50505050565b60006115fa826115a0565b61160481856115ab565b93506116148185602086016115bc565b61161d816111da565b840191505092915050565b6000602082019050818103600083015261164281846115ef565b905092915050565b600073ffffffffffffffffffffffffffffffffffffffff82169050919050565b60006116758261164a565b9050919050565b6116858161166a565b811461169057600080fd5b50565b6000813590506116a28161167c565b92915050565b6116b181611166565b81146116bc57600080fd5b50565b6000813590506116ce816116a8565b92915050565b600080600080608085870312156116ee576116ed6110d7565b5b60006116fc87828801611693565b945050602061170d87828801611409565b935050604061171e87828801611409565b925050606061172f878288016116bf565b91505092959194509250565b600060408201905061175060008301856111a6565b61175d60208301846111a6565b9392505050565b60006020828403121561177a576117796110d7565b5b600082013567ffffffffffffffff811115611798576117976110dc565b5b6117a4848285016112e8565b91505092915050565b6117b68161166a565b82525050565b60006080820190506117d160008301876117ad565b6117de60208301866111a6565b6117eb60408301856111a6565b6117f86060830184611172565b95945050505050565b600060208201905061181660008301846117ad565b92915050565b7f4e487b7100000000000000000000000000000000000000000000000000000000600052601160045260246000fd5b60006118568261119c565b91506118618361119c565b9250827fffffffffffffffffffffffffffffffffffffffffffffffffffffffffffffffff038211156118965761189561181c565b5b828201905092915050565b600081905092915050565b60006118b883856118a1565b93506118c5838584611297565b82840190509392505050565b6000819050919050565b6118ec6118e78261119c565b6118d1565b82525050565b60006118ff8285876118ac565b915061190b82846118db565b602082019150819050949350505050565b6000819050919050565b61192f8161191c565b82525050565b600060208201905061194a6000830184611926565b92915050565b600060408201905061196560008301856111a6565b61197260208301846117ad565b9392505050565b60006020828403121561198f5761198e6110d7565b5b600061199d848285016116bf565b91505092915050565b60006119b18261119c565b91507fffffffffffffffffffffffffffffffffffffffffffffffffffffffffffffffff82036119e3576119e261181c565b5b600182019050919050565b60006119f98261164a565b9050919050565b611a09816119ee565b8114611a1457600080fd5b50565b600081519050611a2681611a00565b92915050565b600081519050611a3b816113f2565b92915050565b600081519050611a50816116a8565b92915050565b60008060008060808587031215611a7057611a6f6110d7565b5b6000611a7e87828801611a17565b9450506020611a8f87828801611a2c565b9350506040611aa087828801611a2c565b9250506060611ab187828801611a41565b91505092959194509250565b6000611aca8284866118ac565b91508190509392505050565b6000611ae1826115a0565b611aeb81856118a1565b9350611afb8185602086016115bc565b80840191505092915050565b6000611b138284611ad6565b915081905092915050565b6000611b298261191c565b9150611b348361191c565b9250817f7fffffffffffffffffffffffffffffffffffffffffffffffffffffffffffffff03831360008312151615611b6f57611b6e61181c565b5b817f8000000000000000000000000000000000000000000000000000000000000000038312600083121615611ba757611ba661181c565b5b82820190509291505056fea26469706673582212206787d469723baedc170e8b16ef92a8a4007343910d18b88c17621b144aba6bda64736f6c634300080d0033",
  "linkReferences": {},
  "deployedLinkReferences": {}
}