{
  "_format": "hh-sol-artifact-1",
  "contractName": "ThankYou",
  "sourceName": "src/examples/contributions/ThankYou.sol",
  "abi": [
    {
      "inputs": [],
      "stateMutability": "nonpayable",
      "type": "constructor"
    },
    {
      "inputs": [
        {
          "internalType": "address",
          "name": "caller",
          "type": "address"
        }
      ],
      "name": "OnlyMinter",
      "type": "error"
    },
    {
      "inputs": [],
      "name": "UnmatchingInputs",
      "type": "error"
    },
    {
      "anonymous": false,
      "inputs": [
        {
          "indexed": true,
          "internalType": "address",
          "name": "owner",
          "type": "address"
        },
        {
          "indexed": true,
          "internalType": "address",
          "name": "approved",
          "type": "address"
        },
        {
          "indexed": true,
          "internalType": "uint256",
          "name": "tokenId",
          "type": "uint256"
        }
      ],
      "name": "Approval",
      "type": "event"
    },
    {
      "anonymous": false,
      "inputs": [
        {
          "indexed": true,
          "internalType": "address",
          "name": "owner",
          "type": "address"
        },
        {
          "indexed": true,
          "internalType": "address",
          "name": "operator",
          "type": "address"
        },
        {
          "indexed": false,
          "internalType": "bool",
          "name": "approved",
          "type": "bool"
        }
      ],
      "name": "ApprovalForAll",
      "type": "event"
    },
    {
      "anonymous": false,
      "inputs": [
        {
          "indexed": true,
          "internalType": "address",
          "name": "from",
          "type": "address"
        },
        {
          "indexed": true,
          "internalType": "address",
          "name": "to",
          "type": "address"
        },
        {
          "indexed": true,
          "internalType": "uint256",
          "name": "tokenId",
          "type": "uint256"
        }
      ],
      "name": "Transfer",
      "type": "event"
    },
    {
      "inputs": [
        {
          "internalType": "address",
          "name": "to",
          "type": "address"
        },
        {
          "internalType": "uint256",
          "name": "tokenId",
          "type": "uint256"
        }
      ],
      "name": "approve",
      "outputs": [],
      "stateMutability": "nonpayable",
      "type": "function"
    },
    {
      "inputs": [
        {
          "internalType": "address",
          "name": "owner",
          "type": "address"
        }
      ],
      "name": "balanceOf",
      "outputs": [
        {
          "internalType": "uint256",
          "name": "",
          "type": "uint256"
        }
      ],
      "stateMutability": "view",
      "type": "function"
    },
    {
      "inputs": [
        {
          "internalType": "address[]",
          "name": "contributors",
          "type": "address[]"
        },
        {
          "internalType": "uint256[]",
          "name": "contributions",
          "type": "uint256[]"
        }
      ],
      "name": "batchMint",
      "outputs": [],
      "stateMutability": "nonpayable",
      "type": "function"
    },
    {
      "inputs": [
        {
          "internalType": "address",
          "name": "",
          "type": "address"
        }
      ],
      "name": "contributionInEthWei",
      "outputs": [
        {
          "internalType": "uint256",
          "name": "",
          "type": "uint256"
        }
      ],
      "stateMutability": "view",
      "type": "function"
    },
    {
      "inputs": [
        {
          "internalType": "uint256",
          "name": "tokenId",
          "type": "uint256"
        }
      ],
      "name": "getApproved",
      "outputs": [
        {
          "internalType": "address",
          "name": "",
          "type": "address"
        }
      ],
      "stateMutability": "view",
      "type": "function"
    },
    {
      "inputs": [
        {
          "internalType": "address",
          "name": "contributor",
          "type": "address"
        }
      ],
      "name": "getContribution",
      "outputs": [
        {
          "internalType": "uint256",
          "name": "contribution",
          "type": "uint256"
        }
      ],
      "stateMutability": "view",
      "type": "function"
    },
    {
      "inputs": [
        {
          "internalType": "address",
          "name": "owner",
          "type": "address"
        },
        {
          "internalType": "address",
          "name": "operator",
          "type": "address"
        }
      ],
      "name": "isApprovedForAll",
      "outputs": [
        {
          "internalType": "bool",
          "name": "",
          "type": "bool"
        }
      ],
      "stateMutability": "view",
      "type": "function"
    },
    {
      "inputs": [
        {
          "internalType": "address",
          "name": "contributor",
          "type": "address"
        },
        {
          "internalType": "uint256",
          "name": "contribution",
          "type": "uint256"
        }
      ],
      "name": "mint",
      "outputs": [],
      "stateMutability": "nonpayable",
      "type": "function"
    },
    {
      "inputs": [],
      "name": "name",
      "outputs": [
        {
          "internalType": "string",
          "name": "",
          "type": "string"
        }
      ],
      "stateMutability": "view",
      "type": "function"
    },
    {
      "inputs": [],
      "name": "numberOfContributions",
      "outputs": [
        {
          "internalType": "uint256",
          "name": "",
          "type": "uint256"
        }
      ],
      "stateMutability": "view",
      "type": "function"
    },
    {
      "inputs": [
        {
          "internalType": "uint256",
          "name": "tokenId",
          "type": "uint256"
        }
      ],
      "name": "ownerOf",
      "outputs": [
        {
          "internalType": "address",
          "name": "",
          "type": "address"
        }
      ],
      "stateMutability": "view",
      "type": "function"
    },
    {
      "inputs": [
        {
          "internalType": "address",
          "name": "from",
          "type": "address"
        },
        {
          "internalType": "address",
          "name": "to",
          "type": "address"
        },
        {
          "internalType": "uint256",
          "name": "tokenId",
          "type": "uint256"
        }
      ],
      "name": "safeTransferFrom",
      "outputs": [],
      "stateMutability": "nonpayable",
      "type": "function"
    },
    {
      "inputs": [
        {
          "internalType": "address",
          "name": "from",
          "type": "address"
        },
        {
          "internalType": "address",
          "name": "to",
          "type": "address"
        },
        {
          "internalType": "uint256",
          "name": "tokenId",
          "type": "uint256"
        },
        {
          "internalType": "bytes",
          "name": "_data",
          "type": "bytes"
        }
      ],
      "name": "safeTransferFrom",
      "outputs": [],
      "stateMutability": "nonpayable",
      "type": "function"
    },
    {
      "inputs": [
        {
          "internalType": "address",
          "name": "operator",
          "type": "address"
        },
        {
          "internalType": "bool",
          "name": "approved",
          "type": "bool"
        }
      ],
      "name": "setApprovalForAll",
      "outputs": [],
      "stateMutability": "nonpayable",
      "type": "function"
    },
    {
      "inputs": [
        {
          "internalType": "bytes4",
          "name": "interfaceId",
          "type": "bytes4"
        }
      ],
      "name": "supportsInterface",
      "outputs": [
        {
          "internalType": "bool",
          "name": "",
          "type": "bool"
        }
      ],
      "stateMutability": "view",
      "type": "function"
    },
    {
      "inputs": [],
      "name": "symbol",
      "outputs": [
        {
          "internalType": "string",
          "name": "",
          "type": "string"
        }
      ],
      "stateMutability": "view",
      "type": "function"
    },
    {
      "inputs": [
        {
          "internalType": "uint256",
          "name": "tokenId",
          "type": "uint256"
        }
      ],
      "name": "tokenURI",
      "outputs": [
        {
          "internalType": "string",
          "name": "",
          "type": "string"
        }
      ],
      "stateMutability": "view",
      "type": "function"
    },
    {
      "inputs": [
        {
          "internalType": "address",
          "name": "from",
          "type": "address"
        },
        {
          "internalType": "address",
          "name": "to",
          "type": "address"
        },
        {
          "internalType": "uint256",
          "name": "tokenId",
          "type": "uint256"
        }
      ],
      "name": "transferFrom",
      "outputs": [],
      "stateMutability": "nonpayable",
      "type": "function"
    }
  ],
  "bytecode": "0x60a06040523480156200001157600080fd5b5060405180606001604052806031815260200162002e74603191396040518060400160405280600381526020017f544858000000000000000000000000000000000000000000000000000000000081525081600090805190602001906200007a929190620000d0565b50806001908051906020019062000093929190620000d0565b5050503373ffffffffffffffffffffffffffffffffffffffff1660808173ffffffffffffffffffffffffffffffffffffffff1681525050620001e4565b828054620000de90620001af565b90600052602060002090601f0160209004810192826200010257600085556200014e565b82601f106200011d57805160ff19168380011785556200014e565b828001600101855582156200014e579182015b828111156200014d57825182559160200191906001019062000130565b5b5090506200015d919062000161565b5090565b5b808211156200017c57600081600090555060010162000162565b5090565b7f4e487b7100000000000000000000000000000000000000000000000000000000600052602260045260246000fd5b60006002820490506001821680620001c857607f821691505b602082108103620001de57620001dd62000180565b5b50919050565b608051612c6d620002076000396000818161078c01526109710152612c6d6000f3fe608060405234801561001057600080fd5b50600436106101165760003560e01c80636352211e116100a257806395d89b411161007157806395d89b4114610303578063a22cb46514610321578063b88d4fde1461033d578063c87b56dd14610359578063e985e9c51461038957610116565b80636352211e14610269578063649cca3c1461029957806368573107146102b757806370a08231146102d357610116565b806321eff7fc116100e957806321eff7fc146101b557806323b872dd146101e55780632eab2bb41461020157806340c10f191461023157806342842e0e1461024d57610116565b806301ffc9a71461011b57806306fdde031461014b578063081812fc14610169578063095ea7b314610199575b600080fd5b610135600480360381019061013091906119b7565b6103b9565b60405161014291906119ff565b60405180910390f35b61015361049b565b6040516101609190611ab3565b60405180910390f35b610183600480360381019061017e9190611b0b565b61052d565b6040516101909190611b79565b60405180910390f35b6101b360048036038101906101ae9190611bc0565b6105b2565b005b6101cf60048036038101906101ca9190611c00565b6106c9565b6040516101dc9190611c3c565b60405180910390f35b6101ff60048036038101906101fa9190611c57565b610712565b005b61021b60048036038101906102169190611c00565b610772565b6040516102289190611c3c565b60405180910390f35b61024b60048036038101906102469190611bc0565b61078a565b005b61026760048036038101906102629190611c57565b610898565b005b610283600480360381019061027e9190611b0b565b6108b8565b6040516102909190611b79565b60405180910390f35b6102a1610969565b6040516102ae9190611c3c565b60405180910390f35b6102d160048036038101906102cc9190611eb5565b61096f565b005b6102ed60048036038101906102e89190611c00565b610aa8565b6040516102fa9190611c3c565b60405180910390f35b61030b610b5f565b6040516103189190611ab3565b60405180910390f35b61033b60048036038101906103369190611f59565b610bf1565b005b6103576004803603810190610352919061204e565b610c07565b005b610373600480360381019061036e9190611b0b565b610c69565b6040516103809190611ab3565b60405180910390f35b6103a3600480360381019061039e91906120d1565b610d10565b6040516103b091906119ff565b60405180910390f35b60007f80ac58cd000000000000000000000000000000000000000000000000000000007bffffffffffffffffffffffffffffffffffffffffffffffffffffffff1916827bffffffffffffffffffffffffffffffffffffffffffffffffffffffff1916148061048457507f5b5e139f000000000000000000000000000000000000000000000000000000007bffffffffffffffffffffffffffffffffffffffffffffffffffffffff1916827bffffffffffffffffffffffffffffffffffffffffffffffffffffffff1916145b80610494575061049382610da4565b5b9050919050565b6060600080546104aa90612140565b80601f01602080910402602001604051908101604052809291908181526020018280546104d690612140565b80156105235780601f106104f857610100808354040283529160200191610523565b820191906000526020600020905b81548152906001019060200180831161050657829003601f168201915b5050505050905090565b600061053882610e0e565b610577576040517f08c379a000000000000000000000000000000000000000000000000000000000815260040161056e906121e3565b60405180910390fd5b6004600083815260200190815260200160002060009054906101000a900473ffffffffffffffffffffffffffffffffffffffff169050919050565b60006105bd826108b8565b90508073ffffffffffffffffffffffffffffffffffffffff168373ffffffffffffffffffffffffffffffffffffffff160361062d576040517f08c379a000000000000000000000000000000000000000000000000000000000815260040161062490612275565b60405180910390fd5b8073ffffffffffffffffffffffffffffffffffffffff1661064c610e7a565b73ffffffffffffffffffffffffffffffffffffffff16148061067b575061067a81610675610e7a565b610d10565b5b6106ba576040517f08c379a00000000000000000000000000000000000000000000000000000000081526004016106b190612307565b60405180910390fd5b6106c48383610e82565b505050565b6000600760008373ffffffffffffffffffffffffffffffffffffffff1673ffffffffffffffffffffffffffffffffffffffff168152602001908152602001600020549050919050565b61072361071d610e7a565b82610f3b565b610762576040517f08c379a000000000000000000000000000000000000000000000000000000000815260040161075990612399565b60405180910390fd5b61076d838383611019565b505050565b60076020528060005260406000206000915090505481565b7f000000000000000000000000000000000000000000000000000000000000000073ffffffffffffffffffffffffffffffffffffffff163373ffffffffffffffffffffffffffffffffffffffff161461081a57336040517f4c41f6ce0000000000000000000000000000000000000000000000000000000081526004016108119190611b79565b60405180910390fd5b6006600081548092919061082d906123e8565b919050555080600760008473ffffffffffffffffffffffffffffffffffffffff1673ffffffffffffffffffffffffffffffffffffffff16815260200190815260200160002060008282546108819190612430565b925050819055506108948260065461127f565b5050565b6108b383838360405180602001604052806000815250610c07565b505050565b6000806002600084815260200190815260200160002060009054906101000a900473ffffffffffffffffffffffffffffffffffffffff169050600073ffffffffffffffffffffffffffffffffffffffff168173ffffffffffffffffffffffffffffffffffffffff1603610960576040517f08c379a0000000000000000000000000000000000000000000000000000000008152600401610957906124f8565b60405180910390fd5b80915050919050565b60065481565b7f000000000000000000000000000000000000000000000000000000000000000073ffffffffffffffffffffffffffffffffffffffff163373ffffffffffffffffffffffffffffffffffffffff16146109ff57336040517f4c41f6ce0000000000000000000000000000000000000000000000000000000081526004016109f69190611b79565b60405180910390fd5b8151815114610a3a576040517ff64b500800000000000000000000000000000000000000000000000000000000815260040160405180910390fd5b60005b82518161ffff161015610aa357610a90838261ffff1681518110610a6457610a63612518565b5b6020026020010151838361ffff1681518110610a8357610a82612518565b5b602002602001015161078a565b8080610a9b90612555565b915050610a3d565b505050565b60008073ffffffffffffffffffffffffffffffffffffffff168273ffffffffffffffffffffffffffffffffffffffff1603610b18576040517f08c379a0000000000000000000000000000000000000000000000000000000008152600401610b0f906125f1565b60405180910390fd5b600360008373ffffffffffffffffffffffffffffffffffffffff1673ffffffffffffffffffffffffffffffffffffffff168152602001908152602001600020549050919050565b606060018054610b6e90612140565b80601f0160208091040260200160405190810160405280929190818152602001828054610b9a90612140565b8015610be75780601f10610bbc57610100808354040283529160200191610be7565b820191906000526020600020905b815481529060010190602001808311610bca57829003601f168201915b5050505050905090565b610c03610bfc610e7a565b8383611458565b5050565b610c18610c12610e7a565b83610f3b565b610c57576040517f08c379a0000000000000000000000000000000000000000000000000000000008152600401610c4e90612399565b60405180910390fd5b610c63848484846115c4565b50505050565b6060610c7482610e0e565b610cb3576040517f08c379a0000000000000000000000000000000000000000000000000000000008152600401610caa90612683565b60405180910390fd5b6000610cbd611620565b90506000815111610cdd5760405180602001604052806000815250610d08565b80610ce784611637565b604051602001610cf89291906126df565b6040516020818303038152906040525b915050919050565b6000600560008473ffffffffffffffffffffffffffffffffffffffff1673ffffffffffffffffffffffffffffffffffffffff16815260200190815260200160002060008373ffffffffffffffffffffffffffffffffffffffff1673ffffffffffffffffffffffffffffffffffffffff16815260200190815260200160002060009054906101000a900460ff16905092915050565b60007f01ffc9a7000000000000000000000000000000000000000000000000000000007bffffffffffffffffffffffffffffffffffffffffffffffffffffffff1916827bffffffffffffffffffffffffffffffffffffffffffffffffffffffff1916149050919050565b60008073ffffffffffffffffffffffffffffffffffffffff166002600084815260200190815260200160002060009054906101000a900473ffffffffffffffffffffffffffffffffffffffff1673ffffffffffffffffffffffffffffffffffffffff1614159050919050565b600033905090565b816004600083815260200190815260200160002060006101000a81548173ffffffffffffffffffffffffffffffffffffffff021916908373ffffffffffffffffffffffffffffffffffffffff160217905550808273ffffffffffffffffffffffffffffffffffffffff16610ef5836108b8565b73ffffffffffffffffffffffffffffffffffffffff167f8c5be1e5ebec7d5bd14f71427d1e84f3dd0314c0f7b2291e5b200ac8c7c3b92560405160405180910390a45050565b6000610f4682610e0e565b610f85576040517f08c379a0000000000000000000000000000000000000000000000000000000008152600401610f7c90612775565b60405180910390fd5b6000610f90836108b8565b90508073ffffffffffffffffffffffffffffffffffffffff168473ffffffffffffffffffffffffffffffffffffffff161480610fd25750610fd18185610d10565b5b8061101057508373ffffffffffffffffffffffffffffffffffffffff16610ff88461052d565b73ffffffffffffffffffffffffffffffffffffffff16145b91505092915050565b8273ffffffffffffffffffffffffffffffffffffffff16611039826108b8565b73ffffffffffffffffffffffffffffffffffffffff161461108f576040517f08c379a000000000000000000000000000000000000000000000000000000000815260040161108690612807565b60405180910390fd5b600073ffffffffffffffffffffffffffffffffffffffff168273ffffffffffffffffffffffffffffffffffffffff16036110fe576040517f08c379a00000000000000000000000000000000000000000000000000000000081526004016110f590612899565b60405180910390fd5b611109838383611797565b611114600082610e82565b6001600360008573ffffffffffffffffffffffffffffffffffffffff1673ffffffffffffffffffffffffffffffffffffffff168152602001908152602001600020600082825461116491906128b9565b925050819055506001600360008473ffffffffffffffffffffffffffffffffffffffff1673ffffffffffffffffffffffffffffffffffffffff16815260200190815260200160002060008282546111bb9190612430565b92505081905550816002600083815260200190815260200160002060006101000a81548173ffffffffffffffffffffffffffffffffffffffff021916908373ffffffffffffffffffffffffffffffffffffffff160217905550808273ffffffffffffffffffffffffffffffffffffffff168473ffffffffffffffffffffffffffffffffffffffff167fddf252ad1be2c89b69c2b068fc378daa952ba7f163c4a11628f55a4df523b3ef60405160405180910390a461127a83838361179c565b505050565b600073ffffffffffffffffffffffffffffffffffffffff168273ffffffffffffffffffffffffffffffffffffffff16036112ee576040517f08c379a00000000000000000000000000000000000000000000000000000000081526004016112e590612939565b60405180910390fd5b6112f781610e0e565b15611337576040517f08c379a000000000000000000000000000000000000000000000000000000000815260040161132e906129a5565b60405180910390fd5b61134360008383611797565b6001600360008473ffffffffffffffffffffffffffffffffffffffff1673ffffffffffffffffffffffffffffffffffffffff16815260200190815260200160002060008282546113939190612430565b92505081905550816002600083815260200190815260200160002060006101000a81548173ffffffffffffffffffffffffffffffffffffffff021916908373ffffffffffffffffffffffffffffffffffffffff160217905550808273ffffffffffffffffffffffffffffffffffffffff16600073ffffffffffffffffffffffffffffffffffffffff167fddf252ad1be2c89b69c2b068fc378daa952ba7f163c4a11628f55a4df523b3ef60405160405180910390a46114546000838361179c565b5050565b8173ffffffffffffffffffffffffffffffffffffffff168373ffffffffffffffffffffffffffffffffffffffff16036114c6576040517f08c379a00000000000000000000000000000000000000000000000000000000081526004016114bd90612a11565b60405180910390fd5b80600560008573ffffffffffffffffffffffffffffffffffffffff1673ffffffffffffffffffffffffffffffffffffffff16815260200190815260200160002060008473ffffffffffffffffffffffffffffffffffffffff1673ffffffffffffffffffffffffffffffffffffffff16815260200190815260200160002060006101000a81548160ff0219169083151502179055508173ffffffffffffffffffffffffffffffffffffffff168373ffffffffffffffffffffffffffffffffffffffff167f17307eab39ab6107e8899845ad3d59bd9653f200f220920489ca2b5937696c31836040516115b791906119ff565b60405180910390a3505050565b6115cf848484611019565b6115db848484846117a1565b61161a576040517f08c379a000000000000000000000000000000000000000000000000000000000815260040161161190612aa3565b60405180910390fd5b50505050565b606060405180602001604052806000815250905090565b60606000820361167e576040518060400160405280600181526020017f30000000000000000000000000000000000000000000000000000000000000008152509050611792565b600082905060005b600082146116b0578080611699906123e8565b915050600a826116a99190612af2565b9150611686565b60008167ffffffffffffffff8111156116cc576116cb611caf565b5b6040519080825280601f01601f1916602001820160405280156116fe5781602001600182028036833780820191505090505b5090505b6000851461178b5760018261171791906128b9565b9150600a856117269190612b23565b60306117329190612430565b60f81b81838151811061174857611747612518565b5b60200101907effffffffffffffffffffffffffffffffffffffffffffffffffffffffffffff1916908160001a905350600a856117849190612af2565b9450611702565b8093505050505b919050565b505050565b505050565b60006117c28473ffffffffffffffffffffffffffffffffffffffff16611928565b1561191b578373ffffffffffffffffffffffffffffffffffffffff1663150b7a026117eb610e7a565b8786866040518563ffffffff1660e01b815260040161180d9493929190612ba9565b6020604051808303816000875af192505050801561184957506040513d601f19601f820116820180604052508101906118469190612c0a565b60015b6118cb573d8060008114611879576040519150601f19603f3d011682016040523d82523d6000602084013e61187e565b606091505b5060008151036118c3576040517f08c379a00000000000000000000000000000000000000000000000000000000081526004016118ba90612aa3565b60405180910390fd5b805181602001fd5b63150b7a0260e01b7bffffffffffffffffffffffffffffffffffffffffffffffffffffffff1916817bffffffffffffffffffffffffffffffffffffffffffffffffffffffff191614915050611920565b600190505b949350505050565b6000808273ffffffffffffffffffffffffffffffffffffffff163b119050919050565b6000604051905090565b600080fd5b600080fd5b60007fffffffff0000000000000000000000000000000000000000000000000000000082169050919050565b6119948161195f565b811461199f57600080fd5b50565b6000813590506119b18161198b565b92915050565b6000602082840312156119cd576119cc611955565b5b60006119db848285016119a2565b91505092915050565b60008115159050919050565b6119f9816119e4565b82525050565b6000602082019050611a1460008301846119f0565b92915050565b600081519050919050565b600082825260208201905092915050565b60005b83811015611a54578082015181840152602081019050611a39565b83811115611a63576000848401525b50505050565b6000601f19601f8301169050919050565b6000611a8582611a1a565b611a8f8185611a25565b9350611a9f818560208601611a36565b611aa881611a69565b840191505092915050565b60006020820190508181036000830152611acd8184611a7a565b905092915050565b6000819050919050565b611ae881611ad5565b8114611af357600080fd5b50565b600081359050611b0581611adf565b92915050565b600060208284031215611b2157611b20611955565b5b6000611b2f84828501611af6565b91505092915050565b600073ffffffffffffffffffffffffffffffffffffffff82169050919050565b6000611b6382611b38565b9050919050565b611b7381611b58565b82525050565b6000602082019050611b8e6000830184611b6a565b92915050565b611b9d81611b58565b8114611ba857600080fd5b50565b600081359050611bba81611b94565b92915050565b60008060408385031215611bd757611bd6611955565b5b6000611be585828601611bab565b9250506020611bf685828601611af6565b9150509250929050565b600060208284031215611c1657611c15611955565b5b6000611c2484828501611bab565b91505092915050565b611c3681611ad5565b82525050565b6000602082019050611c516000830184611c2d565b92915050565b600080600060608486031215611c7057611c6f611955565b5b6000611c7e86828701611bab565b9350506020611c8f86828701611bab565b9250506040611ca086828701611af6565b9150509250925092565b600080fd5b7f4e487b7100000000000000000000000000000000000000000000000000000000600052604160045260246000fd5b611ce782611a69565b810181811067ffffffffffffffff82111715611d0657611d05611caf565b5b80604052505050565b6000611d1961194b565b9050611d258282611cde565b919050565b600067ffffffffffffffff821115611d4557611d44611caf565b5b602082029050602081019050919050565b600080fd5b6000611d6e611d6984611d2a565b611d0f565b90508083825260208201905060208402830185811115611d9157611d90611d56565b5b835b81811015611dba5780611da68882611bab565b845260208401935050602081019050611d93565b5050509392505050565b600082601f830112611dd957611dd8611caa565b5b8135611de9848260208601611d5b565b91505092915050565b600067ffffffffffffffff821115611e0d57611e0c611caf565b5b602082029050602081019050919050565b6000611e31611e2c84611df2565b611d0f565b90508083825260208201905060208402830185811115611e5457611e53611d56565b5b835b81811015611e7d5780611e698882611af6565b845260208401935050602081019050611e56565b5050509392505050565b600082601f830112611e9c57611e9b611caa565b5b8135611eac848260208601611e1e565b91505092915050565b60008060408385031215611ecc57611ecb611955565b5b600083013567ffffffffffffffff811115611eea57611ee961195a565b5b611ef685828601611dc4565b925050602083013567ffffffffffffffff811115611f1757611f1661195a565b5b611f2385828601611e87565b9150509250929050565b611f36816119e4565b8114611f4157600080fd5b50565b600081359050611f5381611f2d565b92915050565b60008060408385031215611f7057611f6f611955565b5b6000611f7e85828601611bab565b9250506020611f8f85828601611f44565b9150509250929050565b600080fd5b600067ffffffffffffffff821115611fb957611fb8611caf565b5b611fc282611a69565b9050602081019050919050565b82818337600083830152505050565b6000611ff1611fec84611f9e565b611d0f565b90508281526020810184848401111561200d5761200c611f99565b5b612018848285611fcf565b509392505050565b600082601f83011261203557612034611caa565b5b8135612045848260208601611fde565b91505092915050565b6000806000806080858703121561206857612067611955565b5b600061207687828801611bab565b945050602061208787828801611bab565b935050604061209887828801611af6565b925050606085013567ffffffffffffffff8111156120b9576120b861195a565b5b6120c587828801612020565b91505092959194509250565b600080604083850312156120e8576120e7611955565b5b60006120f685828601611bab565b925050602061210785828601611bab565b9150509250929050565b7f4e487b7100000000000000000000000000000000000000000000000000000000600052602260045260246000fd5b6000600282049050600182168061215857607f821691505b60208210810361216b5761216a612111565b5b50919050565b7f4552433732313a20617070726f76656420717565727920666f72206e6f6e657860008201527f697374656e7420746f6b656e0000000000000000000000000000000000000000602082015250565b60006121cd602c83611a25565b91506121d882612171565b604082019050919050565b600060208201905081810360008301526121fc816121c0565b9050919050565b7f4552433732313a20617070726f76616c20746f2063757272656e74206f776e6560008201527f7200000000000000000000000000000000000000000000000000000000000000602082015250565b600061225f602183611a25565b915061226a82612203565b604082019050919050565b6000602082019050818103600083015261228e81612252565b9050919050565b7f4552433732313a20617070726f76652063616c6c6572206973206e6f74206f7760008201527f6e6572206e6f7220617070726f76656420666f7220616c6c0000000000000000602082015250565b60006122f1603883611a25565b91506122fc82612295565b604082019050919050565b60006020820190508181036000830152612320816122e4565b9050919050565b7f4552433732313a207472616e736665722063616c6c6572206973206e6f74206f60008201527f776e6572206e6f7220617070726f766564000000000000000000000000000000602082015250565b6000612383603183611a25565b915061238e82612327565b604082019050919050565b600060208201905081810360008301526123b281612376565b9050919050565b7f4e487b7100000000000000000000000000000000000000000000000000000000600052601160045260246000fd5b60006123f382611ad5565b91507fffffffffffffffffffffffffffffffffffffffffffffffffffffffffffffffff8203612425576124246123b9565b5b600182019050919050565b600061243b82611ad5565b915061244683611ad5565b9250827fffffffffffffffffffffffffffffffffffffffffffffffffffffffffffffffff0382111561247b5761247a6123b9565b5b828201905092915050565b7f4552433732313a206f776e657220717565727920666f72206e6f6e657869737460008201527f656e7420746f6b656e0000000000000000000000000000000000000000000000602082015250565b60006124e2602983611a25565b91506124ed82612486565b604082019050919050565b60006020820190508181036000830152612511816124d5565b9050919050565b7f4e487b7100000000000000000000000000000000000000000000000000000000600052603260045260246000fd5b600061ffff82169050919050565b600061256082612547565b915061ffff8203612574576125736123b9565b5b600182019050919050565b7f4552433732313a2062616c616e636520717565727920666f7220746865207a6560008201527f726f206164647265737300000000000000000000000000000000000000000000602082015250565b60006125db602a83611a25565b91506125e68261257f565b604082019050919050565b6000602082019050818103600083015261260a816125ce565b9050919050565b7f4552433732314d657461646174613a2055524920717565727920666f72206e6f60008201527f6e6578697374656e7420746f6b656e0000000000000000000000000000000000602082015250565b600061266d602f83611a25565b915061267882612611565b604082019050919050565b6000602082019050818103600083015261269c81612660565b9050919050565b600081905092915050565b60006126b982611a1a565b6126c381856126a3565b93506126d3818560208601611a36565b80840191505092915050565b60006126eb82856126ae565b91506126f782846126ae565b91508190509392505050565b7f4552433732313a206f70657261746f7220717565727920666f72206e6f6e657860008201527f697374656e7420746f6b656e0000000000000000000000000000000000000000602082015250565b600061275f602c83611a25565b915061276a82612703565b604082019050919050565b6000602082019050818103600083015261278e81612752565b9050919050565b7f4552433732313a207472616e736665722066726f6d20696e636f72726563742060008201527f6f776e6572000000000000000000000000000000000000000000000000000000602082015250565b60006127f1602583611a25565b91506127fc82612795565b604082019050919050565b60006020820190508181036000830152612820816127e4565b9050919050565b7f4552433732313a207472616e7366657220746f20746865207a65726f2061646460008201527f7265737300000000000000000000000000000000000000000000000000000000602082015250565b6000612883602483611a25565b915061288e82612827565b604082019050919050565b600060208201905081810360008301526128b281612876565b9050919050565b60006128c482611ad5565b91506128cf83611ad5565b9250828210156128e2576128e16123b9565b5b828203905092915050565b7f4552433732313a206d696e7420746f20746865207a65726f2061646472657373600082015250565b6000612923602083611a25565b915061292e826128ed565b602082019050919050565b6000602082019050818103600083015261295281612916565b9050919050565b7f4552433732313a20746f6b656e20616c7265616479206d696e74656400000000600082015250565b600061298f601c83611a25565b915061299a82612959565b602082019050919050565b600060208201905081810360008301526129be81612982565b9050919050565b7f4552433732313a20617070726f766520746f2063616c6c657200000000000000600082015250565b60006129fb601983611a25565b9150612a06826129c5565b602082019050919050565b60006020820190508181036000830152612a2a816129ee565b9050919050565b7f4552433732313a207472616e7366657220746f206e6f6e20455243373231526560008201527f63656976657220696d706c656d656e7465720000000000000000000000000000602082015250565b6000612a8d603283611a25565b9150612a9882612a31565b604082019050919050565b60006020820190508181036000830152612abc81612a80565b9050919050565b7f4e487b7100000000000000000000000000000000000000000000000000000000600052601260045260246000fd5b6000612afd82611ad5565b9150612b0883611ad5565b925082612b1857612b17612ac3565b5b828204905092915050565b6000612b2e82611ad5565b9150612b3983611ad5565b925082612b4957612b48612ac3565b5b828206905092915050565b600081519050919050565b600082825260208201905092915050565b6000612b7b82612b54565b612b858185612b5f565b9350612b95818560208601611a36565b612b9e81611a69565b840191505092915050565b6000608082019050612bbe6000830187611b6a565b612bcb6020830186611b6a565b612bd86040830185611c2d565b8181036060830152612bea8184612b70565b905095945050505050565b600081519050612c048161198b565b92915050565b600060208284031215612c2057612c1f611955565b5b6000612c2e84828501612bf5565b9150509291505056fea2646970667358221220ddf7f0a7b2b8974d43a3385ae0278ad36b8f49c24d890109545bafa4c253455e64736f6c634300080d00335468616e6b7320666f7220796f757220636f6e747269627574696f6e2e204c6574277320737461727420766f74696e6721",
  "linkReferences": {},
  "deployedLinkReferences": {}
}