{
  "_format": "hh-sol-artifact-1",
  "contractName": "DummyIntegrator",
  "sourceName": "src/examples/dummies/DummyIntegrator.sol",
  "abi": [
    {
      "inputs": [
        {
          "internalType": "address",
          "name": "_votingContract",
          "type": "address"
        }
      ],
      "stateMutability": "nonpayable",
      "type": "constructor"
    },
    {
      "inputs": [],
      "name": "CounterError",
      "type": "error"
    },
    {
      "inputs": [
        {
          "internalType": "address",
          "name": "imposter",
          "type": "address"
        }
      ],
      "name": "IsNotImplementer",
      "type": "error"
    },
    {
      "inputs": [
        {
          "internalType": "bytes4",
          "name": "selector",
          "type": "bytes4"
        }
      ],
      "name": "IsNotVotableFunction",
      "type": "error"
    },
    {
      "inputs": [],
      "name": "deployer",
      "outputs": [
        {
          "internalType": "address",
          "name": "",
          "type": "address"
        }
      ],
      "stateMutability": "view",
      "type": "function"
    },
    {
      "inputs": [],
      "name": "fail",
      "outputs": [],
      "stateMutability": "nonpayable",
      "type": "function"
    },
    {
      "inputs": [],
      "name": "i",
      "outputs": [
        {
          "internalType": "uint256",
          "name": "",
          "type": "uint256"
        }
      ],
      "stateMutability": "view",
      "type": "function"
    },
    {
      "inputs": [],
      "name": "increment",
      "outputs": [],
      "stateMutability": "nonpayable",
      "type": "function"
    },
    {
      "inputs": [
        {
          "internalType": "uint256",
          "name": "a",
          "type": "uint256"
        }
      ],
      "name": "incrementBy",
      "outputs": [
        {
          "internalType": "bool",
          "name": "",
          "type": "bool"
        }
      ],
      "stateMutability": "nonpayable",
      "type": "function"
    },
    {
      "inputs": [],
      "name": "incrementWithReturn",
      "outputs": [
        {
          "internalType": "bool",
          "name": "",
          "type": "bool"
        }
      ],
      "stateMutability": "nonpayable",
      "type": "function"
    },
    {
      "inputs": [
        {
          "internalType": "uint256",
          "name": "_i",
          "type": "uint256"
        }
      ],
      "name": "reset",
      "outputs": [],
      "stateMutability": "nonpayable",
      "type": "function"
    },
    {
      "inputs": [
        {
          "internalType": "bytes",
          "name": "votingParams",
          "type": "bytes"
        },
        {
          "internalType": "bytes",
          "name": "callback",
          "type": "bytes"
        }
      ],
      "name": "start",
      "outputs": [],
      "stateMutability": "nonpayable",
      "type": "function"
    },
    {
      "inputs": [],
      "name": "votingContract",
      "outputs": [
        {
          "internalType": "address",
          "name": "",
          "type": "address"
        }
      ],
      "stateMutability": "view",
      "type": "function"
    }
  ],
  "bytecode": "0x60806040523480156200001157600080fd5b506040516200159738038062001597833981810160405281019062000037919062000485565b808181600360006101000a81548173ffffffffffffffffffffffffffffffffffffffff021916908373ffffffffffffffffffffffffffffffffffffffff16021790555033600460006101000a81548173ffffffffffffffffffffffffffffffffffffffff021916908373ffffffffffffffffffffffffffffffffffffffff16021790555080600260007fd09de08ab1a974aadf0a76e6f99a2ec20e431f22bbc101a6c3f718e53646ed8d7bffffffffffffffffffffffffffffffffffffffffffffffffffffffff19167bffffffffffffffffffffffffffffffffffffffffffffffffffffffff1916815260200190815260200160002060006101000a81548173ffffffffffffffffffffffffffffffffffffffff021916908373ffffffffffffffffffffffffffffffffffffffff16021790555080600260007f310bd74b1bcdaacf16f6a4234577ac20217c4dd976ab40b2e67577604855f5067bffffffffffffffffffffffffffffffffffffffffffffffffffffffff19167bffffffffffffffffffffffffffffffffffffffffffffffffffffffff1916815260200190815260200160002060006101000a81548173ffffffffffffffffffffffffffffffffffffffff021916908373ffffffffffffffffffffffffffffffffffffffff16021790555050508060026000631234567860e01b7bffffffffffffffffffffffffffffffffffffffffffffffffffffffff19167bffffffffffffffffffffffffffffffffffffffffffffffffffffffff1916815260200190815260200160002060006101000a81548173ffffffffffffffffffffffffffffffffffffffff021916908373ffffffffffffffffffffffffffffffffffffffff16021790555080600260007f873d1a025d5d0374c7225e2b5cdb8792ce7fb77d3b85697b916429fdf0b031937bffffffffffffffffffffffffffffffffffffffffffffffffffffffff19167bffffffffffffffffffffffffffffffffffffffffffffffffffffffff1916815260200190815260200160002060006101000a81548173ffffffffffffffffffffffffffffffffffffffff021916908373ffffffffffffffffffffffffffffffffffffffff16021790555080600260007fa9cc4718ffe9dba10dd48a35fb082f12c2b464e3ed48bbd4957e8a4f75e9f3547bffffffffffffffffffffffffffffffffffffffffffffffffffffffff19167bffffffffffffffffffffffffffffffffffffffffffffffffffffffff1916815260200190815260200160002060006101000a81548173ffffffffffffffffffffffffffffffffffffffff021916908373ffffffffffffffffffffffffffffffffffffffff16021790555050620004b7565b600080fd5b600073ffffffffffffffffffffffffffffffffffffffff82169050919050565b60006200044d8262000420565b9050919050565b6200045f8162000440565b81146200046b57600080fd5b50565b6000815190506200047f8162000454565b92915050565b6000602082840312156200049e576200049d6200041b565b5b6000620004ae848285016200046e565b91505092915050565b6110d080620004c76000396000f3fe608060405234801561001057600080fd5b50600436106100935760003560e01c8063a9cc471811610066578063a9cc47181461011e578063c1fc006a14610128578063d09de08a14610146578063d5f3948814610150578063e5aa3d581461016e57610093565b806303df179c146100985780631080156e146100c8578063310bd74b146100e4578063873d1a0214610100575b600080fd5b6100b260048036038101906100ad9190610919565b61018c565b6040516100bf9190610961565b60405180910390f35b6100e260048036038101906100dd9190610b22565b6101a7565b005b6100fe60048036038101906100f99190610919565b610479565b005b610108610526565b6040516101159190610961565b60405180910390f35b610126610540565b005b610130610592565b60405161013d9190610bdf565b60405180910390f35b61014e6105b8565b005b6101586105cf565b6040516101659190610bdf565b60405180910390f35b6101766105f5565b6040516101839190610c09565b60405180910390f35b60008160005461019c9190610c53565b600081905550919050565b6101b0836105fb565b600482829050101561026457600360009054906101000a900473ffffffffffffffffffffffffffffffffffffffff1673ffffffffffffffffffffffffffffffffffffffff16631080156e8484846040518463ffffffff1660e01b815260040161021b93929190610d5e565b6020604051808303816000875af115801561023a573d6000803e3d6000fd5b505050506040513d601f19601f8201168201806040525081019061025e9190610dac565b50610474565b6000828260009060049261027a93929190610de3565b906102859190610e62565b90506102908161068e565b6102d157806040517f35be8c290000000000000000000000000000000000000000000000000000000081526004016102c89190610ed0565b60405180910390fd5b600060026000837bffffffffffffffffffffffffffffffffffffffffffffffffffffffff19167bffffffffffffffffffffffffffffffffffffffffffffffffffffffff1916815260200190815260200160002060009054906101000a900473ffffffffffffffffffffffffffffffffffffffff1673ffffffffffffffffffffffffffffffffffffffff16631080156e8686866040518463ffffffff1660e01b815260040161038193929190610d5e565b6020604051808303816000875af11580156103a0573d6000803e3d6000fd5b505050506040513d601f19601f820116820180604052508101906103c49190610dac565b9050600061044360026000857bffffffffffffffffffffffffffffffffffffffffffffffffffffffff19167bffffffffffffffffffffffffffffffffffffffffffffffffffffffff1916815260200190815260200160002060009054906101000a900473ffffffffffffffffffffffffffffffffffffffff1683610738565b9050600180600083815260200190815260200160002060006101000a81548160ff0219169083151502179055505050505b505050565b60013373ffffffffffffffffffffffffffffffffffffffff16600460009054906101000a900473ffffffffffffffffffffffffffffffffffffffff1673ffffffffffffffffffffffffffffffffffffffff1614806104dc57506104db8161076b565b5b61051b576040517f08c379a000000000000000000000000000000000000000000000000000000000815260040161051290610f48565b60405180910390fd5b816000819055505050565b600060016000546105379190610c53565b60008190555090565b600080540361057b576040517fd6bef5cc00000000000000000000000000000000000000000000000000000000815260040160405180910390fd5b600160005461058a9190610c53565b600081905550565b600360009054906101000a900473ffffffffffffffffffffffffffffffffffffffff1681565b60016000546105c79190610c53565b600081905550565b600460009054906101000a900473ffffffffffffffffffffffffffffffffffffffff1681565b60005481565b600460009054906101000a900473ffffffffffffffffffffffffffffffffffffffff1673ffffffffffffffffffffffffffffffffffffffff163373ffffffffffffffffffffffffffffffffffffffff161461068b576040517f08c379a000000000000000000000000000000000000000000000000000000000815260040161068290610fb4565b60405180910390fd5b50565b60008073ffffffffffffffffffffffffffffffffffffffff1660026000847bffffffffffffffffffffffffffffffffffffffffffffffffffffffff19167bffffffffffffffffffffffffffffffffffffffffffffffffffffffff1916815260200190815260200160002060009054906101000a900473ffffffffffffffffffffffffffffffffffffffff1673ffffffffffffffffffffffffffffffffffffffff1614159050919050565b6000828260405160200161074d929190610fd4565b60405160208183030381529060405280519060200120905092915050565b6000803373ffffffffffffffffffffffffffffffffffffffff166002600080357fffffffff00000000000000000000000000000000000000000000000000000000167bffffffffffffffffffffffffffffffffffffffffffffffffffffffff19167bffffffffffffffffffffffffffffffffffffffffffffffffffffffff1916815260200190815260200160002060009054906101000a900473ffffffffffffffffffffffffffffffffffffffff1673ffffffffffffffffffffffffffffffffffffffff1614905082158061083e575080155b1561084c57809150506108ca565b6024600036905010156108635760009150506108ca565b60008036602060003690506108789190610ffd565b9060003690509261088b93929190610de3565b90610896919061103b565b60001c9050600160006108a93384610738565b815260200190815260200160002060009054906101000a900460ff16925050505b919050565b6000604051905090565b600080fd5b600080fd5b6000819050919050565b6108f6816108e3565b811461090157600080fd5b50565b600081359050610913816108ed565b92915050565b60006020828403121561092f5761092e6108d9565b5b600061093d84828501610904565b91505092915050565b60008115159050919050565b61095b81610946565b82525050565b60006020820190506109766000830184610952565b92915050565b600080fd5b600080fd5b6000601f19601f8301169050919050565b7f4e487b7100000000000000000000000000000000000000000000000000000000600052604160045260246000fd5b6109cf82610986565b810181811067ffffffffffffffff821117156109ee576109ed610997565b5b80604052505050565b6000610a016108cf565b9050610a0d82826109c6565b919050565b600067ffffffffffffffff821115610a2d57610a2c610997565b5b610a3682610986565b9050602081019050919050565b82818337600083830152505050565b6000610a65610a6084610a12565b6109f7565b905082815260208101848484011115610a8157610a80610981565b5b610a8c848285610a43565b509392505050565b600082601f830112610aa957610aa861097c565b5b8135610ab9848260208601610a52565b91505092915050565b600080fd5b600080fd5b60008083601f840112610ae257610ae161097c565b5b8235905067ffffffffffffffff811115610aff57610afe610ac2565b5b602083019150836001820283011115610b1b57610b1a610ac7565b5b9250929050565b600080600060408486031215610b3b57610b3a6108d9565b5b600084013567ffffffffffffffff811115610b5957610b586108de565b5b610b6586828701610a94565b935050602084013567ffffffffffffffff811115610b8657610b856108de565b5b610b9286828701610acc565b92509250509250925092565b600073ffffffffffffffffffffffffffffffffffffffff82169050919050565b6000610bc982610b9e565b9050919050565b610bd981610bbe565b82525050565b6000602082019050610bf46000830184610bd0565b92915050565b610c03816108e3565b82525050565b6000602082019050610c1e6000830184610bfa565b92915050565b7f4e487b7100000000000000000000000000000000000000000000000000000000600052601160045260246000fd5b6000610c5e826108e3565b9150610c69836108e3565b9250827fffffffffffffffffffffffffffffffffffffffffffffffffffffffffffffffff03821115610c9e57610c9d610c24565b5b828201905092915050565b600081519050919050565b600082825260208201905092915050565b60005b83811015610ce3578082015181840152602081019050610cc8565b83811115610cf2576000848401525b50505050565b6000610d0382610ca9565b610d0d8185610cb4565b9350610d1d818560208601610cc5565b610d2681610986565b840191505092915050565b6000610d3d8385610cb4565b9350610d4a838584610a43565b610d5383610986565b840190509392505050565b60006040820190508181036000830152610d788186610cf8565b90508181036020830152610d8d818486610d31565b9050949350505050565b600081519050610da6816108ed565b92915050565b600060208284031215610dc257610dc16108d9565b5b6000610dd084828501610d97565b91505092915050565b600080fd5b600080fd5b60008085851115610df757610df6610dd9565b5b83861115610e0857610e07610dde565b5b6001850283019150848603905094509492505050565b600082905092915050565b60007fffffffff0000000000000000000000000000000000000000000000000000000082169050919050565b600082821b905092915050565b6000610e6e8383610e1e565b82610e798135610e29565b92506004821015610eb957610eb47fffffffff0000000000000000000000000000000000000000000000000000000083600403600802610e55565b831692505b505092915050565b610eca81610e29565b82525050565b6000602082019050610ee56000830184610ec1565b92915050565b600082825260208201905092915050565b7f4f6e6c79206465706c6f796572206f7220627920766f74650000000000000000600082015250565b6000610f32601883610eeb565b9150610f3d82610efc565b602082019050919050565b60006020820190508181036000830152610f6181610f25565b9050919050565b7f4f6e6c79206465706c6f79657200000000000000000000000000000000000000600082015250565b6000610f9e600d83610eeb565b9150610fa982610f68565b602082019050919050565b60006020820190508181036000830152610fcd81610f91565b9050919050565b6000604082019050610fe96000830185610bd0565b610ff66020830184610bfa565b9392505050565b6000611008826108e3565b9150611013836108e3565b92508282101561102657611025610c24565b5b828203905092915050565b6000819050919050565b60006110478383610e1e565b826110528135611031565b925060208210156110925761108d7fffffffffffffffffffffffffffffffffffffffffffffffffffffffffffffffff83602003600802610e55565b831692505b50509291505056fea2646970667358221220e9e6ee939aa6105e416aef1d2085ad24ec6be95b8440830a03a1f9c51f75b31e64736f6c634300080d0033",
  "linkReferences": {},
  "deployedLinkReferences": {}
}